{"contracts/Factory_multisig.sol":{"MultiSigWalletFactory":{"abi":[{"constant":true,"inputs":[],"name":"workerInfo","outputs":[{"name":"","type":"address"}],"payable":false,"stateMutability":"view","type":"function"},{"constant":true,"inputs":[{"name":"","type":"uint256"}],"name":"jobs","outputs":[{"name":"title","type":"string"},{"name":"description","type":"string"},{"name":"milestones","type":"string"},{"name":"payment","type":"uint256"},{"name":"employer","type":"address"},{"name":"multisigWallet","type":"address"},{"name":"isActive","type":"bool"}],"payable":false,"stateMutability":"view","type":"function"},{"constant":false,"inputs":[{"name":"jobId","type":"uint256"},{"name":"_skillset","type":"string"},{"name":"_resume","type":"string"}],"name":"applyForJob","outputs":[],"payable":false,"stateMutability":"nonpayable","type":"function"},{"constant":true,"inputs":[{"name":"","type":"address"}],"name":"isInstantiation","outputs":[{"name":"","type":"bool"}],"payable":false,"stateMutability":"view","type":"function"},{"constant":false,"inputs":[],"name":"approveTransaction","outputs":[],"payable":false,"stateMutability":"nonpayable","type":"function"},{"constant":false,"inputs":[{"name":"_owners","type":"address[]"},{"name":"_required","type":"uint256"},{"name":"_title","type":"string"},{"name":"_description","type":"string"},{"name":"_milestones","type":"string"},{"name":"_payment","type":"uint256"}],"name":"createJob","outputs":[{"name":"wallet","type":"address"},{"name":"jobId","type":"uint256"}],"payable":false,"stateMutability":"nonpayable","type":"function"},{"constant":true,"inputs":[],"name":"security","outputs":[{"name":"","type":"address"}],"payable":false,"stateMutability":"view","type":"function"},{"constant":true,"inputs":[{"name":"","type":"uint256"}],"name":"allInstantiations","outputs":[{"name":"","type":"address"}],"payable":false,"stateMutability":"view","type":"function"},{"constant":true,"inputs":[{"name":"jobId","type":"uint256"}],"name":"getApplicants","outputs":[{"components":[{"name":"applicantAddress","type":"address"},{"name":"skillset","type":"string"},{"name":"resume","type":"string"},{"name":"isHired","type":"bool"}],"name":"","type":"tuple[]"}],"payable":false,"stateMutability":"view","type":"function"},{"constant":false,"inputs":[{"name":"_skillset","type":"string"}],"name":"registerWorker","outputs":[],"payable":false,"stateMutability":"nonpayable","type":"function"},{"constant":true,"inputs":[{"name":"index","type":"uint256"}],"name":"getInstantiation","outputs":[{"name":"","type":"address"}],"payable":false,"stateMutability":"view","type":"function"},{"constant":true,"inputs":[],"name":"getAllInstantiations","outputs":[{"name":"","type":"address[]"}],"payable":false,"stateMutability":"view","type":"function"},{"constant":true,"inputs":[{"name":"jobId","type":"uint256"}],"name":"getJob","outputs":[{"name":"title","type":"string"},{"name":"description","type":"string"},{"name":"milestones","type":"string"},{"name":"payment","type":"uint256"}],"payable":false,"stateMutability":"view","type":"function"},{"constant":true,"inputs":[{"name":"_workerAddress","type":"address"}],"name":"getWorker","outputs":[{"name":"","type":"address"},{"name":"","type":"string"},{"name":"","type":"bool"}],"payable":false,"stateMutability":"view","type":"function"},{"constant":true,"inputs":[],"name":"getInstantiationCount","outputs":[{"name":"","type":"uint256"}],"payable":false,"stateMutability":"view","type":"function"},{"constant":true,"inputs":[{"name":"","type":"uint256"},{"name":"","type":"uint256"}],"name":"jobApplications","outputs":[{"name":"applicantAddress","type":"address"},{"name":"skillset","type":"string"},{"name":"resume","type":"string"},{"name":"isHired","type":"bool"}],"payable":false,"stateMutability":"view","type":"function"},{"constant":true,"inputs":[{"name":"","type":"address"},{"name":"","type":"uint256"}],"name":"employerJobs","outputs":[{"name":"","type":"uint256"}],"payable":false,"stateMutability":"view","type":"function"},{"inputs":[{"name":"_securityContract","type":"address"}],"payable":false,"stateMutability":"nonpayable","type":"constructor"},{"anonymous":false,"inputs":[{"indexed":true,"name":"jobId","type":"uint256"},{"indexed":true,"name":"employer","type":"address"},{"indexed":false,"name":"multisigWallet","type":"address"},{"indexed":false,"name":"title","type":"string"}],"name":"JobCreated","type":"event"},{"anonymous":false,"inputs":[{"indexed":true,"name":"jobId","type":"uint256"},{"indexed":true,"name":"applicant","type":"address"},{"indexed":false,"name":"skillset","type":"string"},{"indexed":false,"name":"resume","type":"string"}],"name":"AppliedForJob","type":"event"},{"anonymous":false,"inputs":[{"indexed":false,"name":"sender","type":"address"},{"indexed":false,"name":"instantiation","type":"address"}],"name":"ContractInstantiation","type":"event"}],"evm":{"bytecode":{"linkReferences":{},"object":"60806040523480156200001157600080fd5b5060405160208062007fb4833981018060405262000033919081019062000118565b80806000806101000a81548173ffffffffffffffffffffffffffffffffffffffff021916908373ffffffffffffffffffffffffffffffffffffffff160217905550503062000080620000f1565b6200008c919062000155565b604051809103906000f080158015620000a9573d6000803e3d6000fd5b50600460006101000a81548173ffffffffffffffffffffffffffffffffffffffff021916908373ffffffffffffffffffffffffffffffffffffffff16021790555050620001b2565b604051610e9f806200711583390190565b600062000110825162000192565b905092915050565b6000602082840312156200012b57600080fd5b60006200013b8482850162000102565b91505092915050565b6200014f8162000172565b82525050565b60006020820190506200016c600083018462000144565b92915050565b600073ffffffffffffffffffffffffffffffffffffffff82169050919050565b600073ffffffffffffffffffffffffffffffffffffffff82169050919050565b616f5380620001c26000396000f30060806040526004361062000103576000357c0100000000000000000000000000000000000000000000000000000000900463ffffffff1680630800dee71462000108578063180aedf3146200013857806323d5a79514620001825780632f4f331614620001b057806333b7a67414620001f45780633cf23609146200020e57806354879918146200025357806361aa5b4414620002835780636cf5d86e14620002c757806380c8f4fa146200030b578063ac47147a1462000339578063b387406d146200037d578063bf22c45714620003ad578063c011b1c314620003f4578063d3e02c01146200043a578063ead39a11146200046a578063fc736cde14620004b1575b600080fd5b3480156200011557600080fd5b5062000120620004f5565b6040516200012f919062002470565b60405180910390f35b3480156200014557600080fd5b506200016460048036036200015e919081019062001eba565b6200051b565b6040516200017997969594939291906200254e565b60405180910390f35b3480156200018f57600080fd5b50620001ae6004803603620001a8919081019062001ee6565b6200078e565b005b348015620001bd57600080fd5b50620001dc6004803603620001d6919081019062001c73565b62000961565b604051620001eb919062002436565b60405180910390f35b3480156200020157600080fd5b506200020c62000981565b005b3480156200021b57600080fd5b506200023a600480360362000234919081019062001d4f565b62000a96565b6040516200024a9291906200238d565b60405180910390f35b3480156200026057600080fd5b506200026b62000d65565b6040516200027a919062002453565b60405180910390f35b3480156200029057600080fd5b50620002af6004803603620002a9919081019062001eba565b62000d8b565b604051620002be919062002270565b60405180910390f35b348015620002d457600080fd5b50620002f36004803603620002ed919081019062001eba565b62000dca565b60405162000302919062002412565b60405180910390f35b3480156200031857600080fd5b5062000337600480360362000331919081019062001e75565b62001048565b005b3480156200034657600080fd5b506200036560048036036200035f919081019062001eba565b620010f8565b60405162000374919062002270565b60405180910390f35b3480156200038a57600080fd5b506200039562001188565b604051620003a49190620023ba565b60405180910390f35b348015620003ba57600080fd5b50620003d96004803603620003d3919081019062001eba565b62001218565b604051620003eb9493929190620024ec565b60405180910390f35b3480156200040157600080fd5b506200042060048036036200041a919081019062001c73565b62001591565b6040516200043193929190620022ee565b60405180910390f35b3480156200044757600080fd5b506200045262001678565b60405162000461919062002646565b60405180910390f35b3480156200047757600080fd5b5062000496600480360362000490919081019062001f6e565b62001685565b604051620004a8949392919062002332565b60405180910390f35b348015620004be57600080fd5b50620004dd6004803603620004d7919081019062001d0e565b62001837565b604051620004ec919062002646565b60405180910390f35b600460009054906101000a900473ffffffffffffffffffffffffffffffffffffffff1681565b6005818154811015156200052b57fe5b9060005260206000209060060201600091509050806000018054600181600116156101000203166002900480601f016020809104026020016040519081016040528092919081815260200182805460018160011615610100020316600290048015620005db5780601f10620005af57610100808354040283529160200191620005db565b820191906000526020600020905b815481529060010190602001808311620005bd57829003601f168201915b505050505090806001018054600181600116156101000203166002900480601f0160208091040260200160405190810160405280929190818152602001828054600181600116156101000203166002900480156200067d5780601f1062000651576101008083540402835291602001916200067d565b820191906000526020600020905b8154815290600101906020018083116200065f57829003601f168201915b505050505090806002018054600181600116156101000203166002900480601f0160208091040260200160405190810160405280929190818152602001828054600181600116156101000203166002900480156200071f5780601f10620006f3576101008083540402835291602001916200071f565b820191906000526020600020905b8154815290600101906020018083116200070157829003601f168201915b5050505050908060030154908060040160009054906101000a900473ffffffffffffffffffffffffffffffffffffffff16908060050160009054906101000a900473ffffffffffffffffffffffffffffffffffffffff16908060050160149054906101000a900460ff16905087565b6200079862001963565b60058054905084101515620007e4576040517f08c379a0000000000000000000000000000000000000000000000000000000008152600401620007db90620025e0565b60405180910390fd5b6080604051908101604052803373ffffffffffffffffffffffffffffffffffffffff16815260200184815260200183815260200160001515815250905060076000858152602001908152602001600020819080600181540180825580915050906001820390600052602060002090600402016000909192909190915060008201518160000160006101000a81548173ffffffffffffffffffffffffffffffffffffffff021916908373ffffffffffffffffffffffffffffffffffffffff1602179055506020820151816001019080519060200190620008c5929190620019a4565b506040820151816002019080519060200190620008e4929190620019a4565b5060608201518160030160006101000a81548160ff0219169083151502179055505050503373ffffffffffffffffffffffffffffffffffffffff16847f26e7ad599a4714f10e3f9c1984037509e38bb55237a72f48e7affaa058230ab7858560405162000953929190620024b1565b60405180910390a350505050565b60016020528060005260406000206000915054906101000a900460ff1681565b600360009054906101000a900473ffffffffffffffffffffffffffffffffffffffff1673ffffffffffffffffffffffffffffffffffffffff1663fe9fbb80336040518263ffffffff167c0100000000000000000000000000000000000000000000000000000000028152600401620009fa919062002270565b602060405180830381600087803b15801562000a1557600080fd5b505af115801562000a2a573d6000803e3d6000fd5b505050506040513d601f19601f8201168201806040525062000a50919081019062001e49565b151562000a94576040517f08c379a000000000000000000000000000000000000000000000000000000000815260040162000a8b9062002624565b60405180910390fd5b565b60008062000aa362001a2b565b888862000aaf62001a97565b62000abc929190620023de565b604051809103906000f08015801562000ad9573d6000803e3d6000fd5b50925062000ae78362001868565b60e0604051908101604052808881526020018781526020018681526020018581526020013373ffffffffffffffffffffffffffffffffffffffff1681526020018473ffffffffffffffffffffffffffffffffffffffff16815260200160011515815250905060058190806001815401808255809150509060018203906000526020600020906006020160009091929091909150600082015181600001908051906020019062000b98929190620019a4565b50602082015181600101908051906020019062000bb7929190620019a4565b50604082015181600201908051906020019062000bd6929190620019a4565b506060820151816003015560808201518160040160006101000a81548173ffffffffffffffffffffffffffffffffffffffff021916908373ffffffffffffffffffffffffffffffffffffffff16021790555060a08201518160050160006101000a81548173ffffffffffffffffffffffffffffffffffffffff021916908373ffffffffffffffffffffffffffffffffffffffff16021790555060c08201518160050160146101000a81548160ff0219169083151502179055505050506001600580549050039150600660003373ffffffffffffffffffffffffffffffffffffffff1673ffffffffffffffffffffffffffffffffffffffff1681526020019081526020016000208290806001815401808255809150509060018203906000526020600020016000909192909190915055503373ffffffffffffffffffffffffffffffffffffffff16827f80db542af6c20f3e65ef1491b0e21348d7e0886188a155c44e2fb98be44c232b858a60405162000d51929190620022ba565b60405180910390a350965096945050505050565b600360009054906101000a900473ffffffffffffffffffffffffffffffffffffffff1681565b60028181548110151562000d9b57fe5b906000526020600020016000915054906101000a900473ffffffffffffffffffffffffffffffffffffffff1681565b60606005805490508210151562000e18576040517f08c379a000000000000000000000000000000000000000000000000000000000815260040162000e0f90620025e0565b60405180910390fd5b60076000838152602001908152602001600020805480602002602001604051908101604052809291908181526020016000905b828210156200103d5783829060005260206000209060040201608060405190810160405290816000820160009054906101000a900473ffffffffffffffffffffffffffffffffffffffff1673ffffffffffffffffffffffffffffffffffffffff1673ffffffffffffffffffffffffffffffffffffffff168152602001600182018054600181600116156101000203166002900480601f01602080910402602001604051908101604052809291908181526020018280546001816001161561010002031660029004801562000f635780601f1062000f375761010080835404028352916020019162000f63565b820191906000526020600020905b81548152906001019060200180831162000f4557829003601f168201915b50505050508152602001600282018054600181600116156101000203166002900480601f016020809104026020016040519081016040528092919081815260200182805460018160011615610100020316600290048015620010095780601f1062000fdd5761010080835404028352916020019162001009565b820191906000526020600020905b81548152906001019060200180831162000feb57829003601f168201915b505050505081526020016003820160009054906101000a900460ff1615151515815250508152602001906001019062000e4b565b505050509050919050565b600460009054906101000a900473ffffffffffffffffffffffffffffffffffffffff1673ffffffffffffffffffffffffffffffffffffffff166380c8f4fa826040518263ffffffff167c0100000000000000000000000000000000000000000000000000000000028152600401620010c191906200248d565b600060405180830381600087803b158015620010dc57600080fd5b505af1158015620010f1573d6000803e3d6000fd5b5050505050565b60006002805490508210151562001146576040517f08c379a00000000000000000000000000000000000000000000000000000000081526004016200113d9062002602565b60405180910390fd5b6002828154811015156200115657fe5b9060005260206000200160009054906101000a900473ffffffffffffffffffffffffffffffffffffffff169050919050565b606060028054806020026020016040519081016040528092919081815260200182805480156200120e57602002820191906000526020600020905b8160009054906101000a900473ffffffffffffffffffffffffffffffffffffffff1673ffffffffffffffffffffffffffffffffffffffff1681526020019060010190808311620011c3575b5050505050905090565b606080606060006200122962001a2b565b6005805490508610151562001275576040517f08c379a00000000000000000000000000000000000000000000000000000000081526004016200126c90620025e0565b60405180910390fd5b6005868154811015156200128557fe5b906000526020600020906006020160e06040519081016040529081600082018054600181600116156101000203166002900480601f0160208091040260200160405190810160405280929190818152602001828054600181600116156101000203166002900480156200133c5780601f1062001310576101008083540402835291602001916200133c565b820191906000526020600020905b8154815290600101906020018083116200131e57829003601f168201915b50505050508152602001600182018054600181600116156101000203166002900480601f016020809104026020016040519081016040528092919081815260200182805460018160011615610100020316600290048015620013e25780601f10620013b657610100808354040283529160200191620013e2565b820191906000526020600020905b815481529060010190602001808311620013c457829003601f168201915b50505050508152602001600282018054600181600116156101000203166002900480601f016020809104026020016040519081016040528092919081815260200182805460018160011615610100020316600290048015620014885780601f106200145c5761010080835404028352916020019162001488565b820191906000526020600020905b8154815290600101906020018083116200146a57829003601f168201915b50505050508152602001600382015481526020016004820160009054906101000a900473ffffffffffffffffffffffffffffffffffffffff1673ffffffffffffffffffffffffffffffffffffffff1673ffffffffffffffffffffffffffffffffffffffff1681526020016005820160009054906101000a900473ffffffffffffffffffffffffffffffffffffffff1673ffffffffffffffffffffffffffffffffffffffff1673ffffffffffffffffffffffffffffffffffffffff1681526020016005820160149054906101000a900460ff161515151581525050905080600001518160200151826040015183606001518393508292508191509450945094509450509193509193565b600060606000600460009054906101000a900473ffffffffffffffffffffffffffffffffffffffff1673ffffffffffffffffffffffffffffffffffffffff1663c011b1c3856040518263ffffffff167c010000000000000000000000000000000000000000000000000000000002815260040162001610919062002270565b600060405180830381600087803b1580156200162b57600080fd5b505af115801562001640573d6000803e3d6000fd5b505050506040513d6000823e3d601f19601f820116820180604052506200166b919081019062001c9f565b9250925092509193909250565b6000600280549050905090565b600760205281600052604060002081815481101515620016a157fe5b9060005260206000209060040201600091509150508060000160009054906101000a900473ffffffffffffffffffffffffffffffffffffffff1690806001018054600181600116156101000203166002900480601f016020809104026020016040519081016040528092919081815260200182805460018160011615610100020316600290048015620017785780601f106200174c5761010080835404028352916020019162001778565b820191906000526020600020905b8154815290600101906020018083116200175a57829003601f168201915b505050505090806002018054600181600116156101000203166002900480601f0160208091040260200160405190810160405280929190818152602001828054600181600116156101000203166002900480156200181a5780601f10620017ee576101008083540402835291602001916200181a565b820191906000526020600020905b815481529060010190602001808311620017fc57829003601f168201915b5050505050908060030160009054906101000a900460ff16905084565b6006602052816000526040600020818154811015156200185357fe5b90600052602060002001600091509150505481565b60018060008373ffffffffffffffffffffffffffffffffffffffff1673ffffffffffffffffffffffffffffffffffffffff16815260200190815260200160002060006101000a81548160ff02191690831515021790555060028190806001815401808255809150509060018203906000526020600020016000909192909190916101000a81548173ffffffffffffffffffffffffffffffffffffffff021916908373ffffffffffffffffffffffffffffffffffffffff160217905550507f4fb057ad4a26ed17a57957fa69c306f11987596069b89521c511fc9a894e61613382604051620019589291906200228d565b60405180910390a150565b608060405190810160405280600073ffffffffffffffffffffffffffffffffffffffff16815260200160608152602001606081526020016000151581525090565b828054600181600116156101000203166002900490600052602060002090601f016020900481019282601f10620019e757805160ff191683800117855562001a18565b8280016001018555821562001a18579182015b8281111562001a17578251825591602001919060010190620019fa565b5b50905062001a27919062001aa8565b5090565b60e06040519081016040528060608152602001606081526020016060815260200160008152602001600073ffffffffffffffffffffffffffffffffffffffff168152602001600073ffffffffffffffffffffffffffffffffffffffff1681526020016000151581525090565b6040516146e8806200283283390190565b62001acd91905b8082111562001ac957600081600090555060010162001aaf565b5090565b90565b600062001ade82356200277d565b905092915050565b600062001af482516200277d565b905092915050565b600082601f830112151562001b1057600080fd5b813562001b2762001b218262002691565b62002663565b9150818183526020840193506020810190508385602084028201111562001b4d57600080fd5b60005b8381101562001b81578162001b66888262001ad0565b84526020840193506020830192505060018101905062001b50565b5050505092915050565b600062001b9982516200279d565b905092915050565b600082601f830112151562001bb557600080fd5b813562001bcc62001bc682620026ba565b62002663565b9150808252602083016020830185838301111562001be957600080fd5b62001bf6838284620027db565b50505092915050565b600082601f830112151562001c1357600080fd5b815162001c2a62001c2482620026ba565b62002663565b9150808252602083016020830185838301111562001c4757600080fd5b62001c54838284620027ea565b50505092915050565b600062001c6b8235620027a9565b905092915050565b60006020828403121562001c8657600080fd5b600062001c968482850162001ad0565b91505092915050565b60008060006060848603121562001cb557600080fd5b600062001cc58682870162001ae6565b935050602084015167ffffffffffffffff81111562001ce357600080fd5b62001cf18682870162001bff565b925050604062001d048682870162001b8b565b9150509250925092565b6000806040838503121562001d2257600080fd5b600062001d328582860162001ad0565b925050602062001d458582860162001c5d565b9150509250929050565b60008060008060008060c0878903121562001d6957600080fd5b600087013567ffffffffffffffff81111562001d8457600080fd5b62001d9289828a0162001afc565b965050602062001da589828a0162001c5d565b955050604087013567ffffffffffffffff81111562001dc357600080fd5b62001dd189828a0162001ba1565b945050606087013567ffffffffffffffff81111562001def57600080fd5b62001dfd89828a0162001ba1565b935050608087013567ffffffffffffffff81111562001e1b57600080fd5b62001e2989828a0162001ba1565b92505060a062001e3c89828a0162001c5d565b9150509295509295509295565b60006020828403121562001e5c57600080fd5b600062001e6c8482850162001b8b565b91505092915050565b60006020828403121562001e8857600080fd5b600082013567ffffffffffffffff81111562001ea357600080fd5b62001eb18482850162001ba1565b91505092915050565b60006020828403121562001ecd57600080fd5b600062001edd8482850162001c5d565b91505092915050565b60008060006060848603121562001efc57600080fd5b600062001f0c8682870162001c5d565b935050602084013567ffffffffffffffff81111562001f2a57600080fd5b62001f388682870162001ba1565b925050604084013567ffffffffffffffff81111562001f5657600080fd5b62001f648682870162001ba1565b9150509250925092565b6000806040838503121562001f8257600080fd5b600062001f928582860162001c5d565b925050602062001fa58582860162001c5d565b9150509250929050565b62001fba8162002747565b82525050565b600062001fcd8262002701565b80845260208401935062001fe183620026e7565b60005b82811015620020195762001ffa86835162001faf565b62002005826200272d565b915060208601955060018101905062001fe4565b50849250505092915050565b600062002032826200270c565b808452602084019350836020820285016200204d85620026f4565b60005b848110156200208c5783830388526200206b838351620021ed565b925062002078826200273a565b915060208801975060018101905062002050565b508196508694505050505092915050565b620020a88162002767565b82525050565b620020b981620027b3565b82525050565b620020ca81620027c7565b82525050565b6000620020dd8262002722565b808452620020f3816020860160208601620027ea565b620020fe8162002820565b602085010191505092915050565b6000620021198262002717565b8084526200212f816020860160208601620027ea565b6200213a8162002820565b602085010191505092915050565b6000601282527f4a6f6220646f6573206e6f7420657869737400000000000000000000000000006020830152604082019050919050565b6000601382527f496e646578206f7574206f6620626f756e6473000000000000000000000000006020830152604082019050919050565b6000600e82527f4e6f7420617574686f72697a65640000000000000000000000000000000000006020830152604082019050919050565b600060808301600083015162002207600086018262001faf565b50602083015184820360208601526200222182826200210c565b915050604083015184820360408601526200223d82826200210c565b91505060608301516200225460608601826200209d565b508091505092915050565b6200226a8162002773565b82525050565b600060208201905062002287600083018462001faf565b92915050565b6000604082019050620022a4600083018562001faf565b620022b3602083018462001faf565b9392505050565b6000604082019050620022d1600083018562001faf565b8181036020830152620022e58184620020d0565b90509392505050565b600060608201905062002305600083018662001faf565b8181036020830152620023198185620020d0565b90506200232a60408301846200209d565b949350505050565b600060808201905062002349600083018762001faf565b81810360208301526200235d81866200210c565b905081810360408301526200237381856200210c565b90506200238460608301846200209d565b95945050505050565b6000604082019050620023a4600083018562001faf565b620023b360208301846200225f565b9392505050565b60006020820190508181036000830152620023d6818462001fc0565b905092915050565b60006040820190508181036000830152620023fa818562001fc0565b90506200240b60208301846200225f565b9392505050565b600060208201905081810360008301526200242e818462002025565b905092915050565b60006020820190506200244d60008301846200209d565b92915050565b60006020820190506200246a6000830184620020ae565b92915050565b6000602082019050620024876000830184620020bf565b92915050565b60006020820190508181036000830152620024a98184620020d0565b905092915050565b60006040820190508181036000830152620024cd8185620020d0565b90508181036020830152620024e38184620020d0565b90509392505050565b60006080820190508181036000830152620025088187620020d0565b905081810360208301526200251e8186620020d0565b90508181036040830152620025348185620020d0565b90506200254560608301846200225f565b95945050505050565b600060e08201905081810360008301526200256a818a6200210c565b905081810360208301526200258081896200210c565b905081810360408301526200259681886200210c565b9050620025a760608301876200225f565b620025b6608083018662001faf565b620025c560a083018562001faf565b620025d460c08301846200209d565b98975050505050505050565b60006020820190508181036000830152620025fb8162002148565b9050919050565b600060208201905081810360008301526200261d816200217f565b9050919050565b600060208201905081810360008301526200263f81620021b6565b9050919050565b60006020820190506200265d60008301846200225f565b92915050565b6000604051905081810181811067ffffffffffffffff821117156200268757600080fd5b8060405250919050565b600067ffffffffffffffff821115620026a957600080fd5b602082029050602081019050919050565b600067ffffffffffffffff821115620026d257600080fd5b601f19601f8301169050602081019050919050565b6000602082019050919050565b6000602082019050919050565b600081519050919050565b600081519050919050565b600081519050919050565b600081519050919050565b6000602082019050919050565b6000602082019050919050565b600073ffffffffffffffffffffffffffffffffffffffff82169050919050565b60008115159050919050565b6000819050919050565b600073ffffffffffffffffffffffffffffffffffffffff82169050919050565b60008115159050919050565b6000819050919050565b6000620027c08262002747565b9050919050565b6000620027d48262002747565b9050919050565b82818337600083830152505050565b60005b838110156200280a578082015181840152602081019050620027ed565b838111156200281a576000848401525b50505050565b6000601f19601f8301169050919050560060806040526000600c553480156200001657600080fd5b50604051620046e8380380620046e883398101806040528101908080518201929190602001805190602001909291905050506000825182603282111580156200005f5750818111155b80156200006d575060008114155b80156200007b575060008214155b15156200008757600080fd5b600092505b8451831015620001c257600360008685815181101515620000a957fe5b9060200190602002015173ffffffffffffffffffffffffffffffffffffffff1673ffffffffffffffffffffffffffffffffffffffff16815260200190815260200160002060009054906101000a900460ff16158015620001385750600085848151811015156200011557fe5b9060200190602002015173ffffffffffffffffffffffffffffffffffffffff1614155b15156200014457600080fd5b60016003600087868151811015156200015957fe5b9060200190602002015173ffffffffffffffffffffffffffffffffffffffff1673ffffffffffffffffffffffffffffffffffffffff16815260200190815260200160002060006101000a81548160ff02191690831515021790555082806001019350506200008c565b8460049080519060200190620001da929190620001ed565b50836005819055505050505050620002c2565b82805482825590600052602060002090810192821562000269579160200282015b82811115620002685782518260006101000a81548173ffffffffffffffffffffffffffffffffffffffff021916908373ffffffffffffffffffffffffffffffffffffffff160217905550916020019190600101906200020e565b5b5090506200027891906200027c565b5090565b620002bf91905b80821115620002bb57600081816101000a81549073ffffffffffffffffffffffffffffffffffffffff02191690555060010162000283565b5090565b90565b61441680620002d26000396000f3006080604052600436106101c2576000357c0100000000000000000000000000000000000000000000000000000000900463ffffffff168063025e7c27146101c7578063173825d914610234578063180aedf3146102775780631d43b6531461034257806320913da5146103a357806320ea8d86146103da57806321ed0f64146104075780632f54bf6e146104345780633411c81c1461048f5780633b3875b0146104f45780633efaea1f146105ac5780634c5d8a0f1461061f578063547415251461064a57806354879918146106995780636b832070146106f05780637065cb481461080f578063784547a7146108525780638b51d13f146108975780639047bf58146108d857806393894630146109035780639ace38c2146109a9578063a0e67e2b14610a94578063a1c0d32f14610b00578063a8abe69a14610b2d578063a9c4847314610bd1578063b5dc40c314610c44578063b77bf60014610cc6578063ba51a6df14610cf1578063c01a8c8414610d1e578063c3b2d07a14610d4b578063d74f8edd14610f11578063dc8452cd14610f3c578063e20056e614610f67578063ee22610b14610fca578063f170e58c14610ff7578063f475b5df14611120575b600080fd5b3480156101d357600080fd5b506101f2600480360381019080803590602001909291905050506111c6565b604051808273ffffffffffffffffffffffffffffffffffffffff1673ffffffffffffffffffffffffffffffffffffffff16815260200191505060405180910390f35b34801561024057600080fd5b50610275600480360381019080803573ffffffffffffffffffffffffffffffffffffffff169060200190929190505050611204565b005b34801561028357600080fd5b506102a26004803603810190808035906020019092919050505061149d565b604051808873ffffffffffffffffffffffffffffffffffffffff1673ffffffffffffffffffffffffffffffffffffffff1681526020018773ffffffffffffffffffffffffffffffffffffffff1673ffffffffffffffffffffffffffffffffffffffff168152602001868152602001858152602001848152602001831515151581526020018215151515815260200197505050505050505060405180910390f35b34801561034e57600080fd5b5061038d600480360381019080803573ffffffffffffffffffffffffffffffffffffffff16906020019092919080359060200190929190505050611539565b6040518082815260200191505060405180910390f35b3480156103af57600080fd5b506103d8600480360381019080803590602001909291908035906020019092919050505061158c565b005b3480156103e657600080fd5b50610405600480360381019080803590602001909291905050506119ab565b005b34801561041357600080fd5b5061043260048036038101908080359060200190929190505050611b54565b005b34801561044057600080fd5b50610475600480360381019080803573ffffffffffffffffffffffffffffffffffffffff169060200190929190505050611d1c565b604051808215151515815260200191505060405180910390f35b34801561049b57600080fd5b506104da60048036038101908080359060200190929190803573ffffffffffffffffffffffffffffffffffffffff169060200190929190505050611d3c565b604051808215151515815260200191505060405180910390f35b34801561050057600080fd5b50610596600480360381019080803573ffffffffffffffffffffffffffffffffffffffff16906020019092919080359060200190929190803590602001908201803590602001908080602002602001604051908101604052809392919081815260200183836020028082843782019150505050505091929192908035906020019092919080359060200190929190505050611d6b565b6040518082815260200191505060405180910390f35b3480156105b857600080fd5b5061061d60048036038101908080359060200190929190803590602001908201803590602001908080601f01602080910402602001604051908101604052809392919081815260200183838082843782019150505050505091929192905050506120b6565b005b34801561062b57600080fd5b506106346120ba565b6040518082815260200191505060405180910390f35b34801561065657600080fd5b506106836004803603810190808035151590602001909291908035151590602001909291905050506120c0565b6040518082815260200191505060405180910390f35b3480156106a557600080fd5b506106ae612154565b604051808273ffffffffffffffffffffffffffffffffffffffff1673ffffffffffffffffffffffffffffffffffffffff16815260200191505060405180910390f35b3480156106fc57600080fd5b5061080d600480360381019080803573ffffffffffffffffffffffffffffffffffffffff169060200190929190803590602001908201803590602001908080601f0160208091040260200160405190810160405280939291908181526020018383808284378201915050505050509192919290803590602001908201803590602001908080601f0160208091040260200160405190810160405280939291908181526020018383808284378201915050505050509192919290803590602001908201803590602001908080601f016020809104026020016040519081016040528093929190818152602001838380828437820191505050505050919291929080359060200190929190505050612179565b005b34801561081b57600080fd5b50610850600480360381019080803573ffffffffffffffffffffffffffffffffffffffff1690602001909291905050506123c1565b005b34801561085e57600080fd5b5061087d600480360381019080803590602001909291905050506125c6565b604051808215151515815260200191505060405180910390f35b3480156108a357600080fd5b506108c2600480360381019080803590602001909291905050506126ab565b6040518082815260200191505060405180910390f35b3480156108e457600080fd5b506108ed612776565b6040518082815260200191505060405180910390f35b34801561090f57600080fd5b5061092e6004803603810190808035906020019092919050505061277c565b6040518080602001828103825283818151815260200191508051906020019080838360005b8381101561096e578082015181840152602081019050610953565b50505050905090810190601f16801561099b5780820380516001836020036101000a031916815260200191505b509250505060405180910390f35b3480156109b557600080fd5b506109d460048036038101908080359060200190929190505050612834565b604051808573ffffffffffffffffffffffffffffffffffffffff1673ffffffffffffffffffffffffffffffffffffffff1681526020018481526020018060200183151515158152602001828103825284818151815260200191508051906020019080838360005b83811015610a56578082015181840152602081019050610a3b565b50505050905090810190601f168015610a835780820380516001836020036101000a031916815260200191505b509550505050505060405180910390f35b348015610aa057600080fd5b50610aa9612929565b6040518080602001828103825283818151815260200191508051906020019060200280838360005b83811015610aec578082015181840152602081019050610ad1565b505050509050019250505060405180910390f35b348015610b0c57600080fd5b50610b2b600480360381019080803590602001909291905050506129b7565b005b348015610b3957600080fd5b50610b7a6004803603810190808035906020019092919080359060200190929190803515159060200190929190803515159060200190929190505050612cdb565b6040518080602001828103825283818151815260200191508051906020019060200280838360005b83811015610bbd578082015181840152602081019050610ba2565b505050509050019250505060405180910390f35b348015610bdd57600080fd5b50610c4260048036038101908080359060200190929190803590602001908201803590602001908080601f0160208091040260200160405190810160405280939291908181526020018383808284378201915050505050509192919290505050612e4e565b005b348015610c5057600080fd5b50610c6f60048036038101908080359060200190929190505050612fcc565b6040518080602001828103825283818151815260200191508051906020019060200280838360005b83811015610cb2578082015181840152602081019050610c97565b505050509050019250505060405180910390f35b348015610cd257600080fd5b50610cdb613209565b6040518082815260200191505060405180910390f35b348015610cfd57600080fd5b50610d1c6004803603810190808035906020019092919050505061320f565b005b348015610d2a57600080fd5b50610d49600480360381019080803590602001909291905050506132c9565b005b348015610d5757600080fd5b50610d76600480360381019080803590602001909291905050506134a8565b604051808873ffffffffffffffffffffffffffffffffffffffff1673ffffffffffffffffffffffffffffffffffffffff16815260200180602001806020018060200187815260200186815260200185815260200184810384528a818151815260200191508051906020019080838360005b83811015610e02578082015181840152602081019050610de7565b50505050905090810190601f168015610e2f5780820380516001836020036101000a031916815260200191505b50848103835289818151815260200191508051906020019080838360005b83811015610e68578082015181840152602081019050610e4d565b50505050905090810190601f168015610e955780820380516001836020036101000a031916815260200191505b50848103825288818151815260200191508051906020019080838360005b83811015610ece578082015181840152602081019050610eb3565b50505050905090810190601f168015610efb5780820380516001836020036101000a031916815260200191505b509a505050505050505050505060405180910390f35b348015610f1d57600080fd5b50610f266136d2565b6040518082815260200191505060405180910390f35b348015610f4857600080fd5b50610f516136d7565b6040518082815260200191505060405180910390f35b348015610f7357600080fd5b50610fc8600480360381019080803573ffffffffffffffffffffffffffffffffffffffff169060200190929190803573ffffffffffffffffffffffffffffffffffffffff1690602001909291905050506136dd565b005b348015610fd657600080fd5b50610ff5600480360381019080803590602001909291905050506139f2565b005b34801561100357600080fd5b5061111e60048036038101908080359060200190929190803573ffffffffffffffffffffffffffffffffffffffff169060200190929190803590602001908201803590602001908080601f0160208091040260200160405190810160405280939291908181526020018383808284378201915050505050509192919290803590602001908201803590602001908080601f0160208091040260200160405190810160405280939291908181526020018383808284378201915050505050509192919290803590602001908201803590602001908080601f016020809104026020016040519081016040528093929190818152602001838380828437820191505050505050919291929080359060200190929190505050613c9c565b005b34801561112c57600080fd5b5061114b60048036038101908080359060200190929190505050613e95565b6040518080602001828103825283818151815260200191508051906020019080838360005b8381101561118b578082015181840152602081019050611170565b50505050905090810190601f1680156111b85780820380516001836020036101000a031916815260200191505b509250505060405180910390f35b6004818154811015156111d557fe5b906000526020600020016000915054906101000a900473ffffffffffffffffffffffffffffffffffffffff1681565b60003073ffffffffffffffffffffffffffffffffffffffff163373ffffffffffffffffffffffffffffffffffffffff1614151561124057600080fd5b81600360008273ffffffffffffffffffffffffffffffffffffffff1673ffffffffffffffffffffffffffffffffffffffff16815260200190815260200160002060009054906101000a900460ff16151561129957600080fd5b6000600360008573ffffffffffffffffffffffffffffffffffffffff1673ffffffffffffffffffffffffffffffffffffffff16815260200190815260200160002060006101000a81548160ff021916908315150217905550600091505b60016004805490500382101561141e578273ffffffffffffffffffffffffffffffffffffffff1660048381548110151561132c57fe5b9060005260206000200160009054906101000a900473ffffffffffffffffffffffffffffffffffffffff1673ffffffffffffffffffffffffffffffffffffffff16141561141157600460016004805490500381548110151561138a57fe5b9060005260206000200160009054906101000a900473ffffffffffffffffffffffffffffffffffffffff166004838154811015156113c457fe5b9060005260206000200160006101000a81548173ffffffffffffffffffffffffffffffffffffffff021916908373ffffffffffffffffffffffffffffffffffffffff16021790555061141e565b81806001019250506112f6565b6001600481818054905003915081611436919061412e565b5060048054905060055411156114555761145460048054905061320f565b5b8273ffffffffffffffffffffffffffffffffffffffff167f8001553a916ef2f495d26a907cc54d96ed840d7bda71e73194bf5a9df7a76b9060405160405180910390a2505050565b60076020528060005260406000206000915090508060000160009054906101000a900473ffffffffffffffffffffffffffffffffffffffff16908060010160009054906101000a900473ffffffffffffffffffffffffffffffffffffffff16908060020154908060030154908060040154908060070160009054906101000a900460ff16908060070160019054906101000a900460ff16905087565b600061157b83836040805190810160405280600281526020017f3078000000000000000000000000000000000000000000000000000000000000815250613f45565b9050611586816132c9565b92915050565b6000803073ffffffffffffffffffffffffffffffffffffffff163373ffffffffffffffffffffffffffffffffffffffff161415156115c957600080fd5b33600360008273ffffffffffffffffffffffffffffffffffffffff1673ffffffffffffffffffffffffffffffffffffffff16815260200190815260200160002060009054906101000a900460ff16151561162257600080fd5b6007600086815260200190815260200160002092503373ffffffffffffffffffffffffffffffffffffffff168360000160009054906101000a900473ffffffffffffffffffffffffffffffffffffffff1673ffffffffffffffffffffffffffffffffffffffff16141515611724576040517f08c379a00000000000000000000000000000000000000000000000000000000081526004018080602001828103825260288152602001807f4f6e6c792074686520656d706c6f7965722063616e20617070726f7665206d6981526020017f6c6573746f6e657300000000000000000000000000000000000000000000000081525060400191505060405180910390fd5b8260070160009054906101000a900460ff1615156117aa576040517f08c379a00000000000000000000000000000000000000000000000000000000081526004018080602001828103825260118152602001807f4a6f62206973206e6f742061637469766500000000000000000000000000000081525060200191505060405180910390fd5b82600601848154811015156117bb57fe5b90600052602060002090602091828204019190069054906101000a900460ff16151515611850576040517f08c379a000000000000000000000000000000000000000000000000000000000815260040180806020018281038252601a8152602001807f4d696c6573746f6e6520616c726561647920617070726f76656400000000000081525060200191505060405180910390fd5b6001836006018581548110151561186357fe5b90600052602060002090602091828204019190066101000a81548160ff021916908315150217905550826005018481548110151561189d57fe5b90600052602060002001549150813073ffffffffffffffffffffffffffffffffffffffff163110151515611939576040517f08c379a000000000000000000000000000000000000000000000000000000000815260040180806020018281038252601c8152602001807f496e73756666696369656e742066756e647320696e20657363726f770000000081525060200191505060405180910390fd5b8260010160009054906101000a900473ffffffffffffffffffffffffffffffffffffffff1673ffffffffffffffffffffffffffffffffffffffff166108fc839081150290604051600060405180830381858888f193505050501580156119a3573d6000803e3d6000fd5b505050505050565b33600360008273ffffffffffffffffffffffffffffffffffffffff1673ffffffffffffffffffffffffffffffffffffffff16815260200190815260200160002060009054906101000a900460ff161515611a0457600080fd5b81336002600083815260200190815260200160002060008273ffffffffffffffffffffffffffffffffffffffff1673ffffffffffffffffffffffffffffffffffffffff16815260200190815260200160002060009054906101000a900460ff161515611a6f57600080fd5b836001600082815260200190815260200160002060030160009054906101000a900460ff16151515611aa057600080fd5b60006002600087815260200190815260200160002060003373ffffffffffffffffffffffffffffffffffffffff1673ffffffffffffffffffffffffffffffffffffffff16815260200190815260200160002060006101000a81548160ff021916908315150217905550843373ffffffffffffffffffffffffffffffffffffffff167ff6a317157440607f36269043eb55f1287a5a19ba2216afeab88cd46cbcfb88e960405160405180910390a35050505050565b3073ffffffffffffffffffffffffffffffffffffffff163373ffffffffffffffffffffffffffffffffffffffff16141515611b8e57600080fd5b33600360008273ffffffffffffffffffffffffffffffffffffffff1673ffffffffffffffffffffffffffffffffffffffff16815260200190815260200160002060009054906101000a900460ff161515611be757600080fd5b81611bf181614098565b1515611c65576040517f08c379a00000000000000000000000000000000000000000000000000000000081526004018080602001828103825260178152602001807f456d706c6f796565204e6f74205265676973746572656400000000000000000081525060200191505060405180910390fd5b6001600c5403600c81905550600a600084815260200190815260200160002060040154600b5403600b81905550600a6000848152602001908152602001600020600080820160006101000a81549073ffffffffffffffffffffffffffffffffffffffff0219169055600182016000611cdd919061415a565b600282016000611ced919061415a565b600382016000611cfd919061415a565b6004820160009055600582016000905560068201600090555050505050565b60036020528060005260406000206000915054906101000a900460ff1681565b60026020528160005260406000206020528060005260406000206000915091509054906101000a900460ff1681565b6000803073ffffffffffffffffffffffffffffffffffffffff163373ffffffffffffffffffffffffffffffffffffffff16141515611da857600080fd5b600073ffffffffffffffffffffffffffffffffffffffff168773ffffffffffffffffffffffffffffffffffffffff1614151515611e4d576040517f08c379a00000000000000000000000000000000000000000000000000000000081526004018080602001828103825260168152602001807f496e76616c696420776f726b657220616464726573730000000000000000000081525060200191505060405180910390fd5b600086111515611ec5576040517f08c379a000000000000000000000000000000000000000000000000000000000815260040180806020018281038252601e8152602001807f457363726f7720616d6f756e74206d75737420626520706f736974697665000081525060200191505060405180910390fd5b60008551111515611f64576040517f08c379a00000000000000000000000000000000000000000000000000000000081526004018080602001828103825260248152602001807f5468657265206d757374206265206174206c65617374206f6e65206d696c657381526020017f746f6e650000000000000000000000000000000000000000000000000000000081525060400191505060405180910390fd5b60086000815480929190600101919050559150600760008381526020019081526020016000209050338160000160006101000a81548173ffffffffffffffffffffffffffffffffffffffff021916908373ffffffffffffffffffffffffffffffffffffffff160217905550868160010160006101000a81548173ffffffffffffffffffffffffffffffffffffffff021916908373ffffffffffffffffffffffffffffffffffffffff160217905550858160020181905550838160030181905550828160040181905550848160050190805190602001906120459291906141a2565b5084516040519080825280602002602001820160405280156120765781602001602082028038833980820191505090505b5081600601908051906020019061208e9291906141ef565b5060018160070160006101000a81548160ff0219169083151502179055505095945050505050565b5050565b60085481565b600080600090505b60065481101561214d5783801561210057506001600082815260200190815260200160002060030160009054906101000a900460ff16155b80612134575082801561213357506001600082815260200190815260200160002060030160009054906101000a900460ff165b5b15612140576001820191505b80806001019150506120c8565b5092915050565b6000809054906101000a900473ffffffffffffffffffffffffffffffffffffffff1681565b60003073ffffffffffffffffffffffffffffffffffffffff163373ffffffffffffffffffffffffffffffffffffffff161415156121b557600080fd5b33600360008273ffffffffffffffffffffffffffffffffffffffff1673ffffffffffffffffffffffffffffffffffffffff16815260200190815260200160002060009054906101000a900460ff16151561220e57600080fd5b6001831115156122ac576040517f08c379a00000000000000000000000000000000000000000000000000000000081526004018080602001828103825260218152602001807f4f6e6c79206f6e6520636f6d70616e7920666f72206f6e6520636f6e7472616381526020017f740000000000000000000000000000000000000000000000000000000000000081525060400191505060405180910390fd5b600960008481526020019081526020016000209150868260000160006101000a81548173ffffffffffffffffffffffffffffffffffffffff021916908373ffffffffffffffffffffffffffffffffffffffff1602179055508582600101908051906020019061231c929190614295565b5084826002019080519060200190612335929190614295565b508382600301908051906020019061234e929190614295565b50338260040160006101000a81548173ffffffffffffffffffffffffffffffffffffffff021916908373ffffffffffffffffffffffffffffffffffffffff16021790555042826005018190555060008260060160006101000a81548160ff02191690831515021790555050505050505050565b3073ffffffffffffffffffffffffffffffffffffffff163373ffffffffffffffffffffffffffffffffffffffff161415156123fb57600080fd5b80600360008273ffffffffffffffffffffffffffffffffffffffff1673ffffffffffffffffffffffffffffffffffffffff16815260200190815260200160002060009054906101000a900460ff1615151561245557600080fd5b8160008173ffffffffffffffffffffffffffffffffffffffff161415151561247c57600080fd5b600160048054905001600554603282111580156124995750818111155b80156124a6575060008114155b80156124b3575060008214155b15156124be57600080fd5b6001600360008773ffffffffffffffffffffffffffffffffffffffff1673ffffffffffffffffffffffffffffffffffffffff16815260200190815260200160002060006101000a81548160ff02191690831515021790555060048590806001815401808255809150509060018203906000526020600020016000909192909190916101000a81548173ffffffffffffffffffffffffffffffffffffffff021916908373ffffffffffffffffffffffffffffffffffffffff160217905550508473ffffffffffffffffffffffffffffffffffffffff167ff39e6e1eb0edcf53c221607b54b00cd28f3196fed0a24994dc308b8f611b682d60405160405180910390a25050505050565b6000806000809150600090505b6004805490508110156126a35760026000858152602001908152602001600020600060048381548110151561260457fe5b9060005260206000200160009054906101000a900473ffffffffffffffffffffffffffffffffffffffff1673ffffffffffffffffffffffffffffffffffffffff1673ffffffffffffffffffffffffffffffffffffffff16815260200190815260200160002060009054906101000a900460ff1615612683576001820191505b60055482141561269657600192506126a4565b80806001019150506125d3565b5b5050919050565b600080600090505b600480549050811015612770576002600084815260200190815260200160002060006004838154811015156126e457fe5b9060005260206000200160009054906101000a900473ffffffffffffffffffffffffffffffffffffffff1673ffffffffffffffffffffffffffffffffffffffff1673ffffffffffffffffffffffffffffffffffffffff16815260200190815260200160002060009054906101000a900460ff1615612763576001820191505b80806001019150506126b3565b50919050565b600c5481565b6060600960008381526020019081526020016000206001018054600181600116156101000203166002900480601f0160208091040260200160405190810160405280929190818152602001828054600181600116156101000203166002900480156128285780601f106127fd57610100808354040283529160200191612828565b820191906000526020600020905b81548152906001019060200180831161280b57829003601f168201915b50505050509050919050565b60016020528060005260406000206000915090508060000160009054906101000a900473ffffffffffffffffffffffffffffffffffffffff1690806001015490806002018054600181600116156101000203166002900480601f01602080910402602001604051908101604052809291908181526020018280546001816001161561010002031660029004801561290c5780601f106128e15761010080835404028352916020019161290c565b820191906000526020600020905b8154815290600101906020018083116128ef57829003601f168201915b5050505050908060030160009054906101000a900460ff16905084565b606060048054806020026020016040519081016040528092919081815260200182805480156129ad57602002820191906000526020600020905b8160009054906101000a900473ffffffffffffffffffffffffffffffffffffffff1673ffffffffffffffffffffffffffffffffffffffff1681526020019060010190808311612963575b5050505050905090565b6000803073ffffffffffffffffffffffffffffffffffffffff163373ffffffffffffffffffffffffffffffffffffffff161415156129f457600080fd5b6007600084815260200190815260200160002091508160070160009054906101000a900460ff161515612a8f576040517f08c379a00000000000000000000000000000000000000000000000000000000081526004018080602001828103825260118152602001807f4a6f62206973206e6f742061637469766500000000000000000000000000000081525060200191505060405180910390fd5b3373ffffffffffffffffffffffffffffffffffffffff168260000160009054906101000a900473ffffffffffffffffffffffffffffffffffffffff1673ffffffffffffffffffffffffffffffffffffffff161480612b3c57503373ffffffffffffffffffffffffffffffffffffffff168260010160009054906101000a900473ffffffffffffffffffffffffffffffffffffffff1673ffffffffffffffffffffffffffffffffffffffff16145b1515612bd6576040517f08c379a000000000000000000000000000000000000000000000000000000000815260040180806020018281038252602c8152602001807f4f6e6c7920656d706c6f796572206f7220776f726b65722063616e20636f6d7081526020017f6c65746520746865206a6f62000000000000000000000000000000000000000081525060400191505060405180910390fd5b600090505b8160060180549050811015612c9c578160060181815481101515612bfb57fe5b90600052602060002090602091828204019190069054906101000a900460ff161515612c8f576040517f08c379a000000000000000000000000000000000000000000000000000000000815260040180806020018281038252601f8152602001807f416c6c206d696c6573746f6e6573206d75737420626520617070726f7665640081525060200191505060405180910390fd5b8080600101915050612bdb565b60018260070160016101000a81548160ff02191690831515021790555060008260070160006101000a81548160ff021916908315150217905550505050565b606080600080600654604051908082528060200260200182016040528015612d125781602001602082028038833980820191505090505b50925060009150600090505b600654811015612dc057858015612d5657506001600082815260200190815260200160002060030160009054906101000a900460ff16155b80612d8a5750848015612d8957506001600082815260200190815260200160002060030160009054906101000a900460ff165b5b15612db357808383815181101515612d9e57fe5b90602001906020020181815250506001820191505b8080600101915050612d1e565b878703604051908082528060200260200182016040528015612df15781602001602082028038833980820191505090505b5093508790505b86811015612e43578281815181101515612e0e57fe5b9060200190602002015184898303815181101515612e2857fe5b90602001906020020181815250508080600101915050612df8565b505050949350505050565b3073ffffffffffffffffffffffffffffffffffffffff163373ffffffffffffffffffffffffffffffffffffffff16141515612e8857600080fd5b33600360008273ffffffffffffffffffffffffffffffffffffffff1673ffffffffffffffffffffffffffffffffffffffff16815260200190815260200160002060009054906101000a900460ff161515612ee157600080fd5b6007600084815260200190815260200160002060070160009054906101000a900460ff161515612f9f576040517f08c379a00000000000000000000000000000000000000000000000000000000081526004018080602001828103825260258152602001807f4a6f62206d7573742062652061637469766520746f2073746f726520646f637581526020017f6d656e747300000000000000000000000000000000000000000000000000000081525060400191505060405180910390fd5b81600d60008581526020019081526020016000209080519060200190612fc6929190614295565b50505050565b6060806000806004805490506040519080825280602002602001820160405280156130065781602001602082028038833980820191505090505b50925060009150600090505b6004805490508110156131535760026000868152602001908152602001600020600060048381548110151561304357fe5b9060005260206000200160009054906101000a900473ffffffffffffffffffffffffffffffffffffffff1673ffffffffffffffffffffffffffffffffffffffff1673ffffffffffffffffffffffffffffffffffffffff16815260200190815260200160002060009054906101000a900460ff1615613146576004818154811015156130ca57fe5b9060005260206000200160009054906101000a900473ffffffffffffffffffffffffffffffffffffffff16838381518110151561310357fe5b9060200190602002019073ffffffffffffffffffffffffffffffffffffffff16908173ffffffffffffffffffffffffffffffffffffffff16815250506001820191505b8080600101915050613012565b816040519080825280602002602001820160405280156131825781602001602082028038833980820191505090505b509350600090505b818110156132015782818151811015156131a057fe5b9060200190602002015184828151811015156131b857fe5b9060200190602002019073ffffffffffffffffffffffffffffffffffffffff16908173ffffffffffffffffffffffffffffffffffffffff1681525050808060010191505061318a565b505050919050565b60065481565b3073ffffffffffffffffffffffffffffffffffffffff163373ffffffffffffffffffffffffffffffffffffffff1614151561324957600080fd5b60048054905081603282111580156132615750818111155b801561326e575060008114155b801561327b575060008214155b151561328657600080fd5b826005819055507fa3f1ee9126a074d9326c682f561767f710e927faa811f7a99829d49dc421797a836040518082815260200191505060405180910390a1505050565b33600360008273ffffffffffffffffffffffffffffffffffffffff1673ffffffffffffffffffffffffffffffffffffffff16815260200190815260200160002060009054906101000a900460ff16151561332257600080fd5b8160006001600083815260200190815260200160002060000160009054906101000a900473ffffffffffffffffffffffffffffffffffffffff1673ffffffffffffffffffffffffffffffffffffffff161415151561337f57600080fd5b82336002600083815260200190815260200160002060008273ffffffffffffffffffffffffffffffffffffffff1673ffffffffffffffffffffffffffffffffffffffff16815260200190815260200160002060009054906101000a900460ff161515156133eb57600080fd5b60016002600087815260200190815260200160002060003373ffffffffffffffffffffffffffffffffffffffff1673ffffffffffffffffffffffffffffffffffffffff16815260200190815260200160002060006101000a81548160ff021916908315150217905550843373ffffffffffffffffffffffffffffffffffffffff167f4a504a94899432a9846e1aa406dceb1bcfd538bb839071d49d1e5e23f5be30ef60405160405180910390a36134a1856139f2565b5050505050565b600a6020528060005260406000206000915090508060000160009054906101000a900473ffffffffffffffffffffffffffffffffffffffff1690806001018054600181600116156101000203166002900480601f01602080910402602001604051908101604052809291908181526020018280546001816001161561010002031660029004801561357a5780601f1061354f5761010080835404028352916020019161357a565b820191906000526020600020905b81548152906001019060200180831161355d57829003601f168201915b505050505090806002018054600181600116156101000203166002900480601f0160208091040260200160405190810160405280929190818152602001828054600181600116156101000203166002900480156136185780601f106135ed57610100808354040283529160200191613618565b820191906000526020600020905b8154815290600101906020018083116135fb57829003601f168201915b505050505090806003018054600181600116156101000203166002900480601f0160208091040260200160405190810160405280929190818152602001828054600181600116156101000203166002900480156136b65780601f1061368b576101008083540402835291602001916136b6565b820191906000526020600020905b81548152906001019060200180831161369957829003601f168201915b5050505050908060040154908060050154908060060154905087565b603281565b60055481565b60003073ffffffffffffffffffffffffffffffffffffffff163373ffffffffffffffffffffffffffffffffffffffff1614151561371957600080fd5b82600360008273ffffffffffffffffffffffffffffffffffffffff1673ffffffffffffffffffffffffffffffffffffffff16815260200190815260200160002060009054906101000a900460ff16151561377257600080fd5b82600360008273ffffffffffffffffffffffffffffffffffffffff1673ffffffffffffffffffffffffffffffffffffffff16815260200190815260200160002060009054906101000a900460ff161515156137cc57600080fd5b600092505b6004805490508310156138b5578473ffffffffffffffffffffffffffffffffffffffff1660048481548110151561380457fe5b9060005260206000200160009054906101000a900473ffffffffffffffffffffffffffffffffffffffff1673ffffffffffffffffffffffffffffffffffffffff1614156138a8578360048481548110151561385b57fe5b9060005260206000200160006101000a81548173ffffffffffffffffffffffffffffffffffffffff021916908373ffffffffffffffffffffffffffffffffffffffff1602179055506138b5565b82806001019350506137d1565b6000600360008773ffffffffffffffffffffffffffffffffffffffff1673ffffffffffffffffffffffffffffffffffffffff16815260200190815260200160002060006101000a81548160ff0219169083151502179055506001600360008673ffffffffffffffffffffffffffffffffffffffff1673ffffffffffffffffffffffffffffffffffffffff16815260200190815260200160002060006101000a81548160ff0219169083151502179055508473ffffffffffffffffffffffffffffffffffffffff167f8001553a916ef2f495d26a907cc54d96ed840d7bda71e73194bf5a9df7a76b9060405160405180910390a28373ffffffffffffffffffffffffffffffffffffffff167ff39e6e1eb0edcf53c221607b54b00cd28f3196fed0a24994dc308b8f611b682d60405160405180910390a25050505050565b600033600360008273ffffffffffffffffffffffffffffffffffffffff1673ffffffffffffffffffffffffffffffffffffffff16815260200190815260200160002060009054906101000a900460ff161515613a4d57600080fd5b82336002600083815260200190815260200160002060008273ffffffffffffffffffffffffffffffffffffffff1673ffffffffffffffffffffffffffffffffffffffff16815260200190815260200160002060009054906101000a900460ff161515613ab857600080fd5b846001600082815260200190815260200160002060030160009054906101000a900460ff16151515613ae957600080fd5b613af2866125c6565b15613c945760016000878152602001908152602001600020945060018560030160006101000a81548160ff021916908315150217905550613c118560000160009054906101000a900473ffffffffffffffffffffffffffffffffffffffff16866001015487600201805460018160011615610100020316600290049050886002018054600181600116156101000203166002900480601f016020809104026020016040519081016040528092919081815260200182805460018160011615610100020316600290048015613c075780601f10613bdc57610100808354040283529160200191613c07565b820191906000526020600020905b815481529060010190602001808311613bea57829003601f168201915b5050505050614107565b15613c4857857f33e13ecb54c3076d8e8bb8c2881800a4d972b792045ffae98fdf46df365fed7560405160405180910390a2613c93565b857f526441bb6c1aba3c9a4a6ca1d6545da9c2333c8c48343ef398eb858d72b7923660405160405180910390a260008560030160006101000a81548160ff0219169083151502179055505b5b505050505050565b60003073ffffffffffffffffffffffffffffffffffffffff163373ffffffffffffffffffffffffffffffffffffffff16141515613cd857600080fd5b33600360008273ffffffffffffffffffffffffffffffffffffffff1673ffffffffffffffffffffffffffffffffffffffff16815260200190815260200160002060009054906101000a900460ff161515613d3157600080fd5b87613d3b81614098565b151515613db0576040517f08c379a00000000000000000000000000000000000000000000000000000000081526004018080602001828103825260138152602001807f456d706c6f79656520526567697374657265640000000000000000000000000081525060200191505060405180910390fd5b83600081111515613dc057600080fd5b600c6000815480929190600101919050555084600b5401600b81905550600a60008b81526020019081526020016000209350888460000160006101000a81548173ffffffffffffffffffffffffffffffffffffffff021916908373ffffffffffffffffffffffffffffffffffffffff16021790555086846002019080519060200190613e4d929190614295565b5087846001019080519060200190613e66929190614295565b5085846003019080519060200190613e7f929190614295565b5084846004018190555050505050505050505050565b600d6020528060005260406000206000915090508054600181600116156101000203166002900480601f016020809104026020016040519081016040528092919081815260200182805460018160011615610100020316600290048015613f3d5780601f10613f1257610100808354040283529160200191613f3d565b820191906000526020600020905b815481529060010190602001808311613f2057829003601f168201915b505050505081565b60008360008173ffffffffffffffffffffffffffffffffffffffff1614151515613f6e57600080fd5b60065491506080604051908101604052808673ffffffffffffffffffffffffffffffffffffffff168152602001858152602001848152602001600015158152506001600084815260200190815260200160002060008201518160000160006101000a81548173ffffffffffffffffffffffffffffffffffffffff021916908373ffffffffffffffffffffffffffffffffffffffff16021790555060208201518160010155604082015181600201908051906020019061402e929190614315565b5060608201518160030160006101000a81548160ff0219169083151502179055509050506001600660008282540192505081905550817fc0ba8fe4b176c1714197d43b9cc6bcf797a4a7461c5fe8d0ef6e184ae7601e5160405160405180910390a2509392505050565b60008073ffffffffffffffffffffffffffffffffffffffff16600a600084815260200190815260200160002060000160009054906101000a900473ffffffffffffffffffffffffffffffffffffffff1673ffffffffffffffffffffffffffffffffffffffff1614159050919050565b6000806040516020840160008287838a8c6187965a03f19250505080915050949350505050565b815481835581811115614155578183600052602060002091820191016141549190614395565b5b505050565b50805460018160011615610100020316600290046000825580601f10614180575061419f565b601f01602090049060005260206000209081019061419e9190614395565b5b50565b8280548282559060005260206000209081019282156141de579160200282015b828111156141dd5782518255916020019190600101906141c2565b5b5090506141eb9190614395565b5090565b82805482825590600052602060002090601f016020900481019282156142845791602002820160005b8382111561425557835183826101000a81548160ff0219169083151502179055509260200192600101602081600001049283019260010302614218565b80156142825782816101000a81549060ff0219169055600101602081600001049283019260010302614255565b505b50905061429191906143ba565b5090565b828054600181600116156101000203166002900490600052602060002090601f016020900481019282601f106142d657805160ff1916838001178555614304565b82800160010185558215614304579182015b828111156143035782518255916020019190600101906142e8565b5b5090506143119190614395565b5090565b828054600181600116156101000203166002900490600052602060002090601f016020900481019282601f1061435657805160ff1916838001178555614384565b82800160010185558215614384579182015b82811115614383578251825591602001919060010190614368565b5b5090506143919190614395565b5090565b6143b791905b808211156143b357600081600090555060010161439b565b5090565b90565b6143e791905b808211156143e357600081816101000a81549060ff0219169055506001016143c0565b5090565b905600a165627a7a72305820de50eaa08f3d34b3c67e55eeb520c182d93dcd3989115bcc5884e406d32e105b0029a265627a7a7230582041c5b8b1c15b533232b0d90391ec8c0b8193dc758dd4108dcb081bb5617c892c6c6578706572696d656e74616cf50037608060405234801561001057600080fd5b50604051602080610e9f8339810180604052810190808051906020019092919050505080600160006101000a81548173ffffffffffffffffffffffffffffffffffffffff021916908373ffffffffffffffffffffffffffffffffffffffff16021790555050610e1b806100846000396000f30060806040526004361061006d576000357c0100000000000000000000000000000000000000000000000000000000900463ffffffff1680634048a2571461007257806380c8f4fa1461016c57806393ce601f146101d5578063c011b1c314610321578063c45a01551461041b575b600080fd5b34801561007e57600080fd5b506100b3600480360381019080803573ffffffffffffffffffffffffffffffffffffffff169060200190929190505050610472565b604051808473ffffffffffffffffffffffffffffffffffffffff1673ffffffffffffffffffffffffffffffffffffffff1681526020018060200183151515158152602001828103825284818151815260200191508051906020019080838360005b8381101561012f578082015181840152602081019050610114565b50505050905090810190601f16801561015c5780820380516001836020036101000a031916815260200191505b5094505050505060405180910390f35b34801561017857600080fd5b506101d3600480360381019080803590602001908201803590602001908080601f0160208091040260200160405190810160405280939291908181526020018383808284378201915050505050509192919290505050610561565b005b3480156101e157600080fd5b5061031f6004803603810190808035906020019082018035906020019080806020026020016040519081016040528093929190818152602001838360200280828437820191505050505050919291929080359060200190929190803590602001908201803590602001908080601f0160208091040260200160405190810160405280939291908181526020018383808284378201915050505050509192919290803590602001908201803590602001908080601f0160208091040260200160405190810160405280939291908181526020018383808284378201915050505050509192919290803590602001908201803590602001908080601f0160208091040260200160405190810160405280939291908181526020018383808284378201915050505050509192919290803590602001909291905050506107d5565b005b34801561032d57600080fd5b50610362600480360381019080803573ffffffffffffffffffffffffffffffffffffffff169060200190929190505050610b35565b604051808473ffffffffffffffffffffffffffffffffffffffff1673ffffffffffffffffffffffffffffffffffffffff1681526020018060200183151515158152602001828103825284818151815260200191508051906020019080838360005b838110156103de5780820151818401526020810190506103c3565b50505050905090810190601f16801561040b5780820380516001836020036101000a031916815260200191505b5094505050505060405180910390f35b34801561042757600080fd5b50610430610d24565b604051808273ffffffffffffffffffffffffffffffffffffffff1673ffffffffffffffffffffffffffffffffffffffff16815260200191505060405180910390f35b60006020528060005260406000206000915090508060000160009054906101000a900473ffffffffffffffffffffffffffffffffffffffff1690806001018054600181600116156101000203166002900480601f0160208091040260200160405190810160405280929190818152602001828054600181600116156101000203166002900480156105445780601f1061051957610100808354040283529160200191610544565b820191906000526020600020905b81548152906001019060200180831161052757829003601f168201915b5050505050908060020160009054906101000a900460ff16905083565b6000803373ffffffffffffffffffffffffffffffffffffffff1673ffffffffffffffffffffffffffffffffffffffff16815260200190815260200160002060020160009054906101000a900460ff16151515610625576040517f08c379a00000000000000000000000000000000000000000000000000000000081526004018080602001828103825260198152602001807f576f726b657220616c726561647920726567697374657265640000000000000081525060200191505060405180910390fd5b6060604051908101604052803373ffffffffffffffffffffffffffffffffffffffff168152602001828152602001600115158152506000803373ffffffffffffffffffffffffffffffffffffffff1673ffffffffffffffffffffffffffffffffffffffff16815260200190815260200160002060008201518160000160006101000a81548173ffffffffffffffffffffffffffffffffffffffff021916908373ffffffffffffffffffffffffffffffffffffffff16021790555060208201518160010190805190602001906106fb929190610d4a565b5060408201518160020160006101000a81548160ff0219169083151502179055509050503373ffffffffffffffffffffffffffffffffffffffff167fb2bc7d962e634836b6f2383ee5f842b8829c7771d414c3f8862c577f4730a3e8826040518080602001828103825283818151815260200191508051906020019080838360005b8381101561079857808201518184015260208101905061077d565b50505050905090810190601f1680156107c55780820380516001836020036101000a031916815260200191505b509250505060405180910390a250565b6000803373ffffffffffffffffffffffffffffffffffffffff1673ffffffffffffffffffffffffffffffffffffffff16815260200190815260200160002060020160009054906101000a900460ff1615156108be576040517f08c379a00000000000000000000000000000000000000000000000000000000081526004018080602001828103825260278152602001807f4f6e6c79207265676973746572656420776f726b6572732063616e206372656181526020017f7465206a6f62730000000000000000000000000000000000000000000000000081525060400191505060405180910390fd5b600160009054906101000a900473ffffffffffffffffffffffffffffffffffffffff1673ffffffffffffffffffffffffffffffffffffffff16633cf236098787878787876040518763ffffffff167c0100000000000000000000000000000000000000000000000000000000028152600401808060200187815260200180602001806020018060200186815260200185810385528b818151815260200191508051906020019060200280838360005b8381101561098857808201518184015260208101905061096d565b50505050905001858103845289818151815260200191508051906020019080838360005b838110156109c75780820151818401526020810190506109ac565b50505050905090810190601f1680156109f45780820380516001836020036101000a031916815260200191505b50858103835288818151815260200191508051906020019080838360005b83811015610a2d578082015181840152602081019050610a12565b50505050905090810190601f168015610a5a5780820380516001836020036101000a031916815260200191505b50858103825287818151815260200191508051906020019080838360005b83811015610a93578082015181840152602081019050610a78565b50505050905090810190601f168015610ac05780820380516001836020036101000a031916815260200191505b509a50505050505050505050506040805180830381600087803b158015610ae657600080fd5b505af1158015610afa573d6000803e3d6000fd5b505050506040513d6040811015610b1057600080fd5b8101908080519060200190929190805190602001909291905050505050505050505050565b600060606000806000808673ffffffffffffffffffffffffffffffffffffffff1673ffffffffffffffffffffffffffffffffffffffff16815260200190815260200160002060020160009054906101000a900460ff161515610bff576040517f08c379a00000000000000000000000000000000000000000000000000000000081526004018080602001828103825260108152602001807f576f726b6572206e6f7420666f756e640000000000000000000000000000000081525060200191505060405180910390fd5b6000808673ffffffffffffffffffffffffffffffffffffffff1673ffffffffffffffffffffffffffffffffffffffff16815260200190815260200160002090508060000160009054906101000a900473ffffffffffffffffffffffffffffffffffffffff16816001018260020160009054906101000a900460ff16818054600181600116156101000203166002900480601f016020809104026020016040519081016040528092919081815260200182805460018160011615610100020316600290048015610d0f5780601f10610ce457610100808354040283529160200191610d0f565b820191906000526020600020905b815481529060010190602001808311610cf257829003601f168201915b50505050509150935093509350509193909250565b600160009054906101000a900473ffffffffffffffffffffffffffffffffffffffff1681565b828054600181600116156101000203166002900490600052602060002090601f016020900481019282601f10610d8b57805160ff1916838001178555610db9565b82800160010185558215610db9579182015b82811115610db8578251825591602001919060010190610d9d565b5b509050610dc69190610dca565b5090565b610dec91905b80821115610de8576000816000905550600101610dd0565b5090565b905600a165627a7a723058208866c2c7eaafd7f788a3f85b9e3226a4ebcd4d2ef56603f1c0624aee197869100029","opcodes":"PUSH1 0x80 PUSH1 0x40 MSTORE CALLVALUE DUP1 ISZERO PUSH3 0x11 JUMPI PUSH1 0x0 DUP1 REVERT JUMPDEST POP PUSH1 0x40 MLOAD PUSH1 0x20 DUP1 PUSH3 0x7FB4 DUP4 CODECOPY DUP2 ADD DUP1 PUSH1 0x40 MSTORE PUSH3 0x33 SWAP2 SWAP1 DUP2 ADD SWAP1 PUSH3 0x118 JUMP JUMPDEST DUP1 DUP1 PUSH1 0x0 DUP1 PUSH2 0x100 EXP DUP2 SLOAD DUP2 PUSH20 0xFFFFFFFFFFFFFFFFFFFFFFFFFFFFFFFFFFFFFFFF MUL NOT AND SWAP1 DUP4 PUSH20 0xFFFFFFFFFFFFFFFFFFFFFFFFFFFFFFFFFFFFFFFF AND MUL OR SWAP1 SSTORE POP POP ADDRESS PUSH3 0x80 PUSH3 0xF1 JUMP JUMPDEST PUSH3 0x8C SWAP2 SWAP1 PUSH3 0x155 JUMP JUMPDEST PUSH1 0x40 MLOAD DUP1 SWAP2 SUB SWAP1 PUSH1 0x0 CREATE DUP1 ISZERO DUP1 ISZERO PUSH3 0xA9 JUMPI RETURNDATASIZE PUSH1 0x0 DUP1 RETURNDATACOPY RETURNDATASIZE PUSH1 0x0 REVERT JUMPDEST POP PUSH1 0x4 PUSH1 0x0 PUSH2 0x100 EXP DUP2 SLOAD DUP2 PUSH20 0xFFFFFFFFFFFFFFFFFFFFFFFFFFFFFFFFFFFFFFFF MUL NOT AND SWAP1 DUP4 PUSH20 0xFFFFFFFFFFFFFFFFFFFFFFFFFFFFFFFFFFFFFFFF AND MUL OR SWAP1 SSTORE POP POP PUSH3 0x1B2 JUMP JUMPDEST PUSH1 0x40 MLOAD PUSH2 0xE9F DUP1 PUSH3 0x7115 DUP4 CODECOPY ADD SWAP1 JUMP JUMPDEST PUSH1 0x0 PUSH3 0x110 DUP3 MLOAD PUSH3 0x192 JUMP JUMPDEST SWAP1 POP SWAP3 SWAP2 POP POP JUMP JUMPDEST PUSH1 0x0 PUSH1 0x20 DUP3 DUP5 SUB SLT ISZERO PUSH3 0x12B JUMPI PUSH1 0x0 DUP1 REVERT JUMPDEST PUSH1 0x0 PUSH3 0x13B DUP5 DUP3 DUP6 ADD PUSH3 0x102 JUMP JUMPDEST SWAP2 POP POP SWAP3 SWAP2 POP POP JUMP JUMPDEST PUSH3 0x14F DUP2 PUSH3 0x172 JUMP JUMPDEST DUP3 MSTORE POP POP JUMP JUMPDEST PUSH1 0x0 PUSH1 0x20 DUP3 ADD SWAP1 POP PUSH3 0x16C PUSH1 0x0 DUP4 ADD DUP5 PUSH3 0x144 JUMP JUMPDEST SWAP3 SWAP2 POP POP JUMP JUMPDEST PUSH1 0x0 PUSH20 0xFFFFFFFFFFFFFFFFFFFFFFFFFFFFFFFFFFFFFFFF DUP3 AND SWAP1 POP SWAP2 SWAP1 POP JUMP JUMPDEST PUSH1 0x0 PUSH20 0xFFFFFFFFFFFFFFFFFFFFFFFFFFFFFFFFFFFFFFFF DUP3 AND SWAP1 POP SWAP2 SWAP1 POP JUMP JUMPDEST PUSH2 0x6F53 DUP1 PUSH3 0x1C2 PUSH1 0x0 CODECOPY PUSH1 0x0 RETURN STOP PUSH1 0x80 PUSH1 0x40 MSTORE PUSH1 0x4 CALLDATASIZE LT PUSH3 0x103 JUMPI PUSH1 0x0 CALLDATALOAD PUSH29 0x100000000000000000000000000000000000000000000000000000000 SWAP1 DIV PUSH4 0xFFFFFFFF AND DUP1 PUSH4 0x800DEE7 EQ PUSH3 0x108 JUMPI DUP1 PUSH4 0x180AEDF3 EQ PUSH3 0x138 JUMPI DUP1 PUSH4 0x23D5A795 EQ PUSH3 0x182 JUMPI DUP1 PUSH4 0x2F4F3316 EQ PUSH3 0x1B0 JUMPI DUP1 PUSH4 0x33B7A674 EQ PUSH3 0x1F4 JUMPI DUP1 PUSH4 0x3CF23609 EQ PUSH3 0x20E JUMPI DUP1 PUSH4 0x54879918 EQ PUSH3 0x253 JUMPI DUP1 PUSH4 0x61AA5B44 EQ PUSH3 0x283 JUMPI DUP1 PUSH4 0x6CF5D86E EQ PUSH3 0x2C7 JUMPI DUP1 PUSH4 0x80C8F4FA EQ PUSH3 0x30B JUMPI DUP1 PUSH4 0xAC47147A EQ PUSH3 0x339 JUMPI DUP1 PUSH4 0xB387406D EQ PUSH3 0x37D JUMPI DUP1 PUSH4 0xBF22C457 EQ PUSH3 0x3AD JUMPI DUP1 PUSH4 0xC011B1C3 EQ PUSH3 0x3F4 JUMPI DUP1 PUSH4 0xD3E02C01 EQ PUSH3 0x43A JUMPI DUP1 PUSH4 0xEAD39A11 EQ PUSH3 0x46A JUMPI DUP1 PUSH4 0xFC736CDE EQ PUSH3 0x4B1 JUMPI JUMPDEST PUSH1 0x0 DUP1 REVERT JUMPDEST CALLVALUE DUP1 ISZERO PUSH3 0x115 JUMPI PUSH1 0x0 DUP1 REVERT JUMPDEST POP PUSH3 0x120 PUSH3 0x4F5 JUMP JUMPDEST PUSH1 0x40 MLOAD PUSH3 0x12F SWAP2 SWAP1 PUSH3 0x2470 JUMP JUMPDEST PUSH1 0x40 MLOAD DUP1 SWAP2 SUB SWAP1 RETURN JUMPDEST CALLVALUE DUP1 ISZERO PUSH3 0x145 JUMPI PUSH1 0x0 DUP1 REVERT JUMPDEST POP PUSH3 0x164 PUSH1 0x4 DUP1 CALLDATASIZE SUB PUSH3 0x15E SWAP2 SWAP1 DUP2 ADD SWAP1 PUSH3 0x1EBA JUMP JUMPDEST PUSH3 0x51B JUMP JUMPDEST PUSH1 0x40 MLOAD PUSH3 0x179 SWAP8 SWAP7 SWAP6 SWAP5 SWAP4 SWAP3 SWAP2 SWAP1 PUSH3 0x254E JUMP JUMPDEST PUSH1 0x40 MLOAD DUP1 SWAP2 SUB SWAP1 RETURN JUMPDEST CALLVALUE DUP1 ISZERO PUSH3 0x18F JUMPI PUSH1 0x0 DUP1 REVERT JUMPDEST POP PUSH3 0x1AE PUSH1 0x4 DUP1 CALLDATASIZE SUB PUSH3 0x1A8 SWAP2 SWAP1 DUP2 ADD SWAP1 PUSH3 0x1EE6 JUMP JUMPDEST PUSH3 0x78E JUMP JUMPDEST STOP JUMPDEST CALLVALUE DUP1 ISZERO PUSH3 0x1BD JUMPI PUSH1 0x0 DUP1 REVERT JUMPDEST POP PUSH3 0x1DC PUSH1 0x4 DUP1 CALLDATASIZE SUB PUSH3 0x1D6 SWAP2 SWAP1 DUP2 ADD SWAP1 PUSH3 0x1C73 JUMP JUMPDEST PUSH3 0x961 JUMP JUMPDEST PUSH1 0x40 MLOAD PUSH3 0x1EB SWAP2 SWAP1 PUSH3 0x2436 JUMP JUMPDEST PUSH1 0x40 MLOAD DUP1 SWAP2 SUB SWAP1 RETURN JUMPDEST CALLVALUE DUP1 ISZERO PUSH3 0x201 JUMPI PUSH1 0x0 DUP1 REVERT JUMPDEST POP PUSH3 0x20C PUSH3 0x981 JUMP JUMPDEST STOP JUMPDEST CALLVALUE DUP1 ISZERO PUSH3 0x21B JUMPI PUSH1 0x0 DUP1 REVERT JUMPDEST POP PUSH3 0x23A PUSH1 0x4 DUP1 CALLDATASIZE SUB PUSH3 0x234 SWAP2 SWAP1 DUP2 ADD SWAP1 PUSH3 0x1D4F JUMP JUMPDEST PUSH3 0xA96 JUMP JUMPDEST PUSH1 0x40 MLOAD PUSH3 0x24A SWAP3 SWAP2 SWAP1 PUSH3 0x238D JUMP JUMPDEST PUSH1 0x40 MLOAD DUP1 SWAP2 SUB SWAP1 RETURN JUMPDEST CALLVALUE DUP1 ISZERO PUSH3 0x260 JUMPI PUSH1 0x0 DUP1 REVERT JUMPDEST POP PUSH3 0x26B PUSH3 0xD65 JUMP JUMPDEST PUSH1 0x40 MLOAD PUSH3 0x27A SWAP2 SWAP1 PUSH3 0x2453 JUMP JUMPDEST PUSH1 0x40 MLOAD DUP1 SWAP2 SUB SWAP1 RETURN JUMPDEST CALLVALUE DUP1 ISZERO PUSH3 0x290 JUMPI PUSH1 0x0 DUP1 REVERT JUMPDEST POP PUSH3 0x2AF PUSH1 0x4 DUP1 CALLDATASIZE SUB PUSH3 0x2A9 SWAP2 SWAP1 DUP2 ADD SWAP1 PUSH3 0x1EBA JUMP JUMPDEST PUSH3 0xD8B JUMP JUMPDEST PUSH1 0x40 MLOAD PUSH3 0x2BE SWAP2 SWAP1 PUSH3 0x2270 JUMP JUMPDEST PUSH1 0x40 MLOAD DUP1 SWAP2 SUB SWAP1 RETURN JUMPDEST CALLVALUE DUP1 ISZERO PUSH3 0x2D4 JUMPI PUSH1 0x0 DUP1 REVERT JUMPDEST POP PUSH3 0x2F3 PUSH1 0x4 DUP1 CALLDATASIZE SUB PUSH3 0x2ED SWAP2 SWAP1 DUP2 ADD SWAP1 PUSH3 0x1EBA JUMP JUMPDEST PUSH3 0xDCA JUMP JUMPDEST PUSH1 0x40 MLOAD PUSH3 0x302 SWAP2 SWAP1 PUSH3 0x2412 JUMP JUMPDEST PUSH1 0x40 MLOAD DUP1 SWAP2 SUB SWAP1 RETURN JUMPDEST CALLVALUE DUP1 ISZERO PUSH3 0x318 JUMPI PUSH1 0x0 DUP1 REVERT JUMPDEST POP PUSH3 0x337 PUSH1 0x4 DUP1 CALLDATASIZE SUB PUSH3 0x331 SWAP2 SWAP1 DUP2 ADD SWAP1 PUSH3 0x1E75 JUMP JUMPDEST PUSH3 0x1048 JUMP JUMPDEST STOP JUMPDEST CALLVALUE DUP1 ISZERO PUSH3 0x346 JUMPI PUSH1 0x0 DUP1 REVERT JUMPDEST POP PUSH3 0x365 PUSH1 0x4 DUP1 CALLDATASIZE SUB PUSH3 0x35F SWAP2 SWAP1 DUP2 ADD SWAP1 PUSH3 0x1EBA JUMP JUMPDEST PUSH3 0x10F8 JUMP JUMPDEST PUSH1 0x40 MLOAD PUSH3 0x374 SWAP2 SWAP1 PUSH3 0x2270 JUMP JUMPDEST PUSH1 0x40 MLOAD DUP1 SWAP2 SUB SWAP1 RETURN JUMPDEST CALLVALUE DUP1 ISZERO PUSH3 0x38A JUMPI PUSH1 0x0 DUP1 REVERT JUMPDEST POP PUSH3 0x395 PUSH3 0x1188 JUMP JUMPDEST PUSH1 0x40 MLOAD PUSH3 0x3A4 SWAP2 SWAP1 PUSH3 0x23BA JUMP JUMPDEST PUSH1 0x40 MLOAD DUP1 SWAP2 SUB SWAP1 RETURN JUMPDEST CALLVALUE DUP1 ISZERO PUSH3 0x3BA JUMPI PUSH1 0x0 DUP1 REVERT JUMPDEST POP PUSH3 0x3D9 PUSH1 0x4 DUP1 CALLDATASIZE SUB PUSH3 0x3D3 SWAP2 SWAP1 DUP2 ADD SWAP1 PUSH3 0x1EBA JUMP JUMPDEST PUSH3 0x1218 JUMP JUMPDEST PUSH1 0x40 MLOAD PUSH3 0x3EB SWAP5 SWAP4 SWAP3 SWAP2 SWAP1 PUSH3 0x24EC JUMP JUMPDEST PUSH1 0x40 MLOAD DUP1 SWAP2 SUB SWAP1 RETURN JUMPDEST CALLVALUE DUP1 ISZERO PUSH3 0x401 JUMPI PUSH1 0x0 DUP1 REVERT JUMPDEST POP PUSH3 0x420 PUSH1 0x4 DUP1 CALLDATASIZE SUB PUSH3 0x41A SWAP2 SWAP1 DUP2 ADD SWAP1 PUSH3 0x1C73 JUMP JUMPDEST PUSH3 0x1591 JUMP JUMPDEST PUSH1 0x40 MLOAD PUSH3 0x431 SWAP4 SWAP3 SWAP2 SWAP1 PUSH3 0x22EE JUMP JUMPDEST PUSH1 0x40 MLOAD DUP1 SWAP2 SUB SWAP1 RETURN JUMPDEST CALLVALUE DUP1 ISZERO PUSH3 0x447 JUMPI PUSH1 0x0 DUP1 REVERT JUMPDEST POP PUSH3 0x452 PUSH3 0x1678 JUMP JUMPDEST PUSH1 0x40 MLOAD PUSH3 0x461 SWAP2 SWAP1 PUSH3 0x2646 JUMP JUMPDEST PUSH1 0x40 MLOAD DUP1 SWAP2 SUB SWAP1 RETURN JUMPDEST CALLVALUE DUP1 ISZERO PUSH3 0x477 JUMPI PUSH1 0x0 DUP1 REVERT JUMPDEST POP PUSH3 0x496 PUSH1 0x4 DUP1 CALLDATASIZE SUB PUSH3 0x490 SWAP2 SWAP1 DUP2 ADD SWAP1 PUSH3 0x1F6E JUMP JUMPDEST PUSH3 0x1685 JUMP JUMPDEST PUSH1 0x40 MLOAD PUSH3 0x4A8 SWAP5 SWAP4 SWAP3 SWAP2 SWAP1 PUSH3 0x2332 JUMP JUMPDEST PUSH1 0x40 MLOAD DUP1 SWAP2 SUB SWAP1 RETURN JUMPDEST CALLVALUE DUP1 ISZERO PUSH3 0x4BE JUMPI PUSH1 0x0 DUP1 REVERT JUMPDEST POP PUSH3 0x4DD PUSH1 0x4 DUP1 CALLDATASIZE SUB PUSH3 0x4D7 SWAP2 SWAP1 DUP2 ADD SWAP1 PUSH3 0x1D0E JUMP JUMPDEST PUSH3 0x1837 JUMP JUMPDEST PUSH1 0x40 MLOAD PUSH3 0x4EC SWAP2 SWAP1 PUSH3 0x2646 JUMP JUMPDEST PUSH1 0x40 MLOAD DUP1 SWAP2 SUB SWAP1 RETURN JUMPDEST PUSH1 0x4 PUSH1 0x0 SWAP1 SLOAD SWAP1 PUSH2 0x100 EXP SWAP1 DIV PUSH20 0xFFFFFFFFFFFFFFFFFFFFFFFFFFFFFFFFFFFFFFFF AND DUP2 JUMP JUMPDEST PUSH1 0x5 DUP2 DUP2 SLOAD DUP2 LT ISZERO ISZERO PUSH3 0x52B JUMPI INVALID JUMPDEST SWAP1 PUSH1 0x0 MSTORE PUSH1 0x20 PUSH1 0x0 KECCAK256 SWAP1 PUSH1 0x6 MUL ADD PUSH1 0x0 SWAP2 POP SWAP1 POP DUP1 PUSH1 0x0 ADD DUP1 SLOAD PUSH1 0x1 DUP2 PUSH1 0x1 AND ISZERO PUSH2 0x100 MUL SUB AND PUSH1 0x2 SWAP1 DIV DUP1 PUSH1 0x1F ADD PUSH1 0x20 DUP1 SWAP2 DIV MUL PUSH1 0x20 ADD PUSH1 0x40 MLOAD SWAP1 DUP2 ADD PUSH1 0x40 MSTORE DUP1 SWAP3 SWAP2 SWAP1 DUP2 DUP2 MSTORE PUSH1 0x20 ADD DUP3 DUP1 SLOAD PUSH1 0x1 DUP2 PUSH1 0x1 AND ISZERO PUSH2 0x100 MUL SUB AND PUSH1 0x2 SWAP1 DIV DUP1 ISZERO PUSH3 0x5DB JUMPI DUP1 PUSH1 0x1F LT PUSH3 0x5AF JUMPI PUSH2 0x100 DUP1 DUP4 SLOAD DIV MUL DUP4 MSTORE SWAP2 PUSH1 0x20 ADD SWAP2 PUSH3 0x5DB JUMP JUMPDEST DUP3 ADD SWAP2 SWAP1 PUSH1 0x0 MSTORE PUSH1 0x20 PUSH1 0x0 KECCAK256 SWAP1 JUMPDEST DUP2 SLOAD DUP2 MSTORE SWAP1 PUSH1 0x1 ADD SWAP1 PUSH1 0x20 ADD DUP1 DUP4 GT PUSH3 0x5BD JUMPI DUP3 SWAP1 SUB PUSH1 0x1F AND DUP3 ADD SWAP2 JUMPDEST POP POP POP POP POP SWAP1 DUP1 PUSH1 0x1 ADD DUP1 SLOAD PUSH1 0x1 DUP2 PUSH1 0x1 AND ISZERO PUSH2 0x100 MUL SUB AND PUSH1 0x2 SWAP1 DIV DUP1 PUSH1 0x1F ADD PUSH1 0x20 DUP1 SWAP2 DIV MUL PUSH1 0x20 ADD PUSH1 0x40 MLOAD SWAP1 DUP2 ADD PUSH1 0x40 MSTORE DUP1 SWAP3 SWAP2 SWAP1 DUP2 DUP2 MSTORE PUSH1 0x20 ADD DUP3 DUP1 SLOAD PUSH1 0x1 DUP2 PUSH1 0x1 AND ISZERO PUSH2 0x100 MUL SUB AND PUSH1 0x2 SWAP1 DIV DUP1 ISZERO PUSH3 0x67D JUMPI DUP1 PUSH1 0x1F LT PUSH3 0x651 JUMPI PUSH2 0x100 DUP1 DUP4 SLOAD DIV MUL DUP4 MSTORE SWAP2 PUSH1 0x20 ADD SWAP2 PUSH3 0x67D JUMP JUMPDEST DUP3 ADD SWAP2 SWAP1 PUSH1 0x0 MSTORE PUSH1 0x20 PUSH1 0x0 KECCAK256 SWAP1 JUMPDEST DUP2 SLOAD DUP2 MSTORE SWAP1 PUSH1 0x1 ADD SWAP1 PUSH1 0x20 ADD DUP1 DUP4 GT PUSH3 0x65F JUMPI DUP3 SWAP1 SUB PUSH1 0x1F AND DUP3 ADD SWAP2 JUMPDEST POP POP POP POP POP SWAP1 DUP1 PUSH1 0x2 ADD DUP1 SLOAD PUSH1 0x1 DUP2 PUSH1 0x1 AND ISZERO PUSH2 0x100 MUL SUB AND PUSH1 0x2 SWAP1 DIV DUP1 PUSH1 0x1F ADD PUSH1 0x20 DUP1 SWAP2 DIV MUL PUSH1 0x20 ADD PUSH1 0x40 MLOAD SWAP1 DUP2 ADD PUSH1 0x40 MSTORE DUP1 SWAP3 SWAP2 SWAP1 DUP2 DUP2 MSTORE PUSH1 0x20 ADD DUP3 DUP1 SLOAD PUSH1 0x1 DUP2 PUSH1 0x1 AND ISZERO PUSH2 0x100 MUL SUB AND PUSH1 0x2 SWAP1 DIV DUP1 ISZERO PUSH3 0x71F JUMPI DUP1 PUSH1 0x1F LT PUSH3 0x6F3 JUMPI PUSH2 0x100 DUP1 DUP4 SLOAD DIV MUL DUP4 MSTORE SWAP2 PUSH1 0x20 ADD SWAP2 PUSH3 0x71F JUMP JUMPDEST DUP3 ADD SWAP2 SWAP1 PUSH1 0x0 MSTORE PUSH1 0x20 PUSH1 0x0 KECCAK256 SWAP1 JUMPDEST DUP2 SLOAD DUP2 MSTORE SWAP1 PUSH1 0x1 ADD SWAP1 PUSH1 0x20 ADD DUP1 DUP4 GT PUSH3 0x701 JUMPI DUP3 SWAP1 SUB PUSH1 0x1F AND DUP3 ADD SWAP2 JUMPDEST POP POP POP POP POP SWAP1 DUP1 PUSH1 0x3 ADD SLOAD SWAP1 DUP1 PUSH1 0x4 ADD PUSH1 0x0 SWAP1 SLOAD SWAP1 PUSH2 0x100 EXP SWAP1 DIV PUSH20 0xFFFFFFFFFFFFFFFFFFFFFFFFFFFFFFFFFFFFFFFF AND SWAP1 DUP1 PUSH1 0x5 ADD PUSH1 0x0 SWAP1 SLOAD SWAP1 PUSH2 0x100 EXP SWAP1 DIV PUSH20 0xFFFFFFFFFFFFFFFFFFFFFFFFFFFFFFFFFFFFFFFF AND SWAP1 DUP1 PUSH1 0x5 ADD PUSH1 0x14 SWAP1 SLOAD SWAP1 PUSH2 0x100 EXP SWAP1 DIV PUSH1 0xFF AND SWAP1 POP DUP8 JUMP JUMPDEST PUSH3 0x798 PUSH3 0x1963 JUMP JUMPDEST PUSH1 0x5 DUP1 SLOAD SWAP1 POP DUP5 LT ISZERO ISZERO PUSH3 0x7E4 JUMPI PUSH1 0x40 MLOAD PUSH32 0x8C379A000000000000000000000000000000000000000000000000000000000 DUP2 MSTORE PUSH1 0x4 ADD PUSH3 0x7DB SWAP1 PUSH3 0x25E0 JUMP JUMPDEST PUSH1 0x40 MLOAD DUP1 SWAP2 SUB SWAP1 REVERT JUMPDEST PUSH1 0x80 PUSH1 0x40 MLOAD SWAP1 DUP2 ADD PUSH1 0x40 MSTORE DUP1 CALLER PUSH20 0xFFFFFFFFFFFFFFFFFFFFFFFFFFFFFFFFFFFFFFFF AND DUP2 MSTORE PUSH1 0x20 ADD DUP5 DUP2 MSTORE PUSH1 0x20 ADD DUP4 DUP2 MSTORE PUSH1 0x20 ADD PUSH1 0x0 ISZERO ISZERO DUP2 MSTORE POP SWAP1 POP PUSH1 0x7 PUSH1 0x0 DUP6 DUP2 MSTORE PUSH1 0x20 ADD SWAP1 DUP2 MSTORE PUSH1 0x20 ADD PUSH1 0x0 KECCAK256 DUP2 SWAP1 DUP1 PUSH1 0x1 DUP2 SLOAD ADD DUP1 DUP3 SSTORE DUP1 SWAP2 POP POP SWAP1 PUSH1 0x1 DUP3 SUB SWAP1 PUSH1 0x0 MSTORE PUSH1 0x20 PUSH1 0x0 KECCAK256 SWAP1 PUSH1 0x4 MUL ADD PUSH1 0x0 SWAP1 SWAP2 SWAP3 SWAP1 SWAP2 SWAP1 SWAP2 POP PUSH1 0x0 DUP3 ADD MLOAD DUP2 PUSH1 0x0 ADD PUSH1 0x0 PUSH2 0x100 EXP DUP2 SLOAD DUP2 PUSH20 0xFFFFFFFFFFFFFFFFFFFFFFFFFFFFFFFFFFFFFFFF MUL NOT AND SWAP1 DUP4 PUSH20 0xFFFFFFFFFFFFFFFFFFFFFFFFFFFFFFFFFFFFFFFF AND MUL OR SWAP1 SSTORE POP PUSH1 0x20 DUP3 ADD MLOAD DUP2 PUSH1 0x1 ADD SWAP1 DUP1 MLOAD SWAP1 PUSH1 0x20 ADD SWAP1 PUSH3 0x8C5 SWAP3 SWAP2 SWAP1 PUSH3 0x19A4 JUMP JUMPDEST POP PUSH1 0x40 DUP3 ADD MLOAD DUP2 PUSH1 0x2 ADD SWAP1 DUP1 MLOAD SWAP1 PUSH1 0x20 ADD SWAP1 PUSH3 0x8E4 SWAP3 SWAP2 SWAP1 PUSH3 0x19A4 JUMP JUMPDEST POP PUSH1 0x60 DUP3 ADD MLOAD DUP2 PUSH1 0x3 ADD PUSH1 0x0 PUSH2 0x100 EXP DUP2 SLOAD DUP2 PUSH1 0xFF MUL NOT AND SWAP1 DUP4 ISZERO ISZERO MUL OR SWAP1 SSTORE POP POP POP POP CALLER PUSH20 0xFFFFFFFFFFFFFFFFFFFFFFFFFFFFFFFFFFFFFFFF AND DUP5 PUSH32 0x26E7AD599A4714F10E3F9C1984037509E38BB55237A72F48E7AFFAA058230AB7 DUP6 DUP6 PUSH1 0x40 MLOAD PUSH3 0x953 SWAP3 SWAP2 SWAP1 PUSH3 0x24B1 JUMP JUMPDEST PUSH1 0x40 MLOAD DUP1 SWAP2 SUB SWAP1 LOG3 POP POP POP POP JUMP JUMPDEST PUSH1 0x1 PUSH1 0x20 MSTORE DUP1 PUSH1 0x0 MSTORE PUSH1 0x40 PUSH1 0x0 KECCAK256 PUSH1 0x0 SWAP2 POP SLOAD SWAP1 PUSH2 0x100 EXP SWAP1 DIV PUSH1 0xFF AND DUP2 JUMP JUMPDEST PUSH1 0x3 PUSH1 0x0 SWAP1 SLOAD SWAP1 PUSH2 0x100 EXP SWAP1 DIV PUSH20 0xFFFFFFFFFFFFFFFFFFFFFFFFFFFFFFFFFFFFFFFF AND PUSH20 0xFFFFFFFFFFFFFFFFFFFFFFFFFFFFFFFFFFFFFFFF AND PUSH4 0xFE9FBB80 CALLER PUSH1 0x40 MLOAD DUP3 PUSH4 0xFFFFFFFF AND PUSH29 0x100000000000000000000000000000000000000000000000000000000 MUL DUP2 MSTORE PUSH1 0x4 ADD PUSH3 0x9FA SWAP2 SWAP1 PUSH3 0x2270 JUMP JUMPDEST PUSH1 0x20 PUSH1 0x40 MLOAD DUP1 DUP4 SUB DUP2 PUSH1 0x0 DUP8 DUP1 EXTCODESIZE ISZERO DUP1 ISZERO PUSH3 0xA15 JUMPI PUSH1 0x0 DUP1 REVERT JUMPDEST POP GAS CALL ISZERO DUP1 ISZERO PUSH3 0xA2A JUMPI RETURNDATASIZE PUSH1 0x0 DUP1 RETURNDATACOPY RETURNDATASIZE PUSH1 0x0 REVERT JUMPDEST POP POP POP POP PUSH1 0x40 MLOAD RETURNDATASIZE PUSH1 0x1F NOT PUSH1 0x1F DUP3 ADD AND DUP3 ADD DUP1 PUSH1 0x40 MSTORE POP PUSH3 0xA50 SWAP2 SWAP1 DUP2 ADD SWAP1 PUSH3 0x1E49 JUMP JUMPDEST ISZERO ISZERO PUSH3 0xA94 JUMPI PUSH1 0x40 MLOAD PUSH32 0x8C379A000000000000000000000000000000000000000000000000000000000 DUP2 MSTORE PUSH1 0x4 ADD PUSH3 0xA8B SWAP1 PUSH3 0x2624 JUMP JUMPDEST PUSH1 0x40 MLOAD DUP1 SWAP2 SUB SWAP1 REVERT JUMPDEST JUMP JUMPDEST PUSH1 0x0 DUP1 PUSH3 0xAA3 PUSH3 0x1A2B JUMP JUMPDEST DUP9 DUP9 PUSH3 0xAAF PUSH3 0x1A97 JUMP JUMPDEST PUSH3 0xABC SWAP3 SWAP2 SWAP1 PUSH3 0x23DE JUMP JUMPDEST PUSH1 0x40 MLOAD DUP1 SWAP2 SUB SWAP1 PUSH1 0x0 CREATE DUP1 ISZERO DUP1 ISZERO PUSH3 0xAD9 JUMPI RETURNDATASIZE PUSH1 0x0 DUP1 RETURNDATACOPY RETURNDATASIZE PUSH1 0x0 REVERT JUMPDEST POP SWAP3 POP PUSH3 0xAE7 DUP4 PUSH3 0x1868 JUMP JUMPDEST PUSH1 0xE0 PUSH1 0x40 MLOAD SWAP1 DUP2 ADD PUSH1 0x40 MSTORE DUP1 DUP9 DUP2 MSTORE PUSH1 0x20 ADD DUP8 DUP2 MSTORE PUSH1 0x20 ADD DUP7 DUP2 MSTORE PUSH1 0x20 ADD DUP6 DUP2 MSTORE PUSH1 0x20 ADD CALLER PUSH20 0xFFFFFFFFFFFFFFFFFFFFFFFFFFFFFFFFFFFFFFFF AND DUP2 MSTORE PUSH1 0x20 ADD DUP5 PUSH20 0xFFFFFFFFFFFFFFFFFFFFFFFFFFFFFFFFFFFFFFFF AND DUP2 MSTORE PUSH1 0x20 ADD PUSH1 0x1 ISZERO ISZERO DUP2 MSTORE POP SWAP1 POP PUSH1 0x5 DUP2 SWAP1 DUP1 PUSH1 0x1 DUP2 SLOAD ADD DUP1 DUP3 SSTORE DUP1 SWAP2 POP POP SWAP1 PUSH1 0x1 DUP3 SUB SWAP1 PUSH1 0x0 MSTORE PUSH1 0x20 PUSH1 0x0 KECCAK256 SWAP1 PUSH1 0x6 MUL ADD PUSH1 0x0 SWAP1 SWAP2 SWAP3 SWAP1 SWAP2 SWAP1 SWAP2 POP PUSH1 0x0 DUP3 ADD MLOAD DUP2 PUSH1 0x0 ADD SWAP1 DUP1 MLOAD SWAP1 PUSH1 0x20 ADD SWAP1 PUSH3 0xB98 SWAP3 SWAP2 SWAP1 PUSH3 0x19A4 JUMP JUMPDEST POP PUSH1 0x20 DUP3 ADD MLOAD DUP2 PUSH1 0x1 ADD SWAP1 DUP1 MLOAD SWAP1 PUSH1 0x20 ADD SWAP1 PUSH3 0xBB7 SWAP3 SWAP2 SWAP1 PUSH3 0x19A4 JUMP JUMPDEST POP PUSH1 0x40 DUP3 ADD MLOAD DUP2 PUSH1 0x2 ADD SWAP1 DUP1 MLOAD SWAP1 PUSH1 0x20 ADD SWAP1 PUSH3 0xBD6 SWAP3 SWAP2 SWAP1 PUSH3 0x19A4 JUMP JUMPDEST POP PUSH1 0x60 DUP3 ADD MLOAD DUP2 PUSH1 0x3 ADD SSTORE PUSH1 0x80 DUP3 ADD MLOAD DUP2 PUSH1 0x4 ADD PUSH1 0x0 PUSH2 0x100 EXP DUP2 SLOAD DUP2 PUSH20 0xFFFFFFFFFFFFFFFFFFFFFFFFFFFFFFFFFFFFFFFF MUL NOT AND SWAP1 DUP4 PUSH20 0xFFFFFFFFFFFFFFFFFFFFFFFFFFFFFFFFFFFFFFFF AND MUL OR SWAP1 SSTORE POP PUSH1 0xA0 DUP3 ADD MLOAD DUP2 PUSH1 0x5 ADD PUSH1 0x0 PUSH2 0x100 EXP DUP2 SLOAD DUP2 PUSH20 0xFFFFFFFFFFFFFFFFFFFFFFFFFFFFFFFFFFFFFFFF MUL NOT AND SWAP1 DUP4 PUSH20 0xFFFFFFFFFFFFFFFFFFFFFFFFFFFFFFFFFFFFFFFF AND MUL OR SWAP1 SSTORE POP PUSH1 0xC0 DUP3 ADD MLOAD DUP2 PUSH1 0x5 ADD PUSH1 0x14 PUSH2 0x100 EXP DUP2 SLOAD DUP2 PUSH1 0xFF MUL NOT AND SWAP1 DUP4 ISZERO ISZERO MUL OR SWAP1 SSTORE POP POP POP POP PUSH1 0x1 PUSH1 0x5 DUP1 SLOAD SWAP1 POP SUB SWAP2 POP PUSH1 0x6 PUSH1 0x0 CALLER PUSH20 0xFFFFFFFFFFFFFFFFFFFFFFFFFFFFFFFFFFFFFFFF AND PUSH20 0xFFFFFFFFFFFFFFFFFFFFFFFFFFFFFFFFFFFFFFFF AND DUP2 MSTORE PUSH1 0x20 ADD SWAP1 DUP2 MSTORE PUSH1 0x20 ADD PUSH1 0x0 KECCAK256 DUP3 SWAP1 DUP1 PUSH1 0x1 DUP2 SLOAD ADD DUP1 DUP3 SSTORE DUP1 SWAP2 POP POP SWAP1 PUSH1 0x1 DUP3 SUB SWAP1 PUSH1 0x0 MSTORE PUSH1 0x20 PUSH1 0x0 KECCAK256 ADD PUSH1 0x0 SWAP1 SWAP2 SWAP3 SWAP1 SWAP2 SWAP1 SWAP2 POP SSTORE POP CALLER PUSH20 0xFFFFFFFFFFFFFFFFFFFFFFFFFFFFFFFFFFFFFFFF AND DUP3 PUSH32 0x80DB542AF6C20F3E65EF1491B0E21348D7E0886188A155C44E2FB98BE44C232B DUP6 DUP11 PUSH1 0x40 MLOAD PUSH3 0xD51 SWAP3 SWAP2 SWAP1 PUSH3 0x22BA JUMP JUMPDEST PUSH1 0x40 MLOAD DUP1 SWAP2 SUB SWAP1 LOG3 POP SWAP7 POP SWAP7 SWAP5 POP POP POP POP POP JUMP JUMPDEST PUSH1 0x3 PUSH1 0x0 SWAP1 SLOAD SWAP1 PUSH2 0x100 EXP SWAP1 DIV PUSH20 0xFFFFFFFFFFFFFFFFFFFFFFFFFFFFFFFFFFFFFFFF AND DUP2 JUMP JUMPDEST PUSH1 0x2 DUP2 DUP2 SLOAD DUP2 LT ISZERO ISZERO PUSH3 0xD9B JUMPI INVALID JUMPDEST SWAP1 PUSH1 0x0 MSTORE PUSH1 0x20 PUSH1 0x0 KECCAK256 ADD PUSH1 0x0 SWAP2 POP SLOAD SWAP1 PUSH2 0x100 EXP SWAP1 DIV PUSH20 0xFFFFFFFFFFFFFFFFFFFFFFFFFFFFFFFFFFFFFFFF AND DUP2 JUMP JUMPDEST PUSH1 0x60 PUSH1 0x5 DUP1 SLOAD SWAP1 POP DUP3 LT ISZERO ISZERO PUSH3 0xE18 JUMPI PUSH1 0x40 MLOAD PUSH32 0x8C379A000000000000000000000000000000000000000000000000000000000 DUP2 MSTORE PUSH1 0x4 ADD PUSH3 0xE0F SWAP1 PUSH3 0x25E0 JUMP JUMPDEST PUSH1 0x40 MLOAD DUP1 SWAP2 SUB SWAP1 REVERT JUMPDEST PUSH1 0x7 PUSH1 0x0 DUP4 DUP2 MSTORE PUSH1 0x20 ADD SWAP1 DUP2 MSTORE PUSH1 0x20 ADD PUSH1 0x0 KECCAK256 DUP1 SLOAD DUP1 PUSH1 0x20 MUL PUSH1 0x20 ADD PUSH1 0x40 MLOAD SWAP1 DUP2 ADD PUSH1 0x40 MSTORE DUP1 SWAP3 SWAP2 SWAP1 DUP2 DUP2 MSTORE PUSH1 0x20 ADD PUSH1 0x0 SWAP1 JUMPDEST DUP3 DUP3 LT ISZERO PUSH3 0x103D JUMPI DUP4 DUP3 SWAP1 PUSH1 0x0 MSTORE PUSH1 0x20 PUSH1 0x0 KECCAK256 SWAP1 PUSH1 0x4 MUL ADD PUSH1 0x80 PUSH1 0x40 MLOAD SWAP1 DUP2 ADD PUSH1 0x40 MSTORE SWAP1 DUP2 PUSH1 0x0 DUP3 ADD PUSH1 0x0 SWAP1 SLOAD SWAP1 PUSH2 0x100 EXP SWAP1 DIV PUSH20 0xFFFFFFFFFFFFFFFFFFFFFFFFFFFFFFFFFFFFFFFF AND PUSH20 0xFFFFFFFFFFFFFFFFFFFFFFFFFFFFFFFFFFFFFFFF AND PUSH20 0xFFFFFFFFFFFFFFFFFFFFFFFFFFFFFFFFFFFFFFFF AND DUP2 MSTORE PUSH1 0x20 ADD PUSH1 0x1 DUP3 ADD DUP1 SLOAD PUSH1 0x1 DUP2 PUSH1 0x1 AND ISZERO PUSH2 0x100 MUL SUB AND PUSH1 0x2 SWAP1 DIV DUP1 PUSH1 0x1F ADD PUSH1 0x20 DUP1 SWAP2 DIV MUL PUSH1 0x20 ADD PUSH1 0x40 MLOAD SWAP1 DUP2 ADD PUSH1 0x40 MSTORE DUP1 SWAP3 SWAP2 SWAP1 DUP2 DUP2 MSTORE PUSH1 0x20 ADD DUP3 DUP1 SLOAD PUSH1 0x1 DUP2 PUSH1 0x1 AND ISZERO PUSH2 0x100 MUL SUB AND PUSH1 0x2 SWAP1 DIV DUP1 ISZERO PUSH3 0xF63 JUMPI DUP1 PUSH1 0x1F LT PUSH3 0xF37 JUMPI PUSH2 0x100 DUP1 DUP4 SLOAD DIV MUL DUP4 MSTORE SWAP2 PUSH1 0x20 ADD SWAP2 PUSH3 0xF63 JUMP JUMPDEST DUP3 ADD SWAP2 SWAP1 PUSH1 0x0 MSTORE PUSH1 0x20 PUSH1 0x0 KECCAK256 SWAP1 JUMPDEST DUP2 SLOAD DUP2 MSTORE SWAP1 PUSH1 0x1 ADD SWAP1 PUSH1 0x20 ADD DUP1 DUP4 GT PUSH3 0xF45 JUMPI DUP3 SWAP1 SUB PUSH1 0x1F AND DUP3 ADD SWAP2 JUMPDEST POP POP POP POP POP DUP2 MSTORE PUSH1 0x20 ADD PUSH1 0x2 DUP3 ADD DUP1 SLOAD PUSH1 0x1 DUP2 PUSH1 0x1 AND ISZERO PUSH2 0x100 MUL SUB AND PUSH1 0x2 SWAP1 DIV DUP1 PUSH1 0x1F ADD PUSH1 0x20 DUP1 SWAP2 DIV MUL PUSH1 0x20 ADD PUSH1 0x40 MLOAD SWAP1 DUP2 ADD PUSH1 0x40 MSTORE DUP1 SWAP3 SWAP2 SWAP1 DUP2 DUP2 MSTORE PUSH1 0x20 ADD DUP3 DUP1 SLOAD PUSH1 0x1 DUP2 PUSH1 0x1 AND ISZERO PUSH2 0x100 MUL SUB AND PUSH1 0x2 SWAP1 DIV DUP1 ISZERO PUSH3 0x1009 JUMPI DUP1 PUSH1 0x1F LT PUSH3 0xFDD JUMPI PUSH2 0x100 DUP1 DUP4 SLOAD DIV MUL DUP4 MSTORE SWAP2 PUSH1 0x20 ADD SWAP2 PUSH3 0x1009 JUMP JUMPDEST DUP3 ADD SWAP2 SWAP1 PUSH1 0x0 MSTORE PUSH1 0x20 PUSH1 0x0 KECCAK256 SWAP1 JUMPDEST DUP2 SLOAD DUP2 MSTORE SWAP1 PUSH1 0x1 ADD SWAP1 PUSH1 0x20 ADD DUP1 DUP4 GT PUSH3 0xFEB JUMPI DUP3 SWAP1 SUB PUSH1 0x1F AND DUP3 ADD SWAP2 JUMPDEST POP POP POP POP POP DUP2 MSTORE PUSH1 0x20 ADD PUSH1 0x3 DUP3 ADD PUSH1 0x0 SWAP1 SLOAD SWAP1 PUSH2 0x100 EXP SWAP1 DIV PUSH1 0xFF AND ISZERO ISZERO ISZERO ISZERO DUP2 MSTORE POP POP DUP2 MSTORE PUSH1 0x20 ADD SWAP1 PUSH1 0x1 ADD SWAP1 PUSH3 0xE4B JUMP JUMPDEST POP POP POP POP SWAP1 POP SWAP2 SWAP1 POP JUMP JUMPDEST PUSH1 0x4 PUSH1 0x0 SWAP1 SLOAD SWAP1 PUSH2 0x100 EXP SWAP1 DIV PUSH20 0xFFFFFFFFFFFFFFFFFFFFFFFFFFFFFFFFFFFFFFFF AND PUSH20 0xFFFFFFFFFFFFFFFFFFFFFFFFFFFFFFFFFFFFFFFF AND PUSH4 0x80C8F4FA DUP3 PUSH1 0x40 MLOAD DUP3 PUSH4 0xFFFFFFFF AND PUSH29 0x100000000000000000000000000000000000000000000000000000000 MUL DUP2 MSTORE PUSH1 0x4 ADD PUSH3 0x10C1 SWAP2 SWAP1 PUSH3 0x248D JUMP JUMPDEST PUSH1 0x0 PUSH1 0x40 MLOAD DUP1 DUP4 SUB DUP2 PUSH1 0x0 DUP8 DUP1 EXTCODESIZE ISZERO DUP1 ISZERO PUSH3 0x10DC JUMPI PUSH1 0x0 DUP1 REVERT JUMPDEST POP GAS CALL ISZERO DUP1 ISZERO PUSH3 0x10F1 JUMPI RETURNDATASIZE PUSH1 0x0 DUP1 RETURNDATACOPY RETURNDATASIZE PUSH1 0x0 REVERT JUMPDEST POP POP POP POP POP JUMP JUMPDEST PUSH1 0x0 PUSH1 0x2 DUP1 SLOAD SWAP1 POP DUP3 LT ISZERO ISZERO PUSH3 0x1146 JUMPI PUSH1 0x40 MLOAD PUSH32 0x8C379A000000000000000000000000000000000000000000000000000000000 DUP2 MSTORE PUSH1 0x4 ADD PUSH3 0x113D SWAP1 PUSH3 0x2602 JUMP JUMPDEST PUSH1 0x40 MLOAD DUP1 SWAP2 SUB SWAP1 REVERT JUMPDEST PUSH1 0x2 DUP3 DUP2 SLOAD DUP2 LT ISZERO ISZERO PUSH3 0x1156 JUMPI INVALID JUMPDEST SWAP1 PUSH1 0x0 MSTORE PUSH1 0x20 PUSH1 0x0 KECCAK256 ADD PUSH1 0x0 SWAP1 SLOAD SWAP1 PUSH2 0x100 EXP SWAP1 DIV PUSH20 0xFFFFFFFFFFFFFFFFFFFFFFFFFFFFFFFFFFFFFFFF AND SWAP1 POP SWAP2 SWAP1 POP JUMP JUMPDEST PUSH1 0x60 PUSH1 0x2 DUP1 SLOAD DUP1 PUSH1 0x20 MUL PUSH1 0x20 ADD PUSH1 0x40 MLOAD SWAP1 DUP2 ADD PUSH1 0x40 MSTORE DUP1 SWAP3 SWAP2 SWAP1 DUP2 DUP2 MSTORE PUSH1 0x20 ADD DUP3 DUP1 SLOAD DUP1 ISZERO PUSH3 0x120E JUMPI PUSH1 0x20 MUL DUP3 ADD SWAP2 SWAP1 PUSH1 0x0 MSTORE PUSH1 0x20 PUSH1 0x0 KECCAK256 SWAP1 JUMPDEST DUP2 PUSH1 0x0 SWAP1 SLOAD SWAP1 PUSH2 0x100 EXP SWAP1 DIV PUSH20 0xFFFFFFFFFFFFFFFFFFFFFFFFFFFFFFFFFFFFFFFF AND PUSH20 0xFFFFFFFFFFFFFFFFFFFFFFFFFFFFFFFFFFFFFFFF AND DUP2 MSTORE PUSH1 0x20 ADD SWAP1 PUSH1 0x1 ADD SWAP1 DUP1 DUP4 GT PUSH3 0x11C3 JUMPI JUMPDEST POP POP POP POP POP SWAP1 POP SWAP1 JUMP JUMPDEST PUSH1 0x60 DUP1 PUSH1 0x60 PUSH1 0x0 PUSH3 0x1229 PUSH3 0x1A2B JUMP JUMPDEST PUSH1 0x5 DUP1 SLOAD SWAP1 POP DUP7 LT ISZERO ISZERO PUSH3 0x1275 JUMPI PUSH1 0x40 MLOAD PUSH32 0x8C379A000000000000000000000000000000000000000000000000000000000 DUP2 MSTORE PUSH1 0x4 ADD PUSH3 0x126C SWAP1 PUSH3 0x25E0 JUMP JUMPDEST PUSH1 0x40 MLOAD DUP1 SWAP2 SUB SWAP1 REVERT JUMPDEST PUSH1 0x5 DUP7 DUP2 SLOAD DUP2 LT ISZERO ISZERO PUSH3 0x1285 JUMPI INVALID JUMPDEST SWAP1 PUSH1 0x0 MSTORE PUSH1 0x20 PUSH1 0x0 KECCAK256 SWAP1 PUSH1 0x6 MUL ADD PUSH1 0xE0 PUSH1 0x40 MLOAD SWAP1 DUP2 ADD PUSH1 0x40 MSTORE SWAP1 DUP2 PUSH1 0x0 DUP3 ADD DUP1 SLOAD PUSH1 0x1 DUP2 PUSH1 0x1 AND ISZERO PUSH2 0x100 MUL SUB AND PUSH1 0x2 SWAP1 DIV DUP1 PUSH1 0x1F ADD PUSH1 0x20 DUP1 SWAP2 DIV MUL PUSH1 0x20 ADD PUSH1 0x40 MLOAD SWAP1 DUP2 ADD PUSH1 0x40 MSTORE DUP1 SWAP3 SWAP2 SWAP1 DUP2 DUP2 MSTORE PUSH1 0x20 ADD DUP3 DUP1 SLOAD PUSH1 0x1 DUP2 PUSH1 0x1 AND ISZERO PUSH2 0x100 MUL SUB AND PUSH1 0x2 SWAP1 DIV DUP1 ISZERO PUSH3 0x133C JUMPI DUP1 PUSH1 0x1F LT PUSH3 0x1310 JUMPI PUSH2 0x100 DUP1 DUP4 SLOAD DIV MUL DUP4 MSTORE SWAP2 PUSH1 0x20 ADD SWAP2 PUSH3 0x133C JUMP JUMPDEST DUP3 ADD SWAP2 SWAP1 PUSH1 0x0 MSTORE PUSH1 0x20 PUSH1 0x0 KECCAK256 SWAP1 JUMPDEST DUP2 SLOAD DUP2 MSTORE SWAP1 PUSH1 0x1 ADD SWAP1 PUSH1 0x20 ADD DUP1 DUP4 GT PUSH3 0x131E JUMPI DUP3 SWAP1 SUB PUSH1 0x1F AND DUP3 ADD SWAP2 JUMPDEST POP POP POP POP POP DUP2 MSTORE PUSH1 0x20 ADD PUSH1 0x1 DUP3 ADD DUP1 SLOAD PUSH1 0x1 DUP2 PUSH1 0x1 AND ISZERO PUSH2 0x100 MUL SUB AND PUSH1 0x2 SWAP1 DIV DUP1 PUSH1 0x1F ADD PUSH1 0x20 DUP1 SWAP2 DIV MUL PUSH1 0x20 ADD PUSH1 0x40 MLOAD SWAP1 DUP2 ADD PUSH1 0x40 MSTORE DUP1 SWAP3 SWAP2 SWAP1 DUP2 DUP2 MSTORE PUSH1 0x20 ADD DUP3 DUP1 SLOAD PUSH1 0x1 DUP2 PUSH1 0x1 AND ISZERO PUSH2 0x100 MUL SUB AND PUSH1 0x2 SWAP1 DIV DUP1 ISZERO PUSH3 0x13E2 JUMPI DUP1 PUSH1 0x1F LT PUSH3 0x13B6 JUMPI PUSH2 0x100 DUP1 DUP4 SLOAD DIV MUL DUP4 MSTORE SWAP2 PUSH1 0x20 ADD SWAP2 PUSH3 0x13E2 JUMP JUMPDEST DUP3 ADD SWAP2 SWAP1 PUSH1 0x0 MSTORE PUSH1 0x20 PUSH1 0x0 KECCAK256 SWAP1 JUMPDEST DUP2 SLOAD DUP2 MSTORE SWAP1 PUSH1 0x1 ADD SWAP1 PUSH1 0x20 ADD DUP1 DUP4 GT PUSH3 0x13C4 JUMPI DUP3 SWAP1 SUB PUSH1 0x1F AND DUP3 ADD SWAP2 JUMPDEST POP POP POP POP POP DUP2 MSTORE PUSH1 0x20 ADD PUSH1 0x2 DUP3 ADD DUP1 SLOAD PUSH1 0x1 DUP2 PUSH1 0x1 AND ISZERO PUSH2 0x100 MUL SUB AND PUSH1 0x2 SWAP1 DIV DUP1 PUSH1 0x1F ADD PUSH1 0x20 DUP1 SWAP2 DIV MUL PUSH1 0x20 ADD PUSH1 0x40 MLOAD SWAP1 DUP2 ADD PUSH1 0x40 MSTORE DUP1 SWAP3 SWAP2 SWAP1 DUP2 DUP2 MSTORE PUSH1 0x20 ADD DUP3 DUP1 SLOAD PUSH1 0x1 DUP2 PUSH1 0x1 AND ISZERO PUSH2 0x100 MUL SUB AND PUSH1 0x2 SWAP1 DIV DUP1 ISZERO PUSH3 0x1488 JUMPI DUP1 PUSH1 0x1F LT PUSH3 0x145C JUMPI PUSH2 0x100 DUP1 DUP4 SLOAD DIV MUL DUP4 MSTORE SWAP2 PUSH1 0x20 ADD SWAP2 PUSH3 0x1488 JUMP JUMPDEST DUP3 ADD SWAP2 SWAP1 PUSH1 0x0 MSTORE PUSH1 0x20 PUSH1 0x0 KECCAK256 SWAP1 JUMPDEST DUP2 SLOAD DUP2 MSTORE SWAP1 PUSH1 0x1 ADD SWAP1 PUSH1 0x20 ADD DUP1 DUP4 GT PUSH3 0x146A JUMPI DUP3 SWAP1 SUB PUSH1 0x1F AND DUP3 ADD SWAP2 JUMPDEST POP POP POP POP POP DUP2 MSTORE PUSH1 0x20 ADD PUSH1 0x3 DUP3 ADD SLOAD DUP2 MSTORE PUSH1 0x20 ADD PUSH1 0x4 DUP3 ADD PUSH1 0x0 SWAP1 SLOAD SWAP1 PUSH2 0x100 EXP SWAP1 DIV PUSH20 0xFFFFFFFFFFFFFFFFFFFFFFFFFFFFFFFFFFFFFFFF AND PUSH20 0xFFFFFFFFFFFFFFFFFFFFFFFFFFFFFFFFFFFFFFFF AND PUSH20 0xFFFFFFFFFFFFFFFFFFFFFFFFFFFFFFFFFFFFFFFF AND DUP2 MSTORE PUSH1 0x20 ADD PUSH1 0x5 DUP3 ADD PUSH1 0x0 SWAP1 SLOAD SWAP1 PUSH2 0x100 EXP SWAP1 DIV PUSH20 0xFFFFFFFFFFFFFFFFFFFFFFFFFFFFFFFFFFFFFFFF AND PUSH20 0xFFFFFFFFFFFFFFFFFFFFFFFFFFFFFFFFFFFFFFFF AND PUSH20 0xFFFFFFFFFFFFFFFFFFFFFFFFFFFFFFFFFFFFFFFF AND DUP2 MSTORE PUSH1 0x20 ADD PUSH1 0x5 DUP3 ADD PUSH1 0x14 SWAP1 SLOAD SWAP1 PUSH2 0x100 EXP SWAP1 DIV PUSH1 0xFF AND ISZERO ISZERO ISZERO ISZERO DUP2 MSTORE POP POP SWAP1 POP DUP1 PUSH1 0x0 ADD MLOAD DUP2 PUSH1 0x20 ADD MLOAD DUP3 PUSH1 0x40 ADD MLOAD DUP4 PUSH1 0x60 ADD MLOAD DUP4 SWAP4 POP DUP3 SWAP3 POP DUP2 SWAP2 POP SWAP5 POP SWAP5 POP SWAP5 POP SWAP5 POP POP SWAP2 SWAP4 POP SWAP2 SWAP4 JUMP JUMPDEST PUSH1 0x0 PUSH1 0x60 PUSH1 0x0 PUSH1 0x4 PUSH1 0x0 SWAP1 SLOAD SWAP1 PUSH2 0x100 EXP SWAP1 DIV PUSH20 0xFFFFFFFFFFFFFFFFFFFFFFFFFFFFFFFFFFFFFFFF AND PUSH20 0xFFFFFFFFFFFFFFFFFFFFFFFFFFFFFFFFFFFFFFFF AND PUSH4 0xC011B1C3 DUP6 PUSH1 0x40 MLOAD DUP3 PUSH4 0xFFFFFFFF AND PUSH29 0x100000000000000000000000000000000000000000000000000000000 MUL DUP2 MSTORE PUSH1 0x4 ADD PUSH3 0x1610 SWAP2 SWAP1 PUSH3 0x2270 JUMP JUMPDEST PUSH1 0x0 PUSH1 0x40 MLOAD DUP1 DUP4 SUB DUP2 PUSH1 0x0 DUP8 DUP1 EXTCODESIZE ISZERO DUP1 ISZERO PUSH3 0x162B JUMPI PUSH1 0x0 DUP1 REVERT JUMPDEST POP GAS CALL ISZERO DUP1 ISZERO PUSH3 0x1640 JUMPI RETURNDATASIZE PUSH1 0x0 DUP1 RETURNDATACOPY RETURNDATASIZE PUSH1 0x0 REVERT JUMPDEST POP POP POP POP PUSH1 0x40 MLOAD RETURNDATASIZE PUSH1 0x0 DUP3 RETURNDATACOPY RETURNDATASIZE PUSH1 0x1F NOT PUSH1 0x1F DUP3 ADD AND DUP3 ADD DUP1 PUSH1 0x40 MSTORE POP PUSH3 0x166B SWAP2 SWAP1 DUP2 ADD SWAP1 PUSH3 0x1C9F JUMP JUMPDEST SWAP3 POP SWAP3 POP SWAP3 POP SWAP2 SWAP4 SWAP1 SWAP3 POP JUMP JUMPDEST PUSH1 0x0 PUSH1 0x2 DUP1 SLOAD SWAP1 POP SWAP1 POP SWAP1 JUMP JUMPDEST PUSH1 0x7 PUSH1 0x20 MSTORE DUP2 PUSH1 0x0 MSTORE PUSH1 0x40 PUSH1 0x0 KECCAK256 DUP2 DUP2 SLOAD DUP2 LT ISZERO ISZERO PUSH3 0x16A1 JUMPI INVALID JUMPDEST SWAP1 PUSH1 0x0 MSTORE PUSH1 0x20 PUSH1 0x0 KECCAK256 SWAP1 PUSH1 0x4 MUL ADD PUSH1 0x0 SWAP2 POP SWAP2 POP POP DUP1 PUSH1 0x0 ADD PUSH1 0x0 SWAP1 SLOAD SWAP1 PUSH2 0x100 EXP SWAP1 DIV PUSH20 0xFFFFFFFFFFFFFFFFFFFFFFFFFFFFFFFFFFFFFFFF AND SWAP1 DUP1 PUSH1 0x1 ADD DUP1 SLOAD PUSH1 0x1 DUP2 PUSH1 0x1 AND ISZERO PUSH2 0x100 MUL SUB AND PUSH1 0x2 SWAP1 DIV DUP1 PUSH1 0x1F ADD PUSH1 0x20 DUP1 SWAP2 DIV MUL PUSH1 0x20 ADD PUSH1 0x40 MLOAD SWAP1 DUP2 ADD PUSH1 0x40 MSTORE DUP1 SWAP3 SWAP2 SWAP1 DUP2 DUP2 MSTORE PUSH1 0x20 ADD DUP3 DUP1 SLOAD PUSH1 0x1 DUP2 PUSH1 0x1 AND ISZERO PUSH2 0x100 MUL SUB AND PUSH1 0x2 SWAP1 DIV DUP1 ISZERO PUSH3 0x1778 JUMPI DUP1 PUSH1 0x1F LT PUSH3 0x174C JUMPI PUSH2 0x100 DUP1 DUP4 SLOAD DIV MUL DUP4 MSTORE SWAP2 PUSH1 0x20 ADD SWAP2 PUSH3 0x1778 JUMP JUMPDEST DUP3 ADD SWAP2 SWAP1 PUSH1 0x0 MSTORE PUSH1 0x20 PUSH1 0x0 KECCAK256 SWAP1 JUMPDEST DUP2 SLOAD DUP2 MSTORE SWAP1 PUSH1 0x1 ADD SWAP1 PUSH1 0x20 ADD DUP1 DUP4 GT PUSH3 0x175A JUMPI DUP3 SWAP1 SUB PUSH1 0x1F AND DUP3 ADD SWAP2 JUMPDEST POP POP POP POP POP SWAP1 DUP1 PUSH1 0x2 ADD DUP1 SLOAD PUSH1 0x1 DUP2 PUSH1 0x1 AND ISZERO PUSH2 0x100 MUL SUB AND PUSH1 0x2 SWAP1 DIV DUP1 PUSH1 0x1F ADD PUSH1 0x20 DUP1 SWAP2 DIV MUL PUSH1 0x20 ADD PUSH1 0x40 MLOAD SWAP1 DUP2 ADD PUSH1 0x40 MSTORE DUP1 SWAP3 SWAP2 SWAP1 DUP2 DUP2 MSTORE PUSH1 0x20 ADD DUP3 DUP1 SLOAD PUSH1 0x1 DUP2 PUSH1 0x1 AND ISZERO PUSH2 0x100 MUL SUB AND PUSH1 0x2 SWAP1 DIV DUP1 ISZERO PUSH3 0x181A JUMPI DUP1 PUSH1 0x1F LT PUSH3 0x17EE JUMPI PUSH2 0x100 DUP1 DUP4 SLOAD DIV MUL DUP4 MSTORE SWAP2 PUSH1 0x20 ADD SWAP2 PUSH3 0x181A JUMP JUMPDEST DUP3 ADD SWAP2 SWAP1 PUSH1 0x0 MSTORE PUSH1 0x20 PUSH1 0x0 KECCAK256 SWAP1 JUMPDEST DUP2 SLOAD DUP2 MSTORE SWAP1 PUSH1 0x1 ADD SWAP1 PUSH1 0x20 ADD DUP1 DUP4 GT PUSH3 0x17FC JUMPI DUP3 SWAP1 SUB PUSH1 0x1F AND DUP3 ADD SWAP2 JUMPDEST POP POP POP POP POP SWAP1 DUP1 PUSH1 0x3 ADD PUSH1 0x0 SWAP1 SLOAD SWAP1 PUSH2 0x100 EXP SWAP1 DIV PUSH1 0xFF AND SWAP1 POP DUP5 JUMP JUMPDEST PUSH1 0x6 PUSH1 0x20 MSTORE DUP2 PUSH1 0x0 MSTORE PUSH1 0x40 PUSH1 0x0 KECCAK256 DUP2 DUP2 SLOAD DUP2 LT ISZERO ISZERO PUSH3 0x1853 JUMPI INVALID JUMPDEST SWAP1 PUSH1 0x0 MSTORE PUSH1 0x20 PUSH1 0x0 KECCAK256 ADD PUSH1 0x0 SWAP2 POP SWAP2 POP POP SLOAD DUP2 JUMP JUMPDEST PUSH1 0x1 DUP1 PUSH1 0x0 DUP4 PUSH20 0xFFFFFFFFFFFFFFFFFFFFFFFFFFFFFFFFFFFFFFFF AND PUSH20 0xFFFFFFFFFFFFFFFFFFFFFFFFFFFFFFFFFFFFFFFF AND DUP2 MSTORE PUSH1 0x20 ADD SWAP1 DUP2 MSTORE PUSH1 0x20 ADD PUSH1 0x0 KECCAK256 PUSH1 0x0 PUSH2 0x100 EXP DUP2 SLOAD DUP2 PUSH1 0xFF MUL NOT AND SWAP1 DUP4 ISZERO ISZERO MUL OR SWAP1 SSTORE POP PUSH1 0x2 DUP2 SWAP1 DUP1 PUSH1 0x1 DUP2 SLOAD ADD DUP1 DUP3 SSTORE DUP1 SWAP2 POP POP SWAP1 PUSH1 0x1 DUP3 SUB SWAP1 PUSH1 0x0 MSTORE PUSH1 0x20 PUSH1 0x0 KECCAK256 ADD PUSH1 0x0 SWAP1 SWAP2 SWAP3 SWAP1 SWAP2 SWAP1 SWAP2 PUSH2 0x100 EXP DUP2 SLOAD DUP2 PUSH20 0xFFFFFFFFFFFFFFFFFFFFFFFFFFFFFFFFFFFFFFFF MUL NOT AND SWAP1 DUP4 PUSH20 0xFFFFFFFFFFFFFFFFFFFFFFFFFFFFFFFFFFFFFFFF AND MUL OR SWAP1 SSTORE POP POP PUSH32 0x4FB057AD4A26ED17A57957FA69C306F11987596069B89521C511FC9A894E6161 CALLER DUP3 PUSH1 0x40 MLOAD PUSH3 0x1958 SWAP3 SWAP2 SWAP1 PUSH3 0x228D JUMP JUMPDEST PUSH1 0x40 MLOAD DUP1 SWAP2 SUB SWAP1 LOG1 POP JUMP JUMPDEST PUSH1 0x80 PUSH1 0x40 MLOAD SWAP1 DUP2 ADD PUSH1 0x40 MSTORE DUP1 PUSH1 0x0 PUSH20 0xFFFFFFFFFFFFFFFFFFFFFFFFFFFFFFFFFFFFFFFF AND DUP2 MSTORE PUSH1 0x20 ADD PUSH1 0x60 DUP2 MSTORE PUSH1 0x20 ADD PUSH1 0x60 DUP2 MSTORE PUSH1 0x20 ADD PUSH1 0x0 ISZERO ISZERO DUP2 MSTORE POP SWAP1 JUMP JUMPDEST DUP3 DUP1 SLOAD PUSH1 0x1 DUP2 PUSH1 0x1 AND ISZERO PUSH2 0x100 MUL SUB AND PUSH1 0x2 SWAP1 DIV SWAP1 PUSH1 0x0 MSTORE PUSH1 0x20 PUSH1 0x0 KECCAK256 SWAP1 PUSH1 0x1F ADD PUSH1 0x20 SWAP1 DIV DUP2 ADD SWAP3 DUP3 PUSH1 0x1F LT PUSH3 0x19E7 JUMPI DUP1 MLOAD PUSH1 0xFF NOT AND DUP4 DUP1 ADD OR DUP6 SSTORE PUSH3 0x1A18 JUMP JUMPDEST DUP3 DUP1 ADD PUSH1 0x1 ADD DUP6 SSTORE DUP3 ISZERO PUSH3 0x1A18 JUMPI SWAP2 DUP3 ADD JUMPDEST DUP3 DUP2 GT ISZERO PUSH3 0x1A17 JUMPI DUP3 MLOAD DUP3 SSTORE SWAP2 PUSH1 0x20 ADD SWAP2 SWAP1 PUSH1 0x1 ADD SWAP1 PUSH3 0x19FA JUMP JUMPDEST JUMPDEST POP SWAP1 POP PUSH3 0x1A27 SWAP2 SWAP1 PUSH3 0x1AA8 JUMP JUMPDEST POP SWAP1 JUMP JUMPDEST PUSH1 0xE0 PUSH1 0x40 MLOAD SWAP1 DUP2 ADD PUSH1 0x40 MSTORE DUP1 PUSH1 0x60 DUP2 MSTORE PUSH1 0x20 ADD PUSH1 0x60 DUP2 MSTORE PUSH1 0x20 ADD PUSH1 0x60 DUP2 MSTORE PUSH1 0x20 ADD PUSH1 0x0 DUP2 MSTORE PUSH1 0x20 ADD PUSH1 0x0 PUSH20 0xFFFFFFFFFFFFFFFFFFFFFFFFFFFFFFFFFFFFFFFF AND DUP2 MSTORE PUSH1 0x20 ADD PUSH1 0x0 PUSH20 0xFFFFFFFFFFFFFFFFFFFFFFFFFFFFFFFFFFFFFFFF AND DUP2 MSTORE PUSH1 0x20 ADD PUSH1 0x0 ISZERO ISZERO DUP2 MSTORE POP SWAP1 JUMP JUMPDEST PUSH1 0x40 MLOAD PUSH2 0x46E8 DUP1 PUSH3 0x2832 DUP4 CODECOPY ADD SWAP1 JUMP JUMPDEST PUSH3 0x1ACD SWAP2 SWAP1 JUMPDEST DUP1 DUP3 GT ISZERO PUSH3 0x1AC9 JUMPI PUSH1 0x0 DUP2 PUSH1 0x0 SWAP1 SSTORE POP PUSH1 0x1 ADD PUSH3 0x1AAF JUMP JUMPDEST POP SWAP1 JUMP JUMPDEST SWAP1 JUMP JUMPDEST PUSH1 0x0 PUSH3 0x1ADE DUP3 CALLDATALOAD PUSH3 0x277D JUMP JUMPDEST SWAP1 POP SWAP3 SWAP2 POP POP JUMP JUMPDEST PUSH1 0x0 PUSH3 0x1AF4 DUP3 MLOAD PUSH3 0x277D JUMP JUMPDEST SWAP1 POP SWAP3 SWAP2 POP POP JUMP JUMPDEST PUSH1 0x0 DUP3 PUSH1 0x1F DUP4 ADD SLT ISZERO ISZERO PUSH3 0x1B10 JUMPI PUSH1 0x0 DUP1 REVERT JUMPDEST DUP2 CALLDATALOAD PUSH3 0x1B27 PUSH3 0x1B21 DUP3 PUSH3 0x2691 JUMP JUMPDEST PUSH3 0x2663 JUMP JUMPDEST SWAP2 POP DUP2 DUP2 DUP4 MSTORE PUSH1 0x20 DUP5 ADD SWAP4 POP PUSH1 0x20 DUP2 ADD SWAP1 POP DUP4 DUP6 PUSH1 0x20 DUP5 MUL DUP3 ADD GT ISZERO PUSH3 0x1B4D JUMPI PUSH1 0x0 DUP1 REVERT JUMPDEST PUSH1 0x0 JUMPDEST DUP4 DUP2 LT ISZERO PUSH3 0x1B81 JUMPI DUP2 PUSH3 0x1B66 DUP9 DUP3 PUSH3 0x1AD0 JUMP JUMPDEST DUP5 MSTORE PUSH1 0x20 DUP5 ADD SWAP4 POP PUSH1 0x20 DUP4 ADD SWAP3 POP POP PUSH1 0x1 DUP2 ADD SWAP1 POP PUSH3 0x1B50 JUMP JUMPDEST POP POP POP POP SWAP3 SWAP2 POP POP JUMP JUMPDEST PUSH1 0x0 PUSH3 0x1B99 DUP3 MLOAD PUSH3 0x279D JUMP JUMPDEST SWAP1 POP SWAP3 SWAP2 POP POP JUMP JUMPDEST PUSH1 0x0 DUP3 PUSH1 0x1F DUP4 ADD SLT ISZERO ISZERO PUSH3 0x1BB5 JUMPI PUSH1 0x0 DUP1 REVERT JUMPDEST DUP2 CALLDATALOAD PUSH3 0x1BCC PUSH3 0x1BC6 DUP3 PUSH3 0x26BA JUMP JUMPDEST PUSH3 0x2663 JUMP JUMPDEST SWAP2 POP DUP1 DUP3 MSTORE PUSH1 0x20 DUP4 ADD PUSH1 0x20 DUP4 ADD DUP6 DUP4 DUP4 ADD GT ISZERO PUSH3 0x1BE9 JUMPI PUSH1 0x0 DUP1 REVERT JUMPDEST PUSH3 0x1BF6 DUP4 DUP3 DUP5 PUSH3 0x27DB JUMP JUMPDEST POP POP POP SWAP3 SWAP2 POP POP JUMP JUMPDEST PUSH1 0x0 DUP3 PUSH1 0x1F DUP4 ADD SLT ISZERO ISZERO PUSH3 0x1C13 JUMPI PUSH1 0x0 DUP1 REVERT JUMPDEST DUP2 MLOAD PUSH3 0x1C2A PUSH3 0x1C24 DUP3 PUSH3 0x26BA JUMP JUMPDEST PUSH3 0x2663 JUMP JUMPDEST SWAP2 POP DUP1 DUP3 MSTORE PUSH1 0x20 DUP4 ADD PUSH1 0x20 DUP4 ADD DUP6 DUP4 DUP4 ADD GT ISZERO PUSH3 0x1C47 JUMPI PUSH1 0x0 DUP1 REVERT JUMPDEST PUSH3 0x1C54 DUP4 DUP3 DUP5 PUSH3 0x27EA JUMP JUMPDEST POP POP POP SWAP3 SWAP2 POP POP JUMP JUMPDEST PUSH1 0x0 PUSH3 0x1C6B DUP3 CALLDATALOAD PUSH3 0x27A9 JUMP JUMPDEST SWAP1 POP SWAP3 SWAP2 POP POP JUMP JUMPDEST PUSH1 0x0 PUSH1 0x20 DUP3 DUP5 SUB SLT ISZERO PUSH3 0x1C86 JUMPI PUSH1 0x0 DUP1 REVERT JUMPDEST PUSH1 0x0 PUSH3 0x1C96 DUP5 DUP3 DUP6 ADD PUSH3 0x1AD0 JUMP JUMPDEST SWAP2 POP POP SWAP3 SWAP2 POP POP JUMP JUMPDEST PUSH1 0x0 DUP1 PUSH1 0x0 PUSH1 0x60 DUP5 DUP7 SUB SLT ISZERO PUSH3 0x1CB5 JUMPI PUSH1 0x0 DUP1 REVERT JUMPDEST PUSH1 0x0 PUSH3 0x1CC5 DUP7 DUP3 DUP8 ADD PUSH3 0x1AE6 JUMP JUMPDEST SWAP4 POP POP PUSH1 0x20 DUP5 ADD MLOAD PUSH8 0xFFFFFFFFFFFFFFFF DUP2 GT ISZERO PUSH3 0x1CE3 JUMPI PUSH1 0x0 DUP1 REVERT JUMPDEST PUSH3 0x1CF1 DUP7 DUP3 DUP8 ADD PUSH3 0x1BFF JUMP JUMPDEST SWAP3 POP POP PUSH1 0x40 PUSH3 0x1D04 DUP7 DUP3 DUP8 ADD PUSH3 0x1B8B JUMP JUMPDEST SWAP2 POP POP SWAP3 POP SWAP3 POP SWAP3 JUMP JUMPDEST PUSH1 0x0 DUP1 PUSH1 0x40 DUP4 DUP6 SUB SLT ISZERO PUSH3 0x1D22 JUMPI PUSH1 0x0 DUP1 REVERT JUMPDEST PUSH1 0x0 PUSH3 0x1D32 DUP6 DUP3 DUP7 ADD PUSH3 0x1AD0 JUMP JUMPDEST SWAP3 POP POP PUSH1 0x20 PUSH3 0x1D45 DUP6 DUP3 DUP7 ADD PUSH3 0x1C5D JUMP JUMPDEST SWAP2 POP POP SWAP3 POP SWAP3 SWAP1 POP JUMP JUMPDEST PUSH1 0x0 DUP1 PUSH1 0x0 DUP1 PUSH1 0x0 DUP1 PUSH1 0xC0 DUP8 DUP10 SUB SLT ISZERO PUSH3 0x1D69 JUMPI PUSH1 0x0 DUP1 REVERT JUMPDEST PUSH1 0x0 DUP8 ADD CALLDATALOAD PUSH8 0xFFFFFFFFFFFFFFFF DUP2 GT ISZERO PUSH3 0x1D84 JUMPI PUSH1 0x0 DUP1 REVERT JUMPDEST PUSH3 0x1D92 DUP10 DUP3 DUP11 ADD PUSH3 0x1AFC JUMP JUMPDEST SWAP7 POP POP PUSH1 0x20 PUSH3 0x1DA5 DUP10 DUP3 DUP11 ADD PUSH3 0x1C5D JUMP JUMPDEST SWAP6 POP POP PUSH1 0x40 DUP8 ADD CALLDATALOAD PUSH8 0xFFFFFFFFFFFFFFFF DUP2 GT ISZERO PUSH3 0x1DC3 JUMPI PUSH1 0x0 DUP1 REVERT JUMPDEST PUSH3 0x1DD1 DUP10 DUP3 DUP11 ADD PUSH3 0x1BA1 JUMP JUMPDEST SWAP5 POP POP PUSH1 0x60 DUP8 ADD CALLDATALOAD PUSH8 0xFFFFFFFFFFFFFFFF DUP2 GT ISZERO PUSH3 0x1DEF JUMPI PUSH1 0x0 DUP1 REVERT JUMPDEST PUSH3 0x1DFD DUP10 DUP3 DUP11 ADD PUSH3 0x1BA1 JUMP JUMPDEST SWAP4 POP POP PUSH1 0x80 DUP8 ADD CALLDATALOAD PUSH8 0xFFFFFFFFFFFFFFFF DUP2 GT ISZERO PUSH3 0x1E1B JUMPI PUSH1 0x0 DUP1 REVERT JUMPDEST PUSH3 0x1E29 DUP10 DUP3 DUP11 ADD PUSH3 0x1BA1 JUMP JUMPDEST SWAP3 POP POP PUSH1 0xA0 PUSH3 0x1E3C DUP10 DUP3 DUP11 ADD PUSH3 0x1C5D JUMP JUMPDEST SWAP2 POP POP SWAP3 SWAP6 POP SWAP3 SWAP6 POP SWAP3 SWAP6 JUMP JUMPDEST PUSH1 0x0 PUSH1 0x20 DUP3 DUP5 SUB SLT ISZERO PUSH3 0x1E5C JUMPI PUSH1 0x0 DUP1 REVERT JUMPDEST PUSH1 0x0 PUSH3 0x1E6C DUP5 DUP3 DUP6 ADD PUSH3 0x1B8B JUMP JUMPDEST SWAP2 POP POP SWAP3 SWAP2 POP POP JUMP JUMPDEST PUSH1 0x0 PUSH1 0x20 DUP3 DUP5 SUB SLT ISZERO PUSH3 0x1E88 JUMPI PUSH1 0x0 DUP1 REVERT JUMPDEST PUSH1 0x0 DUP3 ADD CALLDATALOAD PUSH8 0xFFFFFFFFFFFFFFFF DUP2 GT ISZERO PUSH3 0x1EA3 JUMPI PUSH1 0x0 DUP1 REVERT JUMPDEST PUSH3 0x1EB1 DUP5 DUP3 DUP6 ADD PUSH3 0x1BA1 JUMP JUMPDEST SWAP2 POP POP SWAP3 SWAP2 POP POP JUMP JUMPDEST PUSH1 0x0 PUSH1 0x20 DUP3 DUP5 SUB SLT ISZERO PUSH3 0x1ECD JUMPI PUSH1 0x0 DUP1 REVERT JUMPDEST PUSH1 0x0 PUSH3 0x1EDD DUP5 DUP3 DUP6 ADD PUSH3 0x1C5D JUMP JUMPDEST SWAP2 POP POP SWAP3 SWAP2 POP POP JUMP JUMPDEST PUSH1 0x0 DUP1 PUSH1 0x0 PUSH1 0x60 DUP5 DUP7 SUB SLT ISZERO PUSH3 0x1EFC JUMPI PUSH1 0x0 DUP1 REVERT JUMPDEST PUSH1 0x0 PUSH3 0x1F0C DUP7 DUP3 DUP8 ADD PUSH3 0x1C5D JUMP JUMPDEST SWAP4 POP POP PUSH1 0x20 DUP5 ADD CALLDATALOAD PUSH8 0xFFFFFFFFFFFFFFFF DUP2 GT ISZERO PUSH3 0x1F2A JUMPI PUSH1 0x0 DUP1 REVERT JUMPDEST PUSH3 0x1F38 DUP7 DUP3 DUP8 ADD PUSH3 0x1BA1 JUMP JUMPDEST SWAP3 POP POP PUSH1 0x40 DUP5 ADD CALLDATALOAD PUSH8 0xFFFFFFFFFFFFFFFF DUP2 GT ISZERO PUSH3 0x1F56 JUMPI PUSH1 0x0 DUP1 REVERT JUMPDEST PUSH3 0x1F64 DUP7 DUP3 DUP8 ADD PUSH3 0x1BA1 JUMP JUMPDEST SWAP2 POP POP SWAP3 POP SWAP3 POP SWAP3 JUMP JUMPDEST PUSH1 0x0 DUP1 PUSH1 0x40 DUP4 DUP6 SUB SLT ISZERO PUSH3 0x1F82 JUMPI PUSH1 0x0 DUP1 REVERT JUMPDEST PUSH1 0x0 PUSH3 0x1F92 DUP6 DUP3 DUP7 ADD PUSH3 0x1C5D JUMP JUMPDEST SWAP3 POP POP PUSH1 0x20 PUSH3 0x1FA5 DUP6 DUP3 DUP7 ADD PUSH3 0x1C5D JUMP JUMPDEST SWAP2 POP POP SWAP3 POP SWAP3 SWAP1 POP JUMP JUMPDEST PUSH3 0x1FBA DUP2 PUSH3 0x2747 JUMP JUMPDEST DUP3 MSTORE POP POP JUMP JUMPDEST PUSH1 0x0 PUSH3 0x1FCD DUP3 PUSH3 0x2701 JUMP JUMPDEST DUP1 DUP5 MSTORE PUSH1 0x20 DUP5 ADD SWAP4 POP PUSH3 0x1FE1 DUP4 PUSH3 0x26E7 JUMP JUMPDEST PUSH1 0x0 JUMPDEST DUP3 DUP2 LT ISZERO PUSH3 0x2019 JUMPI PUSH3 0x1FFA DUP7 DUP4 MLOAD PUSH3 0x1FAF JUMP JUMPDEST PUSH3 0x2005 DUP3 PUSH3 0x272D JUMP JUMPDEST SWAP2 POP PUSH1 0x20 DUP7 ADD SWAP6 POP PUSH1 0x1 DUP2 ADD SWAP1 POP PUSH3 0x1FE4 JUMP JUMPDEST POP DUP5 SWAP3 POP POP POP SWAP3 SWAP2 POP POP JUMP JUMPDEST PUSH1 0x0 PUSH3 0x2032 DUP3 PUSH3 0x270C JUMP JUMPDEST DUP1 DUP5 MSTORE PUSH1 0x20 DUP5 ADD SWAP4 POP DUP4 PUSH1 0x20 DUP3 MUL DUP6 ADD PUSH3 0x204D DUP6 PUSH3 0x26F4 JUMP JUMPDEST PUSH1 0x0 JUMPDEST DUP5 DUP2 LT ISZERO PUSH3 0x208C JUMPI DUP4 DUP4 SUB DUP9 MSTORE PUSH3 0x206B DUP4 DUP4 MLOAD PUSH3 0x21ED JUMP JUMPDEST SWAP3 POP PUSH3 0x2078 DUP3 PUSH3 0x273A JUMP JUMPDEST SWAP2 POP PUSH1 0x20 DUP9 ADD SWAP8 POP PUSH1 0x1 DUP2 ADD SWAP1 POP PUSH3 0x2050 JUMP JUMPDEST POP DUP2 SWAP7 POP DUP7 SWAP5 POP POP POP POP POP SWAP3 SWAP2 POP POP JUMP JUMPDEST PUSH3 0x20A8 DUP2 PUSH3 0x2767 JUMP JUMPDEST DUP3 MSTORE POP POP JUMP JUMPDEST PUSH3 0x20B9 DUP2 PUSH3 0x27B3 JUMP JUMPDEST DUP3 MSTORE POP POP JUMP JUMPDEST PUSH3 0x20CA DUP2 PUSH3 0x27C7 JUMP JUMPDEST DUP3 MSTORE POP POP JUMP JUMPDEST PUSH1 0x0 PUSH3 0x20DD DUP3 PUSH3 0x2722 JUMP JUMPDEST DUP1 DUP5 MSTORE PUSH3 0x20F3 DUP2 PUSH1 0x20 DUP7 ADD PUSH1 0x20 DUP7 ADD PUSH3 0x27EA JUMP JUMPDEST PUSH3 0x20FE DUP2 PUSH3 0x2820 JUMP JUMPDEST PUSH1 0x20 DUP6 ADD ADD SWAP2 POP POP SWAP3 SWAP2 POP POP JUMP JUMPDEST PUSH1 0x0 PUSH3 0x2119 DUP3 PUSH3 0x2717 JUMP JUMPDEST DUP1 DUP5 MSTORE PUSH3 0x212F DUP2 PUSH1 0x20 DUP7 ADD PUSH1 0x20 DUP7 ADD PUSH3 0x27EA JUMP JUMPDEST PUSH3 0x213A DUP2 PUSH3 0x2820 JUMP JUMPDEST PUSH1 0x20 DUP6 ADD ADD SWAP2 POP POP SWAP3 SWAP2 POP POP JUMP JUMPDEST PUSH1 0x0 PUSH1 0x12 DUP3 MSTORE PUSH32 0x4A6F6220646F6573206E6F742065786973740000000000000000000000000000 PUSH1 0x20 DUP4 ADD MSTORE PUSH1 0x40 DUP3 ADD SWAP1 POP SWAP2 SWAP1 POP JUMP JUMPDEST PUSH1 0x0 PUSH1 0x13 DUP3 MSTORE PUSH32 0x496E646578206F7574206F6620626F756E647300000000000000000000000000 PUSH1 0x20 DUP4 ADD MSTORE PUSH1 0x40 DUP3 ADD SWAP1 POP SWAP2 SWAP1 POP JUMP JUMPDEST PUSH1 0x0 PUSH1 0xE DUP3 MSTORE PUSH32 0x4E6F7420617574686F72697A6564000000000000000000000000000000000000 PUSH1 0x20 DUP4 ADD MSTORE PUSH1 0x40 DUP3 ADD SWAP1 POP SWAP2 SWAP1 POP JUMP JUMPDEST PUSH1 0x0 PUSH1 0x80 DUP4 ADD PUSH1 0x0 DUP4 ADD MLOAD PUSH3 0x2207 PUSH1 0x0 DUP7 ADD DUP3 PUSH3 0x1FAF JUMP JUMPDEST POP PUSH1 0x20 DUP4 ADD MLOAD DUP5 DUP3 SUB PUSH1 0x20 DUP7 ADD MSTORE PUSH3 0x2221 DUP3 DUP3 PUSH3 0x210C JUMP JUMPDEST SWAP2 POP POP PUSH1 0x40 DUP4 ADD MLOAD DUP5 DUP3 SUB PUSH1 0x40 DUP7 ADD MSTORE PUSH3 0x223D DUP3 DUP3 PUSH3 0x210C JUMP JUMPDEST SWAP2 POP POP PUSH1 0x60 DUP4 ADD MLOAD PUSH3 0x2254 PUSH1 0x60 DUP7 ADD DUP3 PUSH3 0x209D JUMP JUMPDEST POP DUP1 SWAP2 POP POP SWAP3 SWAP2 POP POP JUMP JUMPDEST PUSH3 0x226A DUP2 PUSH3 0x2773 JUMP JUMPDEST DUP3 MSTORE POP POP JUMP JUMPDEST PUSH1 0x0 PUSH1 0x20 DUP3 ADD SWAP1 POP PUSH3 0x2287 PUSH1 0x0 DUP4 ADD DUP5 PUSH3 0x1FAF JUMP JUMPDEST SWAP3 SWAP2 POP POP JUMP JUMPDEST PUSH1 0x0 PUSH1 0x40 DUP3 ADD SWAP1 POP PUSH3 0x22A4 PUSH1 0x0 DUP4 ADD DUP6 PUSH3 0x1FAF JUMP JUMPDEST PUSH3 0x22B3 PUSH1 0x20 DUP4 ADD DUP5 PUSH3 0x1FAF JUMP JUMPDEST SWAP4 SWAP3 POP POP POP JUMP JUMPDEST PUSH1 0x0 PUSH1 0x40 DUP3 ADD SWAP1 POP PUSH3 0x22D1 PUSH1 0x0 DUP4 ADD DUP6 PUSH3 0x1FAF JUMP JUMPDEST DUP2 DUP2 SUB PUSH1 0x20 DUP4 ADD MSTORE PUSH3 0x22E5 DUP2 DUP5 PUSH3 0x20D0 JUMP JUMPDEST SWAP1 POP SWAP4 SWAP3 POP POP POP JUMP JUMPDEST PUSH1 0x0 PUSH1 0x60 DUP3 ADD SWAP1 POP PUSH3 0x2305 PUSH1 0x0 DUP4 ADD DUP7 PUSH3 0x1FAF JUMP JUMPDEST DUP2 DUP2 SUB PUSH1 0x20 DUP4 ADD MSTORE PUSH3 0x2319 DUP2 DUP6 PUSH3 0x20D0 JUMP JUMPDEST SWAP1 POP PUSH3 0x232A PUSH1 0x40 DUP4 ADD DUP5 PUSH3 0x209D JUMP JUMPDEST SWAP5 SWAP4 POP POP POP POP JUMP JUMPDEST PUSH1 0x0 PUSH1 0x80 DUP3 ADD SWAP1 POP PUSH3 0x2349 PUSH1 0x0 DUP4 ADD DUP8 PUSH3 0x1FAF JUMP JUMPDEST DUP2 DUP2 SUB PUSH1 0x20 DUP4 ADD MSTORE PUSH3 0x235D DUP2 DUP7 PUSH3 0x210C JUMP JUMPDEST SWAP1 POP DUP2 DUP2 SUB PUSH1 0x40 DUP4 ADD MSTORE PUSH3 0x2373 DUP2 DUP6 PUSH3 0x210C JUMP JUMPDEST SWAP1 POP PUSH3 0x2384 PUSH1 0x60 DUP4 ADD DUP5 PUSH3 0x209D JUMP JUMPDEST SWAP6 SWAP5 POP POP POP POP POP JUMP JUMPDEST PUSH1 0x0 PUSH1 0x40 DUP3 ADD SWAP1 POP PUSH3 0x23A4 PUSH1 0x0 DUP4 ADD DUP6 PUSH3 0x1FAF JUMP JUMPDEST PUSH3 0x23B3 PUSH1 0x20 DUP4 ADD DUP5 PUSH3 0x225F JUMP JUMPDEST SWAP4 SWAP3 POP POP POP JUMP JUMPDEST PUSH1 0x0 PUSH1 0x20 DUP3 ADD SWAP1 POP DUP2 DUP2 SUB PUSH1 0x0 DUP4 ADD MSTORE PUSH3 0x23D6 DUP2 DUP5 PUSH3 0x1FC0 JUMP JUMPDEST SWAP1 POP SWAP3 SWAP2 POP POP JUMP JUMPDEST PUSH1 0x0 PUSH1 0x40 DUP3 ADD SWAP1 POP DUP2 DUP2 SUB PUSH1 0x0 DUP4 ADD MSTORE PUSH3 0x23FA DUP2 DUP6 PUSH3 0x1FC0 JUMP JUMPDEST SWAP1 POP PUSH3 0x240B PUSH1 0x20 DUP4 ADD DUP5 PUSH3 0x225F JUMP JUMPDEST SWAP4 SWAP3 POP POP POP JUMP JUMPDEST PUSH1 0x0 PUSH1 0x20 DUP3 ADD SWAP1 POP DUP2 DUP2 SUB PUSH1 0x0 DUP4 ADD MSTORE PUSH3 0x242E DUP2 DUP5 PUSH3 0x2025 JUMP JUMPDEST SWAP1 POP SWAP3 SWAP2 POP POP JUMP JUMPDEST PUSH1 0x0 PUSH1 0x20 DUP3 ADD SWAP1 POP PUSH3 0x244D PUSH1 0x0 DUP4 ADD DUP5 PUSH3 0x209D JUMP JUMPDEST SWAP3 SWAP2 POP POP JUMP JUMPDEST PUSH1 0x0 PUSH1 0x20 DUP3 ADD SWAP1 POP PUSH3 0x246A PUSH1 0x0 DUP4 ADD DUP5 PUSH3 0x20AE JUMP JUMPDEST SWAP3 SWAP2 POP POP JUMP JUMPDEST PUSH1 0x0 PUSH1 0x20 DUP3 ADD SWAP1 POP PUSH3 0x2487 PUSH1 0x0 DUP4 ADD DUP5 PUSH3 0x20BF JUMP JUMPDEST SWAP3 SWAP2 POP POP JUMP JUMPDEST PUSH1 0x0 PUSH1 0x20 DUP3 ADD SWAP1 POP DUP2 DUP2 SUB PUSH1 0x0 DUP4 ADD MSTORE PUSH3 0x24A9 DUP2 DUP5 PUSH3 0x20D0 JUMP JUMPDEST SWAP1 POP SWAP3 SWAP2 POP POP JUMP JUMPDEST PUSH1 0x0 PUSH1 0x40 DUP3 ADD SWAP1 POP DUP2 DUP2 SUB PUSH1 0x0 DUP4 ADD MSTORE PUSH3 0x24CD DUP2 DUP6 PUSH3 0x20D0 JUMP JUMPDEST SWAP1 POP DUP2 DUP2 SUB PUSH1 0x20 DUP4 ADD MSTORE PUSH3 0x24E3 DUP2 DUP5 PUSH3 0x20D0 JUMP JUMPDEST SWAP1 POP SWAP4 SWAP3 POP POP POP JUMP JUMPDEST PUSH1 0x0 PUSH1 0x80 DUP3 ADD SWAP1 POP DUP2 DUP2 SUB PUSH1 0x0 DUP4 ADD MSTORE PUSH3 0x2508 DUP2 DUP8 PUSH3 0x20D0 JUMP JUMPDEST SWAP1 POP DUP2 DUP2 SUB PUSH1 0x20 DUP4 ADD MSTORE PUSH3 0x251E DUP2 DUP7 PUSH3 0x20D0 JUMP JUMPDEST SWAP1 POP DUP2 DUP2 SUB PUSH1 0x40 DUP4 ADD MSTORE PUSH3 0x2534 DUP2 DUP6 PUSH3 0x20D0 JUMP JUMPDEST SWAP1 POP PUSH3 0x2545 PUSH1 0x60 DUP4 ADD DUP5 PUSH3 0x225F JUMP JUMPDEST SWAP6 SWAP5 POP POP POP POP POP JUMP JUMPDEST PUSH1 0x0 PUSH1 0xE0 DUP3 ADD SWAP1 POP DUP2 DUP2 SUB PUSH1 0x0 DUP4 ADD MSTORE PUSH3 0x256A DUP2 DUP11 PUSH3 0x210C JUMP JUMPDEST SWAP1 POP DUP2 DUP2 SUB PUSH1 0x20 DUP4 ADD MSTORE PUSH3 0x2580 DUP2 DUP10 PUSH3 0x210C JUMP JUMPDEST SWAP1 POP DUP2 DUP2 SUB PUSH1 0x40 DUP4 ADD MSTORE PUSH3 0x2596 DUP2 DUP9 PUSH3 0x210C JUMP JUMPDEST SWAP1 POP PUSH3 0x25A7 PUSH1 0x60 DUP4 ADD DUP8 PUSH3 0x225F JUMP JUMPDEST PUSH3 0x25B6 PUSH1 0x80 DUP4 ADD DUP7 PUSH3 0x1FAF JUMP JUMPDEST PUSH3 0x25C5 PUSH1 0xA0 DUP4 ADD DUP6 PUSH3 0x1FAF JUMP JUMPDEST PUSH3 0x25D4 PUSH1 0xC0 DUP4 ADD DUP5 PUSH3 0x209D JUMP JUMPDEST SWAP9 SWAP8 POP POP POP POP POP POP POP POP JUMP JUMPDEST PUSH1 0x0 PUSH1 0x20 DUP3 ADD SWAP1 POP DUP2 DUP2 SUB PUSH1 0x0 DUP4 ADD MSTORE PUSH3 0x25FB DUP2 PUSH3 0x2148 JUMP JUMPDEST SWAP1 POP SWAP2 SWAP1 POP JUMP JUMPDEST PUSH1 0x0 PUSH1 0x20 DUP3 ADD SWAP1 POP DUP2 DUP2 SUB PUSH1 0x0 DUP4 ADD MSTORE PUSH3 0x261D DUP2 PUSH3 0x217F JUMP JUMPDEST SWAP1 POP SWAP2 SWAP1 POP JUMP JUMPDEST PUSH1 0x0 PUSH1 0x20 DUP3 ADD SWAP1 POP DUP2 DUP2 SUB PUSH1 0x0 DUP4 ADD MSTORE PUSH3 0x263F DUP2 PUSH3 0x21B6 JUMP JUMPDEST SWAP1 POP SWAP2 SWAP1 POP JUMP JUMPDEST PUSH1 0x0 PUSH1 0x20 DUP3 ADD SWAP1 POP PUSH3 0x265D PUSH1 0x0 DUP4 ADD DUP5 PUSH3 0x225F JUMP JUMPDEST SWAP3 SWAP2 POP POP JUMP JUMPDEST PUSH1 0x0 PUSH1 0x40 MLOAD SWAP1 POP DUP2 DUP2 ADD DUP2 DUP2 LT PUSH8 0xFFFFFFFFFFFFFFFF DUP3 GT OR ISZERO PUSH3 0x2687 JUMPI PUSH1 0x0 DUP1 REVERT JUMPDEST DUP1 PUSH1 0x40 MSTORE POP SWAP2 SWAP1 POP JUMP JUMPDEST PUSH1 0x0 PUSH8 0xFFFFFFFFFFFFFFFF DUP3 GT ISZERO PUSH3 0x26A9 JUMPI PUSH1 0x0 DUP1 REVERT JUMPDEST PUSH1 0x20 DUP3 MUL SWAP1 POP PUSH1 0x20 DUP2 ADD SWAP1 POP SWAP2 SWAP1 POP JUMP JUMPDEST PUSH1 0x0 PUSH8 0xFFFFFFFFFFFFFFFF DUP3 GT ISZERO PUSH3 0x26D2 JUMPI PUSH1 0x0 DUP1 REVERT JUMPDEST PUSH1 0x1F NOT PUSH1 0x1F DUP4 ADD AND SWAP1 POP PUSH1 0x20 DUP2 ADD SWAP1 POP SWAP2 SWAP1 POP JUMP JUMPDEST PUSH1 0x0 PUSH1 0x20 DUP3 ADD SWAP1 POP SWAP2 SWAP1 POP JUMP JUMPDEST PUSH1 0x0 PUSH1 0x20 DUP3 ADD SWAP1 POP SWAP2 SWAP1 POP JUMP JUMPDEST PUSH1 0x0 DUP2 MLOAD SWAP1 POP SWAP2 SWAP1 POP JUMP JUMPDEST PUSH1 0x0 DUP2 MLOAD SWAP1 POP SWAP2 SWAP1 POP JUMP JUMPDEST PUSH1 0x0 DUP2 MLOAD SWAP1 POP SWAP2 SWAP1 POP JUMP JUMPDEST PUSH1 0x0 DUP2 MLOAD SWAP1 POP SWAP2 SWAP1 POP JUMP JUMPDEST PUSH1 0x0 PUSH1 0x20 DUP3 ADD SWAP1 POP SWAP2 SWAP1 POP JUMP JUMPDEST PUSH1 0x0 PUSH1 0x20 DUP3 ADD SWAP1 POP SWAP2 SWAP1 POP JUMP JUMPDEST PUSH1 0x0 PUSH20 0xFFFFFFFFFFFFFFFFFFFFFFFFFFFFFFFFFFFFFFFF DUP3 AND SWAP1 POP SWAP2 SWAP1 POP JUMP JUMPDEST PUSH1 0x0 DUP2 ISZERO ISZERO SWAP1 POP SWAP2 SWAP1 POP JUMP JUMPDEST PUSH1 0x0 DUP2 SWAP1 POP SWAP2 SWAP1 POP JUMP JUMPDEST PUSH1 0x0 PUSH20 0xFFFFFFFFFFFFFFFFFFFFFFFFFFFFFFFFFFFFFFFF DUP3 AND SWAP1 POP SWAP2 SWAP1 POP JUMP JUMPDEST PUSH1 0x0 DUP2 ISZERO ISZERO SWAP1 POP SWAP2 SWAP1 POP JUMP JUMPDEST PUSH1 0x0 DUP2 SWAP1 POP SWAP2 SWAP1 POP JUMP JUMPDEST PUSH1 0x0 PUSH3 0x27C0 DUP3 PUSH3 0x2747 JUMP JUMPDEST SWAP1 POP SWAP2 SWAP1 POP JUMP JUMPDEST PUSH1 0x0 PUSH3 0x27D4 DUP3 PUSH3 0x2747 JUMP JUMPDEST SWAP1 POP SWAP2 SWAP1 POP JUMP JUMPDEST DUP3 DUP2 DUP4 CALLDATACOPY PUSH1 0x0 DUP4 DUP4 ADD MSTORE POP POP POP JUMP JUMPDEST PUSH1 0x0 JUMPDEST DUP4 DUP2 LT ISZERO PUSH3 0x280A JUMPI DUP1 DUP3 ADD MLOAD DUP2 DUP5 ADD MSTORE PUSH1 0x20 DUP2 ADD SWAP1 POP PUSH3 0x27ED JUMP JUMPDEST DUP4 DUP2 GT ISZERO PUSH3 0x281A JUMPI PUSH1 0x0 DUP5 DUP5 ADD MSTORE JUMPDEST POP POP POP POP JUMP JUMPDEST PUSH1 0x0 PUSH1 0x1F NOT PUSH1 0x1F DUP4 ADD AND SWAP1 POP SWAP2 SWAP1 POP JUMP STOP PUSH1 0x80 PUSH1 0x40 MSTORE PUSH1 0x0 PUSH1 0xC SSTORE CALLVALUE DUP1 ISZERO PUSH3 0x16 JUMPI PUSH1 0x0 DUP1 REVERT JUMPDEST POP PUSH1 0x40 MLOAD PUSH3 0x46E8 CODESIZE SUB DUP1 PUSH3 0x46E8 DUP4 CODECOPY DUP2 ADD DUP1 PUSH1 0x40 MSTORE DUP2 ADD SWAP1 DUP1 DUP1 MLOAD DUP3 ADD SWAP3 SWAP2 SWAP1 PUSH1 0x20 ADD DUP1 MLOAD SWAP1 PUSH1 0x20 ADD SWAP1 SWAP3 SWAP2 SWAP1 POP POP POP PUSH1 0x0 DUP3 MLOAD DUP3 PUSH1 0x32 DUP3 GT ISZERO DUP1 ISZERO PUSH3 0x5F JUMPI POP DUP2 DUP2 GT ISZERO JUMPDEST DUP1 ISZERO PUSH3 0x6D JUMPI POP PUSH1 0x0 DUP2 EQ ISZERO JUMPDEST DUP1 ISZERO PUSH3 0x7B JUMPI POP PUSH1 0x0 DUP3 EQ ISZERO JUMPDEST ISZERO ISZERO PUSH3 0x87 JUMPI PUSH1 0x0 DUP1 REVERT JUMPDEST PUSH1 0x0 SWAP3 POP JUMPDEST DUP5 MLOAD DUP4 LT ISZERO PUSH3 0x1C2 JUMPI PUSH1 0x3 PUSH1 0x0 DUP7 DUP6 DUP2 MLOAD DUP2 LT ISZERO ISZERO PUSH3 0xA9 JUMPI INVALID JUMPDEST SWAP1 PUSH1 0x20 ADD SWAP1 PUSH1 0x20 MUL ADD MLOAD PUSH20 0xFFFFFFFFFFFFFFFFFFFFFFFFFFFFFFFFFFFFFFFF AND PUSH20 0xFFFFFFFFFFFFFFFFFFFFFFFFFFFFFFFFFFFFFFFF AND DUP2 MSTORE PUSH1 0x20 ADD SWAP1 DUP2 MSTORE PUSH1 0x20 ADD PUSH1 0x0 KECCAK256 PUSH1 0x0 SWAP1 SLOAD SWAP1 PUSH2 0x100 EXP SWAP1 DIV PUSH1 0xFF AND ISZERO DUP1 ISZERO PUSH3 0x138 JUMPI POP PUSH1 0x0 DUP6 DUP5 DUP2 MLOAD DUP2 LT ISZERO ISZERO PUSH3 0x115 JUMPI INVALID JUMPDEST SWAP1 PUSH1 0x20 ADD SWAP1 PUSH1 0x20 MUL ADD MLOAD PUSH20 0xFFFFFFFFFFFFFFFFFFFFFFFFFFFFFFFFFFFFFFFF AND EQ ISZERO JUMPDEST ISZERO ISZERO PUSH3 0x144 JUMPI PUSH1 0x0 DUP1 REVERT JUMPDEST PUSH1 0x1 PUSH1 0x3 PUSH1 0x0 DUP8 DUP7 DUP2 MLOAD DUP2 LT ISZERO ISZERO PUSH3 0x159 JUMPI INVALID JUMPDEST SWAP1 PUSH1 0x20 ADD SWAP1 PUSH1 0x20 MUL ADD MLOAD PUSH20 0xFFFFFFFFFFFFFFFFFFFFFFFFFFFFFFFFFFFFFFFF AND PUSH20 0xFFFFFFFFFFFFFFFFFFFFFFFFFFFFFFFFFFFFFFFF AND DUP2 MSTORE PUSH1 0x20 ADD SWAP1 DUP2 MSTORE PUSH1 0x20 ADD PUSH1 0x0 KECCAK256 PUSH1 0x0 PUSH2 0x100 EXP DUP2 SLOAD DUP2 PUSH1 0xFF MUL NOT AND SWAP1 DUP4 ISZERO ISZERO MUL OR SWAP1 SSTORE POP DUP3 DUP1 PUSH1 0x1 ADD SWAP4 POP POP PUSH3 0x8C JUMP JUMPDEST DUP5 PUSH1 0x4 SWAP1 DUP1 MLOAD SWAP1 PUSH1 0x20 ADD SWAP1 PUSH3 0x1DA SWAP3 SWAP2 SWAP1 PUSH3 0x1ED JUMP JUMPDEST POP DUP4 PUSH1 0x5 DUP2 SWAP1 SSTORE POP POP POP POP POP POP PUSH3 0x2C2 JUMP JUMPDEST DUP3 DUP1 SLOAD DUP3 DUP3 SSTORE SWAP1 PUSH1 0x0 MSTORE PUSH1 0x20 PUSH1 0x0 KECCAK256 SWAP1 DUP2 ADD SWAP3 DUP3 ISZERO PUSH3 0x269 JUMPI SWAP2 PUSH1 0x20 MUL DUP3 ADD JUMPDEST DUP3 DUP2 GT ISZERO PUSH3 0x268 JUMPI DUP3 MLOAD DUP3 PUSH1 0x0 PUSH2 0x100 EXP DUP2 SLOAD DUP2 PUSH20 0xFFFFFFFFFFFFFFFFFFFFFFFFFFFFFFFFFFFFFFFF MUL NOT AND SWAP1 DUP4 PUSH20 0xFFFFFFFFFFFFFFFFFFFFFFFFFFFFFFFFFFFFFFFF AND MUL OR SWAP1 SSTORE POP SWAP2 PUSH1 0x20 ADD SWAP2 SWAP1 PUSH1 0x1 ADD SWAP1 PUSH3 0x20E JUMP JUMPDEST JUMPDEST POP SWAP1 POP PUSH3 0x278 SWAP2 SWAP1 PUSH3 0x27C JUMP JUMPDEST POP SWAP1 JUMP JUMPDEST PUSH3 0x2BF SWAP2 SWAP1 JUMPDEST DUP1 DUP3 GT ISZERO PUSH3 0x2BB JUMPI PUSH1 0x0 DUP2 DUP2 PUSH2 0x100 EXP DUP2 SLOAD SWAP1 PUSH20 0xFFFFFFFFFFFFFFFFFFFFFFFFFFFFFFFFFFFFFFFF MUL NOT AND SWAP1 SSTORE POP PUSH1 0x1 ADD PUSH3 0x283 JUMP JUMPDEST POP SWAP1 JUMP JUMPDEST SWAP1 JUMP JUMPDEST PUSH2 0x4416 DUP1 PUSH3 0x2D2 PUSH1 0x0 CODECOPY PUSH1 0x0 RETURN STOP PUSH1 0x80 PUSH1 0x40 MSTORE PUSH1 0x4 CALLDATASIZE LT PUSH2 0x1C2 JUMPI PUSH1 0x0 CALLDATALOAD PUSH29 0x100000000000000000000000000000000000000000000000000000000 SWAP1 DIV PUSH4 0xFFFFFFFF AND DUP1 PUSH4 0x25E7C27 EQ PUSH2 0x1C7 JUMPI DUP1 PUSH4 0x173825D9 EQ PUSH2 0x234 JUMPI DUP1 PUSH4 0x180AEDF3 EQ PUSH2 0x277 JUMPI DUP1 PUSH4 0x1D43B653 EQ PUSH2 0x342 JUMPI DUP1 PUSH4 0x20913DA5 EQ PUSH2 0x3A3 JUMPI DUP1 PUSH4 0x20EA8D86 EQ PUSH2 0x3DA JUMPI DUP1 PUSH4 0x21ED0F64 EQ PUSH2 0x407 JUMPI DUP1 PUSH4 0x2F54BF6E EQ PUSH2 0x434 JUMPI DUP1 PUSH4 0x3411C81C EQ PUSH2 0x48F JUMPI DUP1 PUSH4 0x3B3875B0 EQ PUSH2 0x4F4 JUMPI DUP1 PUSH4 0x3EFAEA1F EQ PUSH2 0x5AC JUMPI DUP1 PUSH4 0x4C5D8A0F EQ PUSH2 0x61F JUMPI DUP1 PUSH4 0x54741525 EQ PUSH2 0x64A JUMPI DUP1 PUSH4 0x54879918 EQ PUSH2 0x699 JUMPI DUP1 PUSH4 0x6B832070 EQ PUSH2 0x6F0 JUMPI DUP1 PUSH4 0x7065CB48 EQ PUSH2 0x80F JUMPI DUP1 PUSH4 0x784547A7 EQ PUSH2 0x852 JUMPI DUP1 PUSH4 0x8B51D13F EQ PUSH2 0x897 JUMPI DUP1 PUSH4 0x9047BF58 EQ PUSH2 0x8D8 JUMPI DUP1 PUSH4 0x93894630 EQ PUSH2 0x903 JUMPI DUP1 PUSH4 0x9ACE38C2 EQ PUSH2 0x9A9 JUMPI DUP1 PUSH4 0xA0E67E2B EQ PUSH2 0xA94 JUMPI DUP1 PUSH4 0xA1C0D32F EQ PUSH2 0xB00 JUMPI DUP1 PUSH4 0xA8ABE69A EQ PUSH2 0xB2D JUMPI DUP1 PUSH4 0xA9C48473 EQ PUSH2 0xBD1 JUMPI DUP1 PUSH4 0xB5DC40C3 EQ PUSH2 0xC44 JUMPI DUP1 PUSH4 0xB77BF600 EQ PUSH2 0xCC6 JUMPI DUP1 PUSH4 0xBA51A6DF EQ PUSH2 0xCF1 JUMPI DUP1 PUSH4 0xC01A8C84 EQ PUSH2 0xD1E JUMPI DUP1 PUSH4 0xC3B2D07A EQ PUSH2 0xD4B JUMPI DUP1 PUSH4 0xD74F8EDD EQ PUSH2 0xF11 JUMPI DUP1 PUSH4 0xDC8452CD EQ PUSH2 0xF3C JUMPI DUP1 PUSH4 0xE20056E6 EQ PUSH2 0xF67 JUMPI DUP1 PUSH4 0xEE22610B EQ PUSH2 0xFCA JUMPI DUP1 PUSH4 0xF170E58C EQ PUSH2 0xFF7 JUMPI DUP1 PUSH4 0xF475B5DF EQ PUSH2 0x1120 JUMPI JUMPDEST PUSH1 0x0 DUP1 REVERT JUMPDEST CALLVALUE DUP1 ISZERO PUSH2 0x1D3 JUMPI PUSH1 0x0 DUP1 REVERT JUMPDEST POP PUSH2 0x1F2 PUSH1 0x4 DUP1 CALLDATASIZE SUB DUP2 ADD SWAP1 DUP1 DUP1 CALLDATALOAD SWAP1 PUSH1 0x20 ADD SWAP1 SWAP3 SWAP2 SWAP1 POP POP POP PUSH2 0x11C6 JUMP JUMPDEST PUSH1 0x40 MLOAD DUP1 DUP3 PUSH20 0xFFFFFFFFFFFFFFFFFFFFFFFFFFFFFFFFFFFFFFFF AND PUSH20 0xFFFFFFFFFFFFFFFFFFFFFFFFFFFFFFFFFFFFFFFF AND DUP2 MSTORE PUSH1 0x20 ADD SWAP2 POP POP PUSH1 0x40 MLOAD DUP1 SWAP2 SUB SWAP1 RETURN JUMPDEST CALLVALUE DUP1 ISZERO PUSH2 0x240 JUMPI PUSH1 0x0 DUP1 REVERT JUMPDEST POP PUSH2 0x275 PUSH1 0x4 DUP1 CALLDATASIZE SUB DUP2 ADD SWAP1 DUP1 DUP1 CALLDATALOAD PUSH20 0xFFFFFFFFFFFFFFFFFFFFFFFFFFFFFFFFFFFFFFFF AND SWAP1 PUSH1 0x20 ADD SWAP1 SWAP3 SWAP2 SWAP1 POP POP POP PUSH2 0x1204 JUMP JUMPDEST STOP JUMPDEST CALLVALUE DUP1 ISZERO PUSH2 0x283 JUMPI PUSH1 0x0 DUP1 REVERT JUMPDEST POP PUSH2 0x2A2 PUSH1 0x4 DUP1 CALLDATASIZE SUB DUP2 ADD SWAP1 DUP1 DUP1 CALLDATALOAD SWAP1 PUSH1 0x20 ADD SWAP1 SWAP3 SWAP2 SWAP1 POP POP POP PUSH2 0x149D JUMP JUMPDEST PUSH1 0x40 MLOAD DUP1 DUP9 PUSH20 0xFFFFFFFFFFFFFFFFFFFFFFFFFFFFFFFFFFFFFFFF AND PUSH20 0xFFFFFFFFFFFFFFFFFFFFFFFFFFFFFFFFFFFFFFFF AND DUP2 MSTORE PUSH1 0x20 ADD DUP8 PUSH20 0xFFFFFFFFFFFFFFFFFFFFFFFFFFFFFFFFFFFFFFFF AND PUSH20 0xFFFFFFFFFFFFFFFFFFFFFFFFFFFFFFFFFFFFFFFF AND DUP2 MSTORE PUSH1 0x20 ADD DUP7 DUP2 MSTORE PUSH1 0x20 ADD DUP6 DUP2 MSTORE PUSH1 0x20 ADD DUP5 DUP2 MSTORE PUSH1 0x20 ADD DUP4 ISZERO ISZERO ISZERO ISZERO DUP2 MSTORE PUSH1 0x20 ADD DUP3 ISZERO ISZERO ISZERO ISZERO DUP2 MSTORE PUSH1 0x20 ADD SWAP8 POP POP POP POP POP POP POP POP PUSH1 0x40 MLOAD DUP1 SWAP2 SUB SWAP1 RETURN JUMPDEST CALLVALUE DUP1 ISZERO PUSH2 0x34E JUMPI PUSH1 0x0 DUP1 REVERT JUMPDEST POP PUSH2 0x38D PUSH1 0x4 DUP1 CALLDATASIZE SUB DUP2 ADD SWAP1 DUP1 DUP1 CALLDATALOAD PUSH20 0xFFFFFFFFFFFFFFFFFFFFFFFFFFFFFFFFFFFFFFFF AND SWAP1 PUSH1 0x20 ADD SWAP1 SWAP3 SWAP2 SWAP1 DUP1 CALLDATALOAD SWAP1 PUSH1 0x20 ADD SWAP1 SWAP3 SWAP2 SWAP1 POP POP POP PUSH2 0x1539 JUMP JUMPDEST PUSH1 0x40 MLOAD DUP1 DUP3 DUP2 MSTORE PUSH1 0x20 ADD SWAP2 POP POP PUSH1 0x40 MLOAD DUP1 SWAP2 SUB SWAP1 RETURN JUMPDEST CALLVALUE DUP1 ISZERO PUSH2 0x3AF JUMPI PUSH1 0x0 DUP1 REVERT JUMPDEST POP PUSH2 0x3D8 PUSH1 0x4 DUP1 CALLDATASIZE SUB DUP2 ADD SWAP1 DUP1 DUP1 CALLDATALOAD SWAP1 PUSH1 0x20 ADD SWAP1 SWAP3 SWAP2 SWAP1 DUP1 CALLDATALOAD SWAP1 PUSH1 0x20 ADD SWAP1 SWAP3 SWAP2 SWAP1 POP POP POP PUSH2 0x158C JUMP JUMPDEST STOP JUMPDEST CALLVALUE DUP1 ISZERO PUSH2 0x3E6 JUMPI PUSH1 0x0 DUP1 REVERT JUMPDEST POP PUSH2 0x405 PUSH1 0x4 DUP1 CALLDATASIZE SUB DUP2 ADD SWAP1 DUP1 DUP1 CALLDATALOAD SWAP1 PUSH1 0x20 ADD SWAP1 SWAP3 SWAP2 SWAP1 POP POP POP PUSH2 0x19AB JUMP JUMPDEST STOP JUMPDEST CALLVALUE DUP1 ISZERO PUSH2 0x413 JUMPI PUSH1 0x0 DUP1 REVERT JUMPDEST POP PUSH2 0x432 PUSH1 0x4 DUP1 CALLDATASIZE SUB DUP2 ADD SWAP1 DUP1 DUP1 CALLDATALOAD SWAP1 PUSH1 0x20 ADD SWAP1 SWAP3 SWAP2 SWAP1 POP POP POP PUSH2 0x1B54 JUMP JUMPDEST STOP JUMPDEST CALLVALUE DUP1 ISZERO PUSH2 0x440 JUMPI PUSH1 0x0 DUP1 REVERT JUMPDEST POP PUSH2 0x475 PUSH1 0x4 DUP1 CALLDATASIZE SUB DUP2 ADD SWAP1 DUP1 DUP1 CALLDATALOAD PUSH20 0xFFFFFFFFFFFFFFFFFFFFFFFFFFFFFFFFFFFFFFFF AND SWAP1 PUSH1 0x20 ADD SWAP1 SWAP3 SWAP2 SWAP1 POP POP POP PUSH2 0x1D1C JUMP JUMPDEST PUSH1 0x40 MLOAD DUP1 DUP3 ISZERO ISZERO ISZERO ISZERO DUP2 MSTORE PUSH1 0x20 ADD SWAP2 POP POP PUSH1 0x40 MLOAD DUP1 SWAP2 SUB SWAP1 RETURN JUMPDEST CALLVALUE DUP1 ISZERO PUSH2 0x49B JUMPI PUSH1 0x0 DUP1 REVERT JUMPDEST POP PUSH2 0x4DA PUSH1 0x4 DUP1 CALLDATASIZE SUB DUP2 ADD SWAP1 DUP1 DUP1 CALLDATALOAD SWAP1 PUSH1 0x20 ADD SWAP1 SWAP3 SWAP2 SWAP1 DUP1 CALLDATALOAD PUSH20 0xFFFFFFFFFFFFFFFFFFFFFFFFFFFFFFFFFFFFFFFF AND SWAP1 PUSH1 0x20 ADD SWAP1 SWAP3 SWAP2 SWAP1 POP POP POP PUSH2 0x1D3C JUMP JUMPDEST PUSH1 0x40 MLOAD DUP1 DUP3 ISZERO ISZERO ISZERO ISZERO DUP2 MSTORE PUSH1 0x20 ADD SWAP2 POP POP PUSH1 0x40 MLOAD DUP1 SWAP2 SUB SWAP1 RETURN JUMPDEST CALLVALUE DUP1 ISZERO PUSH2 0x500 JUMPI PUSH1 0x0 DUP1 REVERT JUMPDEST POP PUSH2 0x596 PUSH1 0x4 DUP1 CALLDATASIZE SUB DUP2 ADD SWAP1 DUP1 DUP1 CALLDATALOAD PUSH20 0xFFFFFFFFFFFFFFFFFFFFFFFFFFFFFFFFFFFFFFFF AND SWAP1 PUSH1 0x20 ADD SWAP1 SWAP3 SWAP2 SWAP1 DUP1 CALLDATALOAD SWAP1 PUSH1 0x20 ADD SWAP1 SWAP3 SWAP2 SWAP1 DUP1 CALLDATALOAD SWAP1 PUSH1 0x20 ADD SWAP1 DUP3 ADD DUP1 CALLDATALOAD SWAP1 PUSH1 0x20 ADD SWAP1 DUP1 DUP1 PUSH1 0x20 MUL PUSH1 0x20 ADD PUSH1 0x40 MLOAD SWAP1 DUP2 ADD PUSH1 0x40 MSTORE DUP1 SWAP4 SWAP3 SWAP2 SWAP1 DUP2 DUP2 MSTORE PUSH1 0x20 ADD DUP4 DUP4 PUSH1 0x20 MUL DUP1 DUP3 DUP5 CALLDATACOPY DUP3 ADD SWAP2 POP POP POP POP POP POP SWAP2 SWAP3 SWAP2 SWAP3 SWAP1 DUP1 CALLDATALOAD SWAP1 PUSH1 0x20 ADD SWAP1 SWAP3 SWAP2 SWAP1 DUP1 CALLDATALOAD SWAP1 PUSH1 0x20 ADD SWAP1 SWAP3 SWAP2 SWAP1 POP POP POP PUSH2 0x1D6B JUMP JUMPDEST PUSH1 0x40 MLOAD DUP1 DUP3 DUP2 MSTORE PUSH1 0x20 ADD SWAP2 POP POP PUSH1 0x40 MLOAD DUP1 SWAP2 SUB SWAP1 RETURN JUMPDEST CALLVALUE DUP1 ISZERO PUSH2 0x5B8 JUMPI PUSH1 0x0 DUP1 REVERT JUMPDEST POP PUSH2 0x61D PUSH1 0x4 DUP1 CALLDATASIZE SUB DUP2 ADD SWAP1 DUP1 DUP1 CALLDATALOAD SWAP1 PUSH1 0x20 ADD SWAP1 SWAP3 SWAP2 SWAP1 DUP1 CALLDATALOAD SWAP1 PUSH1 0x20 ADD SWAP1 DUP3 ADD DUP1 CALLDATALOAD SWAP1 PUSH1 0x20 ADD SWAP1 DUP1 DUP1 PUSH1 0x1F ADD PUSH1 0x20 DUP1 SWAP2 DIV MUL PUSH1 0x20 ADD PUSH1 0x40 MLOAD SWAP1 DUP2 ADD PUSH1 0x40 MSTORE DUP1 SWAP4 SWAP3 SWAP2 SWAP1 DUP2 DUP2 MSTORE PUSH1 0x20 ADD DUP4 DUP4 DUP1 DUP3 DUP5 CALLDATACOPY DUP3 ADD SWAP2 POP POP POP POP POP POP SWAP2 SWAP3 SWAP2 SWAP3 SWAP1 POP POP POP PUSH2 0x20B6 JUMP JUMPDEST STOP JUMPDEST CALLVALUE DUP1 ISZERO PUSH2 0x62B JUMPI PUSH1 0x0 DUP1 REVERT JUMPDEST POP PUSH2 0x634 PUSH2 0x20BA JUMP JUMPDEST PUSH1 0x40 MLOAD DUP1 DUP3 DUP2 MSTORE PUSH1 0x20 ADD SWAP2 POP POP PUSH1 0x40 MLOAD DUP1 SWAP2 SUB SWAP1 RETURN JUMPDEST CALLVALUE DUP1 ISZERO PUSH2 0x656 JUMPI PUSH1 0x0 DUP1 REVERT JUMPDEST POP PUSH2 0x683 PUSH1 0x4 DUP1 CALLDATASIZE SUB DUP2 ADD SWAP1 DUP1 DUP1 CALLDATALOAD ISZERO ISZERO SWAP1 PUSH1 0x20 ADD SWAP1 SWAP3 SWAP2 SWAP1 DUP1 CALLDATALOAD ISZERO ISZERO SWAP1 PUSH1 0x20 ADD SWAP1 SWAP3 SWAP2 SWAP1 POP POP POP PUSH2 0x20C0 JUMP JUMPDEST PUSH1 0x40 MLOAD DUP1 DUP3 DUP2 MSTORE PUSH1 0x20 ADD SWAP2 POP POP PUSH1 0x40 MLOAD DUP1 SWAP2 SUB SWAP1 RETURN JUMPDEST CALLVALUE DUP1 ISZERO PUSH2 0x6A5 JUMPI PUSH1 0x0 DUP1 REVERT JUMPDEST POP PUSH2 0x6AE PUSH2 0x2154 JUMP JUMPDEST PUSH1 0x40 MLOAD DUP1 DUP3 PUSH20 0xFFFFFFFFFFFFFFFFFFFFFFFFFFFFFFFFFFFFFFFF AND PUSH20 0xFFFFFFFFFFFFFFFFFFFFFFFFFFFFFFFFFFFFFFFF AND DUP2 MSTORE PUSH1 0x20 ADD SWAP2 POP POP PUSH1 0x40 MLOAD DUP1 SWAP2 SUB SWAP1 RETURN JUMPDEST CALLVALUE DUP1 ISZERO PUSH2 0x6FC JUMPI PUSH1 0x0 DUP1 REVERT JUMPDEST POP PUSH2 0x80D PUSH1 0x4 DUP1 CALLDATASIZE SUB DUP2 ADD SWAP1 DUP1 DUP1 CALLDATALOAD PUSH20 0xFFFFFFFFFFFFFFFFFFFFFFFFFFFFFFFFFFFFFFFF AND SWAP1 PUSH1 0x20 ADD SWAP1 SWAP3 SWAP2 SWAP1 DUP1 CALLDATALOAD SWAP1 PUSH1 0x20 ADD SWAP1 DUP3 ADD DUP1 CALLDATALOAD SWAP1 PUSH1 0x20 ADD SWAP1 DUP1 DUP1 PUSH1 0x1F ADD PUSH1 0x20 DUP1 SWAP2 DIV MUL PUSH1 0x20 ADD PUSH1 0x40 MLOAD SWAP1 DUP2 ADD PUSH1 0x40 MSTORE DUP1 SWAP4 SWAP3 SWAP2 SWAP1 DUP2 DUP2 MSTORE PUSH1 0x20 ADD DUP4 DUP4 DUP1 DUP3 DUP5 CALLDATACOPY DUP3 ADD SWAP2 POP POP POP POP POP POP SWAP2 SWAP3 SWAP2 SWAP3 SWAP1 DUP1 CALLDATALOAD SWAP1 PUSH1 0x20 ADD SWAP1 DUP3 ADD DUP1 CALLDATALOAD SWAP1 PUSH1 0x20 ADD SWAP1 DUP1 DUP1 PUSH1 0x1F ADD PUSH1 0x20 DUP1 SWAP2 DIV MUL PUSH1 0x20 ADD PUSH1 0x40 MLOAD SWAP1 DUP2 ADD PUSH1 0x40 MSTORE DUP1 SWAP4 SWAP3 SWAP2 SWAP1 DUP2 DUP2 MSTORE PUSH1 0x20 ADD DUP4 DUP4 DUP1 DUP3 DUP5 CALLDATACOPY DUP3 ADD SWAP2 POP POP POP POP POP POP SWAP2 SWAP3 SWAP2 SWAP3 SWAP1 DUP1 CALLDATALOAD SWAP1 PUSH1 0x20 ADD SWAP1 DUP3 ADD DUP1 CALLDATALOAD SWAP1 PUSH1 0x20 ADD SWAP1 DUP1 DUP1 PUSH1 0x1F ADD PUSH1 0x20 DUP1 SWAP2 DIV MUL PUSH1 0x20 ADD PUSH1 0x40 MLOAD SWAP1 DUP2 ADD PUSH1 0x40 MSTORE DUP1 SWAP4 SWAP3 SWAP2 SWAP1 DUP2 DUP2 MSTORE PUSH1 0x20 ADD DUP4 DUP4 DUP1 DUP3 DUP5 CALLDATACOPY DUP3 ADD SWAP2 POP POP POP POP POP POP SWAP2 SWAP3 SWAP2 SWAP3 SWAP1 DUP1 CALLDATALOAD SWAP1 PUSH1 0x20 ADD SWAP1 SWAP3 SWAP2 SWAP1 POP POP POP PUSH2 0x2179 JUMP JUMPDEST STOP JUMPDEST CALLVALUE DUP1 ISZERO PUSH2 0x81B JUMPI PUSH1 0x0 DUP1 REVERT JUMPDEST POP PUSH2 0x850 PUSH1 0x4 DUP1 CALLDATASIZE SUB DUP2 ADD SWAP1 DUP1 DUP1 CALLDATALOAD PUSH20 0xFFFFFFFFFFFFFFFFFFFFFFFFFFFFFFFFFFFFFFFF AND SWAP1 PUSH1 0x20 ADD SWAP1 SWAP3 SWAP2 SWAP1 POP POP POP PUSH2 0x23C1 JUMP JUMPDEST STOP JUMPDEST CALLVALUE DUP1 ISZERO PUSH2 0x85E JUMPI PUSH1 0x0 DUP1 REVERT JUMPDEST POP PUSH2 0x87D PUSH1 0x4 DUP1 CALLDATASIZE SUB DUP2 ADD SWAP1 DUP1 DUP1 CALLDATALOAD SWAP1 PUSH1 0x20 ADD SWAP1 SWAP3 SWAP2 SWAP1 POP POP POP PUSH2 0x25C6 JUMP JUMPDEST PUSH1 0x40 MLOAD DUP1 DUP3 ISZERO ISZERO ISZERO ISZERO DUP2 MSTORE PUSH1 0x20 ADD SWAP2 POP POP PUSH1 0x40 MLOAD DUP1 SWAP2 SUB SWAP1 RETURN JUMPDEST CALLVALUE DUP1 ISZERO PUSH2 0x8A3 JUMPI PUSH1 0x0 DUP1 REVERT JUMPDEST POP PUSH2 0x8C2 PUSH1 0x4 DUP1 CALLDATASIZE SUB DUP2 ADD SWAP1 DUP1 DUP1 CALLDATALOAD SWAP1 PUSH1 0x20 ADD SWAP1 SWAP3 SWAP2 SWAP1 POP POP POP PUSH2 0x26AB JUMP JUMPDEST PUSH1 0x40 MLOAD DUP1 DUP3 DUP2 MSTORE PUSH1 0x20 ADD SWAP2 POP POP PUSH1 0x40 MLOAD DUP1 SWAP2 SUB SWAP1 RETURN JUMPDEST CALLVALUE DUP1 ISZERO PUSH2 0x8E4 JUMPI PUSH1 0x0 DUP1 REVERT JUMPDEST POP PUSH2 0x8ED PUSH2 0x2776 JUMP JUMPDEST PUSH1 0x40 MLOAD DUP1 DUP3 DUP2 MSTORE PUSH1 0x20 ADD SWAP2 POP POP PUSH1 0x40 MLOAD DUP1 SWAP2 SUB SWAP1 RETURN JUMPDEST CALLVALUE DUP1 ISZERO PUSH2 0x90F JUMPI PUSH1 0x0 DUP1 REVERT JUMPDEST POP PUSH2 0x92E PUSH1 0x4 DUP1 CALLDATASIZE SUB DUP2 ADD SWAP1 DUP1 DUP1 CALLDATALOAD SWAP1 PUSH1 0x20 ADD SWAP1 SWAP3 SWAP2 SWAP1 POP POP POP PUSH2 0x277C JUMP JUMPDEST PUSH1 0x40 MLOAD DUP1 DUP1 PUSH1 0x20 ADD DUP3 DUP2 SUB DUP3 MSTORE DUP4 DUP2 DUP2 MLOAD DUP2 MSTORE PUSH1 0x20 ADD SWAP2 POP DUP1 MLOAD SWAP1 PUSH1 0x20 ADD SWAP1 DUP1 DUP4 DUP4 PUSH1 0x0 JUMPDEST DUP4 DUP2 LT ISZERO PUSH2 0x96E JUMPI DUP1 DUP3 ADD MLOAD DUP2 DUP5 ADD MSTORE PUSH1 0x20 DUP2 ADD SWAP1 POP PUSH2 0x953 JUMP JUMPDEST POP POP POP POP SWAP1 POP SWAP1 DUP2 ADD SWAP1 PUSH1 0x1F AND DUP1 ISZERO PUSH2 0x99B JUMPI DUP1 DUP3 SUB DUP1 MLOAD PUSH1 0x1 DUP4 PUSH1 0x20 SUB PUSH2 0x100 EXP SUB NOT AND DUP2 MSTORE PUSH1 0x20 ADD SWAP2 POP JUMPDEST POP SWAP3 POP POP POP PUSH1 0x40 MLOAD DUP1 SWAP2 SUB SWAP1 RETURN JUMPDEST CALLVALUE DUP1 ISZERO PUSH2 0x9B5 JUMPI PUSH1 0x0 DUP1 REVERT JUMPDEST POP PUSH2 0x9D4 PUSH1 0x4 DUP1 CALLDATASIZE SUB DUP2 ADD SWAP1 DUP1 DUP1 CALLDATALOAD SWAP1 PUSH1 0x20 ADD SWAP1 SWAP3 SWAP2 SWAP1 POP POP POP PUSH2 0x2834 JUMP JUMPDEST PUSH1 0x40 MLOAD DUP1 DUP6 PUSH20 0xFFFFFFFFFFFFFFFFFFFFFFFFFFFFFFFFFFFFFFFF AND PUSH20 0xFFFFFFFFFFFFFFFFFFFFFFFFFFFFFFFFFFFFFFFF AND DUP2 MSTORE PUSH1 0x20 ADD DUP5 DUP2 MSTORE PUSH1 0x20 ADD DUP1 PUSH1 0x20 ADD DUP4 ISZERO ISZERO ISZERO ISZERO DUP2 MSTORE PUSH1 0x20 ADD DUP3 DUP2 SUB DUP3 MSTORE DUP5 DUP2 DUP2 MLOAD DUP2 MSTORE PUSH1 0x20 ADD SWAP2 POP DUP1 MLOAD SWAP1 PUSH1 0x20 ADD SWAP1 DUP1 DUP4 DUP4 PUSH1 0x0 JUMPDEST DUP4 DUP2 LT ISZERO PUSH2 0xA56 JUMPI DUP1 DUP3 ADD MLOAD DUP2 DUP5 ADD MSTORE PUSH1 0x20 DUP2 ADD SWAP1 POP PUSH2 0xA3B JUMP JUMPDEST POP POP POP POP SWAP1 POP SWAP1 DUP2 ADD SWAP1 PUSH1 0x1F AND DUP1 ISZERO PUSH2 0xA83 JUMPI DUP1 DUP3 SUB DUP1 MLOAD PUSH1 0x1 DUP4 PUSH1 0x20 SUB PUSH2 0x100 EXP SUB NOT AND DUP2 MSTORE PUSH1 0x20 ADD SWAP2 POP JUMPDEST POP SWAP6 POP POP POP POP POP POP PUSH1 0x40 MLOAD DUP1 SWAP2 SUB SWAP1 RETURN JUMPDEST CALLVALUE DUP1 ISZERO PUSH2 0xAA0 JUMPI PUSH1 0x0 DUP1 REVERT JUMPDEST POP PUSH2 0xAA9 PUSH2 0x2929 JUMP JUMPDEST PUSH1 0x40 MLOAD DUP1 DUP1 PUSH1 0x20 ADD DUP3 DUP2 SUB DUP3 MSTORE DUP4 DUP2 DUP2 MLOAD DUP2 MSTORE PUSH1 0x20 ADD SWAP2 POP DUP1 MLOAD SWAP1 PUSH1 0x20 ADD SWAP1 PUSH1 0x20 MUL DUP1 DUP4 DUP4 PUSH1 0x0 JUMPDEST DUP4 DUP2 LT ISZERO PUSH2 0xAEC JUMPI DUP1 DUP3 ADD MLOAD DUP2 DUP5 ADD MSTORE PUSH1 0x20 DUP2 ADD SWAP1 POP PUSH2 0xAD1 JUMP JUMPDEST POP POP POP POP SWAP1 POP ADD SWAP3 POP POP POP PUSH1 0x40 MLOAD DUP1 SWAP2 SUB SWAP1 RETURN JUMPDEST CALLVALUE DUP1 ISZERO PUSH2 0xB0C JUMPI PUSH1 0x0 DUP1 REVERT JUMPDEST POP PUSH2 0xB2B PUSH1 0x4 DUP1 CALLDATASIZE SUB DUP2 ADD SWAP1 DUP1 DUP1 CALLDATALOAD SWAP1 PUSH1 0x20 ADD SWAP1 SWAP3 SWAP2 SWAP1 POP POP POP PUSH2 0x29B7 JUMP JUMPDEST STOP JUMPDEST CALLVALUE DUP1 ISZERO PUSH2 0xB39 JUMPI PUSH1 0x0 DUP1 REVERT JUMPDEST POP PUSH2 0xB7A PUSH1 0x4 DUP1 CALLDATASIZE SUB DUP2 ADD SWAP1 DUP1 DUP1 CALLDATALOAD SWAP1 PUSH1 0x20 ADD SWAP1 SWAP3 SWAP2 SWAP1 DUP1 CALLDATALOAD SWAP1 PUSH1 0x20 ADD SWAP1 SWAP3 SWAP2 SWAP1 DUP1 CALLDATALOAD ISZERO ISZERO SWAP1 PUSH1 0x20 ADD SWAP1 SWAP3 SWAP2 SWAP1 DUP1 CALLDATALOAD ISZERO ISZERO SWAP1 PUSH1 0x20 ADD SWAP1 SWAP3 SWAP2 SWAP1 POP POP POP PUSH2 0x2CDB JUMP JUMPDEST PUSH1 0x40 MLOAD DUP1 DUP1 PUSH1 0x20 ADD DUP3 DUP2 SUB DUP3 MSTORE DUP4 DUP2 DUP2 MLOAD DUP2 MSTORE PUSH1 0x20 ADD SWAP2 POP DUP1 MLOAD SWAP1 PUSH1 0x20 ADD SWAP1 PUSH1 0x20 MUL DUP1 DUP4 DUP4 PUSH1 0x0 JUMPDEST DUP4 DUP2 LT ISZERO PUSH2 0xBBD JUMPI DUP1 DUP3 ADD MLOAD DUP2 DUP5 ADD MSTORE PUSH1 0x20 DUP2 ADD SWAP1 POP PUSH2 0xBA2 JUMP JUMPDEST POP POP POP POP SWAP1 POP ADD SWAP3 POP POP POP PUSH1 0x40 MLOAD DUP1 SWAP2 SUB SWAP1 RETURN JUMPDEST CALLVALUE DUP1 ISZERO PUSH2 0xBDD JUMPI PUSH1 0x0 DUP1 REVERT JUMPDEST POP PUSH2 0xC42 PUSH1 0x4 DUP1 CALLDATASIZE SUB DUP2 ADD SWAP1 DUP1 DUP1 CALLDATALOAD SWAP1 PUSH1 0x20 ADD SWAP1 SWAP3 SWAP2 SWAP1 DUP1 CALLDATALOAD SWAP1 PUSH1 0x20 ADD SWAP1 DUP3 ADD DUP1 CALLDATALOAD SWAP1 PUSH1 0x20 ADD SWAP1 DUP1 DUP1 PUSH1 0x1F ADD PUSH1 0x20 DUP1 SWAP2 DIV MUL PUSH1 0x20 ADD PUSH1 0x40 MLOAD SWAP1 DUP2 ADD PUSH1 0x40 MSTORE DUP1 SWAP4 SWAP3 SWAP2 SWAP1 DUP2 DUP2 MSTORE PUSH1 0x20 ADD DUP4 DUP4 DUP1 DUP3 DUP5 CALLDATACOPY DUP3 ADD SWAP2 POP POP POP POP POP POP SWAP2 SWAP3 SWAP2 SWAP3 SWAP1 POP POP POP PUSH2 0x2E4E JUMP JUMPDEST STOP JUMPDEST CALLVALUE DUP1 ISZERO PUSH2 0xC50 JUMPI PUSH1 0x0 DUP1 REVERT JUMPDEST POP PUSH2 0xC6F PUSH1 0x4 DUP1 CALLDATASIZE SUB DUP2 ADD SWAP1 DUP1 DUP1 CALLDATALOAD SWAP1 PUSH1 0x20 ADD SWAP1 SWAP3 SWAP2 SWAP1 POP POP POP PUSH2 0x2FCC JUMP JUMPDEST PUSH1 0x40 MLOAD DUP1 DUP1 PUSH1 0x20 ADD DUP3 DUP2 SUB DUP3 MSTORE DUP4 DUP2 DUP2 MLOAD DUP2 MSTORE PUSH1 0x20 ADD SWAP2 POP DUP1 MLOAD SWAP1 PUSH1 0x20 ADD SWAP1 PUSH1 0x20 MUL DUP1 DUP4 DUP4 PUSH1 0x0 JUMPDEST DUP4 DUP2 LT ISZERO PUSH2 0xCB2 JUMPI DUP1 DUP3 ADD MLOAD DUP2 DUP5 ADD MSTORE PUSH1 0x20 DUP2 ADD SWAP1 POP PUSH2 0xC97 JUMP JUMPDEST POP POP POP POP SWAP1 POP ADD SWAP3 POP POP POP PUSH1 0x40 MLOAD DUP1 SWAP2 SUB SWAP1 RETURN JUMPDEST CALLVALUE DUP1 ISZERO PUSH2 0xCD2 JUMPI PUSH1 0x0 DUP1 REVERT JUMPDEST POP PUSH2 0xCDB PUSH2 0x3209 JUMP JUMPDEST PUSH1 0x40 MLOAD DUP1 DUP3 DUP2 MSTORE PUSH1 0x20 ADD SWAP2 POP POP PUSH1 0x40 MLOAD DUP1 SWAP2 SUB SWAP1 RETURN JUMPDEST CALLVALUE DUP1 ISZERO PUSH2 0xCFD JUMPI PUSH1 0x0 DUP1 REVERT JUMPDEST POP PUSH2 0xD1C PUSH1 0x4 DUP1 CALLDATASIZE SUB DUP2 ADD SWAP1 DUP1 DUP1 CALLDATALOAD SWAP1 PUSH1 0x20 ADD SWAP1 SWAP3 SWAP2 SWAP1 POP POP POP PUSH2 0x320F JUMP JUMPDEST STOP JUMPDEST CALLVALUE DUP1 ISZERO PUSH2 0xD2A JUMPI PUSH1 0x0 DUP1 REVERT JUMPDEST POP PUSH2 0xD49 PUSH1 0x4 DUP1 CALLDATASIZE SUB DUP2 ADD SWAP1 DUP1 DUP1 CALLDATALOAD SWAP1 PUSH1 0x20 ADD SWAP1 SWAP3 SWAP2 SWAP1 POP POP POP PUSH2 0x32C9 JUMP JUMPDEST STOP JUMPDEST CALLVALUE DUP1 ISZERO PUSH2 0xD57 JUMPI PUSH1 0x0 DUP1 REVERT JUMPDEST POP PUSH2 0xD76 PUSH1 0x4 DUP1 CALLDATASIZE SUB DUP2 ADD SWAP1 DUP1 DUP1 CALLDATALOAD SWAP1 PUSH1 0x20 ADD SWAP1 SWAP3 SWAP2 SWAP1 POP POP POP PUSH2 0x34A8 JUMP JUMPDEST PUSH1 0x40 MLOAD DUP1 DUP9 PUSH20 0xFFFFFFFFFFFFFFFFFFFFFFFFFFFFFFFFFFFFFFFF AND PUSH20 0xFFFFFFFFFFFFFFFFFFFFFFFFFFFFFFFFFFFFFFFF AND DUP2 MSTORE PUSH1 0x20 ADD DUP1 PUSH1 0x20 ADD DUP1 PUSH1 0x20 ADD DUP1 PUSH1 0x20 ADD DUP8 DUP2 MSTORE PUSH1 0x20 ADD DUP7 DUP2 MSTORE PUSH1 0x20 ADD DUP6 DUP2 MSTORE PUSH1 0x20 ADD DUP5 DUP2 SUB DUP5 MSTORE DUP11 DUP2 DUP2 MLOAD DUP2 MSTORE PUSH1 0x20 ADD SWAP2 POP DUP1 MLOAD SWAP1 PUSH1 0x20 ADD SWAP1 DUP1 DUP4 DUP4 PUSH1 0x0 JUMPDEST DUP4 DUP2 LT ISZERO PUSH2 0xE02 JUMPI DUP1 DUP3 ADD MLOAD DUP2 DUP5 ADD MSTORE PUSH1 0x20 DUP2 ADD SWAP1 POP PUSH2 0xDE7 JUMP JUMPDEST POP POP POP POP SWAP1 POP SWAP1 DUP2 ADD SWAP1 PUSH1 0x1F AND DUP1 ISZERO PUSH2 0xE2F JUMPI DUP1 DUP3 SUB DUP1 MLOAD PUSH1 0x1 DUP4 PUSH1 0x20 SUB PUSH2 0x100 EXP SUB NOT AND DUP2 MSTORE PUSH1 0x20 ADD SWAP2 POP JUMPDEST POP DUP5 DUP2 SUB DUP4 MSTORE DUP10 DUP2 DUP2 MLOAD DUP2 MSTORE PUSH1 0x20 ADD SWAP2 POP DUP1 MLOAD SWAP1 PUSH1 0x20 ADD SWAP1 DUP1 DUP4 DUP4 PUSH1 0x0 JUMPDEST DUP4 DUP2 LT ISZERO PUSH2 0xE68 JUMPI DUP1 DUP3 ADD MLOAD DUP2 DUP5 ADD MSTORE PUSH1 0x20 DUP2 ADD SWAP1 POP PUSH2 0xE4D JUMP JUMPDEST POP POP POP POP SWAP1 POP SWAP1 DUP2 ADD SWAP1 PUSH1 0x1F AND DUP1 ISZERO PUSH2 0xE95 JUMPI DUP1 DUP3 SUB DUP1 MLOAD PUSH1 0x1 DUP4 PUSH1 0x20 SUB PUSH2 0x100 EXP SUB NOT AND DUP2 MSTORE PUSH1 0x20 ADD SWAP2 POP JUMPDEST POP DUP5 DUP2 SUB DUP3 MSTORE DUP9 DUP2 DUP2 MLOAD DUP2 MSTORE PUSH1 0x20 ADD SWAP2 POP DUP1 MLOAD SWAP1 PUSH1 0x20 ADD SWAP1 DUP1 DUP4 DUP4 PUSH1 0x0 JUMPDEST DUP4 DUP2 LT ISZERO PUSH2 0xECE JUMPI DUP1 DUP3 ADD MLOAD DUP2 DUP5 ADD MSTORE PUSH1 0x20 DUP2 ADD SWAP1 POP PUSH2 0xEB3 JUMP JUMPDEST POP POP POP POP SWAP1 POP SWAP1 DUP2 ADD SWAP1 PUSH1 0x1F AND DUP1 ISZERO PUSH2 0xEFB JUMPI DUP1 DUP3 SUB DUP1 MLOAD PUSH1 0x1 DUP4 PUSH1 0x20 SUB PUSH2 0x100 EXP SUB NOT AND DUP2 MSTORE PUSH1 0x20 ADD SWAP2 POP JUMPDEST POP SWAP11 POP POP POP POP POP POP POP POP POP POP POP PUSH1 0x40 MLOAD DUP1 SWAP2 SUB SWAP1 RETURN JUMPDEST CALLVALUE DUP1 ISZERO PUSH2 0xF1D JUMPI PUSH1 0x0 DUP1 REVERT JUMPDEST POP PUSH2 0xF26 PUSH2 0x36D2 JUMP JUMPDEST PUSH1 0x40 MLOAD DUP1 DUP3 DUP2 MSTORE PUSH1 0x20 ADD SWAP2 POP POP PUSH1 0x40 MLOAD DUP1 SWAP2 SUB SWAP1 RETURN JUMPDEST CALLVALUE DUP1 ISZERO PUSH2 0xF48 JUMPI PUSH1 0x0 DUP1 REVERT JUMPDEST POP PUSH2 0xF51 PUSH2 0x36D7 JUMP JUMPDEST PUSH1 0x40 MLOAD DUP1 DUP3 DUP2 MSTORE PUSH1 0x20 ADD SWAP2 POP POP PUSH1 0x40 MLOAD DUP1 SWAP2 SUB SWAP1 RETURN JUMPDEST CALLVALUE DUP1 ISZERO PUSH2 0xF73 JUMPI PUSH1 0x0 DUP1 REVERT JUMPDEST POP PUSH2 0xFC8 PUSH1 0x4 DUP1 CALLDATASIZE SUB DUP2 ADD SWAP1 DUP1 DUP1 CALLDATALOAD PUSH20 0xFFFFFFFFFFFFFFFFFFFFFFFFFFFFFFFFFFFFFFFF AND SWAP1 PUSH1 0x20 ADD SWAP1 SWAP3 SWAP2 SWAP1 DUP1 CALLDATALOAD PUSH20 0xFFFFFFFFFFFFFFFFFFFFFFFFFFFFFFFFFFFFFFFF AND SWAP1 PUSH1 0x20 ADD SWAP1 SWAP3 SWAP2 SWAP1 POP POP POP PUSH2 0x36DD JUMP JUMPDEST STOP JUMPDEST CALLVALUE DUP1 ISZERO PUSH2 0xFD6 JUMPI PUSH1 0x0 DUP1 REVERT JUMPDEST POP PUSH2 0xFF5 PUSH1 0x4 DUP1 CALLDATASIZE SUB DUP2 ADD SWAP1 DUP1 DUP1 CALLDATALOAD SWAP1 PUSH1 0x20 ADD SWAP1 SWAP3 SWAP2 SWAP1 POP POP POP PUSH2 0x39F2 JUMP JUMPDEST STOP JUMPDEST CALLVALUE DUP1 ISZERO PUSH2 0x1003 JUMPI PUSH1 0x0 DUP1 REVERT JUMPDEST POP PUSH2 0x111E PUSH1 0x4 DUP1 CALLDATASIZE SUB DUP2 ADD SWAP1 DUP1 DUP1 CALLDATALOAD SWAP1 PUSH1 0x20 ADD SWAP1 SWAP3 SWAP2 SWAP1 DUP1 CALLDATALOAD PUSH20 0xFFFFFFFFFFFFFFFFFFFFFFFFFFFFFFFFFFFFFFFF AND SWAP1 PUSH1 0x20 ADD SWAP1 SWAP3 SWAP2 SWAP1 DUP1 CALLDATALOAD SWAP1 PUSH1 0x20 ADD SWAP1 DUP3 ADD DUP1 CALLDATALOAD SWAP1 PUSH1 0x20 ADD SWAP1 DUP1 DUP1 PUSH1 0x1F ADD PUSH1 0x20 DUP1 SWAP2 DIV MUL PUSH1 0x20 ADD PUSH1 0x40 MLOAD SWAP1 DUP2 ADD PUSH1 0x40 MSTORE DUP1 SWAP4 SWAP3 SWAP2 SWAP1 DUP2 DUP2 MSTORE PUSH1 0x20 ADD DUP4 DUP4 DUP1 DUP3 DUP5 CALLDATACOPY DUP3 ADD SWAP2 POP POP POP POP POP POP SWAP2 SWAP3 SWAP2 SWAP3 SWAP1 DUP1 CALLDATALOAD SWAP1 PUSH1 0x20 ADD SWAP1 DUP3 ADD DUP1 CALLDATALOAD SWAP1 PUSH1 0x20 ADD SWAP1 DUP1 DUP1 PUSH1 0x1F ADD PUSH1 0x20 DUP1 SWAP2 DIV MUL PUSH1 0x20 ADD PUSH1 0x40 MLOAD SWAP1 DUP2 ADD PUSH1 0x40 MSTORE DUP1 SWAP4 SWAP3 SWAP2 SWAP1 DUP2 DUP2 MSTORE PUSH1 0x20 ADD DUP4 DUP4 DUP1 DUP3 DUP5 CALLDATACOPY DUP3 ADD SWAP2 POP POP POP POP POP POP SWAP2 SWAP3 SWAP2 SWAP3 SWAP1 DUP1 CALLDATALOAD SWAP1 PUSH1 0x20 ADD SWAP1 DUP3 ADD DUP1 CALLDATALOAD SWAP1 PUSH1 0x20 ADD SWAP1 DUP1 DUP1 PUSH1 0x1F ADD PUSH1 0x20 DUP1 SWAP2 DIV MUL PUSH1 0x20 ADD PUSH1 0x40 MLOAD SWAP1 DUP2 ADD PUSH1 0x40 MSTORE DUP1 SWAP4 SWAP3 SWAP2 SWAP1 DUP2 DUP2 MSTORE PUSH1 0x20 ADD DUP4 DUP4 DUP1 DUP3 DUP5 CALLDATACOPY DUP3 ADD SWAP2 POP POP POP POP POP POP SWAP2 SWAP3 SWAP2 SWAP3 SWAP1 DUP1 CALLDATALOAD SWAP1 PUSH1 0x20 ADD SWAP1 SWAP3 SWAP2 SWAP1 POP POP POP PUSH2 0x3C9C JUMP JUMPDEST STOP JUMPDEST CALLVALUE DUP1 ISZERO PUSH2 0x112C JUMPI PUSH1 0x0 DUP1 REVERT JUMPDEST POP PUSH2 0x114B PUSH1 0x4 DUP1 CALLDATASIZE SUB DUP2 ADD SWAP1 DUP1 DUP1 CALLDATALOAD SWAP1 PUSH1 0x20 ADD SWAP1 SWAP3 SWAP2 SWAP1 POP POP POP PUSH2 0x3E95 JUMP JUMPDEST PUSH1 0x40 MLOAD DUP1 DUP1 PUSH1 0x20 ADD DUP3 DUP2 SUB DUP3 MSTORE DUP4 DUP2 DUP2 MLOAD DUP2 MSTORE PUSH1 0x20 ADD SWAP2 POP DUP1 MLOAD SWAP1 PUSH1 0x20 ADD SWAP1 DUP1 DUP4 DUP4 PUSH1 0x0 JUMPDEST DUP4 DUP2 LT ISZERO PUSH2 0x118B JUMPI DUP1 DUP3 ADD MLOAD DUP2 DUP5 ADD MSTORE PUSH1 0x20 DUP2 ADD SWAP1 POP PUSH2 0x1170 JUMP JUMPDEST POP POP POP POP SWAP1 POP SWAP1 DUP2 ADD SWAP1 PUSH1 0x1F AND DUP1 ISZERO PUSH2 0x11B8 JUMPI DUP1 DUP3 SUB DUP1 MLOAD PUSH1 0x1 DUP4 PUSH1 0x20 SUB PUSH2 0x100 EXP SUB NOT AND DUP2 MSTORE PUSH1 0x20 ADD SWAP2 POP JUMPDEST POP SWAP3 POP POP POP PUSH1 0x40 MLOAD DUP1 SWAP2 SUB SWAP1 RETURN JUMPDEST PUSH1 0x4 DUP2 DUP2 SLOAD DUP2 LT ISZERO ISZERO PUSH2 0x11D5 JUMPI INVALID JUMPDEST SWAP1 PUSH1 0x0 MSTORE PUSH1 0x20 PUSH1 0x0 KECCAK256 ADD PUSH1 0x0 SWAP2 POP SLOAD SWAP1 PUSH2 0x100 EXP SWAP1 DIV PUSH20 0xFFFFFFFFFFFFFFFFFFFFFFFFFFFFFFFFFFFFFFFF AND DUP2 JUMP JUMPDEST PUSH1 0x0 ADDRESS PUSH20 0xFFFFFFFFFFFFFFFFFFFFFFFFFFFFFFFFFFFFFFFF AND CALLER PUSH20 0xFFFFFFFFFFFFFFFFFFFFFFFFFFFFFFFFFFFFFFFF AND EQ ISZERO ISZERO PUSH2 0x1240 JUMPI PUSH1 0x0 DUP1 REVERT JUMPDEST DUP2 PUSH1 0x3 PUSH1 0x0 DUP3 PUSH20 0xFFFFFFFFFFFFFFFFFFFFFFFFFFFFFFFFFFFFFFFF AND PUSH20 0xFFFFFFFFFFFFFFFFFFFFFFFFFFFFFFFFFFFFFFFF AND DUP2 MSTORE PUSH1 0x20 ADD SWAP1 DUP2 MSTORE PUSH1 0x20 ADD PUSH1 0x0 KECCAK256 PUSH1 0x0 SWAP1 SLOAD SWAP1 PUSH2 0x100 EXP SWAP1 DIV PUSH1 0xFF AND ISZERO ISZERO PUSH2 0x1299 JUMPI PUSH1 0x0 DUP1 REVERT JUMPDEST PUSH1 0x0 PUSH1 0x3 PUSH1 0x0 DUP6 PUSH20 0xFFFFFFFFFFFFFFFFFFFFFFFFFFFFFFFFFFFFFFFF AND PUSH20 0xFFFFFFFFFFFFFFFFFFFFFFFFFFFFFFFFFFFFFFFF AND DUP2 MSTORE PUSH1 0x20 ADD SWAP1 DUP2 MSTORE PUSH1 0x20 ADD PUSH1 0x0 KECCAK256 PUSH1 0x0 PUSH2 0x100 EXP DUP2 SLOAD DUP2 PUSH1 0xFF MUL NOT AND SWAP1 DUP4 ISZERO ISZERO MUL OR SWAP1 SSTORE POP PUSH1 0x0 SWAP2 POP JUMPDEST PUSH1 0x1 PUSH1 0x4 DUP1 SLOAD SWAP1 POP SUB DUP3 LT ISZERO PUSH2 0x141E JUMPI DUP3 PUSH20 0xFFFFFFFFFFFFFFFFFFFFFFFFFFFFFFFFFFFFFFFF AND PUSH1 0x4 DUP4 DUP2 SLOAD DUP2 LT ISZERO ISZERO PUSH2 0x132C JUMPI INVALID JUMPDEST SWAP1 PUSH1 0x0 MSTORE PUSH1 0x20 PUSH1 0x0 KECCAK256 ADD PUSH1 0x0 SWAP1 SLOAD SWAP1 PUSH2 0x100 EXP SWAP1 DIV PUSH20 0xFFFFFFFFFFFFFFFFFFFFFFFFFFFFFFFFFFFFFFFF AND PUSH20 0xFFFFFFFFFFFFFFFFFFFFFFFFFFFFFFFFFFFFFFFF AND EQ ISZERO PUSH2 0x1411 JUMPI PUSH1 0x4 PUSH1 0x1 PUSH1 0x4 DUP1 SLOAD SWAP1 POP SUB DUP2 SLOAD DUP2 LT ISZERO ISZERO PUSH2 0x138A JUMPI INVALID JUMPDEST SWAP1 PUSH1 0x0 MSTORE PUSH1 0x20 PUSH1 0x0 KECCAK256 ADD PUSH1 0x0 SWAP1 SLOAD SWAP1 PUSH2 0x100 EXP SWAP1 DIV PUSH20 0xFFFFFFFFFFFFFFFFFFFFFFFFFFFFFFFFFFFFFFFF AND PUSH1 0x4 DUP4 DUP2 SLOAD DUP2 LT ISZERO ISZERO PUSH2 0x13C4 JUMPI INVALID JUMPDEST SWAP1 PUSH1 0x0 MSTORE PUSH1 0x20 PUSH1 0x0 KECCAK256 ADD PUSH1 0x0 PUSH2 0x100 EXP DUP2 SLOAD DUP2 PUSH20 0xFFFFFFFFFFFFFFFFFFFFFFFFFFFFFFFFFFFFFFFF MUL NOT AND SWAP1 DUP4 PUSH20 0xFFFFFFFFFFFFFFFFFFFFFFFFFFFFFFFFFFFFFFFF AND MUL OR SWAP1 SSTORE POP PUSH2 0x141E JUMP JUMPDEST DUP2 DUP1 PUSH1 0x1 ADD SWAP3 POP POP PUSH2 0x12F6 JUMP JUMPDEST PUSH1 0x1 PUSH1 0x4 DUP2 DUP2 DUP1 SLOAD SWAP1 POP SUB SWAP2 POP DUP2 PUSH2 0x1436 SWAP2 SWAP1 PUSH2 0x412E JUMP JUMPDEST POP PUSH1 0x4 DUP1 SLOAD SWAP1 POP PUSH1 0x5 SLOAD GT ISZERO PUSH2 0x1455 JUMPI PUSH2 0x1454 PUSH1 0x4 DUP1 SLOAD SWAP1 POP PUSH2 0x320F JUMP JUMPDEST JUMPDEST DUP3 PUSH20 0xFFFFFFFFFFFFFFFFFFFFFFFFFFFFFFFFFFFFFFFF AND PUSH32 0x8001553A916EF2F495D26A907CC54D96ED840D7BDA71E73194BF5A9DF7A76B90 PUSH1 0x40 MLOAD PUSH1 0x40 MLOAD DUP1 SWAP2 SUB SWAP1 LOG2 POP POP POP JUMP JUMPDEST PUSH1 0x7 PUSH1 0x20 MSTORE DUP1 PUSH1 0x0 MSTORE PUSH1 0x40 PUSH1 0x0 KECCAK256 PUSH1 0x0 SWAP2 POP SWAP1 POP DUP1 PUSH1 0x0 ADD PUSH1 0x0 SWAP1 SLOAD SWAP1 PUSH2 0x100 EXP SWAP1 DIV PUSH20 0xFFFFFFFFFFFFFFFFFFFFFFFFFFFFFFFFFFFFFFFF AND SWAP1 DUP1 PUSH1 0x1 ADD PUSH1 0x0 SWAP1 SLOAD SWAP1 PUSH2 0x100 EXP SWAP1 DIV PUSH20 0xFFFFFFFFFFFFFFFFFFFFFFFFFFFFFFFFFFFFFFFF AND SWAP1 DUP1 PUSH1 0x2 ADD SLOAD SWAP1 DUP1 PUSH1 0x3 ADD SLOAD SWAP1 DUP1 PUSH1 0x4 ADD SLOAD SWAP1 DUP1 PUSH1 0x7 ADD PUSH1 0x0 SWAP1 SLOAD SWAP1 PUSH2 0x100 EXP SWAP1 DIV PUSH1 0xFF AND SWAP1 DUP1 PUSH1 0x7 ADD PUSH1 0x1 SWAP1 SLOAD SWAP1 PUSH2 0x100 EXP SWAP1 DIV PUSH1 0xFF AND SWAP1 POP DUP8 JUMP JUMPDEST PUSH1 0x0 PUSH2 0x157B DUP4 DUP4 PUSH1 0x40 DUP1 MLOAD SWAP1 DUP2 ADD PUSH1 0x40 MSTORE DUP1 PUSH1 0x2 DUP2 MSTORE PUSH1 0x20 ADD PUSH32 0x3078000000000000000000000000000000000000000000000000000000000000 DUP2 MSTORE POP PUSH2 0x3F45 JUMP JUMPDEST SWAP1 POP PUSH2 0x1586 DUP2 PUSH2 0x32C9 JUMP JUMPDEST SWAP3 SWAP2 POP POP JUMP JUMPDEST PUSH1 0x0 DUP1 ADDRESS PUSH20 0xFFFFFFFFFFFFFFFFFFFFFFFFFFFFFFFFFFFFFFFF AND CALLER PUSH20 0xFFFFFFFFFFFFFFFFFFFFFFFFFFFFFFFFFFFFFFFF AND EQ ISZERO ISZERO PUSH2 0x15C9 JUMPI PUSH1 0x0 DUP1 REVERT JUMPDEST CALLER PUSH1 0x3 PUSH1 0x0 DUP3 PUSH20 0xFFFFFFFFFFFFFFFFFFFFFFFFFFFFFFFFFFFFFFFF AND PUSH20 0xFFFFFFFFFFFFFFFFFFFFFFFFFFFFFFFFFFFFFFFF AND DUP2 MSTORE PUSH1 0x20 ADD SWAP1 DUP2 MSTORE PUSH1 0x20 ADD PUSH1 0x0 KECCAK256 PUSH1 0x0 SWAP1 SLOAD SWAP1 PUSH2 0x100 EXP SWAP1 DIV PUSH1 0xFF AND ISZERO ISZERO PUSH2 0x1622 JUMPI PUSH1 0x0 DUP1 REVERT JUMPDEST PUSH1 0x7 PUSH1 0x0 DUP7 DUP2 MSTORE PUSH1 0x20 ADD SWAP1 DUP2 MSTORE PUSH1 0x20 ADD PUSH1 0x0 KECCAK256 SWAP3 POP CALLER PUSH20 0xFFFFFFFFFFFFFFFFFFFFFFFFFFFFFFFFFFFFFFFF AND DUP4 PUSH1 0x0 ADD PUSH1 0x0 SWAP1 SLOAD SWAP1 PUSH2 0x100 EXP SWAP1 DIV PUSH20 0xFFFFFFFFFFFFFFFFFFFFFFFFFFFFFFFFFFFFFFFF AND PUSH20 0xFFFFFFFFFFFFFFFFFFFFFFFFFFFFFFFFFFFFFFFF AND EQ ISZERO ISZERO PUSH2 0x1724 JUMPI PUSH1 0x40 MLOAD PUSH32 0x8C379A000000000000000000000000000000000000000000000000000000000 DUP2 MSTORE PUSH1 0x4 ADD DUP1 DUP1 PUSH1 0x20 ADD DUP3 DUP2 SUB DUP3 MSTORE PUSH1 0x28 DUP2 MSTORE PUSH1 0x20 ADD DUP1 PUSH32 0x4F6E6C792074686520656D706C6F7965722063616E20617070726F7665206D69 DUP2 MSTORE PUSH1 0x20 ADD PUSH32 0x6C6573746F6E6573000000000000000000000000000000000000000000000000 DUP2 MSTORE POP PUSH1 0x40 ADD SWAP2 POP POP PUSH1 0x40 MLOAD DUP1 SWAP2 SUB SWAP1 REVERT JUMPDEST DUP3 PUSH1 0x7 ADD PUSH1 0x0 SWAP1 SLOAD SWAP1 PUSH2 0x100 EXP SWAP1 DIV PUSH1 0xFF AND ISZERO ISZERO PUSH2 0x17AA JUMPI PUSH1 0x40 MLOAD PUSH32 0x8C379A000000000000000000000000000000000000000000000000000000000 DUP2 MSTORE PUSH1 0x4 ADD DUP1 DUP1 PUSH1 0x20 ADD DUP3 DUP2 SUB DUP3 MSTORE PUSH1 0x11 DUP2 MSTORE PUSH1 0x20 ADD DUP1 PUSH32 0x4A6F62206973206E6F7420616374697665000000000000000000000000000000 DUP2 MSTORE POP PUSH1 0x20 ADD SWAP2 POP POP PUSH1 0x40 MLOAD DUP1 SWAP2 SUB SWAP1 REVERT JUMPDEST DUP3 PUSH1 0x6 ADD DUP5 DUP2 SLOAD DUP2 LT ISZERO ISZERO PUSH2 0x17BB JUMPI INVALID JUMPDEST SWAP1 PUSH1 0x0 MSTORE PUSH1 0x20 PUSH1 0x0 KECCAK256 SWAP1 PUSH1 0x20 SWAP2 DUP3 DUP3 DIV ADD SWAP2 SWAP1 MOD SWAP1 SLOAD SWAP1 PUSH2 0x100 EXP SWAP1 DIV PUSH1 0xFF AND ISZERO ISZERO ISZERO PUSH2 0x1850 JUMPI PUSH1 0x40 MLOAD PUSH32 0x8C379A000000000000000000000000000000000000000000000000000000000 DUP2 MSTORE PUSH1 0x4 ADD DUP1 DUP1 PUSH1 0x20 ADD DUP3 DUP2 SUB DUP3 MSTORE PUSH1 0x1A DUP2 MSTORE PUSH1 0x20 ADD DUP1 PUSH32 0x4D696C6573746F6E6520616C726561647920617070726F766564000000000000 DUP2 MSTORE POP PUSH1 0x20 ADD SWAP2 POP POP PUSH1 0x40 MLOAD DUP1 SWAP2 SUB SWAP1 REVERT JUMPDEST PUSH1 0x1 DUP4 PUSH1 0x6 ADD DUP6 DUP2 SLOAD DUP2 LT ISZERO ISZERO PUSH2 0x1863 JUMPI INVALID JUMPDEST SWAP1 PUSH1 0x0 MSTORE PUSH1 0x20 PUSH1 0x0 KECCAK256 SWAP1 PUSH1 0x20 SWAP2 DUP3 DUP3 DIV ADD SWAP2 SWAP1 MOD PUSH2 0x100 EXP DUP2 SLOAD DUP2 PUSH1 0xFF MUL NOT AND SWAP1 DUP4 ISZERO ISZERO MUL OR SWAP1 SSTORE POP DUP3 PUSH1 0x5 ADD DUP5 DUP2 SLOAD DUP2 LT ISZERO ISZERO PUSH2 0x189D JUMPI INVALID JUMPDEST SWAP1 PUSH1 0x0 MSTORE PUSH1 0x20 PUSH1 0x0 KECCAK256 ADD SLOAD SWAP2 POP DUP2 ADDRESS PUSH20 0xFFFFFFFFFFFFFFFFFFFFFFFFFFFFFFFFFFFFFFFF AND BALANCE LT ISZERO ISZERO ISZERO PUSH2 0x1939 JUMPI PUSH1 0x40 MLOAD PUSH32 0x8C379A000000000000000000000000000000000000000000000000000000000 DUP2 MSTORE PUSH1 0x4 ADD DUP1 DUP1 PUSH1 0x20 ADD DUP3 DUP2 SUB DUP3 MSTORE PUSH1 0x1C DUP2 MSTORE PUSH1 0x20 ADD DUP1 PUSH32 0x496E73756666696369656E742066756E647320696E20657363726F7700000000 DUP2 MSTORE POP PUSH1 0x20 ADD SWAP2 POP POP PUSH1 0x40 MLOAD DUP1 SWAP2 SUB SWAP1 REVERT JUMPDEST DUP3 PUSH1 0x1 ADD PUSH1 0x0 SWAP1 SLOAD SWAP1 PUSH2 0x100 EXP SWAP1 DIV PUSH20 0xFFFFFFFFFFFFFFFFFFFFFFFFFFFFFFFFFFFFFFFF AND PUSH20 0xFFFFFFFFFFFFFFFFFFFFFFFFFFFFFFFFFFFFFFFF AND PUSH2 0x8FC DUP4 SWAP1 DUP2 ISZERO MUL SWAP1 PUSH1 0x40 MLOAD PUSH1 0x0 PUSH1 0x40 MLOAD DUP1 DUP4 SUB DUP2 DUP6 DUP9 DUP9 CALL SWAP4 POP POP POP POP ISZERO DUP1 ISZERO PUSH2 0x19A3 JUMPI RETURNDATASIZE PUSH1 0x0 DUP1 RETURNDATACOPY RETURNDATASIZE PUSH1 0x0 REVERT JUMPDEST POP POP POP POP POP POP JUMP JUMPDEST CALLER PUSH1 0x3 PUSH1 0x0 DUP3 PUSH20 0xFFFFFFFFFFFFFFFFFFFFFFFFFFFFFFFFFFFFFFFF AND PUSH20 0xFFFFFFFFFFFFFFFFFFFFFFFFFFFFFFFFFFFFFFFF AND DUP2 MSTORE PUSH1 0x20 ADD SWAP1 DUP2 MSTORE PUSH1 0x20 ADD PUSH1 0x0 KECCAK256 PUSH1 0x0 SWAP1 SLOAD SWAP1 PUSH2 0x100 EXP SWAP1 DIV PUSH1 0xFF AND ISZERO ISZERO PUSH2 0x1A04 JUMPI PUSH1 0x0 DUP1 REVERT JUMPDEST DUP2 CALLER PUSH1 0x2 PUSH1 0x0 DUP4 DUP2 MSTORE PUSH1 0x20 ADD SWAP1 DUP2 MSTORE PUSH1 0x20 ADD PUSH1 0x0 KECCAK256 PUSH1 0x0 DUP3 PUSH20 0xFFFFFFFFFFFFFFFFFFFFFFFFFFFFFFFFFFFFFFFF AND PUSH20 0xFFFFFFFFFFFFFFFFFFFFFFFFFFFFFFFFFFFFFFFF AND DUP2 MSTORE PUSH1 0x20 ADD SWAP1 DUP2 MSTORE PUSH1 0x20 ADD PUSH1 0x0 KECCAK256 PUSH1 0x0 SWAP1 SLOAD SWAP1 PUSH2 0x100 EXP SWAP1 DIV PUSH1 0xFF AND ISZERO ISZERO PUSH2 0x1A6F JUMPI PUSH1 0x0 DUP1 REVERT JUMPDEST DUP4 PUSH1 0x1 PUSH1 0x0 DUP3 DUP2 MSTORE PUSH1 0x20 ADD SWAP1 DUP2 MSTORE PUSH1 0x20 ADD PUSH1 0x0 KECCAK256 PUSH1 0x3 ADD PUSH1 0x0 SWAP1 SLOAD SWAP1 PUSH2 0x100 EXP SWAP1 DIV PUSH1 0xFF AND ISZERO ISZERO ISZERO PUSH2 0x1AA0 JUMPI PUSH1 0x0 DUP1 REVERT JUMPDEST PUSH1 0x0 PUSH1 0x2 PUSH1 0x0 DUP8 DUP2 MSTORE PUSH1 0x20 ADD SWAP1 DUP2 MSTORE PUSH1 0x20 ADD PUSH1 0x0 KECCAK256 PUSH1 0x0 CALLER PUSH20 0xFFFFFFFFFFFFFFFFFFFFFFFFFFFFFFFFFFFFFFFF AND PUSH20 0xFFFFFFFFFFFFFFFFFFFFFFFFFFFFFFFFFFFFFFFF AND DUP2 MSTORE PUSH1 0x20 ADD SWAP1 DUP2 MSTORE PUSH1 0x20 ADD PUSH1 0x0 KECCAK256 PUSH1 0x0 PUSH2 0x100 EXP DUP2 SLOAD DUP2 PUSH1 0xFF MUL NOT AND SWAP1 DUP4 ISZERO ISZERO MUL OR SWAP1 SSTORE POP DUP5 CALLER PUSH20 0xFFFFFFFFFFFFFFFFFFFFFFFFFFFFFFFFFFFFFFFF AND PUSH32 0xF6A317157440607F36269043EB55F1287A5A19BA2216AFEAB88CD46CBCFB88E9 PUSH1 0x40 MLOAD PUSH1 0x40 MLOAD DUP1 SWAP2 SUB SWAP1 LOG3 POP POP POP POP POP JUMP JUMPDEST ADDRESS PUSH20 0xFFFFFFFFFFFFFFFFFFFFFFFFFFFFFFFFFFFFFFFF AND CALLER PUSH20 0xFFFFFFFFFFFFFFFFFFFFFFFFFFFFFFFFFFFFFFFF AND EQ ISZERO ISZERO PUSH2 0x1B8E JUMPI PUSH1 0x0 DUP1 REVERT JUMPDEST CALLER PUSH1 0x3 PUSH1 0x0 DUP3 PUSH20 0xFFFFFFFFFFFFFFFFFFFFFFFFFFFFFFFFFFFFFFFF AND PUSH20 0xFFFFFFFFFFFFFFFFFFFFFFFFFFFFFFFFFFFFFFFF AND DUP2 MSTORE PUSH1 0x20 ADD SWAP1 DUP2 MSTORE PUSH1 0x20 ADD PUSH1 0x0 KECCAK256 PUSH1 0x0 SWAP1 SLOAD SWAP1 PUSH2 0x100 EXP SWAP1 DIV PUSH1 0xFF AND ISZERO ISZERO PUSH2 0x1BE7 JUMPI PUSH1 0x0 DUP1 REVERT JUMPDEST DUP2 PUSH2 0x1BF1 DUP2 PUSH2 0x4098 JUMP JUMPDEST ISZERO ISZERO PUSH2 0x1C65 JUMPI PUSH1 0x40 MLOAD PUSH32 0x8C379A000000000000000000000000000000000000000000000000000000000 DUP2 MSTORE PUSH1 0x4 ADD DUP1 DUP1 PUSH1 0x20 ADD DUP3 DUP2 SUB DUP3 MSTORE PUSH1 0x17 DUP2 MSTORE PUSH1 0x20 ADD DUP1 PUSH32 0x456D706C6F796565204E6F742052656769737465726564000000000000000000 DUP2 MSTORE POP PUSH1 0x20 ADD SWAP2 POP POP PUSH1 0x40 MLOAD DUP1 SWAP2 SUB SWAP1 REVERT JUMPDEST PUSH1 0x1 PUSH1 0xC SLOAD SUB PUSH1 0xC DUP2 SWAP1 SSTORE POP PUSH1 0xA PUSH1 0x0 DUP5 DUP2 MSTORE PUSH1 0x20 ADD SWAP1 DUP2 MSTORE PUSH1 0x20 ADD PUSH1 0x0 KECCAK256 PUSH1 0x4 ADD SLOAD PUSH1 0xB SLOAD SUB PUSH1 0xB DUP2 SWAP1 SSTORE POP PUSH1 0xA PUSH1 0x0 DUP5 DUP2 MSTORE PUSH1 0x20 ADD SWAP1 DUP2 MSTORE PUSH1 0x20 ADD PUSH1 0x0 KECCAK256 PUSH1 0x0 DUP1 DUP3 ADD PUSH1 0x0 PUSH2 0x100 EXP DUP2 SLOAD SWAP1 PUSH20 0xFFFFFFFFFFFFFFFFFFFFFFFFFFFFFFFFFFFFFFFF MUL NOT AND SWAP1 SSTORE PUSH1 0x1 DUP3 ADD PUSH1 0x0 PUSH2 0x1CDD SWAP2 SWAP1 PUSH2 0x415A JUMP JUMPDEST PUSH1 0x2 DUP3 ADD PUSH1 0x0 PUSH2 0x1CED SWAP2 SWAP1 PUSH2 0x415A JUMP JUMPDEST PUSH1 0x3 DUP3 ADD PUSH1 0x0 PUSH2 0x1CFD SWAP2 SWAP1 PUSH2 0x415A JUMP JUMPDEST PUSH1 0x4 DUP3 ADD PUSH1 0x0 SWAP1 SSTORE PUSH1 0x5 DUP3 ADD PUSH1 0x0 SWAP1 SSTORE PUSH1 0x6 DUP3 ADD PUSH1 0x0 SWAP1 SSTORE POP POP POP POP POP JUMP JUMPDEST PUSH1 0x3 PUSH1 0x20 MSTORE DUP1 PUSH1 0x0 MSTORE PUSH1 0x40 PUSH1 0x0 KECCAK256 PUSH1 0x0 SWAP2 POP SLOAD SWAP1 PUSH2 0x100 EXP SWAP1 DIV PUSH1 0xFF AND DUP2 JUMP JUMPDEST PUSH1 0x2 PUSH1 0x20 MSTORE DUP2 PUSH1 0x0 MSTORE PUSH1 0x40 PUSH1 0x0 KECCAK256 PUSH1 0x20 MSTORE DUP1 PUSH1 0x0 MSTORE PUSH1 0x40 PUSH1 0x0 KECCAK256 PUSH1 0x0 SWAP2 POP SWAP2 POP SWAP1 SLOAD SWAP1 PUSH2 0x100 EXP SWAP1 DIV PUSH1 0xFF AND DUP2 JUMP JUMPDEST PUSH1 0x0 DUP1 ADDRESS PUSH20 0xFFFFFFFFFFFFFFFFFFFFFFFFFFFFFFFFFFFFFFFF AND CALLER PUSH20 0xFFFFFFFFFFFFFFFFFFFFFFFFFFFFFFFFFFFFFFFF AND EQ ISZERO ISZERO PUSH2 0x1DA8 JUMPI PUSH1 0x0 DUP1 REVERT JUMPDEST PUSH1 0x0 PUSH20 0xFFFFFFFFFFFFFFFFFFFFFFFFFFFFFFFFFFFFFFFF AND DUP8 PUSH20 0xFFFFFFFFFFFFFFFFFFFFFFFFFFFFFFFFFFFFFFFF AND EQ ISZERO ISZERO ISZERO PUSH2 0x1E4D JUMPI PUSH1 0x40 MLOAD PUSH32 0x8C379A000000000000000000000000000000000000000000000000000000000 DUP2 MSTORE PUSH1 0x4 ADD DUP1 DUP1 PUSH1 0x20 ADD DUP3 DUP2 SUB DUP3 MSTORE PUSH1 0x16 DUP2 MSTORE PUSH1 0x20 ADD DUP1 PUSH32 0x496E76616C696420776F726B6572206164647265737300000000000000000000 DUP2 MSTORE POP PUSH1 0x20 ADD SWAP2 POP POP PUSH1 0x40 MLOAD DUP1 SWAP2 SUB SWAP1 REVERT JUMPDEST PUSH1 0x0 DUP7 GT ISZERO ISZERO PUSH2 0x1EC5 JUMPI PUSH1 0x40 MLOAD PUSH32 0x8C379A000000000000000000000000000000000000000000000000000000000 DUP2 MSTORE PUSH1 0x4 ADD DUP1 DUP1 PUSH1 0x20 ADD DUP3 DUP2 SUB DUP3 MSTORE PUSH1 0x1E DUP2 MSTORE PUSH1 0x20 ADD DUP1 PUSH32 0x457363726F7720616D6F756E74206D75737420626520706F7369746976650000 DUP2 MSTORE POP PUSH1 0x20 ADD SWAP2 POP POP PUSH1 0x40 MLOAD DUP1 SWAP2 SUB SWAP1 REVERT JUMPDEST PUSH1 0x0 DUP6 MLOAD GT ISZERO ISZERO PUSH2 0x1F64 JUMPI PUSH1 0x40 MLOAD PUSH32 0x8C379A000000000000000000000000000000000000000000000000000000000 DUP2 MSTORE PUSH1 0x4 ADD DUP1 DUP1 PUSH1 0x20 ADD DUP3 DUP2 SUB DUP3 MSTORE PUSH1 0x24 DUP2 MSTORE PUSH1 0x20 ADD DUP1 PUSH32 0x5468657265206D757374206265206174206C65617374206F6E65206D696C6573 DUP2 MSTORE PUSH1 0x20 ADD PUSH32 0x746F6E6500000000000000000000000000000000000000000000000000000000 DUP2 MSTORE POP PUSH1 0x40 ADD SWAP2 POP POP PUSH1 0x40 MLOAD DUP1 SWAP2 SUB SWAP1 REVERT JUMPDEST PUSH1 0x8 PUSH1 0x0 DUP2 SLOAD DUP1 SWAP3 SWAP2 SWAP1 PUSH1 0x1 ADD SWAP2 SWAP1 POP SSTORE SWAP2 POP PUSH1 0x7 PUSH1 0x0 DUP4 DUP2 MSTORE PUSH1 0x20 ADD SWAP1 DUP2 MSTORE PUSH1 0x20 ADD PUSH1 0x0 KECCAK256 SWAP1 POP CALLER DUP2 PUSH1 0x0 ADD PUSH1 0x0 PUSH2 0x100 EXP DUP2 SLOAD DUP2 PUSH20 0xFFFFFFFFFFFFFFFFFFFFFFFFFFFFFFFFFFFFFFFF MUL NOT AND SWAP1 DUP4 PUSH20 0xFFFFFFFFFFFFFFFFFFFFFFFFFFFFFFFFFFFFFFFF AND MUL OR SWAP1 SSTORE POP DUP7 DUP2 PUSH1 0x1 ADD PUSH1 0x0 PUSH2 0x100 EXP DUP2 SLOAD DUP2 PUSH20 0xFFFFFFFFFFFFFFFFFFFFFFFFFFFFFFFFFFFFFFFF MUL NOT AND SWAP1 DUP4 PUSH20 0xFFFFFFFFFFFFFFFFFFFFFFFFFFFFFFFFFFFFFFFF AND MUL OR SWAP1 SSTORE POP DUP6 DUP2 PUSH1 0x2 ADD DUP2 SWAP1 SSTORE POP DUP4 DUP2 PUSH1 0x3 ADD DUP2 SWAP1 SSTORE POP DUP3 DUP2 PUSH1 0x4 ADD DUP2 SWAP1 SSTORE POP DUP5 DUP2 PUSH1 0x5 ADD SWAP1 DUP1 MLOAD SWAP1 PUSH1 0x20 ADD SWAP1 PUSH2 0x2045 SWAP3 SWAP2 SWAP1 PUSH2 0x41A2 JUMP JUMPDEST POP DUP5 MLOAD PUSH1 0x40 MLOAD SWAP1 DUP1 DUP3 MSTORE DUP1 PUSH1 0x20 MUL PUSH1 0x20 ADD DUP3 ADD PUSH1 0x40 MSTORE DUP1 ISZERO PUSH2 0x2076 JUMPI DUP2 PUSH1 0x20 ADD PUSH1 0x20 DUP3 MUL DUP1 CODESIZE DUP4 CODECOPY DUP1 DUP3 ADD SWAP2 POP POP SWAP1 POP JUMPDEST POP DUP2 PUSH1 0x6 ADD SWAP1 DUP1 MLOAD SWAP1 PUSH1 0x20 ADD SWAP1 PUSH2 0x208E SWAP3 SWAP2 SWAP1 PUSH2 0x41EF JUMP JUMPDEST POP PUSH1 0x1 DUP2 PUSH1 0x7 ADD PUSH1 0x0 PUSH2 0x100 EXP DUP2 SLOAD DUP2 PUSH1 0xFF MUL NOT AND SWAP1 DUP4 ISZERO ISZERO MUL OR SWAP1 SSTORE POP POP SWAP6 SWAP5 POP POP POP POP POP JUMP JUMPDEST POP POP JUMP JUMPDEST PUSH1 0x8 SLOAD DUP2 JUMP JUMPDEST PUSH1 0x0 DUP1 PUSH1 0x0 SWAP1 POP JUMPDEST PUSH1 0x6 SLOAD DUP2 LT ISZERO PUSH2 0x214D JUMPI DUP4 DUP1 ISZERO PUSH2 0x2100 JUMPI POP PUSH1 0x1 PUSH1 0x0 DUP3 DUP2 MSTORE PUSH1 0x20 ADD SWAP1 DUP2 MSTORE PUSH1 0x20 ADD PUSH1 0x0 KECCAK256 PUSH1 0x3 ADD PUSH1 0x0 SWAP1 SLOAD SWAP1 PUSH2 0x100 EXP SWAP1 DIV PUSH1 0xFF AND ISZERO JUMPDEST DUP1 PUSH2 0x2134 JUMPI POP DUP3 DUP1 ISZERO PUSH2 0x2133 JUMPI POP PUSH1 0x1 PUSH1 0x0 DUP3 DUP2 MSTORE PUSH1 0x20 ADD SWAP1 DUP2 MSTORE PUSH1 0x20 ADD PUSH1 0x0 KECCAK256 PUSH1 0x3 ADD PUSH1 0x0 SWAP1 SLOAD SWAP1 PUSH2 0x100 EXP SWAP1 DIV PUSH1 0xFF AND JUMPDEST JUMPDEST ISZERO PUSH2 0x2140 JUMPI PUSH1 0x1 DUP3 ADD SWAP2 POP JUMPDEST DUP1 DUP1 PUSH1 0x1 ADD SWAP2 POP POP PUSH2 0x20C8 JUMP JUMPDEST POP SWAP3 SWAP2 POP POP JUMP JUMPDEST PUSH1 0x0 DUP1 SWAP1 SLOAD SWAP1 PUSH2 0x100 EXP SWAP1 DIV PUSH20 0xFFFFFFFFFFFFFFFFFFFFFFFFFFFFFFFFFFFFFFFF AND DUP2 JUMP JUMPDEST PUSH1 0x0 ADDRESS PUSH20 0xFFFFFFFFFFFFFFFFFFFFFFFFFFFFFFFFFFFFFFFF AND CALLER PUSH20 0xFFFFFFFFFFFFFFFFFFFFFFFFFFFFFFFFFFFFFFFF AND EQ ISZERO ISZERO PUSH2 0x21B5 JUMPI PUSH1 0x0 DUP1 REVERT JUMPDEST CALLER PUSH1 0x3 PUSH1 0x0 DUP3 PUSH20 0xFFFFFFFFFFFFFFFFFFFFFFFFFFFFFFFFFFFFFFFF AND PUSH20 0xFFFFFFFFFFFFFFFFFFFFFFFFFFFFFFFFFFFFFFFF AND DUP2 MSTORE PUSH1 0x20 ADD SWAP1 DUP2 MSTORE PUSH1 0x20 ADD PUSH1 0x0 KECCAK256 PUSH1 0x0 SWAP1 SLOAD SWAP1 PUSH2 0x100 EXP SWAP1 DIV PUSH1 0xFF AND ISZERO ISZERO PUSH2 0x220E JUMPI PUSH1 0x0 DUP1 REVERT JUMPDEST PUSH1 0x1 DUP4 GT ISZERO ISZERO PUSH2 0x22AC JUMPI PUSH1 0x40 MLOAD PUSH32 0x8C379A000000000000000000000000000000000000000000000000000000000 DUP2 MSTORE PUSH1 0x4 ADD DUP1 DUP1 PUSH1 0x20 ADD DUP3 DUP2 SUB DUP3 MSTORE PUSH1 0x21 DUP2 MSTORE PUSH1 0x20 ADD DUP1 PUSH32 0x4F6E6C79206F6E6520636F6D70616E7920666F72206F6E6520636F6E74726163 DUP2 MSTORE PUSH1 0x20 ADD PUSH32 0x7400000000000000000000000000000000000000000000000000000000000000 DUP2 MSTORE POP PUSH1 0x40 ADD SWAP2 POP POP PUSH1 0x40 MLOAD DUP1 SWAP2 SUB SWAP1 REVERT JUMPDEST PUSH1 0x9 PUSH1 0x0 DUP5 DUP2 MSTORE PUSH1 0x20 ADD SWAP1 DUP2 MSTORE PUSH1 0x20 ADD PUSH1 0x0 KECCAK256 SWAP2 POP DUP7 DUP3 PUSH1 0x0 ADD PUSH1 0x0 PUSH2 0x100 EXP DUP2 SLOAD DUP2 PUSH20 0xFFFFFFFFFFFFFFFFFFFFFFFFFFFFFFFFFFFFFFFF MUL NOT AND SWAP1 DUP4 PUSH20 0xFFFFFFFFFFFFFFFFFFFFFFFFFFFFFFFFFFFFFFFF AND MUL OR SWAP1 SSTORE POP DUP6 DUP3 PUSH1 0x1 ADD SWAP1 DUP1 MLOAD SWAP1 PUSH1 0x20 ADD SWAP1 PUSH2 0x231C SWAP3 SWAP2 SWAP1 PUSH2 0x4295 JUMP JUMPDEST POP DUP5 DUP3 PUSH1 0x2 ADD SWAP1 DUP1 MLOAD SWAP1 PUSH1 0x20 ADD SWAP1 PUSH2 0x2335 SWAP3 SWAP2 SWAP1 PUSH2 0x4295 JUMP JUMPDEST POP DUP4 DUP3 PUSH1 0x3 ADD SWAP1 DUP1 MLOAD SWAP1 PUSH1 0x20 ADD SWAP1 PUSH2 0x234E SWAP3 SWAP2 SWAP1 PUSH2 0x4295 JUMP JUMPDEST POP CALLER DUP3 PUSH1 0x4 ADD PUSH1 0x0 PUSH2 0x100 EXP DUP2 SLOAD DUP2 PUSH20 0xFFFFFFFFFFFFFFFFFFFFFFFFFFFFFFFFFFFFFFFF MUL NOT AND SWAP1 DUP4 PUSH20 0xFFFFFFFFFFFFFFFFFFFFFFFFFFFFFFFFFFFFFFFF AND MUL OR SWAP1 SSTORE POP TIMESTAMP DUP3 PUSH1 0x5 ADD DUP2 SWAP1 SSTORE POP PUSH1 0x0 DUP3 PUSH1 0x6 ADD PUSH1 0x0 PUSH2 0x100 EXP DUP2 SLOAD DUP2 PUSH1 0xFF MUL NOT AND SWAP1 DUP4 ISZERO ISZERO MUL OR SWAP1 SSTORE POP POP POP POP POP POP POP POP JUMP JUMPDEST ADDRESS PUSH20 0xFFFFFFFFFFFFFFFFFFFFFFFFFFFFFFFFFFFFFFFF AND CALLER PUSH20 0xFFFFFFFFFFFFFFFFFFFFFFFFFFFFFFFFFFFFFFFF AND EQ ISZERO ISZERO PUSH2 0x23FB JUMPI PUSH1 0x0 DUP1 REVERT JUMPDEST DUP1 PUSH1 0x3 PUSH1 0x0 DUP3 PUSH20 0xFFFFFFFFFFFFFFFFFFFFFFFFFFFFFFFFFFFFFFFF AND PUSH20 0xFFFFFFFFFFFFFFFFFFFFFFFFFFFFFFFFFFFFFFFF AND DUP2 MSTORE PUSH1 0x20 ADD SWAP1 DUP2 MSTORE PUSH1 0x20 ADD PUSH1 0x0 KECCAK256 PUSH1 0x0 SWAP1 SLOAD SWAP1 PUSH2 0x100 EXP SWAP1 DIV PUSH1 0xFF AND ISZERO ISZERO ISZERO PUSH2 0x2455 JUMPI PUSH1 0x0 DUP1 REVERT JUMPDEST DUP2 PUSH1 0x0 DUP2 PUSH20 0xFFFFFFFFFFFFFFFFFFFFFFFFFFFFFFFFFFFFFFFF AND EQ ISZERO ISZERO ISZERO PUSH2 0x247C JUMPI PUSH1 0x0 DUP1 REVERT JUMPDEST PUSH1 0x1 PUSH1 0x4 DUP1 SLOAD SWAP1 POP ADD PUSH1 0x5 SLOAD PUSH1 0x32 DUP3 GT ISZERO DUP1 ISZERO PUSH2 0x2499 JUMPI POP DUP2 DUP2 GT ISZERO JUMPDEST DUP1 ISZERO PUSH2 0x24A6 JUMPI POP PUSH1 0x0 DUP2 EQ ISZERO JUMPDEST DUP1 ISZERO PUSH2 0x24B3 JUMPI POP PUSH1 0x0 DUP3 EQ ISZERO JUMPDEST ISZERO ISZERO PUSH2 0x24BE JUMPI PUSH1 0x0 DUP1 REVERT JUMPDEST PUSH1 0x1 PUSH1 0x3 PUSH1 0x0 DUP8 PUSH20 0xFFFFFFFFFFFFFFFFFFFFFFFFFFFFFFFFFFFFFFFF AND PUSH20 0xFFFFFFFFFFFFFFFFFFFFFFFFFFFFFFFFFFFFFFFF AND DUP2 MSTORE PUSH1 0x20 ADD SWAP1 DUP2 MSTORE PUSH1 0x20 ADD PUSH1 0x0 KECCAK256 PUSH1 0x0 PUSH2 0x100 EXP DUP2 SLOAD DUP2 PUSH1 0xFF MUL NOT AND SWAP1 DUP4 ISZERO ISZERO MUL OR SWAP1 SSTORE POP PUSH1 0x4 DUP6 SWAP1 DUP1 PUSH1 0x1 DUP2 SLOAD ADD DUP1 DUP3 SSTORE DUP1 SWAP2 POP POP SWAP1 PUSH1 0x1 DUP3 SUB SWAP1 PUSH1 0x0 MSTORE PUSH1 0x20 PUSH1 0x0 KECCAK256 ADD PUSH1 0x0 SWAP1 SWAP2 SWAP3 SWAP1 SWAP2 SWAP1 SWAP2 PUSH2 0x100 EXP DUP2 SLOAD DUP2 PUSH20 0xFFFFFFFFFFFFFFFFFFFFFFFFFFFFFFFFFFFFFFFF MUL NOT AND SWAP1 DUP4 PUSH20 0xFFFFFFFFFFFFFFFFFFFFFFFFFFFFFFFFFFFFFFFF AND MUL OR SWAP1 SSTORE POP POP DUP5 PUSH20 0xFFFFFFFFFFFFFFFFFFFFFFFFFFFFFFFFFFFFFFFF AND PUSH32 0xF39E6E1EB0EDCF53C221607B54B00CD28F3196FED0A24994DC308B8F611B682D PUSH1 0x40 MLOAD PUSH1 0x40 MLOAD DUP1 SWAP2 SUB SWAP1 LOG2 POP POP POP POP POP JUMP JUMPDEST PUSH1 0x0 DUP1 PUSH1 0x0 DUP1 SWAP2 POP PUSH1 0x0 SWAP1 POP JUMPDEST PUSH1 0x4 DUP1 SLOAD SWAP1 POP DUP2 LT ISZERO PUSH2 0x26A3 JUMPI PUSH1 0x2 PUSH1 0x0 DUP6 DUP2 MSTORE PUSH1 0x20 ADD SWAP1 DUP2 MSTORE PUSH1 0x20 ADD PUSH1 0x0 KECCAK256 PUSH1 0x0 PUSH1 0x4 DUP4 DUP2 SLOAD DUP2 LT ISZERO ISZERO PUSH2 0x2604 JUMPI INVALID JUMPDEST SWAP1 PUSH1 0x0 MSTORE PUSH1 0x20 PUSH1 0x0 KECCAK256 ADD PUSH1 0x0 SWAP1 SLOAD SWAP1 PUSH2 0x100 EXP SWAP1 DIV PUSH20 0xFFFFFFFFFFFFFFFFFFFFFFFFFFFFFFFFFFFFFFFF AND PUSH20 0xFFFFFFFFFFFFFFFFFFFFFFFFFFFFFFFFFFFFFFFF AND PUSH20 0xFFFFFFFFFFFFFFFFFFFFFFFFFFFFFFFFFFFFFFFF AND DUP2 MSTORE PUSH1 0x20 ADD SWAP1 DUP2 MSTORE PUSH1 0x20 ADD PUSH1 0x0 KECCAK256 PUSH1 0x0 SWAP1 SLOAD SWAP1 PUSH2 0x100 EXP SWAP1 DIV PUSH1 0xFF AND ISZERO PUSH2 0x2683 JUMPI PUSH1 0x1 DUP3 ADD SWAP2 POP JUMPDEST PUSH1 0x5 SLOAD DUP3 EQ ISZERO PUSH2 0x2696 JUMPI PUSH1 0x1 SWAP3 POP PUSH2 0x26A4 JUMP JUMPDEST DUP1 DUP1 PUSH1 0x1 ADD SWAP2 POP POP PUSH2 0x25D3 JUMP JUMPDEST JUMPDEST POP POP SWAP2 SWAP1 POP JUMP JUMPDEST PUSH1 0x0 DUP1 PUSH1 0x0 SWAP1 POP JUMPDEST PUSH1 0x4 DUP1 SLOAD SWAP1 POP DUP2 LT ISZERO PUSH2 0x2770 JUMPI PUSH1 0x2 PUSH1 0x0 DUP5 DUP2 MSTORE PUSH1 0x20 ADD SWAP1 DUP2 MSTORE PUSH1 0x20 ADD PUSH1 0x0 KECCAK256 PUSH1 0x0 PUSH1 0x4 DUP4 DUP2 SLOAD DUP2 LT ISZERO ISZERO PUSH2 0x26E4 JUMPI INVALID JUMPDEST SWAP1 PUSH1 0x0 MSTORE PUSH1 0x20 PUSH1 0x0 KECCAK256 ADD PUSH1 0x0 SWAP1 SLOAD SWAP1 PUSH2 0x100 EXP SWAP1 DIV PUSH20 0xFFFFFFFFFFFFFFFFFFFFFFFFFFFFFFFFFFFFFFFF AND PUSH20 0xFFFFFFFFFFFFFFFFFFFFFFFFFFFFFFFFFFFFFFFF AND PUSH20 0xFFFFFFFFFFFFFFFFFFFFFFFFFFFFFFFFFFFFFFFF AND DUP2 MSTORE PUSH1 0x20 ADD SWAP1 DUP2 MSTORE PUSH1 0x20 ADD PUSH1 0x0 KECCAK256 PUSH1 0x0 SWAP1 SLOAD SWAP1 PUSH2 0x100 EXP SWAP1 DIV PUSH1 0xFF AND ISZERO PUSH2 0x2763 JUMPI PUSH1 0x1 DUP3 ADD SWAP2 POP JUMPDEST DUP1 DUP1 PUSH1 0x1 ADD SWAP2 POP POP PUSH2 0x26B3 JUMP JUMPDEST POP SWAP2 SWAP1 POP JUMP JUMPDEST PUSH1 0xC SLOAD DUP2 JUMP JUMPDEST PUSH1 0x60 PUSH1 0x9 PUSH1 0x0 DUP4 DUP2 MSTORE PUSH1 0x20 ADD SWAP1 DUP2 MSTORE PUSH1 0x20 ADD PUSH1 0x0 KECCAK256 PUSH1 0x1 ADD DUP1 SLOAD PUSH1 0x1 DUP2 PUSH1 0x1 AND ISZERO PUSH2 0x100 MUL SUB AND PUSH1 0x2 SWAP1 DIV DUP1 PUSH1 0x1F ADD PUSH1 0x20 DUP1 SWAP2 DIV MUL PUSH1 0x20 ADD PUSH1 0x40 MLOAD SWAP1 DUP2 ADD PUSH1 0x40 MSTORE DUP1 SWAP3 SWAP2 SWAP1 DUP2 DUP2 MSTORE PUSH1 0x20 ADD DUP3 DUP1 SLOAD PUSH1 0x1 DUP2 PUSH1 0x1 AND ISZERO PUSH2 0x100 MUL SUB AND PUSH1 0x2 SWAP1 DIV DUP1 ISZERO PUSH2 0x2828 JUMPI DUP1 PUSH1 0x1F LT PUSH2 0x27FD JUMPI PUSH2 0x100 DUP1 DUP4 SLOAD DIV MUL DUP4 MSTORE SWAP2 PUSH1 0x20 ADD SWAP2 PUSH2 0x2828 JUMP JUMPDEST DUP3 ADD SWAP2 SWAP1 PUSH1 0x0 MSTORE PUSH1 0x20 PUSH1 0x0 KECCAK256 SWAP1 JUMPDEST DUP2 SLOAD DUP2 MSTORE SWAP1 PUSH1 0x1 ADD SWAP1 PUSH1 0x20 ADD DUP1 DUP4 GT PUSH2 0x280B JUMPI DUP3 SWAP1 SUB PUSH1 0x1F AND DUP3 ADD SWAP2 JUMPDEST POP POP POP POP POP SWAP1 POP SWAP2 SWAP1 POP JUMP JUMPDEST PUSH1 0x1 PUSH1 0x20 MSTORE DUP1 PUSH1 0x0 MSTORE PUSH1 0x40 PUSH1 0x0 KECCAK256 PUSH1 0x0 SWAP2 POP SWAP1 POP DUP1 PUSH1 0x0 ADD PUSH1 0x0 SWAP1 SLOAD SWAP1 PUSH2 0x100 EXP SWAP1 DIV PUSH20 0xFFFFFFFFFFFFFFFFFFFFFFFFFFFFFFFFFFFFFFFF AND SWAP1 DUP1 PUSH1 0x1 ADD SLOAD SWAP1 DUP1 PUSH1 0x2 ADD DUP1 SLOAD PUSH1 0x1 DUP2 PUSH1 0x1 AND ISZERO PUSH2 0x100 MUL SUB AND PUSH1 0x2 SWAP1 DIV DUP1 PUSH1 0x1F ADD PUSH1 0x20 DUP1 SWAP2 DIV MUL PUSH1 0x20 ADD PUSH1 0x40 MLOAD SWAP1 DUP2 ADD PUSH1 0x40 MSTORE DUP1 SWAP3 SWAP2 SWAP1 DUP2 DUP2 MSTORE PUSH1 0x20 ADD DUP3 DUP1 SLOAD PUSH1 0x1 DUP2 PUSH1 0x1 AND ISZERO PUSH2 0x100 MUL SUB AND PUSH1 0x2 SWAP1 DIV DUP1 ISZERO PUSH2 0x290C JUMPI DUP1 PUSH1 0x1F LT PUSH2 0x28E1 JUMPI PUSH2 0x100 DUP1 DUP4 SLOAD DIV MUL DUP4 MSTORE SWAP2 PUSH1 0x20 ADD SWAP2 PUSH2 0x290C JUMP JUMPDEST DUP3 ADD SWAP2 SWAP1 PUSH1 0x0 MSTORE PUSH1 0x20 PUSH1 0x0 KECCAK256 SWAP1 JUMPDEST DUP2 SLOAD DUP2 MSTORE SWAP1 PUSH1 0x1 ADD SWAP1 PUSH1 0x20 ADD DUP1 DUP4 GT PUSH2 0x28EF JUMPI DUP3 SWAP1 SUB PUSH1 0x1F AND DUP3 ADD SWAP2 JUMPDEST POP POP POP POP POP SWAP1 DUP1 PUSH1 0x3 ADD PUSH1 0x0 SWAP1 SLOAD SWAP1 PUSH2 0x100 EXP SWAP1 DIV PUSH1 0xFF AND SWAP1 POP DUP5 JUMP JUMPDEST PUSH1 0x60 PUSH1 0x4 DUP1 SLOAD DUP1 PUSH1 0x20 MUL PUSH1 0x20 ADD PUSH1 0x40 MLOAD SWAP1 DUP2 ADD PUSH1 0x40 MSTORE DUP1 SWAP3 SWAP2 SWAP1 DUP2 DUP2 MSTORE PUSH1 0x20 ADD DUP3 DUP1 SLOAD DUP1 ISZERO PUSH2 0x29AD JUMPI PUSH1 0x20 MUL DUP3 ADD SWAP2 SWAP1 PUSH1 0x0 MSTORE PUSH1 0x20 PUSH1 0x0 KECCAK256 SWAP1 JUMPDEST DUP2 PUSH1 0x0 SWAP1 SLOAD SWAP1 PUSH2 0x100 EXP SWAP1 DIV PUSH20 0xFFFFFFFFFFFFFFFFFFFFFFFFFFFFFFFFFFFFFFFF AND PUSH20 0xFFFFFFFFFFFFFFFFFFFFFFFFFFFFFFFFFFFFFFFF AND DUP2 MSTORE PUSH1 0x20 ADD SWAP1 PUSH1 0x1 ADD SWAP1 DUP1 DUP4 GT PUSH2 0x2963 JUMPI JUMPDEST POP POP POP POP POP SWAP1 POP SWAP1 JUMP JUMPDEST PUSH1 0x0 DUP1 ADDRESS PUSH20 0xFFFFFFFFFFFFFFFFFFFFFFFFFFFFFFFFFFFFFFFF AND CALLER PUSH20 0xFFFFFFFFFFFFFFFFFFFFFFFFFFFFFFFFFFFFFFFF AND EQ ISZERO ISZERO PUSH2 0x29F4 JUMPI PUSH1 0x0 DUP1 REVERT JUMPDEST PUSH1 0x7 PUSH1 0x0 DUP5 DUP2 MSTORE PUSH1 0x20 ADD SWAP1 DUP2 MSTORE PUSH1 0x20 ADD PUSH1 0x0 KECCAK256 SWAP2 POP DUP2 PUSH1 0x7 ADD PUSH1 0x0 SWAP1 SLOAD SWAP1 PUSH2 0x100 EXP SWAP1 DIV PUSH1 0xFF AND ISZERO ISZERO PUSH2 0x2A8F JUMPI PUSH1 0x40 MLOAD PUSH32 0x8C379A000000000000000000000000000000000000000000000000000000000 DUP2 MSTORE PUSH1 0x4 ADD DUP1 DUP1 PUSH1 0x20 ADD DUP3 DUP2 SUB DUP3 MSTORE PUSH1 0x11 DUP2 MSTORE PUSH1 0x20 ADD DUP1 PUSH32 0x4A6F62206973206E6F7420616374697665000000000000000000000000000000 DUP2 MSTORE POP PUSH1 0x20 ADD SWAP2 POP POP PUSH1 0x40 MLOAD DUP1 SWAP2 SUB SWAP1 REVERT JUMPDEST CALLER PUSH20 0xFFFFFFFFFFFFFFFFFFFFFFFFFFFFFFFFFFFFFFFF AND DUP3 PUSH1 0x0 ADD PUSH1 0x0 SWAP1 SLOAD SWAP1 PUSH2 0x100 EXP SWAP1 DIV PUSH20 0xFFFFFFFFFFFFFFFFFFFFFFFFFFFFFFFFFFFFFFFF AND PUSH20 0xFFFFFFFFFFFFFFFFFFFFFFFFFFFFFFFFFFFFFFFF AND EQ DUP1 PUSH2 0x2B3C JUMPI POP CALLER PUSH20 0xFFFFFFFFFFFFFFFFFFFFFFFFFFFFFFFFFFFFFFFF AND DUP3 PUSH1 0x1 ADD PUSH1 0x0 SWAP1 SLOAD SWAP1 PUSH2 0x100 EXP SWAP1 DIV PUSH20 0xFFFFFFFFFFFFFFFFFFFFFFFFFFFFFFFFFFFFFFFF AND PUSH20 0xFFFFFFFFFFFFFFFFFFFFFFFFFFFFFFFFFFFFFFFF AND EQ JUMPDEST ISZERO ISZERO PUSH2 0x2BD6 JUMPI PUSH1 0x40 MLOAD PUSH32 0x8C379A000000000000000000000000000000000000000000000000000000000 DUP2 MSTORE PUSH1 0x4 ADD DUP1 DUP1 PUSH1 0x20 ADD DUP3 DUP2 SUB DUP3 MSTORE PUSH1 0x2C DUP2 MSTORE PUSH1 0x20 ADD DUP1 PUSH32 0x4F6E6C7920656D706C6F796572206F7220776F726B65722063616E20636F6D70 DUP2 MSTORE PUSH1 0x20 ADD PUSH32 0x6C65746520746865206A6F620000000000000000000000000000000000000000 DUP2 MSTORE POP PUSH1 0x40 ADD SWAP2 POP POP PUSH1 0x40 MLOAD DUP1 SWAP2 SUB SWAP1 REVERT JUMPDEST PUSH1 0x0 SWAP1 POP JUMPDEST DUP2 PUSH1 0x6 ADD DUP1 SLOAD SWAP1 POP DUP2 LT ISZERO PUSH2 0x2C9C JUMPI DUP2 PUSH1 0x6 ADD DUP2 DUP2 SLOAD DUP2 LT ISZERO ISZERO PUSH2 0x2BFB JUMPI INVALID JUMPDEST SWAP1 PUSH1 0x0 MSTORE PUSH1 0x20 PUSH1 0x0 KECCAK256 SWAP1 PUSH1 0x20 SWAP2 DUP3 DUP3 DIV ADD SWAP2 SWAP1 MOD SWAP1 SLOAD SWAP1 PUSH2 0x100 EXP SWAP1 DIV PUSH1 0xFF AND ISZERO ISZERO PUSH2 0x2C8F JUMPI PUSH1 0x40 MLOAD PUSH32 0x8C379A000000000000000000000000000000000000000000000000000000000 DUP2 MSTORE PUSH1 0x4 ADD DUP1 DUP1 PUSH1 0x20 ADD DUP3 DUP2 SUB DUP3 MSTORE PUSH1 0x1F DUP2 MSTORE PUSH1 0x20 ADD DUP1 PUSH32 0x416C6C206D696C6573746F6E6573206D75737420626520617070726F76656400 DUP2 MSTORE POP PUSH1 0x20 ADD SWAP2 POP POP PUSH1 0x40 MLOAD DUP1 SWAP2 SUB SWAP1 REVERT JUMPDEST DUP1 DUP1 PUSH1 0x1 ADD SWAP2 POP POP PUSH2 0x2BDB JUMP JUMPDEST PUSH1 0x1 DUP3 PUSH1 0x7 ADD PUSH1 0x1 PUSH2 0x100 EXP DUP2 SLOAD DUP2 PUSH1 0xFF MUL NOT AND SWAP1 DUP4 ISZERO ISZERO MUL OR SWAP1 SSTORE POP PUSH1 0x0 DUP3 PUSH1 0x7 ADD PUSH1 0x0 PUSH2 0x100 EXP DUP2 SLOAD DUP2 PUSH1 0xFF MUL NOT AND SWAP1 DUP4 ISZERO ISZERO MUL OR SWAP1 SSTORE POP POP POP POP JUMP JUMPDEST PUSH1 0x60 DUP1 PUSH1 0x0 DUP1 PUSH1 0x6 SLOAD PUSH1 0x40 MLOAD SWAP1 DUP1 DUP3 MSTORE DUP1 PUSH1 0x20 MUL PUSH1 0x20 ADD DUP3 ADD PUSH1 0x40 MSTORE DUP1 ISZERO PUSH2 0x2D12 JUMPI DUP2 PUSH1 0x20 ADD PUSH1 0x20 DUP3 MUL DUP1 CODESIZE DUP4 CODECOPY DUP1 DUP3 ADD SWAP2 POP POP SWAP1 POP JUMPDEST POP SWAP3 POP PUSH1 0x0 SWAP2 POP PUSH1 0x0 SWAP1 POP JUMPDEST PUSH1 0x6 SLOAD DUP2 LT ISZERO PUSH2 0x2DC0 JUMPI DUP6 DUP1 ISZERO PUSH2 0x2D56 JUMPI POP PUSH1 0x1 PUSH1 0x0 DUP3 DUP2 MSTORE PUSH1 0x20 ADD SWAP1 DUP2 MSTORE PUSH1 0x20 ADD PUSH1 0x0 KECCAK256 PUSH1 0x3 ADD PUSH1 0x0 SWAP1 SLOAD SWAP1 PUSH2 0x100 EXP SWAP1 DIV PUSH1 0xFF AND ISZERO JUMPDEST DUP1 PUSH2 0x2D8A JUMPI POP DUP5 DUP1 ISZERO PUSH2 0x2D89 JUMPI POP PUSH1 0x1 PUSH1 0x0 DUP3 DUP2 MSTORE PUSH1 0x20 ADD SWAP1 DUP2 MSTORE PUSH1 0x20 ADD PUSH1 0x0 KECCAK256 PUSH1 0x3 ADD PUSH1 0x0 SWAP1 SLOAD SWAP1 PUSH2 0x100 EXP SWAP1 DIV PUSH1 0xFF AND JUMPDEST JUMPDEST ISZERO PUSH2 0x2DB3 JUMPI DUP1 DUP4 DUP4 DUP2 MLOAD DUP2 LT ISZERO ISZERO PUSH2 0x2D9E JUMPI INVALID JUMPDEST SWAP1 PUSH1 0x20 ADD SWAP1 PUSH1 0x20 MUL ADD DUP2 DUP2 MSTORE POP POP PUSH1 0x1 DUP3 ADD SWAP2 POP JUMPDEST DUP1 DUP1 PUSH1 0x1 ADD SWAP2 POP POP PUSH2 0x2D1E JUMP JUMPDEST DUP8 DUP8 SUB PUSH1 0x40 MLOAD SWAP1 DUP1 DUP3 MSTORE DUP1 PUSH1 0x20 MUL PUSH1 0x20 ADD DUP3 ADD PUSH1 0x40 MSTORE DUP1 ISZERO PUSH2 0x2DF1 JUMPI DUP2 PUSH1 0x20 ADD PUSH1 0x20 DUP3 MUL DUP1 CODESIZE DUP4 CODECOPY DUP1 DUP3 ADD SWAP2 POP POP SWAP1 POP JUMPDEST POP SWAP4 POP DUP8 SWAP1 POP JUMPDEST DUP7 DUP2 LT ISZERO PUSH2 0x2E43 JUMPI DUP3 DUP2 DUP2 MLOAD DUP2 LT ISZERO ISZERO PUSH2 0x2E0E JUMPI INVALID JUMPDEST SWAP1 PUSH1 0x20 ADD SWAP1 PUSH1 0x20 MUL ADD MLOAD DUP5 DUP10 DUP4 SUB DUP2 MLOAD DUP2 LT ISZERO ISZERO PUSH2 0x2E28 JUMPI INVALID JUMPDEST SWAP1 PUSH1 0x20 ADD SWAP1 PUSH1 0x20 MUL ADD DUP2 DUP2 MSTORE POP POP DUP1 DUP1 PUSH1 0x1 ADD SWAP2 POP POP PUSH2 0x2DF8 JUMP JUMPDEST POP POP POP SWAP5 SWAP4 POP POP POP POP JUMP JUMPDEST ADDRESS PUSH20 0xFFFFFFFFFFFFFFFFFFFFFFFFFFFFFFFFFFFFFFFF AND CALLER PUSH20 0xFFFFFFFFFFFFFFFFFFFFFFFFFFFFFFFFFFFFFFFF AND EQ ISZERO ISZERO PUSH2 0x2E88 JUMPI PUSH1 0x0 DUP1 REVERT JUMPDEST CALLER PUSH1 0x3 PUSH1 0x0 DUP3 PUSH20 0xFFFFFFFFFFFFFFFFFFFFFFFFFFFFFFFFFFFFFFFF AND PUSH20 0xFFFFFFFFFFFFFFFFFFFFFFFFFFFFFFFFFFFFFFFF AND DUP2 MSTORE PUSH1 0x20 ADD SWAP1 DUP2 MSTORE PUSH1 0x20 ADD PUSH1 0x0 KECCAK256 PUSH1 0x0 SWAP1 SLOAD SWAP1 PUSH2 0x100 EXP SWAP1 DIV PUSH1 0xFF AND ISZERO ISZERO PUSH2 0x2EE1 JUMPI PUSH1 0x0 DUP1 REVERT JUMPDEST PUSH1 0x7 PUSH1 0x0 DUP5 DUP2 MSTORE PUSH1 0x20 ADD SWAP1 DUP2 MSTORE PUSH1 0x20 ADD PUSH1 0x0 KECCAK256 PUSH1 0x7 ADD PUSH1 0x0 SWAP1 SLOAD SWAP1 PUSH2 0x100 EXP SWAP1 DIV PUSH1 0xFF AND ISZERO ISZERO PUSH2 0x2F9F JUMPI PUSH1 0x40 MLOAD PUSH32 0x8C379A000000000000000000000000000000000000000000000000000000000 DUP2 MSTORE PUSH1 0x4 ADD DUP1 DUP1 PUSH1 0x20 ADD DUP3 DUP2 SUB DUP3 MSTORE PUSH1 0x25 DUP2 MSTORE PUSH1 0x20 ADD DUP1 PUSH32 0x4A6F62206D7573742062652061637469766520746F2073746F726520646F6375 DUP2 MSTORE PUSH1 0x20 ADD PUSH32 0x6D656E7473000000000000000000000000000000000000000000000000000000 DUP2 MSTORE POP PUSH1 0x40 ADD SWAP2 POP POP PUSH1 0x40 MLOAD DUP1 SWAP2 SUB SWAP1 REVERT JUMPDEST DUP2 PUSH1 0xD PUSH1 0x0 DUP6 DUP2 MSTORE PUSH1 0x20 ADD SWAP1 DUP2 MSTORE PUSH1 0x20 ADD PUSH1 0x0 KECCAK256 SWAP1 DUP1 MLOAD SWAP1 PUSH1 0x20 ADD SWAP1 PUSH2 0x2FC6 SWAP3 SWAP2 SWAP1 PUSH2 0x4295 JUMP JUMPDEST POP POP POP POP JUMP JUMPDEST PUSH1 0x60 DUP1 PUSH1 0x0 DUP1 PUSH1 0x4 DUP1 SLOAD SWAP1 POP PUSH1 0x40 MLOAD SWAP1 DUP1 DUP3 MSTORE DUP1 PUSH1 0x20 MUL PUSH1 0x20 ADD DUP3 ADD PUSH1 0x40 MSTORE DUP1 ISZERO PUSH2 0x3006 JUMPI DUP2 PUSH1 0x20 ADD PUSH1 0x20 DUP3 MUL DUP1 CODESIZE DUP4 CODECOPY DUP1 DUP3 ADD SWAP2 POP POP SWAP1 POP JUMPDEST POP SWAP3 POP PUSH1 0x0 SWAP2 POP PUSH1 0x0 SWAP1 POP JUMPDEST PUSH1 0x4 DUP1 SLOAD SWAP1 POP DUP2 LT ISZERO PUSH2 0x3153 JUMPI PUSH1 0x2 PUSH1 0x0 DUP7 DUP2 MSTORE PUSH1 0x20 ADD SWAP1 DUP2 MSTORE PUSH1 0x20 ADD PUSH1 0x0 KECCAK256 PUSH1 0x0 PUSH1 0x4 DUP4 DUP2 SLOAD DUP2 LT ISZERO ISZERO PUSH2 0x3043 JUMPI INVALID JUMPDEST SWAP1 PUSH1 0x0 MSTORE PUSH1 0x20 PUSH1 0x0 KECCAK256 ADD PUSH1 0x0 SWAP1 SLOAD SWAP1 PUSH2 0x100 EXP SWAP1 DIV PUSH20 0xFFFFFFFFFFFFFFFFFFFFFFFFFFFFFFFFFFFFFFFF AND PUSH20 0xFFFFFFFFFFFFFFFFFFFFFFFFFFFFFFFFFFFFFFFF AND PUSH20 0xFFFFFFFFFFFFFFFFFFFFFFFFFFFFFFFFFFFFFFFF AND DUP2 MSTORE PUSH1 0x20 ADD SWAP1 DUP2 MSTORE PUSH1 0x20 ADD PUSH1 0x0 KECCAK256 PUSH1 0x0 SWAP1 SLOAD SWAP1 PUSH2 0x100 EXP SWAP1 DIV PUSH1 0xFF AND ISZERO PUSH2 0x3146 JUMPI PUSH1 0x4 DUP2 DUP2 SLOAD DUP2 LT ISZERO ISZERO PUSH2 0x30CA JUMPI INVALID JUMPDEST SWAP1 PUSH1 0x0 MSTORE PUSH1 0x20 PUSH1 0x0 KECCAK256 ADD PUSH1 0x0 SWAP1 SLOAD SWAP1 PUSH2 0x100 EXP SWAP1 DIV PUSH20 0xFFFFFFFFFFFFFFFFFFFFFFFFFFFFFFFFFFFFFFFF AND DUP4 DUP4 DUP2 MLOAD DUP2 LT ISZERO ISZERO PUSH2 0x3103 JUMPI INVALID JUMPDEST SWAP1 PUSH1 0x20 ADD SWAP1 PUSH1 0x20 MUL ADD SWAP1 PUSH20 0xFFFFFFFFFFFFFFFFFFFFFFFFFFFFFFFFFFFFFFFF AND SWAP1 DUP2 PUSH20 0xFFFFFFFFFFFFFFFFFFFFFFFFFFFFFFFFFFFFFFFF AND DUP2 MSTORE POP POP PUSH1 0x1 DUP3 ADD SWAP2 POP JUMPDEST DUP1 DUP1 PUSH1 0x1 ADD SWAP2 POP POP PUSH2 0x3012 JUMP JUMPDEST DUP2 PUSH1 0x40 MLOAD SWAP1 DUP1 DUP3 MSTORE DUP1 PUSH1 0x20 MUL PUSH1 0x20 ADD DUP3 ADD PUSH1 0x40 MSTORE DUP1 ISZERO PUSH2 0x3182 JUMPI DUP2 PUSH1 0x20 ADD PUSH1 0x20 DUP3 MUL DUP1 CODESIZE DUP4 CODECOPY DUP1 DUP3 ADD SWAP2 POP POP SWAP1 POP JUMPDEST POP SWAP4 POP PUSH1 0x0 SWAP1 POP JUMPDEST DUP2 DUP2 LT ISZERO PUSH2 0x3201 JUMPI DUP3 DUP2 DUP2 MLOAD DUP2 LT ISZERO ISZERO PUSH2 0x31A0 JUMPI INVALID JUMPDEST SWAP1 PUSH1 0x20 ADD SWAP1 PUSH1 0x20 MUL ADD MLOAD DUP5 DUP3 DUP2 MLOAD DUP2 LT ISZERO ISZERO PUSH2 0x31B8 JUMPI INVALID JUMPDEST SWAP1 PUSH1 0x20 ADD SWAP1 PUSH1 0x20 MUL ADD SWAP1 PUSH20 0xFFFFFFFFFFFFFFFFFFFFFFFFFFFFFFFFFFFFFFFF AND SWAP1 DUP2 PUSH20 0xFFFFFFFFFFFFFFFFFFFFFFFFFFFFFFFFFFFFFFFF AND DUP2 MSTORE POP POP DUP1 DUP1 PUSH1 0x1 ADD SWAP2 POP POP PUSH2 0x318A JUMP JUMPDEST POP POP POP SWAP2 SWAP1 POP JUMP JUMPDEST PUSH1 0x6 SLOAD DUP2 JUMP JUMPDEST ADDRESS PUSH20 0xFFFFFFFFFFFFFFFFFFFFFFFFFFFFFFFFFFFFFFFF AND CALLER PUSH20 0xFFFFFFFFFFFFFFFFFFFFFFFFFFFFFFFFFFFFFFFF AND EQ ISZERO ISZERO PUSH2 0x3249 JUMPI PUSH1 0x0 DUP1 REVERT JUMPDEST PUSH1 0x4 DUP1 SLOAD SWAP1 POP DUP2 PUSH1 0x32 DUP3 GT ISZERO DUP1 ISZERO PUSH2 0x3261 JUMPI POP DUP2 DUP2 GT ISZERO JUMPDEST DUP1 ISZERO PUSH2 0x326E JUMPI POP PUSH1 0x0 DUP2 EQ ISZERO JUMPDEST DUP1 ISZERO PUSH2 0x327B JUMPI POP PUSH1 0x0 DUP3 EQ ISZERO JUMPDEST ISZERO ISZERO PUSH2 0x3286 JUMPI PUSH1 0x0 DUP1 REVERT JUMPDEST DUP3 PUSH1 0x5 DUP2 SWAP1 SSTORE POP PUSH32 0xA3F1EE9126A074D9326C682F561767F710E927FAA811F7A99829D49DC421797A DUP4 PUSH1 0x40 MLOAD DUP1 DUP3 DUP2 MSTORE PUSH1 0x20 ADD SWAP2 POP POP PUSH1 0x40 MLOAD DUP1 SWAP2 SUB SWAP1 LOG1 POP POP POP JUMP JUMPDEST CALLER PUSH1 0x3 PUSH1 0x0 DUP3 PUSH20 0xFFFFFFFFFFFFFFFFFFFFFFFFFFFFFFFFFFFFFFFF AND PUSH20 0xFFFFFFFFFFFFFFFFFFFFFFFFFFFFFFFFFFFFFFFF AND DUP2 MSTORE PUSH1 0x20 ADD SWAP1 DUP2 MSTORE PUSH1 0x20 ADD PUSH1 0x0 KECCAK256 PUSH1 0x0 SWAP1 SLOAD SWAP1 PUSH2 0x100 EXP SWAP1 DIV PUSH1 0xFF AND ISZERO ISZERO PUSH2 0x3322 JUMPI PUSH1 0x0 DUP1 REVERT JUMPDEST DUP2 PUSH1 0x0 PUSH1 0x1 PUSH1 0x0 DUP4 DUP2 MSTORE PUSH1 0x20 ADD SWAP1 DUP2 MSTORE PUSH1 0x20 ADD PUSH1 0x0 KECCAK256 PUSH1 0x0 ADD PUSH1 0x0 SWAP1 SLOAD SWAP1 PUSH2 0x100 EXP SWAP1 DIV PUSH20 0xFFFFFFFFFFFFFFFFFFFFFFFFFFFFFFFFFFFFFFFF AND PUSH20 0xFFFFFFFFFFFFFFFFFFFFFFFFFFFFFFFFFFFFFFFF AND EQ ISZERO ISZERO ISZERO PUSH2 0x337F JUMPI PUSH1 0x0 DUP1 REVERT JUMPDEST DUP3 CALLER PUSH1 0x2 PUSH1 0x0 DUP4 DUP2 MSTORE PUSH1 0x20 ADD SWAP1 DUP2 MSTORE PUSH1 0x20 ADD PUSH1 0x0 KECCAK256 PUSH1 0x0 DUP3 PUSH20 0xFFFFFFFFFFFFFFFFFFFFFFFFFFFFFFFFFFFFFFFF AND PUSH20 0xFFFFFFFFFFFFFFFFFFFFFFFFFFFFFFFFFFFFFFFF AND DUP2 MSTORE PUSH1 0x20 ADD SWAP1 DUP2 MSTORE PUSH1 0x20 ADD PUSH1 0x0 KECCAK256 PUSH1 0x0 SWAP1 SLOAD SWAP1 PUSH2 0x100 EXP SWAP1 DIV PUSH1 0xFF AND ISZERO ISZERO ISZERO PUSH2 0x33EB JUMPI PUSH1 0x0 DUP1 REVERT JUMPDEST PUSH1 0x1 PUSH1 0x2 PUSH1 0x0 DUP8 DUP2 MSTORE PUSH1 0x20 ADD SWAP1 DUP2 MSTORE PUSH1 0x20 ADD PUSH1 0x0 KECCAK256 PUSH1 0x0 CALLER PUSH20 0xFFFFFFFFFFFFFFFFFFFFFFFFFFFFFFFFFFFFFFFF AND PUSH20 0xFFFFFFFFFFFFFFFFFFFFFFFFFFFFFFFFFFFFFFFF AND DUP2 MSTORE PUSH1 0x20 ADD SWAP1 DUP2 MSTORE PUSH1 0x20 ADD PUSH1 0x0 KECCAK256 PUSH1 0x0 PUSH2 0x100 EXP DUP2 SLOAD DUP2 PUSH1 0xFF MUL NOT AND SWAP1 DUP4 ISZERO ISZERO MUL OR SWAP1 SSTORE POP DUP5 CALLER PUSH20 0xFFFFFFFFFFFFFFFFFFFFFFFFFFFFFFFFFFFFFFFF AND PUSH32 0x4A504A94899432A9846E1AA406DCEB1BCFD538BB839071D49D1E5E23F5BE30EF PUSH1 0x40 MLOAD PUSH1 0x40 MLOAD DUP1 SWAP2 SUB SWAP1 LOG3 PUSH2 0x34A1 DUP6 PUSH2 0x39F2 JUMP JUMPDEST POP POP POP POP POP JUMP JUMPDEST PUSH1 0xA PUSH1 0x20 MSTORE DUP1 PUSH1 0x0 MSTORE PUSH1 0x40 PUSH1 0x0 KECCAK256 PUSH1 0x0 SWAP2 POP SWAP1 POP DUP1 PUSH1 0x0 ADD PUSH1 0x0 SWAP1 SLOAD SWAP1 PUSH2 0x100 EXP SWAP1 DIV PUSH20 0xFFFFFFFFFFFFFFFFFFFFFFFFFFFFFFFFFFFFFFFF AND SWAP1 DUP1 PUSH1 0x1 ADD DUP1 SLOAD PUSH1 0x1 DUP2 PUSH1 0x1 AND ISZERO PUSH2 0x100 MUL SUB AND PUSH1 0x2 SWAP1 DIV DUP1 PUSH1 0x1F ADD PUSH1 0x20 DUP1 SWAP2 DIV MUL PUSH1 0x20 ADD PUSH1 0x40 MLOAD SWAP1 DUP2 ADD PUSH1 0x40 MSTORE DUP1 SWAP3 SWAP2 SWAP1 DUP2 DUP2 MSTORE PUSH1 0x20 ADD DUP3 DUP1 SLOAD PUSH1 0x1 DUP2 PUSH1 0x1 AND ISZERO PUSH2 0x100 MUL SUB AND PUSH1 0x2 SWAP1 DIV DUP1 ISZERO PUSH2 0x357A JUMPI DUP1 PUSH1 0x1F LT PUSH2 0x354F JUMPI PUSH2 0x100 DUP1 DUP4 SLOAD DIV MUL DUP4 MSTORE SWAP2 PUSH1 0x20 ADD SWAP2 PUSH2 0x357A JUMP JUMPDEST DUP3 ADD SWAP2 SWAP1 PUSH1 0x0 MSTORE PUSH1 0x20 PUSH1 0x0 KECCAK256 SWAP1 JUMPDEST DUP2 SLOAD DUP2 MSTORE SWAP1 PUSH1 0x1 ADD SWAP1 PUSH1 0x20 ADD DUP1 DUP4 GT PUSH2 0x355D JUMPI DUP3 SWAP1 SUB PUSH1 0x1F AND DUP3 ADD SWAP2 JUMPDEST POP POP POP POP POP SWAP1 DUP1 PUSH1 0x2 ADD DUP1 SLOAD PUSH1 0x1 DUP2 PUSH1 0x1 AND ISZERO PUSH2 0x100 MUL SUB AND PUSH1 0x2 SWAP1 DIV DUP1 PUSH1 0x1F ADD PUSH1 0x20 DUP1 SWAP2 DIV MUL PUSH1 0x20 ADD PUSH1 0x40 MLOAD SWAP1 DUP2 ADD PUSH1 0x40 MSTORE DUP1 SWAP3 SWAP2 SWAP1 DUP2 DUP2 MSTORE PUSH1 0x20 ADD DUP3 DUP1 SLOAD PUSH1 0x1 DUP2 PUSH1 0x1 AND ISZERO PUSH2 0x100 MUL SUB AND PUSH1 0x2 SWAP1 DIV DUP1 ISZERO PUSH2 0x3618 JUMPI DUP1 PUSH1 0x1F LT PUSH2 0x35ED JUMPI PUSH2 0x100 DUP1 DUP4 SLOAD DIV MUL DUP4 MSTORE SWAP2 PUSH1 0x20 ADD SWAP2 PUSH2 0x3618 JUMP JUMPDEST DUP3 ADD SWAP2 SWAP1 PUSH1 0x0 MSTORE PUSH1 0x20 PUSH1 0x0 KECCAK256 SWAP1 JUMPDEST DUP2 SLOAD DUP2 MSTORE SWAP1 PUSH1 0x1 ADD SWAP1 PUSH1 0x20 ADD DUP1 DUP4 GT PUSH2 0x35FB JUMPI DUP3 SWAP1 SUB PUSH1 0x1F AND DUP3 ADD SWAP2 JUMPDEST POP POP POP POP POP SWAP1 DUP1 PUSH1 0x3 ADD DUP1 SLOAD PUSH1 0x1 DUP2 PUSH1 0x1 AND ISZERO PUSH2 0x100 MUL SUB AND PUSH1 0x2 SWAP1 DIV DUP1 PUSH1 0x1F ADD PUSH1 0x20 DUP1 SWAP2 DIV MUL PUSH1 0x20 ADD PUSH1 0x40 MLOAD SWAP1 DUP2 ADD PUSH1 0x40 MSTORE DUP1 SWAP3 SWAP2 SWAP1 DUP2 DUP2 MSTORE PUSH1 0x20 ADD DUP3 DUP1 SLOAD PUSH1 0x1 DUP2 PUSH1 0x1 AND ISZERO PUSH2 0x100 MUL SUB AND PUSH1 0x2 SWAP1 DIV DUP1 ISZERO PUSH2 0x36B6 JUMPI DUP1 PUSH1 0x1F LT PUSH2 0x368B JUMPI PUSH2 0x100 DUP1 DUP4 SLOAD DIV MUL DUP4 MSTORE SWAP2 PUSH1 0x20 ADD SWAP2 PUSH2 0x36B6 JUMP JUMPDEST DUP3 ADD SWAP2 SWAP1 PUSH1 0x0 MSTORE PUSH1 0x20 PUSH1 0x0 KECCAK256 SWAP1 JUMPDEST DUP2 SLOAD DUP2 MSTORE SWAP1 PUSH1 0x1 ADD SWAP1 PUSH1 0x20 ADD DUP1 DUP4 GT PUSH2 0x3699 JUMPI DUP3 SWAP1 SUB PUSH1 0x1F AND DUP3 ADD SWAP2 JUMPDEST POP POP POP POP POP SWAP1 DUP1 PUSH1 0x4 ADD SLOAD SWAP1 DUP1 PUSH1 0x5 ADD SLOAD SWAP1 DUP1 PUSH1 0x6 ADD SLOAD SWAP1 POP DUP8 JUMP JUMPDEST PUSH1 0x32 DUP2 JUMP JUMPDEST PUSH1 0x5 SLOAD DUP2 JUMP JUMPDEST PUSH1 0x0 ADDRESS PUSH20 0xFFFFFFFFFFFFFFFFFFFFFFFFFFFFFFFFFFFFFFFF AND CALLER PUSH20 0xFFFFFFFFFFFFFFFFFFFFFFFFFFFFFFFFFFFFFFFF AND EQ ISZERO ISZERO PUSH2 0x3719 JUMPI PUSH1 0x0 DUP1 REVERT JUMPDEST DUP3 PUSH1 0x3 PUSH1 0x0 DUP3 PUSH20 0xFFFFFFFFFFFFFFFFFFFFFFFFFFFFFFFFFFFFFFFF AND PUSH20 0xFFFFFFFFFFFFFFFFFFFFFFFFFFFFFFFFFFFFFFFF AND DUP2 MSTORE PUSH1 0x20 ADD SWAP1 DUP2 MSTORE PUSH1 0x20 ADD PUSH1 0x0 KECCAK256 PUSH1 0x0 SWAP1 SLOAD SWAP1 PUSH2 0x100 EXP SWAP1 DIV PUSH1 0xFF AND ISZERO ISZERO PUSH2 0x3772 JUMPI PUSH1 0x0 DUP1 REVERT JUMPDEST DUP3 PUSH1 0x3 PUSH1 0x0 DUP3 PUSH20 0xFFFFFFFFFFFFFFFFFFFFFFFFFFFFFFFFFFFFFFFF AND PUSH20 0xFFFFFFFFFFFFFFFFFFFFFFFFFFFFFFFFFFFFFFFF AND DUP2 MSTORE PUSH1 0x20 ADD SWAP1 DUP2 MSTORE PUSH1 0x20 ADD PUSH1 0x0 KECCAK256 PUSH1 0x0 SWAP1 SLOAD SWAP1 PUSH2 0x100 EXP SWAP1 DIV PUSH1 0xFF AND ISZERO ISZERO ISZERO PUSH2 0x37CC JUMPI PUSH1 0x0 DUP1 REVERT JUMPDEST PUSH1 0x0 SWAP3 POP JUMPDEST PUSH1 0x4 DUP1 SLOAD SWAP1 POP DUP4 LT ISZERO PUSH2 0x38B5 JUMPI DUP5 PUSH20 0xFFFFFFFFFFFFFFFFFFFFFFFFFFFFFFFFFFFFFFFF AND PUSH1 0x4 DUP5 DUP2 SLOAD DUP2 LT ISZERO ISZERO PUSH2 0x3804 JUMPI INVALID JUMPDEST SWAP1 PUSH1 0x0 MSTORE PUSH1 0x20 PUSH1 0x0 KECCAK256 ADD PUSH1 0x0 SWAP1 SLOAD SWAP1 PUSH2 0x100 EXP SWAP1 DIV PUSH20 0xFFFFFFFFFFFFFFFFFFFFFFFFFFFFFFFFFFFFFFFF AND PUSH20 0xFFFFFFFFFFFFFFFFFFFFFFFFFFFFFFFFFFFFFFFF AND EQ ISZERO PUSH2 0x38A8 JUMPI DUP4 PUSH1 0x4 DUP5 DUP2 SLOAD DUP2 LT ISZERO ISZERO PUSH2 0x385B JUMPI INVALID JUMPDEST SWAP1 PUSH1 0x0 MSTORE PUSH1 0x20 PUSH1 0x0 KECCAK256 ADD PUSH1 0x0 PUSH2 0x100 EXP DUP2 SLOAD DUP2 PUSH20 0xFFFFFFFFFFFFFFFFFFFFFFFFFFFFFFFFFFFFFFFF MUL NOT AND SWAP1 DUP4 PUSH20 0xFFFFFFFFFFFFFFFFFFFFFFFFFFFFFFFFFFFFFFFF AND MUL OR SWAP1 SSTORE POP PUSH2 0x38B5 JUMP JUMPDEST DUP3 DUP1 PUSH1 0x1 ADD SWAP4 POP POP PUSH2 0x37D1 JUMP JUMPDEST PUSH1 0x0 PUSH1 0x3 PUSH1 0x0 DUP8 PUSH20 0xFFFFFFFFFFFFFFFFFFFFFFFFFFFFFFFFFFFFFFFF AND PUSH20 0xFFFFFFFFFFFFFFFFFFFFFFFFFFFFFFFFFFFFFFFF AND DUP2 MSTORE PUSH1 0x20 ADD SWAP1 DUP2 MSTORE PUSH1 0x20 ADD PUSH1 0x0 KECCAK256 PUSH1 0x0 PUSH2 0x100 EXP DUP2 SLOAD DUP2 PUSH1 0xFF MUL NOT AND SWAP1 DUP4 ISZERO ISZERO MUL OR SWAP1 SSTORE POP PUSH1 0x1 PUSH1 0x3 PUSH1 0x0 DUP7 PUSH20 0xFFFFFFFFFFFFFFFFFFFFFFFFFFFFFFFFFFFFFFFF AND PUSH20 0xFFFFFFFFFFFFFFFFFFFFFFFFFFFFFFFFFFFFFFFF AND DUP2 MSTORE PUSH1 0x20 ADD SWAP1 DUP2 MSTORE PUSH1 0x20 ADD PUSH1 0x0 KECCAK256 PUSH1 0x0 PUSH2 0x100 EXP DUP2 SLOAD DUP2 PUSH1 0xFF MUL NOT AND SWAP1 DUP4 ISZERO ISZERO MUL OR SWAP1 SSTORE POP DUP5 PUSH20 0xFFFFFFFFFFFFFFFFFFFFFFFFFFFFFFFFFFFFFFFF AND PUSH32 0x8001553A916EF2F495D26A907CC54D96ED840D7BDA71E73194BF5A9DF7A76B90 PUSH1 0x40 MLOAD PUSH1 0x40 MLOAD DUP1 SWAP2 SUB SWAP1 LOG2 DUP4 PUSH20 0xFFFFFFFFFFFFFFFFFFFFFFFFFFFFFFFFFFFFFFFF AND PUSH32 0xF39E6E1EB0EDCF53C221607B54B00CD28F3196FED0A24994DC308B8F611B682D PUSH1 0x40 MLOAD PUSH1 0x40 MLOAD DUP1 SWAP2 SUB SWAP1 LOG2 POP POP POP POP POP JUMP JUMPDEST PUSH1 0x0 CALLER PUSH1 0x3 PUSH1 0x0 DUP3 PUSH20 0xFFFFFFFFFFFFFFFFFFFFFFFFFFFFFFFFFFFFFFFF AND PUSH20 0xFFFFFFFFFFFFFFFFFFFFFFFFFFFFFFFFFFFFFFFF AND DUP2 MSTORE PUSH1 0x20 ADD SWAP1 DUP2 MSTORE PUSH1 0x20 ADD PUSH1 0x0 KECCAK256 PUSH1 0x0 SWAP1 SLOAD SWAP1 PUSH2 0x100 EXP SWAP1 DIV PUSH1 0xFF AND ISZERO ISZERO PUSH2 0x3A4D JUMPI PUSH1 0x0 DUP1 REVERT JUMPDEST DUP3 CALLER PUSH1 0x2 PUSH1 0x0 DUP4 DUP2 MSTORE PUSH1 0x20 ADD SWAP1 DUP2 MSTORE PUSH1 0x20 ADD PUSH1 0x0 KECCAK256 PUSH1 0x0 DUP3 PUSH20 0xFFFFFFFFFFFFFFFFFFFFFFFFFFFFFFFFFFFFFFFF AND PUSH20 0xFFFFFFFFFFFFFFFFFFFFFFFFFFFFFFFFFFFFFFFF AND DUP2 MSTORE PUSH1 0x20 ADD SWAP1 DUP2 MSTORE PUSH1 0x20 ADD PUSH1 0x0 KECCAK256 PUSH1 0x0 SWAP1 SLOAD SWAP1 PUSH2 0x100 EXP SWAP1 DIV PUSH1 0xFF AND ISZERO ISZERO PUSH2 0x3AB8 JUMPI PUSH1 0x0 DUP1 REVERT JUMPDEST DUP5 PUSH1 0x1 PUSH1 0x0 DUP3 DUP2 MSTORE PUSH1 0x20 ADD SWAP1 DUP2 MSTORE PUSH1 0x20 ADD PUSH1 0x0 KECCAK256 PUSH1 0x3 ADD PUSH1 0x0 SWAP1 SLOAD SWAP1 PUSH2 0x100 EXP SWAP1 DIV PUSH1 0xFF AND ISZERO ISZERO ISZERO PUSH2 0x3AE9 JUMPI PUSH1 0x0 DUP1 REVERT JUMPDEST PUSH2 0x3AF2 DUP7 PUSH2 0x25C6 JUMP JUMPDEST ISZERO PUSH2 0x3C94 JUMPI PUSH1 0x1 PUSH1 0x0 DUP8 DUP2 MSTORE PUSH1 0x20 ADD SWAP1 DUP2 MSTORE PUSH1 0x20 ADD PUSH1 0x0 KECCAK256 SWAP5 POP PUSH1 0x1 DUP6 PUSH1 0x3 ADD PUSH1 0x0 PUSH2 0x100 EXP DUP2 SLOAD DUP2 PUSH1 0xFF MUL NOT AND SWAP1 DUP4 ISZERO ISZERO MUL OR SWAP1 SSTORE POP PUSH2 0x3C11 DUP6 PUSH1 0x0 ADD PUSH1 0x0 SWAP1 SLOAD SWAP1 PUSH2 0x100 EXP SWAP1 DIV PUSH20 0xFFFFFFFFFFFFFFFFFFFFFFFFFFFFFFFFFFFFFFFF AND DUP7 PUSH1 0x1 ADD SLOAD DUP8 PUSH1 0x2 ADD DUP1 SLOAD PUSH1 0x1 DUP2 PUSH1 0x1 AND ISZERO PUSH2 0x100 MUL SUB AND PUSH1 0x2 SWAP1 DIV SWAP1 POP DUP9 PUSH1 0x2 ADD DUP1 SLOAD PUSH1 0x1 DUP2 PUSH1 0x1 AND ISZERO PUSH2 0x100 MUL SUB AND PUSH1 0x2 SWAP1 DIV DUP1 PUSH1 0x1F ADD PUSH1 0x20 DUP1 SWAP2 DIV MUL PUSH1 0x20 ADD PUSH1 0x40 MLOAD SWAP1 DUP2 ADD PUSH1 0x40 MSTORE DUP1 SWAP3 SWAP2 SWAP1 DUP2 DUP2 MSTORE PUSH1 0x20 ADD DUP3 DUP1 SLOAD PUSH1 0x1 DUP2 PUSH1 0x1 AND ISZERO PUSH2 0x100 MUL SUB AND PUSH1 0x2 SWAP1 DIV DUP1 ISZERO PUSH2 0x3C07 JUMPI DUP1 PUSH1 0x1F LT PUSH2 0x3BDC JUMPI PUSH2 0x100 DUP1 DUP4 SLOAD DIV MUL DUP4 MSTORE SWAP2 PUSH1 0x20 ADD SWAP2 PUSH2 0x3C07 JUMP JUMPDEST DUP3 ADD SWAP2 SWAP1 PUSH1 0x0 MSTORE PUSH1 0x20 PUSH1 0x0 KECCAK256 SWAP1 JUMPDEST DUP2 SLOAD DUP2 MSTORE SWAP1 PUSH1 0x1 ADD SWAP1 PUSH1 0x20 ADD DUP1 DUP4 GT PUSH2 0x3BEA JUMPI DUP3 SWAP1 SUB PUSH1 0x1F AND DUP3 ADD SWAP2 JUMPDEST POP POP POP POP POP PUSH2 0x4107 JUMP JUMPDEST ISZERO PUSH2 0x3C48 JUMPI DUP6 PUSH32 0x33E13ECB54C3076D8E8BB8C2881800A4D972B792045FFAE98FDF46DF365FED75 PUSH1 0x40 MLOAD PUSH1 0x40 MLOAD DUP1 SWAP2 SUB SWAP1 LOG2 PUSH2 0x3C93 JUMP JUMPDEST DUP6 PUSH32 0x526441BB6C1ABA3C9A4A6CA1D6545DA9C2333C8C48343EF398EB858D72B79236 PUSH1 0x40 MLOAD PUSH1 0x40 MLOAD DUP1 SWAP2 SUB SWAP1 LOG2 PUSH1 0x0 DUP6 PUSH1 0x3 ADD PUSH1 0x0 PUSH2 0x100 EXP DUP2 SLOAD DUP2 PUSH1 0xFF MUL NOT AND SWAP1 DUP4 ISZERO ISZERO MUL OR SWAP1 SSTORE POP JUMPDEST JUMPDEST POP POP POP POP POP POP JUMP JUMPDEST PUSH1 0x0 ADDRESS PUSH20 0xFFFFFFFFFFFFFFFFFFFFFFFFFFFFFFFFFFFFFFFF AND CALLER PUSH20 0xFFFFFFFFFFFFFFFFFFFFFFFFFFFFFFFFFFFFFFFF AND EQ ISZERO ISZERO PUSH2 0x3CD8 JUMPI PUSH1 0x0 DUP1 REVERT JUMPDEST CALLER PUSH1 0x3 PUSH1 0x0 DUP3 PUSH20 0xFFFFFFFFFFFFFFFFFFFFFFFFFFFFFFFFFFFFFFFF AND PUSH20 0xFFFFFFFFFFFFFFFFFFFFFFFFFFFFFFFFFFFFFFFF AND DUP2 MSTORE PUSH1 0x20 ADD SWAP1 DUP2 MSTORE PUSH1 0x20 ADD PUSH1 0x0 KECCAK256 PUSH1 0x0 SWAP1 SLOAD SWAP1 PUSH2 0x100 EXP SWAP1 DIV PUSH1 0xFF AND ISZERO ISZERO PUSH2 0x3D31 JUMPI PUSH1 0x0 DUP1 REVERT JUMPDEST DUP8 PUSH2 0x3D3B DUP2 PUSH2 0x4098 JUMP JUMPDEST ISZERO ISZERO ISZERO PUSH2 0x3DB0 JUMPI PUSH1 0x40 MLOAD PUSH32 0x8C379A000000000000000000000000000000000000000000000000000000000 DUP2 MSTORE PUSH1 0x4 ADD DUP1 DUP1 PUSH1 0x20 ADD DUP3 DUP2 SUB DUP3 MSTORE PUSH1 0x13 DUP2 MSTORE PUSH1 0x20 ADD DUP1 PUSH32 0x456D706C6F796565205265676973746572656400000000000000000000000000 DUP2 MSTORE POP PUSH1 0x20 ADD SWAP2 POP POP PUSH1 0x40 MLOAD DUP1 SWAP2 SUB SWAP1 REVERT JUMPDEST DUP4 PUSH1 0x0 DUP2 GT ISZERO ISZERO PUSH2 0x3DC0 JUMPI PUSH1 0x0 DUP1 REVERT JUMPDEST PUSH1 0xC PUSH1 0x0 DUP2 SLOAD DUP1 SWAP3 SWAP2 SWAP1 PUSH1 0x1 ADD SWAP2 SWAP1 POP SSTORE POP DUP5 PUSH1 0xB SLOAD ADD PUSH1 0xB DUP2 SWAP1 SSTORE POP PUSH1 0xA PUSH1 0x0 DUP12 DUP2 MSTORE PUSH1 0x20 ADD SWAP1 DUP2 MSTORE PUSH1 0x20 ADD PUSH1 0x0 KECCAK256 SWAP4 POP DUP9 DUP5 PUSH1 0x0 ADD PUSH1 0x0 PUSH2 0x100 EXP DUP2 SLOAD DUP2 PUSH20 0xFFFFFFFFFFFFFFFFFFFFFFFFFFFFFFFFFFFFFFFF MUL NOT AND SWAP1 DUP4 PUSH20 0xFFFFFFFFFFFFFFFFFFFFFFFFFFFFFFFFFFFFFFFF AND MUL OR SWAP1 SSTORE POP DUP7 DUP5 PUSH1 0x2 ADD SWAP1 DUP1 MLOAD SWAP1 PUSH1 0x20 ADD SWAP1 PUSH2 0x3E4D SWAP3 SWAP2 SWAP1 PUSH2 0x4295 JUMP JUMPDEST POP DUP8 DUP5 PUSH1 0x1 ADD SWAP1 DUP1 MLOAD SWAP1 PUSH1 0x20 ADD SWAP1 PUSH2 0x3E66 SWAP3 SWAP2 SWAP1 PUSH2 0x4295 JUMP JUMPDEST POP DUP6 DUP5 PUSH1 0x3 ADD SWAP1 DUP1 MLOAD SWAP1 PUSH1 0x20 ADD SWAP1 PUSH2 0x3E7F SWAP3 SWAP2 SWAP1 PUSH2 0x4295 JUMP JUMPDEST POP DUP5 DUP5 PUSH1 0x4 ADD DUP2 SWAP1 SSTORE POP POP POP POP POP POP POP POP POP POP POP JUMP JUMPDEST PUSH1 0xD PUSH1 0x20 MSTORE DUP1 PUSH1 0x0 MSTORE PUSH1 0x40 PUSH1 0x0 KECCAK256 PUSH1 0x0 SWAP2 POP SWAP1 POP DUP1 SLOAD PUSH1 0x1 DUP2 PUSH1 0x1 AND ISZERO PUSH2 0x100 MUL SUB AND PUSH1 0x2 SWAP1 DIV DUP1 PUSH1 0x1F ADD PUSH1 0x20 DUP1 SWAP2 DIV MUL PUSH1 0x20 ADD PUSH1 0x40 MLOAD SWAP1 DUP2 ADD PUSH1 0x40 MSTORE DUP1 SWAP3 SWAP2 SWAP1 DUP2 DUP2 MSTORE PUSH1 0x20 ADD DUP3 DUP1 SLOAD PUSH1 0x1 DUP2 PUSH1 0x1 AND ISZERO PUSH2 0x100 MUL SUB AND PUSH1 0x2 SWAP1 DIV DUP1 ISZERO PUSH2 0x3F3D JUMPI DUP1 PUSH1 0x1F LT PUSH2 0x3F12 JUMPI PUSH2 0x100 DUP1 DUP4 SLOAD DIV MUL DUP4 MSTORE SWAP2 PUSH1 0x20 ADD SWAP2 PUSH2 0x3F3D JUMP JUMPDEST DUP3 ADD SWAP2 SWAP1 PUSH1 0x0 MSTORE PUSH1 0x20 PUSH1 0x0 KECCAK256 SWAP1 JUMPDEST DUP2 SLOAD DUP2 MSTORE SWAP1 PUSH1 0x1 ADD SWAP1 PUSH1 0x20 ADD DUP1 DUP4 GT PUSH2 0x3F20 JUMPI DUP3 SWAP1 SUB PUSH1 0x1F AND DUP3 ADD SWAP2 JUMPDEST POP POP POP POP POP DUP2 JUMP JUMPDEST PUSH1 0x0 DUP4 PUSH1 0x0 DUP2 PUSH20 0xFFFFFFFFFFFFFFFFFFFFFFFFFFFFFFFFFFFFFFFF AND EQ ISZERO ISZERO ISZERO PUSH2 0x3F6E JUMPI PUSH1 0x0 DUP1 REVERT JUMPDEST PUSH1 0x6 SLOAD SWAP2 POP PUSH1 0x80 PUSH1 0x40 MLOAD SWAP1 DUP2 ADD PUSH1 0x40 MSTORE DUP1 DUP7 PUSH20 0xFFFFFFFFFFFFFFFFFFFFFFFFFFFFFFFFFFFFFFFF AND DUP2 MSTORE PUSH1 0x20 ADD DUP6 DUP2 MSTORE PUSH1 0x20 ADD DUP5 DUP2 MSTORE PUSH1 0x20 ADD PUSH1 0x0 ISZERO ISZERO DUP2 MSTORE POP PUSH1 0x1 PUSH1 0x0 DUP5 DUP2 MSTORE PUSH1 0x20 ADD SWAP1 DUP2 MSTORE PUSH1 0x20 ADD PUSH1 0x0 KECCAK256 PUSH1 0x0 DUP3 ADD MLOAD DUP2 PUSH1 0x0 ADD PUSH1 0x0 PUSH2 0x100 EXP DUP2 SLOAD DUP2 PUSH20 0xFFFFFFFFFFFFFFFFFFFFFFFFFFFFFFFFFFFFFFFF MUL NOT AND SWAP1 DUP4 PUSH20 0xFFFFFFFFFFFFFFFFFFFFFFFFFFFFFFFFFFFFFFFF AND MUL OR SWAP1 SSTORE POP PUSH1 0x20 DUP3 ADD MLOAD DUP2 PUSH1 0x1 ADD SSTORE PUSH1 0x40 DUP3 ADD MLOAD DUP2 PUSH1 0x2 ADD SWAP1 DUP1 MLOAD SWAP1 PUSH1 0x20 ADD SWAP1 PUSH2 0x402E SWAP3 SWAP2 SWAP1 PUSH2 0x4315 JUMP JUMPDEST POP PUSH1 0x60 DUP3 ADD MLOAD DUP2 PUSH1 0x3 ADD PUSH1 0x0 PUSH2 0x100 EXP DUP2 SLOAD DUP2 PUSH1 0xFF MUL NOT AND SWAP1 DUP4 ISZERO ISZERO MUL OR SWAP1 SSTORE POP SWAP1 POP POP PUSH1 0x1 PUSH1 0x6 PUSH1 0x0 DUP3 DUP3 SLOAD ADD SWAP3 POP POP DUP2 SWAP1 SSTORE POP DUP2 PUSH32 0xC0BA8FE4B176C1714197D43B9CC6BCF797A4A7461C5FE8D0EF6E184AE7601E51 PUSH1 0x40 MLOAD PUSH1 0x40 MLOAD DUP1 SWAP2 SUB SWAP1 LOG2 POP SWAP4 SWAP3 POP POP POP JUMP JUMPDEST PUSH1 0x0 DUP1 PUSH20 0xFFFFFFFFFFFFFFFFFFFFFFFFFFFFFFFFFFFFFFFF AND PUSH1 0xA PUSH1 0x0 DUP5 DUP2 MSTORE PUSH1 0x20 ADD SWAP1 DUP2 MSTORE PUSH1 0x20 ADD PUSH1 0x0 KECCAK256 PUSH1 0x0 ADD PUSH1 0x0 SWAP1 SLOAD SWAP1 PUSH2 0x100 EXP SWAP1 DIV PUSH20 0xFFFFFFFFFFFFFFFFFFFFFFFFFFFFFFFFFFFFFFFF AND PUSH20 0xFFFFFFFFFFFFFFFFFFFFFFFFFFFFFFFFFFFFFFFF AND EQ ISZERO SWAP1 POP SWAP2 SWAP1 POP JUMP JUMPDEST PUSH1 0x0 DUP1 PUSH1 0x40 MLOAD PUSH1 0x20 DUP5 ADD PUSH1 0x0 DUP3 DUP8 DUP4 DUP11 DUP13 PUSH2 0x8796 GAS SUB CALL SWAP3 POP POP POP DUP1 SWAP2 POP POP SWAP5 SWAP4 POP POP POP POP JUMP JUMPDEST DUP2 SLOAD DUP2 DUP4 SSTORE DUP2 DUP2 GT ISZERO PUSH2 0x4155 JUMPI DUP2 DUP4 PUSH1 0x0 MSTORE PUSH1 0x20 PUSH1 0x0 KECCAK256 SWAP2 DUP3 ADD SWAP2 ADD PUSH2 0x4154 SWAP2 SWAP1 PUSH2 0x4395 JUMP JUMPDEST JUMPDEST POP POP POP JUMP JUMPDEST POP DUP1 SLOAD PUSH1 0x1 DUP2 PUSH1 0x1 AND ISZERO PUSH2 0x100 MUL SUB AND PUSH1 0x2 SWAP1 DIV PUSH1 0x0 DUP3 SSTORE DUP1 PUSH1 0x1F LT PUSH2 0x4180 JUMPI POP PUSH2 0x419F JUMP JUMPDEST PUSH1 0x1F ADD PUSH1 0x20 SWAP1 DIV SWAP1 PUSH1 0x0 MSTORE PUSH1 0x20 PUSH1 0x0 KECCAK256 SWAP1 DUP2 ADD SWAP1 PUSH2 0x419E SWAP2 SWAP1 PUSH2 0x4395 JUMP JUMPDEST JUMPDEST POP JUMP JUMPDEST DUP3 DUP1 SLOAD DUP3 DUP3 SSTORE SWAP1 PUSH1 0x0 MSTORE PUSH1 0x20 PUSH1 0x0 KECCAK256 SWAP1 DUP2 ADD SWAP3 DUP3 ISZERO PUSH2 0x41DE JUMPI SWAP2 PUSH1 0x20 MUL DUP3 ADD JUMPDEST DUP3 DUP2 GT ISZERO PUSH2 0x41DD JUMPI DUP3 MLOAD DUP3 SSTORE SWAP2 PUSH1 0x20 ADD SWAP2 SWAP1 PUSH1 0x1 ADD SWAP1 PUSH2 0x41C2 JUMP JUMPDEST JUMPDEST POP SWAP1 POP PUSH2 0x41EB SWAP2 SWAP1 PUSH2 0x4395 JUMP JUMPDEST POP SWAP1 JUMP JUMPDEST DUP3 DUP1 SLOAD DUP3 DUP3 SSTORE SWAP1 PUSH1 0x0 MSTORE PUSH1 0x20 PUSH1 0x0 KECCAK256 SWAP1 PUSH1 0x1F ADD PUSH1 0x20 SWAP1 DIV DUP2 ADD SWAP3 DUP3 ISZERO PUSH2 0x4284 JUMPI SWAP2 PUSH1 0x20 MUL DUP3 ADD PUSH1 0x0 JUMPDEST DUP4 DUP3 GT ISZERO PUSH2 0x4255 JUMPI DUP4 MLOAD DUP4 DUP3 PUSH2 0x100 EXP DUP2 SLOAD DUP2 PUSH1 0xFF MUL NOT AND SWAP1 DUP4 ISZERO ISZERO MUL OR SWAP1 SSTORE POP SWAP3 PUSH1 0x20 ADD SWAP3 PUSH1 0x1 ADD PUSH1 0x20 DUP2 PUSH1 0x0 ADD DIV SWAP3 DUP4 ADD SWAP3 PUSH1 0x1 SUB MUL PUSH2 0x4218 JUMP JUMPDEST DUP1 ISZERO PUSH2 0x4282 JUMPI DUP3 DUP2 PUSH2 0x100 EXP DUP2 SLOAD SWAP1 PUSH1 0xFF MUL NOT AND SWAP1 SSTORE PUSH1 0x1 ADD PUSH1 0x20 DUP2 PUSH1 0x0 ADD DIV SWAP3 DUP4 ADD SWAP3 PUSH1 0x1 SUB MUL PUSH2 0x4255 JUMP JUMPDEST POP JUMPDEST POP SWAP1 POP PUSH2 0x4291 SWAP2 SWAP1 PUSH2 0x43BA JUMP JUMPDEST POP SWAP1 JUMP JUMPDEST DUP3 DUP1 SLOAD PUSH1 0x1 DUP2 PUSH1 0x1 AND ISZERO PUSH2 0x100 MUL SUB AND PUSH1 0x2 SWAP1 DIV SWAP1 PUSH1 0x0 MSTORE PUSH1 0x20 PUSH1 0x0 KECCAK256 SWAP1 PUSH1 0x1F ADD PUSH1 0x20 SWAP1 DIV DUP2 ADD SWAP3 DUP3 PUSH1 0x1F LT PUSH2 0x42D6 JUMPI DUP1 MLOAD PUSH1 0xFF NOT AND DUP4 DUP1 ADD OR DUP6 SSTORE PUSH2 0x4304 JUMP JUMPDEST DUP3 DUP1 ADD PUSH1 0x1 ADD DUP6 SSTORE DUP3 ISZERO PUSH2 0x4304 JUMPI SWAP2 DUP3 ADD JUMPDEST DUP3 DUP2 GT ISZERO PUSH2 0x4303 JUMPI DUP3 MLOAD DUP3 SSTORE SWAP2 PUSH1 0x20 ADD SWAP2 SWAP1 PUSH1 0x1 ADD SWAP1 PUSH2 0x42E8 JUMP JUMPDEST JUMPDEST POP SWAP1 POP PUSH2 0x4311 SWAP2 SWAP1 PUSH2 0x4395 JUMP JUMPDEST POP SWAP1 JUMP JUMPDEST DUP3 DUP1 SLOAD PUSH1 0x1 DUP2 PUSH1 0x1 AND ISZERO PUSH2 0x100 MUL SUB AND PUSH1 0x2 SWAP1 DIV SWAP1 PUSH1 0x0 MSTORE PUSH1 0x20 PUSH1 0x0 KECCAK256 SWAP1 PUSH1 0x1F ADD PUSH1 0x20 SWAP1 DIV DUP2 ADD SWAP3 DUP3 PUSH1 0x1F LT PUSH2 0x4356 JUMPI DUP1 MLOAD PUSH1 0xFF NOT AND DUP4 DUP1 ADD OR DUP6 SSTORE PUSH2 0x4384 JUMP JUMPDEST DUP3 DUP1 ADD PUSH1 0x1 ADD DUP6 SSTORE DUP3 ISZERO PUSH2 0x4384 JUMPI SWAP2 DUP3 ADD JUMPDEST DUP3 DUP2 GT ISZERO PUSH2 0x4383 JUMPI DUP3 MLOAD DUP3 SSTORE SWAP2 PUSH1 0x20 ADD SWAP2 SWAP1 PUSH1 0x1 ADD SWAP1 PUSH2 0x4368 JUMP JUMPDEST JUMPDEST POP SWAP1 POP PUSH2 0x4391 SWAP2 SWAP1 PUSH2 0x4395 JUMP JUMPDEST POP SWAP1 JUMP JUMPDEST PUSH2 0x43B7 SWAP2 SWAP1 JUMPDEST DUP1 DUP3 GT ISZERO PUSH2 0x43B3 JUMPI PUSH1 0x0 DUP2 PUSH1 0x0 SWAP1 SSTORE POP PUSH1 0x1 ADD PUSH2 0x439B JUMP JUMPDEST POP SWAP1 JUMP JUMPDEST SWAP1 JUMP JUMPDEST PUSH2 0x43E7 SWAP2 SWAP1 JUMPDEST DUP1 DUP3 GT ISZERO PUSH2 0x43E3 JUMPI PUSH1 0x0 DUP2 DUP2 PUSH2 0x100 EXP DUP2 SLOAD SWAP1 PUSH1 0xFF MUL NOT AND SWAP1 SSTORE POP PUSH1 0x1 ADD PUSH2 0x43C0 JUMP JUMPDEST POP SWAP1 JUMP JUMPDEST SWAP1 JUMP STOP LOG1 PUSH6 0x627A7A723058 KECCAK256 0xde POP 0xea LOG0 DUP16 RETURNDATASIZE CALLVALUE 0xb3 0xc6 PUSH31 0x55EEB520C182D93DCD3989115BCC5884E406D32E105B0029A265627A7A7230 PC KECCAK256 COINBASE 0xc5 0xb8 0xb1 0xc1 JUMPDEST MSTORE8 ORIGIN ORIGIN 0xb0 0xd9 SUB SWAP2 0xec DUP13 SIGNEXTEND DUP2 SWAP4 0xdc PUSH22 0x8DD4108DCB081BB5617C892C6C6578706572696D656E PUSH21 0x616CF50037608060405234801561001057600080FD JUMPDEST POP PUSH1 0x40 MLOAD PUSH1 0x20 DUP1 PUSH2 0xE9F DUP4 CODECOPY DUP2 ADD DUP1 PUSH1 0x40 MSTORE DUP2 ADD SWAP1 DUP1 DUP1 MLOAD SWAP1 PUSH1 0x20 ADD SWAP1 SWAP3 SWAP2 SWAP1 POP POP POP DUP1 PUSH1 0x1 PUSH1 0x0 PUSH2 0x100 EXP DUP2 SLOAD DUP2 PUSH20 0xFFFFFFFFFFFFFFFFFFFFFFFFFFFFFFFFFFFFFFFF MUL NOT AND SWAP1 DUP4 PUSH20 0xFFFFFFFFFFFFFFFFFFFFFFFFFFFFFFFFFFFFFFFF AND MUL OR SWAP1 SSTORE POP POP PUSH2 0xE1B DUP1 PUSH2 0x84 PUSH1 0x0 CODECOPY PUSH1 0x0 RETURN STOP PUSH1 0x80 PUSH1 0x40 MSTORE PUSH1 0x4 CALLDATASIZE LT PUSH2 0x6D JUMPI PUSH1 0x0 CALLDATALOAD PUSH29 0x100000000000000000000000000000000000000000000000000000000 SWAP1 DIV PUSH4 0xFFFFFFFF AND DUP1 PUSH4 0x4048A257 EQ PUSH2 0x72 JUMPI DUP1 PUSH4 0x80C8F4FA EQ PUSH2 0x16C JUMPI DUP1 PUSH4 0x93CE601F EQ PUSH2 0x1D5 JUMPI DUP1 PUSH4 0xC011B1C3 EQ PUSH2 0x321 JUMPI DUP1 PUSH4 0xC45A0155 EQ PUSH2 0x41B JUMPI JUMPDEST PUSH1 0x0 DUP1 REVERT JUMPDEST CALLVALUE DUP1 ISZERO PUSH2 0x7E JUMPI PUSH1 0x0 DUP1 REVERT JUMPDEST POP PUSH2 0xB3 PUSH1 0x4 DUP1 CALLDATASIZE SUB DUP2 ADD SWAP1 DUP1 DUP1 CALLDATALOAD PUSH20 0xFFFFFFFFFFFFFFFFFFFFFFFFFFFFFFFFFFFFFFFF AND SWAP1 PUSH1 0x20 ADD SWAP1 SWAP3 SWAP2 SWAP1 POP POP POP PUSH2 0x472 JUMP JUMPDEST PUSH1 0x40 MLOAD DUP1 DUP5 PUSH20 0xFFFFFFFFFFFFFFFFFFFFFFFFFFFFFFFFFFFFFFFF AND PUSH20 0xFFFFFFFFFFFFFFFFFFFFFFFFFFFFFFFFFFFFFFFF AND DUP2 MSTORE PUSH1 0x20 ADD DUP1 PUSH1 0x20 ADD DUP4 ISZERO ISZERO ISZERO ISZERO DUP2 MSTORE PUSH1 0x20 ADD DUP3 DUP2 SUB DUP3 MSTORE DUP5 DUP2 DUP2 MLOAD DUP2 MSTORE PUSH1 0x20 ADD SWAP2 POP DUP1 MLOAD SWAP1 PUSH1 0x20 ADD SWAP1 DUP1 DUP4 DUP4 PUSH1 0x0 JUMPDEST DUP4 DUP2 LT ISZERO PUSH2 0x12F JUMPI DUP1 DUP3 ADD MLOAD DUP2 DUP5 ADD MSTORE PUSH1 0x20 DUP2 ADD SWAP1 POP PUSH2 0x114 JUMP JUMPDEST POP POP POP POP SWAP1 POP SWAP1 DUP2 ADD SWAP1 PUSH1 0x1F AND DUP1 ISZERO PUSH2 0x15C JUMPI DUP1 DUP3 SUB DUP1 MLOAD PUSH1 0x1 DUP4 PUSH1 0x20 SUB PUSH2 0x100 EXP SUB NOT AND DUP2 MSTORE PUSH1 0x20 ADD SWAP2 POP JUMPDEST POP SWAP5 POP POP POP POP POP PUSH1 0x40 MLOAD DUP1 SWAP2 SUB SWAP1 RETURN JUMPDEST CALLVALUE DUP1 ISZERO PUSH2 0x178 JUMPI PUSH1 0x0 DUP1 REVERT JUMPDEST POP PUSH2 0x1D3 PUSH1 0x4 DUP1 CALLDATASIZE SUB DUP2 ADD SWAP1 DUP1 DUP1 CALLDATALOAD SWAP1 PUSH1 0x20 ADD SWAP1 DUP3 ADD DUP1 CALLDATALOAD SWAP1 PUSH1 0x20 ADD SWAP1 DUP1 DUP1 PUSH1 0x1F ADD PUSH1 0x20 DUP1 SWAP2 DIV MUL PUSH1 0x20 ADD PUSH1 0x40 MLOAD SWAP1 DUP2 ADD PUSH1 0x40 MSTORE DUP1 SWAP4 SWAP3 SWAP2 SWAP1 DUP2 DUP2 MSTORE PUSH1 0x20 ADD DUP4 DUP4 DUP1 DUP3 DUP5 CALLDATACOPY DUP3 ADD SWAP2 POP POP POP POP POP POP SWAP2 SWAP3 SWAP2 SWAP3 SWAP1 POP POP POP PUSH2 0x561 JUMP JUMPDEST STOP JUMPDEST CALLVALUE DUP1 ISZERO PUSH2 0x1E1 JUMPI PUSH1 0x0 DUP1 REVERT JUMPDEST POP PUSH2 0x31F PUSH1 0x4 DUP1 CALLDATASIZE SUB DUP2 ADD SWAP1 DUP1 DUP1 CALLDATALOAD SWAP1 PUSH1 0x20 ADD SWAP1 DUP3 ADD DUP1 CALLDATALOAD SWAP1 PUSH1 0x20 ADD SWAP1 DUP1 DUP1 PUSH1 0x20 MUL PUSH1 0x20 ADD PUSH1 0x40 MLOAD SWAP1 DUP2 ADD PUSH1 0x40 MSTORE DUP1 SWAP4 SWAP3 SWAP2 SWAP1 DUP2 DUP2 MSTORE PUSH1 0x20 ADD DUP4 DUP4 PUSH1 0x20 MUL DUP1 DUP3 DUP5 CALLDATACOPY DUP3 ADD SWAP2 POP POP POP POP POP POP SWAP2 SWAP3 SWAP2 SWAP3 SWAP1 DUP1 CALLDATALOAD SWAP1 PUSH1 0x20 ADD SWAP1 SWAP3 SWAP2 SWAP1 DUP1 CALLDATALOAD SWAP1 PUSH1 0x20 ADD SWAP1 DUP3 ADD DUP1 CALLDATALOAD SWAP1 PUSH1 0x20 ADD SWAP1 DUP1 DUP1 PUSH1 0x1F ADD PUSH1 0x20 DUP1 SWAP2 DIV MUL PUSH1 0x20 ADD PUSH1 0x40 MLOAD SWAP1 DUP2 ADD PUSH1 0x40 MSTORE DUP1 SWAP4 SWAP3 SWAP2 SWAP1 DUP2 DUP2 MSTORE PUSH1 0x20 ADD DUP4 DUP4 DUP1 DUP3 DUP5 CALLDATACOPY DUP3 ADD SWAP2 POP POP POP POP POP POP SWAP2 SWAP3 SWAP2 SWAP3 SWAP1 DUP1 CALLDATALOAD SWAP1 PUSH1 0x20 ADD SWAP1 DUP3 ADD DUP1 CALLDATALOAD SWAP1 PUSH1 0x20 ADD SWAP1 DUP1 DUP1 PUSH1 0x1F ADD PUSH1 0x20 DUP1 SWAP2 DIV MUL PUSH1 0x20 ADD PUSH1 0x40 MLOAD SWAP1 DUP2 ADD PUSH1 0x40 MSTORE DUP1 SWAP4 SWAP3 SWAP2 SWAP1 DUP2 DUP2 MSTORE PUSH1 0x20 ADD DUP4 DUP4 DUP1 DUP3 DUP5 CALLDATACOPY DUP3 ADD SWAP2 POP POP POP POP POP POP SWAP2 SWAP3 SWAP2 SWAP3 SWAP1 DUP1 CALLDATALOAD SWAP1 PUSH1 0x20 ADD SWAP1 DUP3 ADD DUP1 CALLDATALOAD SWAP1 PUSH1 0x20 ADD SWAP1 DUP1 DUP1 PUSH1 0x1F ADD PUSH1 0x20 DUP1 SWAP2 DIV MUL PUSH1 0x20 ADD PUSH1 0x40 MLOAD SWAP1 DUP2 ADD PUSH1 0x40 MSTORE DUP1 SWAP4 SWAP3 SWAP2 SWAP1 DUP2 DUP2 MSTORE PUSH1 0x20 ADD DUP4 DUP4 DUP1 DUP3 DUP5 CALLDATACOPY DUP3 ADD SWAP2 POP POP POP POP POP POP SWAP2 SWAP3 SWAP2 SWAP3 SWAP1 DUP1 CALLDATALOAD SWAP1 PUSH1 0x20 ADD SWAP1 SWAP3 SWAP2 SWAP1 POP POP POP PUSH2 0x7D5 JUMP JUMPDEST STOP JUMPDEST CALLVALUE DUP1 ISZERO PUSH2 0x32D JUMPI PUSH1 0x0 DUP1 REVERT JUMPDEST POP PUSH2 0x362 PUSH1 0x4 DUP1 CALLDATASIZE SUB DUP2 ADD SWAP1 DUP1 DUP1 CALLDATALOAD PUSH20 0xFFFFFFFFFFFFFFFFFFFFFFFFFFFFFFFFFFFFFFFF AND SWAP1 PUSH1 0x20 ADD SWAP1 SWAP3 SWAP2 SWAP1 POP POP POP PUSH2 0xB35 JUMP JUMPDEST PUSH1 0x40 MLOAD DUP1 DUP5 PUSH20 0xFFFFFFFFFFFFFFFFFFFFFFFFFFFFFFFFFFFFFFFF AND PUSH20 0xFFFFFFFFFFFFFFFFFFFFFFFFFFFFFFFFFFFFFFFF AND DUP2 MSTORE PUSH1 0x20 ADD DUP1 PUSH1 0x20 ADD DUP4 ISZERO ISZERO ISZERO ISZERO DUP2 MSTORE PUSH1 0x20 ADD DUP3 DUP2 SUB DUP3 MSTORE DUP5 DUP2 DUP2 MLOAD DUP2 MSTORE PUSH1 0x20 ADD SWAP2 POP DUP1 MLOAD SWAP1 PUSH1 0x20 ADD SWAP1 DUP1 DUP4 DUP4 PUSH1 0x0 JUMPDEST DUP4 DUP2 LT ISZERO PUSH2 0x3DE JUMPI DUP1 DUP3 ADD MLOAD DUP2 DUP5 ADD MSTORE PUSH1 0x20 DUP2 ADD SWAP1 POP PUSH2 0x3C3 JUMP JUMPDEST POP POP POP POP SWAP1 POP SWAP1 DUP2 ADD SWAP1 PUSH1 0x1F AND DUP1 ISZERO PUSH2 0x40B JUMPI DUP1 DUP3 SUB DUP1 MLOAD PUSH1 0x1 DUP4 PUSH1 0x20 SUB PUSH2 0x100 EXP SUB NOT AND DUP2 MSTORE PUSH1 0x20 ADD SWAP2 POP JUMPDEST POP SWAP5 POP POP POP POP POP PUSH1 0x40 MLOAD DUP1 SWAP2 SUB SWAP1 RETURN JUMPDEST CALLVALUE DUP1 ISZERO PUSH2 0x427 JUMPI PUSH1 0x0 DUP1 REVERT JUMPDEST POP PUSH2 0x430 PUSH2 0xD24 JUMP JUMPDEST PUSH1 0x40 MLOAD DUP1 DUP3 PUSH20 0xFFFFFFFFFFFFFFFFFFFFFFFFFFFFFFFFFFFFFFFF AND PUSH20 0xFFFFFFFFFFFFFFFFFFFFFFFFFFFFFFFFFFFFFFFF AND DUP2 MSTORE PUSH1 0x20 ADD SWAP2 POP POP PUSH1 0x40 MLOAD DUP1 SWAP2 SUB SWAP1 RETURN JUMPDEST PUSH1 0x0 PUSH1 0x20 MSTORE DUP1 PUSH1 0x0 MSTORE PUSH1 0x40 PUSH1 0x0 KECCAK256 PUSH1 0x0 SWAP2 POP SWAP1 POP DUP1 PUSH1 0x0 ADD PUSH1 0x0 SWAP1 SLOAD SWAP1 PUSH2 0x100 EXP SWAP1 DIV PUSH20 0xFFFFFFFFFFFFFFFFFFFFFFFFFFFFFFFFFFFFFFFF AND SWAP1 DUP1 PUSH1 0x1 ADD DUP1 SLOAD PUSH1 0x1 DUP2 PUSH1 0x1 AND ISZERO PUSH2 0x100 MUL SUB AND PUSH1 0x2 SWAP1 DIV DUP1 PUSH1 0x1F ADD PUSH1 0x20 DUP1 SWAP2 DIV MUL PUSH1 0x20 ADD PUSH1 0x40 MLOAD SWAP1 DUP2 ADD PUSH1 0x40 MSTORE DUP1 SWAP3 SWAP2 SWAP1 DUP2 DUP2 MSTORE PUSH1 0x20 ADD DUP3 DUP1 SLOAD PUSH1 0x1 DUP2 PUSH1 0x1 AND ISZERO PUSH2 0x100 MUL SUB AND PUSH1 0x2 SWAP1 DIV DUP1 ISZERO PUSH2 0x544 JUMPI DUP1 PUSH1 0x1F LT PUSH2 0x519 JUMPI PUSH2 0x100 DUP1 DUP4 SLOAD DIV MUL DUP4 MSTORE SWAP2 PUSH1 0x20 ADD SWAP2 PUSH2 0x544 JUMP JUMPDEST DUP3 ADD SWAP2 SWAP1 PUSH1 0x0 MSTORE PUSH1 0x20 PUSH1 0x0 KECCAK256 SWAP1 JUMPDEST DUP2 SLOAD DUP2 MSTORE SWAP1 PUSH1 0x1 ADD SWAP1 PUSH1 0x20 ADD DUP1 DUP4 GT PUSH2 0x527 JUMPI DUP3 SWAP1 SUB PUSH1 0x1F AND DUP3 ADD SWAP2 JUMPDEST POP POP POP POP POP SWAP1 DUP1 PUSH1 0x2 ADD PUSH1 0x0 SWAP1 SLOAD SWAP1 PUSH2 0x100 EXP SWAP1 DIV PUSH1 0xFF AND SWAP1 POP DUP4 JUMP JUMPDEST PUSH1 0x0 DUP1 CALLER PUSH20 0xFFFFFFFFFFFFFFFFFFFFFFFFFFFFFFFFFFFFFFFF AND PUSH20 0xFFFFFFFFFFFFFFFFFFFFFFFFFFFFFFFFFFFFFFFF AND DUP2 MSTORE PUSH1 0x20 ADD SWAP1 DUP2 MSTORE PUSH1 0x20 ADD PUSH1 0x0 KECCAK256 PUSH1 0x2 ADD PUSH1 0x0 SWAP1 SLOAD SWAP1 PUSH2 0x100 EXP SWAP1 DIV PUSH1 0xFF AND ISZERO ISZERO ISZERO PUSH2 0x625 JUMPI PUSH1 0x40 MLOAD PUSH32 0x8C379A000000000000000000000000000000000000000000000000000000000 DUP2 MSTORE PUSH1 0x4 ADD DUP1 DUP1 PUSH1 0x20 ADD DUP3 DUP2 SUB DUP3 MSTORE PUSH1 0x19 DUP2 MSTORE PUSH1 0x20 ADD DUP1 PUSH32 0x576F726B657220616C7265616479207265676973746572656400000000000000 DUP2 MSTORE POP PUSH1 0x20 ADD SWAP2 POP POP PUSH1 0x40 MLOAD DUP1 SWAP2 SUB SWAP1 REVERT JUMPDEST PUSH1 0x60 PUSH1 0x40 MLOAD SWAP1 DUP2 ADD PUSH1 0x40 MSTORE DUP1 CALLER PUSH20 0xFFFFFFFFFFFFFFFFFFFFFFFFFFFFFFFFFFFFFFFF AND DUP2 MSTORE PUSH1 0x20 ADD DUP3 DUP2 MSTORE PUSH1 0x20 ADD PUSH1 0x1 ISZERO ISZERO DUP2 MSTORE POP PUSH1 0x0 DUP1 CALLER PUSH20 0xFFFFFFFFFFFFFFFFFFFFFFFFFFFFFFFFFFFFFFFF AND PUSH20 0xFFFFFFFFFFFFFFFFFFFFFFFFFFFFFFFFFFFFFFFF AND DUP2 MSTORE PUSH1 0x20 ADD SWAP1 DUP2 MSTORE PUSH1 0x20 ADD PUSH1 0x0 KECCAK256 PUSH1 0x0 DUP3 ADD MLOAD DUP2 PUSH1 0x0 ADD PUSH1 0x0 PUSH2 0x100 EXP DUP2 SLOAD DUP2 PUSH20 0xFFFFFFFFFFFFFFFFFFFFFFFFFFFFFFFFFFFFFFFF MUL NOT AND SWAP1 DUP4 PUSH20 0xFFFFFFFFFFFFFFFFFFFFFFFFFFFFFFFFFFFFFFFF AND MUL OR SWAP1 SSTORE POP PUSH1 0x20 DUP3 ADD MLOAD DUP2 PUSH1 0x1 ADD SWAP1 DUP1 MLOAD SWAP1 PUSH1 0x20 ADD SWAP1 PUSH2 0x6FB SWAP3 SWAP2 SWAP1 PUSH2 0xD4A JUMP JUMPDEST POP PUSH1 0x40 DUP3 ADD MLOAD DUP2 PUSH1 0x2 ADD PUSH1 0x0 PUSH2 0x100 EXP DUP2 SLOAD DUP2 PUSH1 0xFF MUL NOT AND SWAP1 DUP4 ISZERO ISZERO MUL OR SWAP1 SSTORE POP SWAP1 POP POP CALLER PUSH20 0xFFFFFFFFFFFFFFFFFFFFFFFFFFFFFFFFFFFFFFFF AND PUSH32 0xB2BC7D962E634836B6F2383EE5F842B8829C7771D414C3F8862C577F4730A3E8 DUP3 PUSH1 0x40 MLOAD DUP1 DUP1 PUSH1 0x20 ADD DUP3 DUP2 SUB DUP3 MSTORE DUP4 DUP2 DUP2 MLOAD DUP2 MSTORE PUSH1 0x20 ADD SWAP2 POP DUP1 MLOAD SWAP1 PUSH1 0x20 ADD SWAP1 DUP1 DUP4 DUP4 PUSH1 0x0 JUMPDEST DUP4 DUP2 LT ISZERO PUSH2 0x798 JUMPI DUP1 DUP3 ADD MLOAD DUP2 DUP5 ADD MSTORE PUSH1 0x20 DUP2 ADD SWAP1 POP PUSH2 0x77D JUMP JUMPDEST POP POP POP POP SWAP1 POP SWAP1 DUP2 ADD SWAP1 PUSH1 0x1F AND DUP1 ISZERO PUSH2 0x7C5 JUMPI DUP1 DUP3 SUB DUP1 MLOAD PUSH1 0x1 DUP4 PUSH1 0x20 SUB PUSH2 0x100 EXP SUB NOT AND DUP2 MSTORE PUSH1 0x20 ADD SWAP2 POP JUMPDEST POP SWAP3 POP POP POP PUSH1 0x40 MLOAD DUP1 SWAP2 SUB SWAP1 LOG2 POP JUMP JUMPDEST PUSH1 0x0 DUP1 CALLER PUSH20 0xFFFFFFFFFFFFFFFFFFFFFFFFFFFFFFFFFFFFFFFF AND PUSH20 0xFFFFFFFFFFFFFFFFFFFFFFFFFFFFFFFFFFFFFFFF AND DUP2 MSTORE PUSH1 0x20 ADD SWAP1 DUP2 MSTORE PUSH1 0x20 ADD PUSH1 0x0 KECCAK256 PUSH1 0x2 ADD PUSH1 0x0 SWAP1 SLOAD SWAP1 PUSH2 0x100 EXP SWAP1 DIV PUSH1 0xFF AND ISZERO ISZERO PUSH2 0x8BE JUMPI PUSH1 0x40 MLOAD PUSH32 0x8C379A000000000000000000000000000000000000000000000000000000000 DUP2 MSTORE PUSH1 0x4 ADD DUP1 DUP1 PUSH1 0x20 ADD DUP3 DUP2 SUB DUP3 MSTORE PUSH1 0x27 DUP2 MSTORE PUSH1 0x20 ADD DUP1 PUSH32 0x4F6E6C79207265676973746572656420776F726B6572732063616E2063726561 DUP2 MSTORE PUSH1 0x20 ADD PUSH32 0x7465206A6F627300000000000000000000000000000000000000000000000000 DUP2 MSTORE POP PUSH1 0x40 ADD SWAP2 POP POP PUSH1 0x40 MLOAD DUP1 SWAP2 SUB SWAP1 REVERT JUMPDEST PUSH1 0x1 PUSH1 0x0 SWAP1 SLOAD SWAP1 PUSH2 0x100 EXP SWAP1 DIV PUSH20 0xFFFFFFFFFFFFFFFFFFFFFFFFFFFFFFFFFFFFFFFF AND PUSH20 0xFFFFFFFFFFFFFFFFFFFFFFFFFFFFFFFFFFFFFFFF AND PUSH4 0x3CF23609 DUP8 DUP8 DUP8 DUP8 DUP8 DUP8 PUSH1 0x40 MLOAD DUP8 PUSH4 0xFFFFFFFF AND PUSH29 0x100000000000000000000000000000000000000000000000000000000 MUL DUP2 MSTORE PUSH1 0x4 ADD DUP1 DUP1 PUSH1 0x20 ADD DUP8 DUP2 MSTORE PUSH1 0x20 ADD DUP1 PUSH1 0x20 ADD DUP1 PUSH1 0x20 ADD DUP1 PUSH1 0x20 ADD DUP7 DUP2 MSTORE PUSH1 0x20 ADD DUP6 DUP2 SUB DUP6 MSTORE DUP12 DUP2 DUP2 MLOAD DUP2 MSTORE PUSH1 0x20 ADD SWAP2 POP DUP1 MLOAD SWAP1 PUSH1 0x20 ADD SWAP1 PUSH1 0x20 MUL DUP1 DUP4 DUP4 PUSH1 0x0 JUMPDEST DUP4 DUP2 LT ISZERO PUSH2 0x988 JUMPI DUP1 DUP3 ADD MLOAD DUP2 DUP5 ADD MSTORE PUSH1 0x20 DUP2 ADD SWAP1 POP PUSH2 0x96D JUMP JUMPDEST POP POP POP POP SWAP1 POP ADD DUP6 DUP2 SUB DUP5 MSTORE DUP10 DUP2 DUP2 MLOAD DUP2 MSTORE PUSH1 0x20 ADD SWAP2 POP DUP1 MLOAD SWAP1 PUSH1 0x20 ADD SWAP1 DUP1 DUP4 DUP4 PUSH1 0x0 JUMPDEST DUP4 DUP2 LT ISZERO PUSH2 0x9C7 JUMPI DUP1 DUP3 ADD MLOAD DUP2 DUP5 ADD MSTORE PUSH1 0x20 DUP2 ADD SWAP1 POP PUSH2 0x9AC JUMP JUMPDEST POP POP POP POP SWAP1 POP SWAP1 DUP2 ADD SWAP1 PUSH1 0x1F AND DUP1 ISZERO PUSH2 0x9F4 JUMPI DUP1 DUP3 SUB DUP1 MLOAD PUSH1 0x1 DUP4 PUSH1 0x20 SUB PUSH2 0x100 EXP SUB NOT AND DUP2 MSTORE PUSH1 0x20 ADD SWAP2 POP JUMPDEST POP DUP6 DUP2 SUB DUP4 MSTORE DUP9 DUP2 DUP2 MLOAD DUP2 MSTORE PUSH1 0x20 ADD SWAP2 POP DUP1 MLOAD SWAP1 PUSH1 0x20 ADD SWAP1 DUP1 DUP4 DUP4 PUSH1 0x0 JUMPDEST DUP4 DUP2 LT ISZERO PUSH2 0xA2D JUMPI DUP1 DUP3 ADD MLOAD DUP2 DUP5 ADD MSTORE PUSH1 0x20 DUP2 ADD SWAP1 POP PUSH2 0xA12 JUMP JUMPDEST POP POP POP POP SWAP1 POP SWAP1 DUP2 ADD SWAP1 PUSH1 0x1F AND DUP1 ISZERO PUSH2 0xA5A JUMPI DUP1 DUP3 SUB DUP1 MLOAD PUSH1 0x1 DUP4 PUSH1 0x20 SUB PUSH2 0x100 EXP SUB NOT AND DUP2 MSTORE PUSH1 0x20 ADD SWAP2 POP JUMPDEST POP DUP6 DUP2 SUB DUP3 MSTORE DUP8 DUP2 DUP2 MLOAD DUP2 MSTORE PUSH1 0x20 ADD SWAP2 POP DUP1 MLOAD SWAP1 PUSH1 0x20 ADD SWAP1 DUP1 DUP4 DUP4 PUSH1 0x0 JUMPDEST DUP4 DUP2 LT ISZERO PUSH2 0xA93 JUMPI DUP1 DUP3 ADD MLOAD DUP2 DUP5 ADD MSTORE PUSH1 0x20 DUP2 ADD SWAP1 POP PUSH2 0xA78 JUMP JUMPDEST POP POP POP POP SWAP1 POP SWAP1 DUP2 ADD SWAP1 PUSH1 0x1F AND DUP1 ISZERO PUSH2 0xAC0 JUMPI DUP1 DUP3 SUB DUP1 MLOAD PUSH1 0x1 DUP4 PUSH1 0x20 SUB PUSH2 0x100 EXP SUB NOT AND DUP2 MSTORE PUSH1 0x20 ADD SWAP2 POP JUMPDEST POP SWAP11 POP POP POP POP POP POP POP POP POP POP POP PUSH1 0x40 DUP1 MLOAD DUP1 DUP4 SUB DUP2 PUSH1 0x0 DUP8 DUP1 EXTCODESIZE ISZERO DUP1 ISZERO PUSH2 0xAE6 JUMPI PUSH1 0x0 DUP1 REVERT JUMPDEST POP GAS CALL ISZERO DUP1 ISZERO PUSH2 0xAFA JUMPI RETURNDATASIZE PUSH1 0x0 DUP1 RETURNDATACOPY RETURNDATASIZE PUSH1 0x0 REVERT JUMPDEST POP POP POP POP PUSH1 0x40 MLOAD RETURNDATASIZE PUSH1 0x40 DUP2 LT ISZERO PUSH2 0xB10 JUMPI PUSH1 0x0 DUP1 REVERT JUMPDEST DUP2 ADD SWAP1 DUP1 DUP1 MLOAD SWAP1 PUSH1 0x20 ADD SWAP1 SWAP3 SWAP2 SWAP1 DUP1 MLOAD SWAP1 PUSH1 0x20 ADD SWAP1 SWAP3 SWAP2 SWAP1 POP POP POP POP POP POP POP POP POP POP POP JUMP JUMPDEST PUSH1 0x0 PUSH1 0x60 PUSH1 0x0 DUP1 PUSH1 0x0 DUP1 DUP7 PUSH20 0xFFFFFFFFFFFFFFFFFFFFFFFFFFFFFFFFFFFFFFFF AND PUSH20 0xFFFFFFFFFFFFFFFFFFFFFFFFFFFFFFFFFFFFFFFF AND DUP2 MSTORE PUSH1 0x20 ADD SWAP1 DUP2 MSTORE PUSH1 0x20 ADD PUSH1 0x0 KECCAK256 PUSH1 0x2 ADD PUSH1 0x0 SWAP1 SLOAD SWAP1 PUSH2 0x100 EXP SWAP1 DIV PUSH1 0xFF AND ISZERO ISZERO PUSH2 0xBFF JUMPI PUSH1 0x40 MLOAD PUSH32 0x8C379A000000000000000000000000000000000000000000000000000000000 DUP2 MSTORE PUSH1 0x4 ADD DUP1 DUP1 PUSH1 0x20 ADD DUP3 DUP2 SUB DUP3 MSTORE PUSH1 0x10 DUP2 MSTORE PUSH1 0x20 ADD DUP1 PUSH32 0x576F726B6572206E6F7420666F756E6400000000000000000000000000000000 DUP2 MSTORE POP PUSH1 0x20 ADD SWAP2 POP POP PUSH1 0x40 MLOAD DUP1 SWAP2 SUB SWAP1 REVERT JUMPDEST PUSH1 0x0 DUP1 DUP7 PUSH20 0xFFFFFFFFFFFFFFFFFFFFFFFFFFFFFFFFFFFFFFFF AND PUSH20 0xFFFFFFFFFFFFFFFFFFFFFFFFFFFFFFFFFFFFFFFF AND DUP2 MSTORE PUSH1 0x20 ADD SWAP1 DUP2 MSTORE PUSH1 0x20 ADD PUSH1 0x0 KECCAK256 SWAP1 POP DUP1 PUSH1 0x0 ADD PUSH1 0x0 SWAP1 SLOAD SWAP1 PUSH2 0x100 EXP SWAP1 DIV PUSH20 0xFFFFFFFFFFFFFFFFFFFFFFFFFFFFFFFFFFFFFFFF AND DUP2 PUSH1 0x1 ADD DUP3 PUSH1 0x2 ADD PUSH1 0x0 SWAP1 SLOAD SWAP1 PUSH2 0x100 EXP SWAP1 DIV PUSH1 0xFF AND DUP2 DUP1 SLOAD PUSH1 0x1 DUP2 PUSH1 0x1 AND ISZERO PUSH2 0x100 MUL SUB AND PUSH1 0x2 SWAP1 DIV DUP1 PUSH1 0x1F ADD PUSH1 0x20 DUP1 SWAP2 DIV MUL PUSH1 0x20 ADD PUSH1 0x40 MLOAD SWAP1 DUP2 ADD PUSH1 0x40 MSTORE DUP1 SWAP3 SWAP2 SWAP1 DUP2 DUP2 MSTORE PUSH1 0x20 ADD DUP3 DUP1 SLOAD PUSH1 0x1 DUP2 PUSH1 0x1 AND ISZERO PUSH2 0x100 MUL SUB AND PUSH1 0x2 SWAP1 DIV DUP1 ISZERO PUSH2 0xD0F JUMPI DUP1 PUSH1 0x1F LT PUSH2 0xCE4 JUMPI PUSH2 0x100 DUP1 DUP4 SLOAD DIV MUL DUP4 MSTORE SWAP2 PUSH1 0x20 ADD SWAP2 PUSH2 0xD0F JUMP JUMPDEST DUP3 ADD SWAP2 SWAP1 PUSH1 0x0 MSTORE PUSH1 0x20 PUSH1 0x0 KECCAK256 SWAP1 JUMPDEST DUP2 SLOAD DUP2 MSTORE SWAP1 PUSH1 0x1 ADD SWAP1 PUSH1 0x20 ADD DUP1 DUP4 GT PUSH2 0xCF2 JUMPI DUP3 SWAP1 SUB PUSH1 0x1F AND DUP3 ADD SWAP2 JUMPDEST POP POP POP POP POP SWAP2 POP SWAP4 POP SWAP4 POP SWAP4 POP POP SWAP2 SWAP4 SWAP1 SWAP3 POP JUMP JUMPDEST PUSH1 0x1 PUSH1 0x0 SWAP1 SLOAD SWAP1 PUSH2 0x100 EXP SWAP1 DIV PUSH20 0xFFFFFFFFFFFFFFFFFFFFFFFFFFFFFFFFFFFFFFFF AND DUP2 JUMP JUMPDEST DUP3 DUP1 SLOAD PUSH1 0x1 DUP2 PUSH1 0x1 AND ISZERO PUSH2 0x100 MUL SUB AND PUSH1 0x2 SWAP1 DIV SWAP1 PUSH1 0x0 MSTORE PUSH1 0x20 PUSH1 0x0 KECCAK256 SWAP1 PUSH1 0x1F ADD PUSH1 0x20 SWAP1 DIV DUP2 ADD SWAP3 DUP3 PUSH1 0x1F LT PUSH2 0xD8B JUMPI DUP1 MLOAD PUSH1 0xFF NOT AND DUP4 DUP1 ADD OR DUP6 SSTORE PUSH2 0xDB9 JUMP JUMPDEST DUP3 DUP1 ADD PUSH1 0x1 ADD DUP6 SSTORE DUP3 ISZERO PUSH2 0xDB9 JUMPI SWAP2 DUP3 ADD JUMPDEST DUP3 DUP2 GT ISZERO PUSH2 0xDB8 JUMPI DUP3 MLOAD DUP3 SSTORE SWAP2 PUSH1 0x20 ADD SWAP2 SWAP1 PUSH1 0x1 ADD SWAP1 PUSH2 0xD9D JUMP JUMPDEST JUMPDEST POP SWAP1 POP PUSH2 0xDC6 SWAP2 SWAP1 PUSH2 0xDCA JUMP JUMPDEST POP SWAP1 JUMP JUMPDEST PUSH2 0xDEC SWAP2 SWAP1 JUMPDEST DUP1 DUP3 GT ISZERO PUSH2 0xDE8 JUMPI PUSH1 0x0 DUP2 PUSH1 0x0 SWAP1 SSTORE POP PUSH1 0x1 ADD PUSH2 0xDD0 JUMP JUMPDEST POP SWAP1 JUMP JUMPDEST SWAP1 JUMP STOP LOG1 PUSH6 0x627A7A723058 KECCAK256 DUP9 PUSH7 0xC2C7EAAFD7F788 LOG3 0xf8 JUMPDEST SWAP15 ORIGIN 0x26 LOG4 0xeb 0xcd 0x4d 0x2e 0xf5 PUSH7 0x3F1C0624AEE19 PUSH25 0x69100029000000000000000000000000000000000000000000 "},"methodIdentifiers":{"allInstantiations(uint256)":"61aa5b44","applyForJob(uint256,string,string)":"23d5a795","approveTransaction()":"33b7a674","createJob(address[],uint256,string,string,string,uint256)":"3cf23609","employerJobs(address,uint256)":"fc736cde","getAllInstantiations()":"b387406d","getApplicants(uint256)":"6cf5d86e","getInstantiation(uint256)":"ac47147a","getInstantiationCount()":"d3e02c01","getJob(uint256)":"bf22c457","getWorker(address)":"c011b1c3","isInstantiation(address)":"2f4f3316","jobApplications(uint256,uint256)":"ead39a11","jobs(uint256)":"180aedf3","registerWorker(string)":"80c8f4fa","security()":"54879918","workerInfo()":"0800dee7"}}}}}