{
  "_format": "hh-sol-artifact-1",
  "contractName": "MultiSigWalletFactory",
  "sourceName": "contracts/Factory_multisig.sol",
  "abi": [
    {
      "constant": true,
      "inputs": [],
      "name": "workerInfo",
      "outputs": [
        {
          "name": "",
          "type": "address"
        }
      ],
      "payable": false,
      "stateMutability": "view",
      "type": "function"
    },
    {
      "constant": true,
      "inputs": [
        {
          "name": "",
          "type": "uint256"
        }
      ],
      "name": "jobs",
      "outputs": [
        {
          "name": "title",
          "type": "string"
        },
        {
          "name": "description",
          "type": "string"
        },
        {
          "name": "milestones",
          "type": "string"
        },
        {
          "name": "payment",
          "type": "uint256"
        },
        {
          "name": "employer",
          "type": "address"
        },
        {
          "name": "multisigWallet",
          "type": "address"
        },
        {
          "name": "isActive",
          "type": "bool"
        }
      ],
      "payable": false,
      "stateMutability": "view",
      "type": "function"
    },
    {
      "constant": false,
      "inputs": [
        {
          "name": "jobId",
          "type": "uint256"
        },
        {
          "name": "_skillset",
          "type": "string"
        },
        {
          "name": "_resume",
          "type": "string"
        }
      ],
      "name": "applyForJob",
      "outputs": [],
      "payable": false,
      "stateMutability": "nonpayable",
      "type": "function"
    },
    {
      "constant": true,
      "inputs": [
        {
          "name": "",
          "type": "address"
        }
      ],
      "name": "isInstantiation",
      "outputs": [
        {
          "name": "",
          "type": "bool"
        }
      ],
      "payable": false,
      "stateMutability": "view",
      "type": "function"
    },
    {
      "constant": false,
      "inputs": [],
      "name": "approveTransaction",
      "outputs": [],
      "payable": false,
      "stateMutability": "nonpayable",
      "type": "function"
    },
    {
      "constant": false,
      "inputs": [
        {
          "name": "_owners",
          "type": "address[]"
        },
        {
          "name": "_required",
          "type": "uint256"
        },
        {
          "name": "_title",
          "type": "string"
        },
        {
          "name": "_description",
          "type": "string"
        },
        {
          "name": "_milestones",
          "type": "string"
        },
        {
          "name": "_payment",
          "type": "uint256"
        }
      ],
      "name": "createJob",
      "outputs": [
        {
          "name": "wallet",
          "type": "address"
        },
        {
          "name": "jobId",
          "type": "uint256"
        }
      ],
      "payable": false,
      "stateMutability": "nonpayable",
      "type": "function"
    },
    {
      "constant": true,
      "inputs": [],
      "name": "security",
      "outputs": [
        {
          "name": "",
          "type": "address"
        }
      ],
      "payable": false,
      "stateMutability": "view",
      "type": "function"
    },
    {
      "constant": true,
      "inputs": [
        {
          "name": "",
          "type": "uint256"
        }
      ],
      "name": "allInstantiations",
      "outputs": [
        {
          "name": "",
          "type": "address"
        }
      ],
      "payable": false,
      "stateMutability": "view",
      "type": "function"
    },
    {
      "constant": true,
      "inputs": [
        {
          "name": "jobId",
          "type": "uint256"
        }
      ],
      "name": "getApplicants",
      "outputs": [
        {
          "components": [
            {
              "name": "applicantAddress",
              "type": "address"
            },
            {
              "name": "skillset",
              "type": "string"
            },
            {
              "name": "resume",
              "type": "string"
            },
            {
              "name": "isHired",
              "type": "bool"
            }
          ],
          "name": "",
          "type": "tuple[]"
        }
      ],
      "payable": false,
      "stateMutability": "view",
      "type": "function"
    },
    {
      "constant": false,
      "inputs": [
        {
          "name": "_skillset",
          "type": "string"
        }
      ],
      "name": "registerWorker",
      "outputs": [],
      "payable": false,
      "stateMutability": "nonpayable",
      "type": "function"
    },
    {
      "constant": true,
      "inputs": [
        {
          "name": "index",
          "type": "uint256"
        }
      ],
      "name": "getInstantiation",
      "outputs": [
        {
          "name": "",
          "type": "address"
        }
      ],
      "payable": false,
      "stateMutability": "view",
      "type": "function"
    },
    {
      "constant": true,
      "inputs": [],
      "name": "getAllInstantiations",
      "outputs": [
        {
          "name": "",
          "type": "address[]"
        }
      ],
      "payable": false,
      "stateMutability": "view",
      "type": "function"
    },
    {
      "constant": true,
      "inputs": [
        {
          "name": "jobId",
          "type": "uint256"
        }
      ],
      "name": "getJob",
      "outputs": [
        {
          "components": [
            {
              "name": "title",
              "type": "string"
            },
            {
              "name": "description",
              "type": "string"
            },
            {
              "name": "milestones",
              "type": "string"
            },
            {
              "name": "payment",
              "type": "uint256"
            },
            {
              "name": "employer",
              "type": "address"
            },
            {
              "name": "multisigWallet",
              "type": "address"
            },
            {
              "name": "isActive",
              "type": "bool"
            }
          ],
          "name": "",
          "type": "tuple"
        }
      ],
      "payable": false,
      "stateMutability": "view",
      "type": "function"
    },
    {
      "constant": true,
      "inputs": [
        {
          "name": "_workerAddress",
          "type": "address"
        }
      ],
      "name": "getWorker",
      "outputs": [
        {
          "name": "",
          "type": "address"
        },
        {
          "name": "",
          "type": "string"
        },
        {
          "name": "",
          "type": "bool"
        }
      ],
      "payable": false,
      "stateMutability": "view",
      "type": "function"
    },
    {
      "constant": true,
      "inputs": [],
      "name": "getInstantiationCount",
      "outputs": [
        {
          "name": "",
          "type": "uint256"
        }
      ],
      "payable": false,
      "stateMutability": "view",
      "type": "function"
    },
    {
      "constant": true,
      "inputs": [
        {
          "name": "",
          "type": "uint256"
        },
        {
          "name": "",
          "type": "uint256"
        }
      ],
      "name": "jobApplications",
      "outputs": [
        {
          "name": "applicantAddress",
          "type": "address"
        },
        {
          "name": "skillset",
          "type": "string"
        },
        {
          "name": "resume",
          "type": "string"
        },
        {
          "name": "isHired",
          "type": "bool"
        }
      ],
      "payable": false,
      "stateMutability": "view",
      "type": "function"
    },
    {
      "constant": true,
      "inputs": [
        {
          "name": "",
          "type": "address"
        },
        {
          "name": "",
          "type": "uint256"
        }
      ],
      "name": "employerJobs",
      "outputs": [
        {
          "name": "",
          "type": "uint256"
        }
      ],
      "payable": false,
      "stateMutability": "view",
      "type": "function"
    },
    {
      "inputs": [
        {
          "name": "_securityContract",
          "type": "address"
        }
      ],
      "payable": false,
      "stateMutability": "nonpayable",
      "type": "constructor"
    },
    {
      "anonymous": false,
      "inputs": [
        {
          "indexed": true,
          "name": "jobId",
          "type": "uint256"
        },
        {
          "indexed": true,
          "name": "employer",
          "type": "address"
        },
        {
          "indexed": false,
          "name": "multisigWallet",
          "type": "address"
        },
        {
          "indexed": false,
          "name": "title",
          "type": "string"
        }
      ],
      "name": "JobCreated",
      "type": "event"
    },
    {
      "anonymous": false,
      "inputs": [
        {
          "indexed": true,
          "name": "jobId",
          "type": "uint256"
        },
        {
          "indexed": true,
          "name": "applicant",
          "type": "address"
        },
        {
          "indexed": false,
          "name": "skillset",
          "type": "string"
        },
        {
          "indexed": false,
          "name": "resume",
          "type": "string"
        }
      ],
      "name": "AppliedForJob",
      "type": "event"
    },
    {
      "anonymous": false,
      "inputs": [
        {
          "indexed": false,
          "name": "sender",
          "type": "address"
        },
        {
          "indexed": false,
          "name": "instantiation",
          "type": "address"
        }
      ],
      "name": "ContractInstantiation",
      "type": "event"
    }
  ],
  "bytecode": "0x60806040523480156200001157600080fd5b5060405160208062008055833981018060405262000033919081019062000118565b80806000806101000a81548173ffffffffffffffffffffffffffffffffffffffff021916908373ffffffffffffffffffffffffffffffffffffffff160217905550503062000080620000f1565b6200008c919062000155565b604051809103906000f080158015620000a9573d6000803e3d6000fd5b50600460006101000a81548173ffffffffffffffffffffffffffffffffffffffff021916908373ffffffffffffffffffffffffffffffffffffffff16021790555050620001b2565b604051610e9f80620071b683390190565b600062000110825162000192565b905092915050565b6000602082840312156200012b57600080fd5b60006200013b8482850162000102565b91505092915050565b6200014f8162000172565b82525050565b60006020820190506200016c600083018462000144565b92915050565b600073ffffffffffffffffffffffffffffffffffffffff82169050919050565b600073ffffffffffffffffffffffffffffffffffffffff82169050919050565b616ff480620001c26000396000f30060806040526004361062000103576000357c0100000000000000000000000000000000000000000000000000000000900463ffffffff1680630800dee71462000108578063180aedf3146200013857806323d5a79514620001825780632f4f331614620001b057806333b7a67414620001f45780633cf23609146200020e57806354879918146200025357806361aa5b4414620002835780636cf5d86e14620002c757806380c8f4fa146200030b578063ac47147a1462000339578063b387406d146200037d578063bf22c45714620003ad578063c011b1c314620003f1578063d3e02c011462000437578063ead39a111462000467578063fc736cde14620004ae575b600080fd5b3480156200011557600080fd5b5062000120620004f2565b6040516200012f91906200252d565b60405180910390f35b3480156200014557600080fd5b506200016460048036036200015e919081019062001e88565b62000518565b604051620001799796959493929190620025a9565b60405180910390f35b3480156200018f57600080fd5b50620001ae6004803603620001a8919081019062001eb4565b6200078b565b005b348015620001bd57600080fd5b50620001dc6004803603620001d6919081019062001c41565b6200095e565b604051620001eb9190620024f3565b60405180910390f35b3480156200020157600080fd5b506200020c6200097e565b005b3480156200021b57600080fd5b506200023a600480360362000234919081019062001d1d565b62000a93565b6040516200024a9291906200244a565b60405180910390f35b3480156200026057600080fd5b506200026b62000d62565b6040516200027a919062002510565b60405180910390f35b3480156200029057600080fd5b50620002af6004803603620002a9919081019062001e88565b62000d88565b604051620002be91906200232d565b60405180910390f35b348015620002d457600080fd5b50620002f36004803603620002ed919081019062001e88565b62000dc7565b604051620003029190620024cf565b60405180910390f35b3480156200031857600080fd5b5062000337600480360362000331919081019062001e43565b62001045565b005b3480156200034657600080fd5b506200036560048036036200035f919081019062001e88565b620010f5565b6040516200037491906200232d565b60405180910390f35b3480156200038a57600080fd5b506200039562001185565b604051620003a4919062002477565b60405180910390f35b348015620003ba57600080fd5b50620003d96004803603620003d3919081019062001e88565b62001215565b604051620003e89190620026c3565b60405180910390f35b348015620003fe57600080fd5b506200041d600480360362000417919081019062001c41565b6200155f565b6040516200042e93929190620023ab565b60405180910390f35b3480156200044457600080fd5b506200044f62001646565b6040516200045e9190620026e7565b60405180910390f35b3480156200047457600080fd5b506200049360048036036200048d919081019062001f3c565b62001653565b604051620004a59493929190620023ef565b60405180910390f35b348015620004bb57600080fd5b50620004da6004803603620004d4919081019062001cdc565b62001805565b604051620004e99190620026e7565b60405180910390f35b600460009054906101000a900473ffffffffffffffffffffffffffffffffffffffff1681565b6005818154811015156200052857fe5b9060005260206000209060060201600091509050806000018054600181600116156101000203166002900480601f016020809104026020016040519081016040528092919081815260200182805460018160011615610100020316600290048015620005d85780601f10620005ac57610100808354040283529160200191620005d8565b820191906000526020600020905b815481529060010190602001808311620005ba57829003601f168201915b505050505090806001018054600181600116156101000203166002900480601f0160208091040260200160405190810160405280929190818152602001828054600181600116156101000203166002900480156200067a5780601f106200064e576101008083540402835291602001916200067a565b820191906000526020600020905b8154815290600101906020018083116200065c57829003601f168201915b505050505090806002018054600181600116156101000203166002900480601f0160208091040260200160405190810160405280929190818152602001828054600181600116156101000203166002900480156200071c5780601f10620006f0576101008083540402835291602001916200071c565b820191906000526020600020905b815481529060010190602001808311620006fe57829003601f168201915b5050505050908060030154908060040160009054906101000a900473ffffffffffffffffffffffffffffffffffffffff16908060050160009054906101000a900473ffffffffffffffffffffffffffffffffffffffff16908060050160149054906101000a900460ff16905087565b6200079562001931565b60058054905084101515620007e1576040517f08c379a0000000000000000000000000000000000000000000000000000000008152600401620007d8906200263b565b60405180910390fd5b6080604051908101604052803373ffffffffffffffffffffffffffffffffffffffff16815260200184815260200183815260200160001515815250905060076000858152602001908152602001600020819080600181540180825580915050906001820390600052602060002090600402016000909192909190915060008201518160000160006101000a81548173ffffffffffffffffffffffffffffffffffffffff021916908373ffffffffffffffffffffffffffffffffffffffff1602179055506020820151816001019080519060200190620008c292919062001972565b506040820151816002019080519060200190620008e192919062001972565b5060608201518160030160006101000a81548160ff0219169083151502179055505050503373ffffffffffffffffffffffffffffffffffffffff16847f26e7ad599a4714f10e3f9c1984037509e38bb55237a72f48e7affaa058230ab78585604051620009509291906200256e565b60405180910390a350505050565b60016020528060005260406000206000915054906101000a900460ff1681565b600360009054906101000a900473ffffffffffffffffffffffffffffffffffffffff1673ffffffffffffffffffffffffffffffffffffffff1663fe9fbb80336040518263ffffffff167c0100000000000000000000000000000000000000000000000000000000028152600401620009f791906200232d565b602060405180830381600087803b15801562000a1257600080fd5b505af115801562000a27573d6000803e3d6000fd5b505050506040513d601f19601f8201168201806040525062000a4d919081019062001e17565b151562000a91576040517f08c379a000000000000000000000000000000000000000000000000000000000815260040162000a88906200267f565b60405180910390fd5b565b60008062000aa0620019f9565b888862000aac62001a65565b62000ab99291906200249b565b604051809103906000f08015801562000ad6573d6000803e3d6000fd5b50925062000ae48362001836565b60e0604051908101604052808881526020018781526020018681526020018581526020013373ffffffffffffffffffffffffffffffffffffffff1681526020018473ffffffffffffffffffffffffffffffffffffffff16815260200160011515815250905060058190806001815401808255809150509060018203906000526020600020906006020160009091929091909150600082015181600001908051906020019062000b9592919062001972565b50602082015181600101908051906020019062000bb492919062001972565b50604082015181600201908051906020019062000bd392919062001972565b506060820151816003015560808201518160040160006101000a81548173ffffffffffffffffffffffffffffffffffffffff021916908373ffffffffffffffffffffffffffffffffffffffff16021790555060a08201518160050160006101000a81548173ffffffffffffffffffffffffffffffffffffffff021916908373ffffffffffffffffffffffffffffffffffffffff16021790555060c08201518160050160146101000a81548160ff0219169083151502179055505050506001600580549050039150600660003373ffffffffffffffffffffffffffffffffffffffff1673ffffffffffffffffffffffffffffffffffffffff1681526020019081526020016000208290806001815401808255809150509060018203906000526020600020016000909192909190915055503373ffffffffffffffffffffffffffffffffffffffff16827f80db542af6c20f3e65ef1491b0e21348d7e0886188a155c44e2fb98be44c232b858a60405162000d4e92919062002377565b60405180910390a350965096945050505050565b600360009054906101000a900473ffffffffffffffffffffffffffffffffffffffff1681565b60028181548110151562000d9857fe5b906000526020600020016000915054906101000a900473ffffffffffffffffffffffffffffffffffffffff1681565b60606005805490508210151562000e15576040517f08c379a000000000000000000000000000000000000000000000000000000000815260040162000e0c906200263b565b60405180910390fd5b60076000838152602001908152602001600020805480602002602001604051908101604052809291908181526020016000905b828210156200103a5783829060005260206000209060040201608060405190810160405290816000820160009054906101000a900473ffffffffffffffffffffffffffffffffffffffff1673ffffffffffffffffffffffffffffffffffffffff1673ffffffffffffffffffffffffffffffffffffffff168152602001600182018054600181600116156101000203166002900480601f01602080910402602001604051908101604052809291908181526020018280546001816001161561010002031660029004801562000f605780601f1062000f345761010080835404028352916020019162000f60565b820191906000526020600020905b81548152906001019060200180831162000f4257829003601f168201915b50505050508152602001600282018054600181600116156101000203166002900480601f016020809104026020016040519081016040528092919081815260200182805460018160011615610100020316600290048015620010065780601f1062000fda5761010080835404028352916020019162001006565b820191906000526020600020905b81548152906001019060200180831162000fe857829003601f168201915b505050505081526020016003820160009054906101000a900460ff1615151515815250508152602001906001019062000e48565b505050509050919050565b600460009054906101000a900473ffffffffffffffffffffffffffffffffffffffff1673ffffffffffffffffffffffffffffffffffffffff166380c8f4fa826040518263ffffffff167c0100000000000000000000000000000000000000000000000000000000028152600401620010be91906200254a565b600060405180830381600087803b158015620010d957600080fd5b505af1158015620010ee573d6000803e3d6000fd5b5050505050565b60006002805490508210151562001143576040517f08c379a00000000000000000000000000000000000000000000000000000000081526004016200113a906200265d565b60405180910390fd5b6002828154811015156200115357fe5b9060005260206000200160009054906101000a900473ffffffffffffffffffffffffffffffffffffffff169050919050565b606060028054806020026020016040519081016040528092919081815260200182805480156200120b57602002820191906000526020600020905b8160009054906101000a900473ffffffffffffffffffffffffffffffffffffffff1673ffffffffffffffffffffffffffffffffffffffff1681526020019060010190808311620011c0575b5050505050905090565b6200121f620019f9565b600580549050821015156200126b576040517f08c379a00000000000000000000000000000000000000000000000000000000081526004016200126290620026a1565b60405180910390fd5b6005828154811015156200127b57fe5b906000526020600020906006020160e06040519081016040529081600082018054600181600116156101000203166002900480601f016020809104026020016040519081016040528092919081815260200182805460018160011615610100020316600290048015620013325780601f10620013065761010080835404028352916020019162001332565b820191906000526020600020905b8154815290600101906020018083116200131457829003601f168201915b50505050508152602001600182018054600181600116156101000203166002900480601f016020809104026020016040519081016040528092919081815260200182805460018160011615610100020316600290048015620013d85780601f10620013ac57610100808354040283529160200191620013d8565b820191906000526020600020905b815481529060010190602001808311620013ba57829003601f168201915b50505050508152602001600282018054600181600116156101000203166002900480601f0160208091040260200160405190810160405280929190818152602001828054600181600116156101000203166002900480156200147e5780601f1062001452576101008083540402835291602001916200147e565b820191906000526020600020905b8154815290600101906020018083116200146057829003601f168201915b50505050508152602001600382015481526020016004820160009054906101000a900473ffffffffffffffffffffffffffffffffffffffff1673ffffffffffffffffffffffffffffffffffffffff1673ffffffffffffffffffffffffffffffffffffffff1681526020016005820160009054906101000a900473ffffffffffffffffffffffffffffffffffffffff1673ffffffffffffffffffffffffffffffffffffffff1673ffffffffffffffffffffffffffffffffffffffff1681526020016005820160149054906101000a900460ff1615151515815250509050919050565b600060606000600460009054906101000a900473ffffffffffffffffffffffffffffffffffffffff1673ffffffffffffffffffffffffffffffffffffffff1663c011b1c3856040518263ffffffff167c0100000000000000000000000000000000000000000000000000000000028152600401620015de91906200232d565b600060405180830381600087803b158015620015f957600080fd5b505af11580156200160e573d6000803e3d6000fd5b505050506040513d6000823e3d601f19601f8201168201806040525062001639919081019062001c6d565b9250925092509193909250565b6000600280549050905090565b6007602052816000526040600020818154811015156200166f57fe5b9060005260206000209060040201600091509150508060000160009054906101000a900473ffffffffffffffffffffffffffffffffffffffff1690806001018054600181600116156101000203166002900480601f016020809104026020016040519081016040528092919081815260200182805460018160011615610100020316600290048015620017465780601f106200171a5761010080835404028352916020019162001746565b820191906000526020600020905b8154815290600101906020018083116200172857829003601f168201915b505050505090806002018054600181600116156101000203166002900480601f016020809104026020016040519081016040528092919081815260200182805460018160011615610100020316600290048015620017e85780601f10620017bc57610100808354040283529160200191620017e8565b820191906000526020600020905b815481529060010190602001808311620017ca57829003601f168201915b5050505050908060030160009054906101000a900460ff16905084565b6006602052816000526040600020818154811015156200182157fe5b90600052602060002001600091509150505481565b60018060008373ffffffffffffffffffffffffffffffffffffffff1673ffffffffffffffffffffffffffffffffffffffff16815260200190815260200160002060006101000a81548160ff02191690831515021790555060028190806001815401808255809150509060018203906000526020600020016000909192909190916101000a81548173ffffffffffffffffffffffffffffffffffffffff021916908373ffffffffffffffffffffffffffffffffffffffff160217905550507f4fb057ad4a26ed17a57957fa69c306f11987596069b89521c511fc9a894e61613382604051620019269291906200234a565b60405180910390a150565b608060405190810160405280600073ffffffffffffffffffffffffffffffffffffffff16815260200160608152602001606081526020016000151581525090565b828054600181600116156101000203166002900490600052602060002090601f016020900481019282601f10620019b557805160ff1916838001178555620019e6565b82800160010185558215620019e6579182015b82811115620019e5578251825591602001919060010190620019c8565b5b509050620019f5919062001a76565b5090565b60e06040519081016040528060608152602001606081526020016060815260200160008152602001600073ffffffffffffffffffffffffffffffffffffffff168152602001600073ffffffffffffffffffffffffffffffffffffffff1681526020016000151581525090565b6040516146e880620028d383390190565b62001a9b91905b8082111562001a9757600081600090555060010162001a7d565b5090565b90565b600062001aac82356200281e565b905092915050565b600062001ac282516200281e565b905092915050565b600082601f830112151562001ade57600080fd5b813562001af562001aef8262002732565b62002704565b9150818183526020840193506020810190508385602084028201111562001b1b57600080fd5b60005b8381101562001b4f578162001b34888262001a9e565b84526020840193506020830192505060018101905062001b1e565b5050505092915050565b600062001b6782516200283e565b905092915050565b600082601f830112151562001b8357600080fd5b813562001b9a62001b94826200275b565b62002704565b9150808252602083016020830185838301111562001bb757600080fd5b62001bc48382846200287c565b50505092915050565b600082601f830112151562001be157600080fd5b815162001bf862001bf2826200275b565b62002704565b9150808252602083016020830185838301111562001c1557600080fd5b62001c228382846200288b565b50505092915050565b600062001c3982356200284a565b905092915050565b60006020828403121562001c5457600080fd5b600062001c648482850162001a9e565b91505092915050565b60008060006060848603121562001c8357600080fd5b600062001c938682870162001ab4565b935050602084015167ffffffffffffffff81111562001cb157600080fd5b62001cbf8682870162001bcd565b925050604062001cd28682870162001b59565b9150509250925092565b6000806040838503121562001cf057600080fd5b600062001d008582860162001a9e565b925050602062001d138582860162001c2b565b9150509250929050565b60008060008060008060c0878903121562001d3757600080fd5b600087013567ffffffffffffffff81111562001d5257600080fd5b62001d6089828a0162001aca565b965050602062001d7389828a0162001c2b565b955050604087013567ffffffffffffffff81111562001d9157600080fd5b62001d9f89828a0162001b6f565b945050606087013567ffffffffffffffff81111562001dbd57600080fd5b62001dcb89828a0162001b6f565b935050608087013567ffffffffffffffff81111562001de957600080fd5b62001df789828a0162001b6f565b92505060a062001e0a89828a0162001c2b565b9150509295509295509295565b60006020828403121562001e2a57600080fd5b600062001e3a8482850162001b59565b91505092915050565b60006020828403121562001e5657600080fd5b600082013567ffffffffffffffff81111562001e7157600080fd5b62001e7f8482850162001b6f565b91505092915050565b60006020828403121562001e9b57600080fd5b600062001eab8482850162001c2b565b91505092915050565b60008060006060848603121562001eca57600080fd5b600062001eda8682870162001c2b565b935050602084013567ffffffffffffffff81111562001ef857600080fd5b62001f068682870162001b6f565b925050604084013567ffffffffffffffff81111562001f2457600080fd5b62001f328682870162001b6f565b9150509250925092565b6000806040838503121562001f5057600080fd5b600062001f608582860162001c2b565b925050602062001f738582860162001c2b565b9150509250929050565b62001f8881620027e8565b82525050565b600062001f9b82620027a2565b80845260208401935062001faf8362002788565b60005b8281101562001fe75762001fc886835162001f7d565b62001fd382620027ce565b915060208601955060018101905062001fb2565b50849250505092915050565b60006200200082620027ad565b808452602084019350836020820285016200201b8562002795565b60005b848110156200205a57838303885262002039838351620021f2565b92506200204682620027db565b91506020880197506001810190506200201e565b508196508694505050505092915050565b620020768162002808565b82525050565b620020878162002854565b82525050565b620020988162002868565b82525050565b6000620020ab82620027c3565b808452620020c18160208601602086016200288b565b620020cc81620028c1565b602085010191505092915050565b6000620020e782620027b8565b808452620020fd8160208601602086016200288b565b6200210881620028c1565b602085010191505092915050565b6000601282527f4a6f6220646f6573206e6f7420657869737400000000000000000000000000006020830152604082019050919050565b6000601382527f496e646578206f7574206f6620626f756e6473000000000000000000000000006020830152604082019050919050565b6000600e82527f4e6f7420617574686f72697a65640000000000000000000000000000000000006020830152604082019050919050565b6000601382527f4a6f62204944206f7574206f662072616e6765000000000000000000000000006020830152604082019050919050565b60006080830160008301516200220c600086018262001f7d565b5060208301518482036020860152620022268282620020da565b91505060408301518482036040860152620022428282620020da565b91505060608301516200225960608601826200206b565b508091505092915050565b600060e0830160008301518482036000860152620022838282620020da565b915050602083015184820360208601526200229f8282620020da565b91505060408301518482036040860152620022bb8282620020da565b9150506060830151620022d260608601826200231c565b506080830151620022e7608086018262001f7d565b5060a0830151620022fc60a086018262001f7d565b5060c08301516200231160c08601826200206b565b508091505092915050565b620023278162002814565b82525050565b600060208201905062002344600083018462001f7d565b92915050565b600060408201905062002361600083018562001f7d565b62002370602083018462001f7d565b9392505050565b60006040820190506200238e600083018562001f7d565b8181036020830152620023a281846200209e565b90509392505050565b6000606082019050620023c2600083018662001f7d565b8181036020830152620023d681856200209e565b9050620023e760408301846200206b565b949350505050565b600060808201905062002406600083018762001f7d565b81810360208301526200241a8186620020da565b90508181036040830152620024308185620020da565b90506200244160608301846200206b565b95945050505050565b600060408201905062002461600083018562001f7d565b6200247060208301846200231c565b9392505050565b6000602082019050818103600083015262002493818462001f8e565b905092915050565b60006040820190508181036000830152620024b7818562001f8e565b9050620024c860208301846200231c565b9392505050565b60006020820190508181036000830152620024eb818462001ff3565b905092915050565b60006020820190506200250a60008301846200206b565b92915050565b60006020820190506200252760008301846200207c565b92915050565b60006020820190506200254460008301846200208d565b92915050565b600060208201905081810360008301526200256681846200209e565b905092915050565b600060408201905081810360008301526200258a81856200209e565b90508181036020830152620025a081846200209e565b90509392505050565b600060e0820190508181036000830152620025c5818a620020da565b90508181036020830152620025db8189620020da565b90508181036040830152620025f18188620020da565b90506200260260608301876200231c565b62002611608083018662001f7d565b6200262060a083018562001f7d565b6200262f60c08301846200206b565b98975050505050505050565b60006020820190508181036000830152620026568162002116565b9050919050565b6000602082019050818103600083015262002678816200214d565b9050919050565b600060208201905081810360008301526200269a8162002184565b9050919050565b60006020820190508181036000830152620026bc81620021bb565b9050919050565b60006020820190508181036000830152620026df818462002264565b905092915050565b6000602082019050620026fe60008301846200231c565b92915050565b6000604051905081810181811067ffffffffffffffff821117156200272857600080fd5b8060405250919050565b600067ffffffffffffffff8211156200274a57600080fd5b602082029050602081019050919050565b600067ffffffffffffffff8211156200277357600080fd5b601f19601f8301169050602081019050919050565b6000602082019050919050565b6000602082019050919050565b600081519050919050565b600081519050919050565b600081519050919050565b600081519050919050565b6000602082019050919050565b6000602082019050919050565b600073ffffffffffffffffffffffffffffffffffffffff82169050919050565b60008115159050919050565b6000819050919050565b600073ffffffffffffffffffffffffffffffffffffffff82169050919050565b60008115159050919050565b6000819050919050565b60006200286182620027e8565b9050919050565b60006200287582620027e8565b9050919050565b82818337600083830152505050565b60005b83811015620028ab5780820151818401526020810190506200288e565b83811115620028bb576000848401525b50505050565b6000601f19601f8301169050919050560060806040526000600c553480156200001657600080fd5b50604051620046e8380380620046e883398101806040528101908080518201929190602001805190602001909291905050506000825182603282111580156200005f5750818111155b80156200006d575060008114155b80156200007b575060008214155b15156200008757600080fd5b600092505b8451831015620001c257600360008685815181101515620000a957fe5b9060200190602002015173ffffffffffffffffffffffffffffffffffffffff1673ffffffffffffffffffffffffffffffffffffffff16815260200190815260200160002060009054906101000a900460ff16158015620001385750600085848151811015156200011557fe5b9060200190602002015173ffffffffffffffffffffffffffffffffffffffff1614155b15156200014457600080fd5b60016003600087868151811015156200015957fe5b9060200190602002015173ffffffffffffffffffffffffffffffffffffffff1673ffffffffffffffffffffffffffffffffffffffff16815260200190815260200160002060006101000a81548160ff02191690831515021790555082806001019350506200008c565b8460049080519060200190620001da929190620001ed565b50836005819055505050505050620002c2565b82805482825590600052602060002090810192821562000269579160200282015b82811115620002685782518260006101000a81548173ffffffffffffffffffffffffffffffffffffffff021916908373ffffffffffffffffffffffffffffffffffffffff160217905550916020019190600101906200020e565b5b5090506200027891906200027c565b5090565b620002bf91905b80821115620002bb57600081816101000a81549073ffffffffffffffffffffffffffffffffffffffff02191690555060010162000283565b5090565b90565b61441680620002d26000396000f3006080604052600436106101c2576000357c0100000000000000000000000000000000000000000000000000000000900463ffffffff168063025e7c27146101c7578063173825d914610234578063180aedf3146102775780631d43b6531461034257806320913da5146103a357806320ea8d86146103da57806321ed0f64146104075780632f54bf6e146104345780633411c81c1461048f5780633b3875b0146104f45780633efaea1f146105ac5780634c5d8a0f1461061f578063547415251461064a57806354879918146106995780636b832070146106f05780637065cb481461080f578063784547a7146108525780638b51d13f146108975780639047bf58146108d857806393894630146109035780639ace38c2146109a9578063a0e67e2b14610a94578063a1c0d32f14610b00578063a8abe69a14610b2d578063a9c4847314610bd1578063b5dc40c314610c44578063b77bf60014610cc6578063ba51a6df14610cf1578063c01a8c8414610d1e578063c3b2d07a14610d4b578063d74f8edd14610f11578063dc8452cd14610f3c578063e20056e614610f67578063ee22610b14610fca578063f170e58c14610ff7578063f475b5df14611120575b600080fd5b3480156101d357600080fd5b506101f2600480360381019080803590602001909291905050506111c6565b604051808273ffffffffffffffffffffffffffffffffffffffff1673ffffffffffffffffffffffffffffffffffffffff16815260200191505060405180910390f35b34801561024057600080fd5b50610275600480360381019080803573ffffffffffffffffffffffffffffffffffffffff169060200190929190505050611204565b005b34801561028357600080fd5b506102a26004803603810190808035906020019092919050505061149d565b604051808873ffffffffffffffffffffffffffffffffffffffff1673ffffffffffffffffffffffffffffffffffffffff1681526020018773ffffffffffffffffffffffffffffffffffffffff1673ffffffffffffffffffffffffffffffffffffffff168152602001868152602001858152602001848152602001831515151581526020018215151515815260200197505050505050505060405180910390f35b34801561034e57600080fd5b5061038d600480360381019080803573ffffffffffffffffffffffffffffffffffffffff16906020019092919080359060200190929190505050611539565b6040518082815260200191505060405180910390f35b3480156103af57600080fd5b506103d8600480360381019080803590602001909291908035906020019092919050505061158c565b005b3480156103e657600080fd5b50610405600480360381019080803590602001909291905050506119ab565b005b34801561041357600080fd5b5061043260048036038101908080359060200190929190505050611b54565b005b34801561044057600080fd5b50610475600480360381019080803573ffffffffffffffffffffffffffffffffffffffff169060200190929190505050611d1c565b604051808215151515815260200191505060405180910390f35b34801561049b57600080fd5b506104da60048036038101908080359060200190929190803573ffffffffffffffffffffffffffffffffffffffff169060200190929190505050611d3c565b604051808215151515815260200191505060405180910390f35b34801561050057600080fd5b50610596600480360381019080803573ffffffffffffffffffffffffffffffffffffffff16906020019092919080359060200190929190803590602001908201803590602001908080602002602001604051908101604052809392919081815260200183836020028082843782019150505050505091929192908035906020019092919080359060200190929190505050611d6b565b6040518082815260200191505060405180910390f35b3480156105b857600080fd5b5061061d60048036038101908080359060200190929190803590602001908201803590602001908080601f01602080910402602001604051908101604052809392919081815260200183838082843782019150505050505091929192905050506120b6565b005b34801561062b57600080fd5b506106346120ba565b6040518082815260200191505060405180910390f35b34801561065657600080fd5b506106836004803603810190808035151590602001909291908035151590602001909291905050506120c0565b6040518082815260200191505060405180910390f35b3480156106a557600080fd5b506106ae612154565b604051808273ffffffffffffffffffffffffffffffffffffffff1673ffffffffffffffffffffffffffffffffffffffff16815260200191505060405180910390f35b3480156106fc57600080fd5b5061080d600480360381019080803573ffffffffffffffffffffffffffffffffffffffff169060200190929190803590602001908201803590602001908080601f0160208091040260200160405190810160405280939291908181526020018383808284378201915050505050509192919290803590602001908201803590602001908080601f0160208091040260200160405190810160405280939291908181526020018383808284378201915050505050509192919290803590602001908201803590602001908080601f016020809104026020016040519081016040528093929190818152602001838380828437820191505050505050919291929080359060200190929190505050612179565b005b34801561081b57600080fd5b50610850600480360381019080803573ffffffffffffffffffffffffffffffffffffffff1690602001909291905050506123c1565b005b34801561085e57600080fd5b5061087d600480360381019080803590602001909291905050506125c6565b604051808215151515815260200191505060405180910390f35b3480156108a357600080fd5b506108c2600480360381019080803590602001909291905050506126ab565b6040518082815260200191505060405180910390f35b3480156108e457600080fd5b506108ed612776565b6040518082815260200191505060405180910390f35b34801561090f57600080fd5b5061092e6004803603810190808035906020019092919050505061277c565b6040518080602001828103825283818151815260200191508051906020019080838360005b8381101561096e578082015181840152602081019050610953565b50505050905090810190601f16801561099b5780820380516001836020036101000a031916815260200191505b509250505060405180910390f35b3480156109b557600080fd5b506109d460048036038101908080359060200190929190505050612834565b604051808573ffffffffffffffffffffffffffffffffffffffff1673ffffffffffffffffffffffffffffffffffffffff1681526020018481526020018060200183151515158152602001828103825284818151815260200191508051906020019080838360005b83811015610a56578082015181840152602081019050610a3b565b50505050905090810190601f168015610a835780820380516001836020036101000a031916815260200191505b509550505050505060405180910390f35b348015610aa057600080fd5b50610aa9612929565b6040518080602001828103825283818151815260200191508051906020019060200280838360005b83811015610aec578082015181840152602081019050610ad1565b505050509050019250505060405180910390f35b348015610b0c57600080fd5b50610b2b600480360381019080803590602001909291905050506129b7565b005b348015610b3957600080fd5b50610b7a6004803603810190808035906020019092919080359060200190929190803515159060200190929190803515159060200190929190505050612cdb565b6040518080602001828103825283818151815260200191508051906020019060200280838360005b83811015610bbd578082015181840152602081019050610ba2565b505050509050019250505060405180910390f35b348015610bdd57600080fd5b50610c4260048036038101908080359060200190929190803590602001908201803590602001908080601f0160208091040260200160405190810160405280939291908181526020018383808284378201915050505050509192919290505050612e4e565b005b348015610c5057600080fd5b50610c6f60048036038101908080359060200190929190505050612fcc565b6040518080602001828103825283818151815260200191508051906020019060200280838360005b83811015610cb2578082015181840152602081019050610c97565b505050509050019250505060405180910390f35b348015610cd257600080fd5b50610cdb613209565b6040518082815260200191505060405180910390f35b348015610cfd57600080fd5b50610d1c6004803603810190808035906020019092919050505061320f565b005b348015610d2a57600080fd5b50610d49600480360381019080803590602001909291905050506132c9565b005b348015610d5757600080fd5b50610d76600480360381019080803590602001909291905050506134a8565b604051808873ffffffffffffffffffffffffffffffffffffffff1673ffffffffffffffffffffffffffffffffffffffff16815260200180602001806020018060200187815260200186815260200185815260200184810384528a818151815260200191508051906020019080838360005b83811015610e02578082015181840152602081019050610de7565b50505050905090810190601f168015610e2f5780820380516001836020036101000a031916815260200191505b50848103835289818151815260200191508051906020019080838360005b83811015610e68578082015181840152602081019050610e4d565b50505050905090810190601f168015610e955780820380516001836020036101000a031916815260200191505b50848103825288818151815260200191508051906020019080838360005b83811015610ece578082015181840152602081019050610eb3565b50505050905090810190601f168015610efb5780820380516001836020036101000a031916815260200191505b509a505050505050505050505060405180910390f35b348015610f1d57600080fd5b50610f266136d2565b6040518082815260200191505060405180910390f35b348015610f4857600080fd5b50610f516136d7565b6040518082815260200191505060405180910390f35b348015610f7357600080fd5b50610fc8600480360381019080803573ffffffffffffffffffffffffffffffffffffffff169060200190929190803573ffffffffffffffffffffffffffffffffffffffff1690602001909291905050506136dd565b005b348015610fd657600080fd5b50610ff5600480360381019080803590602001909291905050506139f2565b005b34801561100357600080fd5b5061111e60048036038101908080359060200190929190803573ffffffffffffffffffffffffffffffffffffffff169060200190929190803590602001908201803590602001908080601f0160208091040260200160405190810160405280939291908181526020018383808284378201915050505050509192919290803590602001908201803590602001908080601f0160208091040260200160405190810160405280939291908181526020018383808284378201915050505050509192919290803590602001908201803590602001908080601f016020809104026020016040519081016040528093929190818152602001838380828437820191505050505050919291929080359060200190929190505050613c9c565b005b34801561112c57600080fd5b5061114b60048036038101908080359060200190929190505050613e95565b6040518080602001828103825283818151815260200191508051906020019080838360005b8381101561118b578082015181840152602081019050611170565b50505050905090810190601f1680156111b85780820380516001836020036101000a031916815260200191505b509250505060405180910390f35b6004818154811015156111d557fe5b906000526020600020016000915054906101000a900473ffffffffffffffffffffffffffffffffffffffff1681565b60003073ffffffffffffffffffffffffffffffffffffffff163373ffffffffffffffffffffffffffffffffffffffff1614151561124057600080fd5b81600360008273ffffffffffffffffffffffffffffffffffffffff1673ffffffffffffffffffffffffffffffffffffffff16815260200190815260200160002060009054906101000a900460ff16151561129957600080fd5b6000600360008573ffffffffffffffffffffffffffffffffffffffff1673ffffffffffffffffffffffffffffffffffffffff16815260200190815260200160002060006101000a81548160ff021916908315150217905550600091505b60016004805490500382101561141e578273ffffffffffffffffffffffffffffffffffffffff1660048381548110151561132c57fe5b9060005260206000200160009054906101000a900473ffffffffffffffffffffffffffffffffffffffff1673ffffffffffffffffffffffffffffffffffffffff16141561141157600460016004805490500381548110151561138a57fe5b9060005260206000200160009054906101000a900473ffffffffffffffffffffffffffffffffffffffff166004838154811015156113c457fe5b9060005260206000200160006101000a81548173ffffffffffffffffffffffffffffffffffffffff021916908373ffffffffffffffffffffffffffffffffffffffff16021790555061141e565b81806001019250506112f6565b6001600481818054905003915081611436919061412e565b5060048054905060055411156114555761145460048054905061320f565b5b8273ffffffffffffffffffffffffffffffffffffffff167f8001553a916ef2f495d26a907cc54d96ed840d7bda71e73194bf5a9df7a76b9060405160405180910390a2505050565b60076020528060005260406000206000915090508060000160009054906101000a900473ffffffffffffffffffffffffffffffffffffffff16908060010160009054906101000a900473ffffffffffffffffffffffffffffffffffffffff16908060020154908060030154908060040154908060070160009054906101000a900460ff16908060070160019054906101000a900460ff16905087565b600061157b83836040805190810160405280600281526020017f3078000000000000000000000000000000000000000000000000000000000000815250613f45565b9050611586816132c9565b92915050565b6000803073ffffffffffffffffffffffffffffffffffffffff163373ffffffffffffffffffffffffffffffffffffffff161415156115c957600080fd5b33600360008273ffffffffffffffffffffffffffffffffffffffff1673ffffffffffffffffffffffffffffffffffffffff16815260200190815260200160002060009054906101000a900460ff16151561162257600080fd5b6007600086815260200190815260200160002092503373ffffffffffffffffffffffffffffffffffffffff168360000160009054906101000a900473ffffffffffffffffffffffffffffffffffffffff1673ffffffffffffffffffffffffffffffffffffffff16141515611724576040517f08c379a00000000000000000000000000000000000000000000000000000000081526004018080602001828103825260288152602001807f4f6e6c792074686520656d706c6f7965722063616e20617070726f7665206d6981526020017f6c6573746f6e657300000000000000000000000000000000000000000000000081525060400191505060405180910390fd5b8260070160009054906101000a900460ff1615156117aa576040517f08c379a00000000000000000000000000000000000000000000000000000000081526004018080602001828103825260118152602001807f4a6f62206973206e6f742061637469766500000000000000000000000000000081525060200191505060405180910390fd5b82600601848154811015156117bb57fe5b90600052602060002090602091828204019190069054906101000a900460ff16151515611850576040517f08c379a000000000000000000000000000000000000000000000000000000000815260040180806020018281038252601a8152602001807f4d696c6573746f6e6520616c726561647920617070726f76656400000000000081525060200191505060405180910390fd5b6001836006018581548110151561186357fe5b90600052602060002090602091828204019190066101000a81548160ff021916908315150217905550826005018481548110151561189d57fe5b90600052602060002001549150813073ffffffffffffffffffffffffffffffffffffffff163110151515611939576040517f08c379a000000000000000000000000000000000000000000000000000000000815260040180806020018281038252601c8152602001807f496e73756666696369656e742066756e647320696e20657363726f770000000081525060200191505060405180910390fd5b8260010160009054906101000a900473ffffffffffffffffffffffffffffffffffffffff1673ffffffffffffffffffffffffffffffffffffffff166108fc839081150290604051600060405180830381858888f193505050501580156119a3573d6000803e3d6000fd5b505050505050565b33600360008273ffffffffffffffffffffffffffffffffffffffff1673ffffffffffffffffffffffffffffffffffffffff16815260200190815260200160002060009054906101000a900460ff161515611a0457600080fd5b81336002600083815260200190815260200160002060008273ffffffffffffffffffffffffffffffffffffffff1673ffffffffffffffffffffffffffffffffffffffff16815260200190815260200160002060009054906101000a900460ff161515611a6f57600080fd5b836001600082815260200190815260200160002060030160009054906101000a900460ff16151515611aa057600080fd5b60006002600087815260200190815260200160002060003373ffffffffffffffffffffffffffffffffffffffff1673ffffffffffffffffffffffffffffffffffffffff16815260200190815260200160002060006101000a81548160ff021916908315150217905550843373ffffffffffffffffffffffffffffffffffffffff167ff6a317157440607f36269043eb55f1287a5a19ba2216afeab88cd46cbcfb88e960405160405180910390a35050505050565b3073ffffffffffffffffffffffffffffffffffffffff163373ffffffffffffffffffffffffffffffffffffffff16141515611b8e57600080fd5b33600360008273ffffffffffffffffffffffffffffffffffffffff1673ffffffffffffffffffffffffffffffffffffffff16815260200190815260200160002060009054906101000a900460ff161515611be757600080fd5b81611bf181614098565b1515611c65576040517f08c379a00000000000000000000000000000000000000000000000000000000081526004018080602001828103825260178152602001807f456d706c6f796565204e6f74205265676973746572656400000000000000000081525060200191505060405180910390fd5b6001600c5403600c81905550600a600084815260200190815260200160002060040154600b5403600b81905550600a6000848152602001908152602001600020600080820160006101000a81549073ffffffffffffffffffffffffffffffffffffffff0219169055600182016000611cdd919061415a565b600282016000611ced919061415a565b600382016000611cfd919061415a565b6004820160009055600582016000905560068201600090555050505050565b60036020528060005260406000206000915054906101000a900460ff1681565b60026020528160005260406000206020528060005260406000206000915091509054906101000a900460ff1681565b6000803073ffffffffffffffffffffffffffffffffffffffff163373ffffffffffffffffffffffffffffffffffffffff16141515611da857600080fd5b600073ffffffffffffffffffffffffffffffffffffffff168773ffffffffffffffffffffffffffffffffffffffff1614151515611e4d576040517f08c379a00000000000000000000000000000000000000000000000000000000081526004018080602001828103825260168152602001807f496e76616c696420776f726b657220616464726573730000000000000000000081525060200191505060405180910390fd5b600086111515611ec5576040517f08c379a000000000000000000000000000000000000000000000000000000000815260040180806020018281038252601e8152602001807f457363726f7720616d6f756e74206d75737420626520706f736974697665000081525060200191505060405180910390fd5b60008551111515611f64576040517f08c379a00000000000000000000000000000000000000000000000000000000081526004018080602001828103825260248152602001807f5468657265206d757374206265206174206c65617374206f6e65206d696c657381526020017f746f6e650000000000000000000000000000000000000000000000000000000081525060400191505060405180910390fd5b60086000815480929190600101919050559150600760008381526020019081526020016000209050338160000160006101000a81548173ffffffffffffffffffffffffffffffffffffffff021916908373ffffffffffffffffffffffffffffffffffffffff160217905550868160010160006101000a81548173ffffffffffffffffffffffffffffffffffffffff021916908373ffffffffffffffffffffffffffffffffffffffff160217905550858160020181905550838160030181905550828160040181905550848160050190805190602001906120459291906141a2565b5084516040519080825280602002602001820160405280156120765781602001602082028038833980820191505090505b5081600601908051906020019061208e9291906141ef565b5060018160070160006101000a81548160ff0219169083151502179055505095945050505050565b5050565b60085481565b600080600090505b60065481101561214d5783801561210057506001600082815260200190815260200160002060030160009054906101000a900460ff16155b80612134575082801561213357506001600082815260200190815260200160002060030160009054906101000a900460ff165b5b15612140576001820191505b80806001019150506120c8565b5092915050565b6000809054906101000a900473ffffffffffffffffffffffffffffffffffffffff1681565b60003073ffffffffffffffffffffffffffffffffffffffff163373ffffffffffffffffffffffffffffffffffffffff161415156121b557600080fd5b33600360008273ffffffffffffffffffffffffffffffffffffffff1673ffffffffffffffffffffffffffffffffffffffff16815260200190815260200160002060009054906101000a900460ff16151561220e57600080fd5b6001831115156122ac576040517f08c379a00000000000000000000000000000000000000000000000000000000081526004018080602001828103825260218152602001807f4f6e6c79206f6e6520636f6d70616e7920666f72206f6e6520636f6e7472616381526020017f740000000000000000000000000000000000000000000000000000000000000081525060400191505060405180910390fd5b600960008481526020019081526020016000209150868260000160006101000a81548173ffffffffffffffffffffffffffffffffffffffff021916908373ffffffffffffffffffffffffffffffffffffffff1602179055508582600101908051906020019061231c929190614295565b5084826002019080519060200190612335929190614295565b508382600301908051906020019061234e929190614295565b50338260040160006101000a81548173ffffffffffffffffffffffffffffffffffffffff021916908373ffffffffffffffffffffffffffffffffffffffff16021790555042826005018190555060008260060160006101000a81548160ff02191690831515021790555050505050505050565b3073ffffffffffffffffffffffffffffffffffffffff163373ffffffffffffffffffffffffffffffffffffffff161415156123fb57600080fd5b80600360008273ffffffffffffffffffffffffffffffffffffffff1673ffffffffffffffffffffffffffffffffffffffff16815260200190815260200160002060009054906101000a900460ff1615151561245557600080fd5b8160008173ffffffffffffffffffffffffffffffffffffffff161415151561247c57600080fd5b600160048054905001600554603282111580156124995750818111155b80156124a6575060008114155b80156124b3575060008214155b15156124be57600080fd5b6001600360008773ffffffffffffffffffffffffffffffffffffffff1673ffffffffffffffffffffffffffffffffffffffff16815260200190815260200160002060006101000a81548160ff02191690831515021790555060048590806001815401808255809150509060018203906000526020600020016000909192909190916101000a81548173ffffffffffffffffffffffffffffffffffffffff021916908373ffffffffffffffffffffffffffffffffffffffff160217905550508473ffffffffffffffffffffffffffffffffffffffff167ff39e6e1eb0edcf53c221607b54b00cd28f3196fed0a24994dc308b8f611b682d60405160405180910390a25050505050565b6000806000809150600090505b6004805490508110156126a35760026000858152602001908152602001600020600060048381548110151561260457fe5b9060005260206000200160009054906101000a900473ffffffffffffffffffffffffffffffffffffffff1673ffffffffffffffffffffffffffffffffffffffff1673ffffffffffffffffffffffffffffffffffffffff16815260200190815260200160002060009054906101000a900460ff1615612683576001820191505b60055482141561269657600192506126a4565b80806001019150506125d3565b5b5050919050565b600080600090505b600480549050811015612770576002600084815260200190815260200160002060006004838154811015156126e457fe5b9060005260206000200160009054906101000a900473ffffffffffffffffffffffffffffffffffffffff1673ffffffffffffffffffffffffffffffffffffffff1673ffffffffffffffffffffffffffffffffffffffff16815260200190815260200160002060009054906101000a900460ff1615612763576001820191505b80806001019150506126b3565b50919050565b600c5481565b6060600960008381526020019081526020016000206001018054600181600116156101000203166002900480601f0160208091040260200160405190810160405280929190818152602001828054600181600116156101000203166002900480156128285780601f106127fd57610100808354040283529160200191612828565b820191906000526020600020905b81548152906001019060200180831161280b57829003601f168201915b50505050509050919050565b60016020528060005260406000206000915090508060000160009054906101000a900473ffffffffffffffffffffffffffffffffffffffff1690806001015490806002018054600181600116156101000203166002900480601f01602080910402602001604051908101604052809291908181526020018280546001816001161561010002031660029004801561290c5780601f106128e15761010080835404028352916020019161290c565b820191906000526020600020905b8154815290600101906020018083116128ef57829003601f168201915b5050505050908060030160009054906101000a900460ff16905084565b606060048054806020026020016040519081016040528092919081815260200182805480156129ad57602002820191906000526020600020905b8160009054906101000a900473ffffffffffffffffffffffffffffffffffffffff1673ffffffffffffffffffffffffffffffffffffffff1681526020019060010190808311612963575b5050505050905090565b6000803073ffffffffffffffffffffffffffffffffffffffff163373ffffffffffffffffffffffffffffffffffffffff161415156129f457600080fd5b6007600084815260200190815260200160002091508160070160009054906101000a900460ff161515612a8f576040517f08c379a00000000000000000000000000000000000000000000000000000000081526004018080602001828103825260118152602001807f4a6f62206973206e6f742061637469766500000000000000000000000000000081525060200191505060405180910390fd5b3373ffffffffffffffffffffffffffffffffffffffff168260000160009054906101000a900473ffffffffffffffffffffffffffffffffffffffff1673ffffffffffffffffffffffffffffffffffffffff161480612b3c57503373ffffffffffffffffffffffffffffffffffffffff168260010160009054906101000a900473ffffffffffffffffffffffffffffffffffffffff1673ffffffffffffffffffffffffffffffffffffffff16145b1515612bd6576040517f08c379a000000000000000000000000000000000000000000000000000000000815260040180806020018281038252602c8152602001807f4f6e6c7920656d706c6f796572206f7220776f726b65722063616e20636f6d7081526020017f6c65746520746865206a6f62000000000000000000000000000000000000000081525060400191505060405180910390fd5b600090505b8160060180549050811015612c9c578160060181815481101515612bfb57fe5b90600052602060002090602091828204019190069054906101000a900460ff161515612c8f576040517f08c379a000000000000000000000000000000000000000000000000000000000815260040180806020018281038252601f8152602001807f416c6c206d696c6573746f6e6573206d75737420626520617070726f7665640081525060200191505060405180910390fd5b8080600101915050612bdb565b60018260070160016101000a81548160ff02191690831515021790555060008260070160006101000a81548160ff021916908315150217905550505050565b606080600080600654604051908082528060200260200182016040528015612d125781602001602082028038833980820191505090505b50925060009150600090505b600654811015612dc057858015612d5657506001600082815260200190815260200160002060030160009054906101000a900460ff16155b80612d8a5750848015612d8957506001600082815260200190815260200160002060030160009054906101000a900460ff165b5b15612db357808383815181101515612d9e57fe5b90602001906020020181815250506001820191505b8080600101915050612d1e565b878703604051908082528060200260200182016040528015612df15781602001602082028038833980820191505090505b5093508790505b86811015612e43578281815181101515612e0e57fe5b9060200190602002015184898303815181101515612e2857fe5b90602001906020020181815250508080600101915050612df8565b505050949350505050565b3073ffffffffffffffffffffffffffffffffffffffff163373ffffffffffffffffffffffffffffffffffffffff16141515612e8857600080fd5b33600360008273ffffffffffffffffffffffffffffffffffffffff1673ffffffffffffffffffffffffffffffffffffffff16815260200190815260200160002060009054906101000a900460ff161515612ee157600080fd5b6007600084815260200190815260200160002060070160009054906101000a900460ff161515612f9f576040517f08c379a00000000000000000000000000000000000000000000000000000000081526004018080602001828103825260258152602001807f4a6f62206d7573742062652061637469766520746f2073746f726520646f637581526020017f6d656e747300000000000000000000000000000000000000000000000000000081525060400191505060405180910390fd5b81600d60008581526020019081526020016000209080519060200190612fc6929190614295565b50505050565b6060806000806004805490506040519080825280602002602001820160405280156130065781602001602082028038833980820191505090505b50925060009150600090505b6004805490508110156131535760026000868152602001908152602001600020600060048381548110151561304357fe5b9060005260206000200160009054906101000a900473ffffffffffffffffffffffffffffffffffffffff1673ffffffffffffffffffffffffffffffffffffffff1673ffffffffffffffffffffffffffffffffffffffff16815260200190815260200160002060009054906101000a900460ff1615613146576004818154811015156130ca57fe5b9060005260206000200160009054906101000a900473ffffffffffffffffffffffffffffffffffffffff16838381518110151561310357fe5b9060200190602002019073ffffffffffffffffffffffffffffffffffffffff16908173ffffffffffffffffffffffffffffffffffffffff16815250506001820191505b8080600101915050613012565b816040519080825280602002602001820160405280156131825781602001602082028038833980820191505090505b509350600090505b818110156132015782818151811015156131a057fe5b9060200190602002015184828151811015156131b857fe5b9060200190602002019073ffffffffffffffffffffffffffffffffffffffff16908173ffffffffffffffffffffffffffffffffffffffff1681525050808060010191505061318a565b505050919050565b60065481565b3073ffffffffffffffffffffffffffffffffffffffff163373ffffffffffffffffffffffffffffffffffffffff1614151561324957600080fd5b60048054905081603282111580156132615750818111155b801561326e575060008114155b801561327b575060008214155b151561328657600080fd5b826005819055507fa3f1ee9126a074d9326c682f561767f710e927faa811f7a99829d49dc421797a836040518082815260200191505060405180910390a1505050565b33600360008273ffffffffffffffffffffffffffffffffffffffff1673ffffffffffffffffffffffffffffffffffffffff16815260200190815260200160002060009054906101000a900460ff16151561332257600080fd5b8160006001600083815260200190815260200160002060000160009054906101000a900473ffffffffffffffffffffffffffffffffffffffff1673ffffffffffffffffffffffffffffffffffffffff161415151561337f57600080fd5b82336002600083815260200190815260200160002060008273ffffffffffffffffffffffffffffffffffffffff1673ffffffffffffffffffffffffffffffffffffffff16815260200190815260200160002060009054906101000a900460ff161515156133eb57600080fd5b60016002600087815260200190815260200160002060003373ffffffffffffffffffffffffffffffffffffffff1673ffffffffffffffffffffffffffffffffffffffff16815260200190815260200160002060006101000a81548160ff021916908315150217905550843373ffffffffffffffffffffffffffffffffffffffff167f4a504a94899432a9846e1aa406dceb1bcfd538bb839071d49d1e5e23f5be30ef60405160405180910390a36134a1856139f2565b5050505050565b600a6020528060005260406000206000915090508060000160009054906101000a900473ffffffffffffffffffffffffffffffffffffffff1690806001018054600181600116156101000203166002900480601f01602080910402602001604051908101604052809291908181526020018280546001816001161561010002031660029004801561357a5780601f1061354f5761010080835404028352916020019161357a565b820191906000526020600020905b81548152906001019060200180831161355d57829003601f168201915b505050505090806002018054600181600116156101000203166002900480601f0160208091040260200160405190810160405280929190818152602001828054600181600116156101000203166002900480156136185780601f106135ed57610100808354040283529160200191613618565b820191906000526020600020905b8154815290600101906020018083116135fb57829003601f168201915b505050505090806003018054600181600116156101000203166002900480601f0160208091040260200160405190810160405280929190818152602001828054600181600116156101000203166002900480156136b65780601f1061368b576101008083540402835291602001916136b6565b820191906000526020600020905b81548152906001019060200180831161369957829003601f168201915b5050505050908060040154908060050154908060060154905087565b603281565b60055481565b60003073ffffffffffffffffffffffffffffffffffffffff163373ffffffffffffffffffffffffffffffffffffffff1614151561371957600080fd5b82600360008273ffffffffffffffffffffffffffffffffffffffff1673ffffffffffffffffffffffffffffffffffffffff16815260200190815260200160002060009054906101000a900460ff16151561377257600080fd5b82600360008273ffffffffffffffffffffffffffffffffffffffff1673ffffffffffffffffffffffffffffffffffffffff16815260200190815260200160002060009054906101000a900460ff161515156137cc57600080fd5b600092505b6004805490508310156138b5578473ffffffffffffffffffffffffffffffffffffffff1660048481548110151561380457fe5b9060005260206000200160009054906101000a900473ffffffffffffffffffffffffffffffffffffffff1673ffffffffffffffffffffffffffffffffffffffff1614156138a8578360048481548110151561385b57fe5b9060005260206000200160006101000a81548173ffffffffffffffffffffffffffffffffffffffff021916908373ffffffffffffffffffffffffffffffffffffffff1602179055506138b5565b82806001019350506137d1565b6000600360008773ffffffffffffffffffffffffffffffffffffffff1673ffffffffffffffffffffffffffffffffffffffff16815260200190815260200160002060006101000a81548160ff0219169083151502179055506001600360008673ffffffffffffffffffffffffffffffffffffffff1673ffffffffffffffffffffffffffffffffffffffff16815260200190815260200160002060006101000a81548160ff0219169083151502179055508473ffffffffffffffffffffffffffffffffffffffff167f8001553a916ef2f495d26a907cc54d96ed840d7bda71e73194bf5a9df7a76b9060405160405180910390a28373ffffffffffffffffffffffffffffffffffffffff167ff39e6e1eb0edcf53c221607b54b00cd28f3196fed0a24994dc308b8f611b682d60405160405180910390a25050505050565b600033600360008273ffffffffffffffffffffffffffffffffffffffff1673ffffffffffffffffffffffffffffffffffffffff16815260200190815260200160002060009054906101000a900460ff161515613a4d57600080fd5b82336002600083815260200190815260200160002060008273ffffffffffffffffffffffffffffffffffffffff1673ffffffffffffffffffffffffffffffffffffffff16815260200190815260200160002060009054906101000a900460ff161515613ab857600080fd5b846001600082815260200190815260200160002060030160009054906101000a900460ff16151515613ae957600080fd5b613af2866125c6565b15613c945760016000878152602001908152602001600020945060018560030160006101000a81548160ff021916908315150217905550613c118560000160009054906101000a900473ffffffffffffffffffffffffffffffffffffffff16866001015487600201805460018160011615610100020316600290049050886002018054600181600116156101000203166002900480601f016020809104026020016040519081016040528092919081815260200182805460018160011615610100020316600290048015613c075780601f10613bdc57610100808354040283529160200191613c07565b820191906000526020600020905b815481529060010190602001808311613bea57829003601f168201915b5050505050614107565b15613c4857857f33e13ecb54c3076d8e8bb8c2881800a4d972b792045ffae98fdf46df365fed7560405160405180910390a2613c93565b857f526441bb6c1aba3c9a4a6ca1d6545da9c2333c8c48343ef398eb858d72b7923660405160405180910390a260008560030160006101000a81548160ff0219169083151502179055505b5b505050505050565b60003073ffffffffffffffffffffffffffffffffffffffff163373ffffffffffffffffffffffffffffffffffffffff16141515613cd857600080fd5b33600360008273ffffffffffffffffffffffffffffffffffffffff1673ffffffffffffffffffffffffffffffffffffffff16815260200190815260200160002060009054906101000a900460ff161515613d3157600080fd5b87613d3b81614098565b151515613db0576040517f08c379a00000000000000000000000000000000000000000000000000000000081526004018080602001828103825260138152602001807f456d706c6f79656520526567697374657265640000000000000000000000000081525060200191505060405180910390fd5b83600081111515613dc057600080fd5b600c6000815480929190600101919050555084600b5401600b81905550600a60008b81526020019081526020016000209350888460000160006101000a81548173ffffffffffffffffffffffffffffffffffffffff021916908373ffffffffffffffffffffffffffffffffffffffff16021790555086846002019080519060200190613e4d929190614295565b5087846001019080519060200190613e66929190614295565b5085846003019080519060200190613e7f929190614295565b5084846004018190555050505050505050505050565b600d6020528060005260406000206000915090508054600181600116156101000203166002900480601f016020809104026020016040519081016040528092919081815260200182805460018160011615610100020316600290048015613f3d5780601f10613f1257610100808354040283529160200191613f3d565b820191906000526020600020905b815481529060010190602001808311613f2057829003601f168201915b505050505081565b60008360008173ffffffffffffffffffffffffffffffffffffffff1614151515613f6e57600080fd5b60065491506080604051908101604052808673ffffffffffffffffffffffffffffffffffffffff168152602001858152602001848152602001600015158152506001600084815260200190815260200160002060008201518160000160006101000a81548173ffffffffffffffffffffffffffffffffffffffff021916908373ffffffffffffffffffffffffffffffffffffffff16021790555060208201518160010155604082015181600201908051906020019061402e929190614315565b5060608201518160030160006101000a81548160ff0219169083151502179055509050506001600660008282540192505081905550817fc0ba8fe4b176c1714197d43b9cc6bcf797a4a7461c5fe8d0ef6e184ae7601e5160405160405180910390a2509392505050565b60008073ffffffffffffffffffffffffffffffffffffffff16600a600084815260200190815260200160002060000160009054906101000a900473ffffffffffffffffffffffffffffffffffffffff1673ffffffffffffffffffffffffffffffffffffffff1614159050919050565b6000806040516020840160008287838a8c6187965a03f19250505080915050949350505050565b815481835581811115614155578183600052602060002091820191016141549190614395565b5b505050565b50805460018160011615610100020316600290046000825580601f10614180575061419f565b601f01602090049060005260206000209081019061419e9190614395565b5b50565b8280548282559060005260206000209081019282156141de579160200282015b828111156141dd5782518255916020019190600101906141c2565b5b5090506141eb9190614395565b5090565b82805482825590600052602060002090601f016020900481019282156142845791602002820160005b8382111561425557835183826101000a81548160ff0219169083151502179055509260200192600101602081600001049283019260010302614218565b80156142825782816101000a81549060ff0219169055600101602081600001049283019260010302614255565b505b50905061429191906143ba565b5090565b828054600181600116156101000203166002900490600052602060002090601f016020900481019282601f106142d657805160ff1916838001178555614304565b82800160010185558215614304579182015b828111156143035782518255916020019190600101906142e8565b5b5090506143119190614395565b5090565b828054600181600116156101000203166002900490600052602060002090601f016020900481019282601f1061435657805160ff1916838001178555614384565b82800160010185558215614384579182015b82811115614383578251825591602001919060010190614368565b5b5090506143919190614395565b5090565b6143b791905b808211156143b357600081600090555060010161439b565b5090565b90565b6143e791905b808211156143e357600081816101000a81549060ff0219169055506001016143c0565b5090565b905600a165627a7a72305820de50eaa08f3d34b3c67e55eeb520c182d93dcd3989115bcc5884e406d32e105b0029a265627a7a723058203e9092e944a1cd9f1647ace9fbd456fe82390598692c516eae802a787f2095596c6578706572696d656e74616cf50037608060405234801561001057600080fd5b50604051602080610e9f8339810180604052810190808051906020019092919050505080600160006101000a81548173ffffffffffffffffffffffffffffffffffffffff021916908373ffffffffffffffffffffffffffffffffffffffff16021790555050610e1b806100846000396000f30060806040526004361061006d576000357c0100000000000000000000000000000000000000000000000000000000900463ffffffff1680634048a2571461007257806380c8f4fa1461016c57806393ce601f146101d5578063c011b1c314610321578063c45a01551461041b575b600080fd5b34801561007e57600080fd5b506100b3600480360381019080803573ffffffffffffffffffffffffffffffffffffffff169060200190929190505050610472565b604051808473ffffffffffffffffffffffffffffffffffffffff1673ffffffffffffffffffffffffffffffffffffffff1681526020018060200183151515158152602001828103825284818151815260200191508051906020019080838360005b8381101561012f578082015181840152602081019050610114565b50505050905090810190601f16801561015c5780820380516001836020036101000a031916815260200191505b5094505050505060405180910390f35b34801561017857600080fd5b506101d3600480360381019080803590602001908201803590602001908080601f0160208091040260200160405190810160405280939291908181526020018383808284378201915050505050509192919290505050610561565b005b3480156101e157600080fd5b5061031f6004803603810190808035906020019082018035906020019080806020026020016040519081016040528093929190818152602001838360200280828437820191505050505050919291929080359060200190929190803590602001908201803590602001908080601f0160208091040260200160405190810160405280939291908181526020018383808284378201915050505050509192919290803590602001908201803590602001908080601f0160208091040260200160405190810160405280939291908181526020018383808284378201915050505050509192919290803590602001908201803590602001908080601f0160208091040260200160405190810160405280939291908181526020018383808284378201915050505050509192919290803590602001909291905050506107d5565b005b34801561032d57600080fd5b50610362600480360381019080803573ffffffffffffffffffffffffffffffffffffffff169060200190929190505050610b35565b604051808473ffffffffffffffffffffffffffffffffffffffff1673ffffffffffffffffffffffffffffffffffffffff1681526020018060200183151515158152602001828103825284818151815260200191508051906020019080838360005b838110156103de5780820151818401526020810190506103c3565b50505050905090810190601f16801561040b5780820380516001836020036101000a031916815260200191505b5094505050505060405180910390f35b34801561042757600080fd5b50610430610d24565b604051808273ffffffffffffffffffffffffffffffffffffffff1673ffffffffffffffffffffffffffffffffffffffff16815260200191505060405180910390f35b60006020528060005260406000206000915090508060000160009054906101000a900473ffffffffffffffffffffffffffffffffffffffff1690806001018054600181600116156101000203166002900480601f0160208091040260200160405190810160405280929190818152602001828054600181600116156101000203166002900480156105445780601f1061051957610100808354040283529160200191610544565b820191906000526020600020905b81548152906001019060200180831161052757829003601f168201915b5050505050908060020160009054906101000a900460ff16905083565b6000803373ffffffffffffffffffffffffffffffffffffffff1673ffffffffffffffffffffffffffffffffffffffff16815260200190815260200160002060020160009054906101000a900460ff16151515610625576040517f08c379a00000000000000000000000000000000000000000000000000000000081526004018080602001828103825260198152602001807f576f726b657220616c726561647920726567697374657265640000000000000081525060200191505060405180910390fd5b6060604051908101604052803373ffffffffffffffffffffffffffffffffffffffff168152602001828152602001600115158152506000803373ffffffffffffffffffffffffffffffffffffffff1673ffffffffffffffffffffffffffffffffffffffff16815260200190815260200160002060008201518160000160006101000a81548173ffffffffffffffffffffffffffffffffffffffff021916908373ffffffffffffffffffffffffffffffffffffffff16021790555060208201518160010190805190602001906106fb929190610d4a565b5060408201518160020160006101000a81548160ff0219169083151502179055509050503373ffffffffffffffffffffffffffffffffffffffff167fb2bc7d962e634836b6f2383ee5f842b8829c7771d414c3f8862c577f4730a3e8826040518080602001828103825283818151815260200191508051906020019080838360005b8381101561079857808201518184015260208101905061077d565b50505050905090810190601f1680156107c55780820380516001836020036101000a031916815260200191505b509250505060405180910390a250565b6000803373ffffffffffffffffffffffffffffffffffffffff1673ffffffffffffffffffffffffffffffffffffffff16815260200190815260200160002060020160009054906101000a900460ff1615156108be576040517f08c379a00000000000000000000000000000000000000000000000000000000081526004018080602001828103825260278152602001807f4f6e6c79207265676973746572656420776f726b6572732063616e206372656181526020017f7465206a6f62730000000000000000000000000000000000000000000000000081525060400191505060405180910390fd5b600160009054906101000a900473ffffffffffffffffffffffffffffffffffffffff1673ffffffffffffffffffffffffffffffffffffffff16633cf236098787878787876040518763ffffffff167c0100000000000000000000000000000000000000000000000000000000028152600401808060200187815260200180602001806020018060200186815260200185810385528b818151815260200191508051906020019060200280838360005b8381101561098857808201518184015260208101905061096d565b50505050905001858103845289818151815260200191508051906020019080838360005b838110156109c75780820151818401526020810190506109ac565b50505050905090810190601f1680156109f45780820380516001836020036101000a031916815260200191505b50858103835288818151815260200191508051906020019080838360005b83811015610a2d578082015181840152602081019050610a12565b50505050905090810190601f168015610a5a5780820380516001836020036101000a031916815260200191505b50858103825287818151815260200191508051906020019080838360005b83811015610a93578082015181840152602081019050610a78565b50505050905090810190601f168015610ac05780820380516001836020036101000a031916815260200191505b509a50505050505050505050506040805180830381600087803b158015610ae657600080fd5b505af1158015610afa573d6000803e3d6000fd5b505050506040513d6040811015610b1057600080fd5b8101908080519060200190929190805190602001909291905050505050505050505050565b600060606000806000808673ffffffffffffffffffffffffffffffffffffffff1673ffffffffffffffffffffffffffffffffffffffff16815260200190815260200160002060020160009054906101000a900460ff161515610bff576040517f08c379a00000000000000000000000000000000000000000000000000000000081526004018080602001828103825260108152602001807f576f726b6572206e6f7420666f756e640000000000000000000000000000000081525060200191505060405180910390fd5b6000808673ffffffffffffffffffffffffffffffffffffffff1673ffffffffffffffffffffffffffffffffffffffff16815260200190815260200160002090508060000160009054906101000a900473ffffffffffffffffffffffffffffffffffffffff16816001018260020160009054906101000a900460ff16818054600181600116156101000203166002900480601f016020809104026020016040519081016040528092919081815260200182805460018160011615610100020316600290048015610d0f5780601f10610ce457610100808354040283529160200191610d0f565b820191906000526020600020905b815481529060010190602001808311610cf257829003601f168201915b50505050509150935093509350509193909250565b600160009054906101000a900473ffffffffffffffffffffffffffffffffffffffff1681565b828054600181600116156101000203166002900490600052602060002090601f016020900481019282601f10610d8b57805160ff1916838001178555610db9565b82800160010185558215610db9579182015b82811115610db8578251825591602001919060010190610d9d565b5b509050610dc69190610dca565b5090565b610dec91905b80821115610de8576000816000905550600101610dd0565b5090565b905600a165627a7a7230582059e000628cbe17c150e4aa44c207f6a1c9375530ffa386f32e67eadbf9f80a710029",
  "linkReferences": {},
  "deployedLinkReferences": {}
}