{
  "_format": "hh-sol-artifact-1",
  "contractName": "AICanister",
  "sourceName": "contracts/canister.sol",
  "abi": [
    {
      "constant": true,
      "inputs": [
        {
          "name": "",
          "type": "uint256"
        }
      ],
      "name": "workerAddresses",
      "outputs": [
        {
          "name": "",
          "type": "address"
        }
      ],
      "payable": false,
      "stateMutability": "view",
      "type": "function"
    },
    {
      "constant": true,
      "inputs": [
        {
          "name": "",
          "type": "uint256"
        }
      ],
      "name": "jobs",
      "outputs": [
        {
          "name": "requiredExperience",
          "type": "uint256"
        },
        {
          "name": "requiredSkillLevel",
          "type": "uint256"
        },
        {
          "name": "isActive",
          "type": "bool"
        }
      ],
      "payable": false,
      "stateMutability": "view",
      "type": "function"
    },
    {
      "constant": false,
      "inputs": [
        {
          "name": "requiredExperience",
          "type": "uint256"
        },
        {
          "name": "requiredSkillLevel",
          "type": "uint256"
        }
      ],
      "name": "createJob",
      "outputs": [],
      "payable": false,
      "stateMutability": "nonpayable",
      "type": "function"
    },
    {
      "constant": false,
      "inputs": [
        {
          "name": "experience",
          "type": "uint256"
        },
        {
          "name": "skillLevel",
          "type": "uint256"
        }
      ],
      "name": "registerWorker",
      "outputs": [],
      "payable": false,
      "stateMutability": "nonpayable",
      "type": "function"
    },
    {
      "constant": true,
      "inputs": [
        {
          "name": "",
          "type": "address"
        }
      ],
      "name": "workers",
      "outputs": [
        {
          "name": "workerAddress",
          "type": "address"
        },
        {
          "name": "experience",
          "type": "uint256"
        },
        {
          "name": "skillLevel",
          "type": "uint256"
        },
        {
          "name": "exists",
          "type": "bool"
        }
      ],
      "payable": false,
      "stateMutability": "view",
      "type": "function"
    },
    {
      "constant": true,
      "inputs": [
        {
          "name": "workerAddress",
          "type": "address"
        },
        {
          "name": "jobId",
          "type": "uint256"
        }
      ],
      "name": "predictWorkerScore",
      "outputs": [
        {
          "name": "",
          "type": "int256"
        }
      ],
      "payable": false,
      "stateMutability": "view",
      "type": "function"
    },
    {
      "constant": true,
      "inputs": [
        {
          "name": "jobId",
          "type": "uint256"
        }
      ],
      "name": "findBestMatch",
      "outputs": [
        {
          "name": "",
          "type": "address"
        }
      ],
      "payable": false,
      "stateMutability": "view",
      "type": "function"
    }
  ],
  "bytecode": "0x608060405260016003556002600455600360055534801561001f57600080fd5b50610c018061002f6000396000f300608060405260043610610083576000357c0100000000000000000000000000000000000000000000000000000000900463ffffffff1680630a318da014610088578063180aedf3146100f5578063220578e3146101485780632d8971e21461017f5780634048a257146101b65780634a2e556714610252578063ebfea8cb146102b3575b600080fd5b34801561009457600080fd5b506100b360048036038101908080359060200190929190505050610320565b604051808273ffffffffffffffffffffffffffffffffffffffff1673ffffffffffffffffffffffffffffffffffffffff16815260200191505060405180910390f35b34801561010157600080fd5b506101206004803603810190808035906020019092919050505061035e565b6040518084815260200183815260200182151515158152602001935050505060405180910390f35b34801561015457600080fd5b5061017d60048036038101908080359060200190929190803590602001909291905050506103a4565b005b34801561018b57600080fd5b506101b4600480360381019080803590602001909291908035906020019092919050505061042b565b005b3480156101c257600080fd5b506101f7600480360381019080803573ffffffffffffffffffffffffffffffffffffffff169060200190929190505050610650565b604051808573ffffffffffffffffffffffffffffffffffffffff1673ffffffffffffffffffffffffffffffffffffffff1681526020018481526020018381526020018215151515815260200194505050505060405180910390f35b34801561025e57600080fd5b5061029d600480360381019080803573ffffffffffffffffffffffffffffffffffffffff169060200190929190803590602001909291905050506106ad565b6040518082815260200191505060405180910390f35b3480156102bf57600080fd5b506102de60048036038101908080359060200190929190505050610976565b604051808273ffffffffffffffffffffffffffffffffffffffff1673ffffffffffffffffffffffffffffffffffffffff16815260200191505060405180910390f35b60028181548110151561032f57fe5b906000526020600020016000915054906101000a900473ffffffffffffffffffffffffffffffffffffffff1681565b60018181548110151561036d57fe5b90600052602060002090600302016000915090508060000154908060010154908060020160009054906101000a900460ff16905083565b60016060604051908101604052808481526020018381526020016001151581525090806001815401808255809150509060018203906000526020600020906003020160009091929091909150600082015181600001556020820151816001015560408201518160020160006101000a81548160ff0219169083151502179055505050505050565b6000803373ffffffffffffffffffffffffffffffffffffffff1673ffffffffffffffffffffffffffffffffffffffff16815260200190815260200160002060030160009054906101000a900460ff161515156104ef576040517f08c379a00000000000000000000000000000000000000000000000000000000081526004018080602001828103825260158152602001807f576f726b657220616c726561647920657869737473000000000000000000000081525060200191505060405180910390fd5b6080604051908101604052803373ffffffffffffffffffffffffffffffffffffffff168152602001838152602001828152602001600115158152506000803373ffffffffffffffffffffffffffffffffffffffff1673ffffffffffffffffffffffffffffffffffffffff16815260200190815260200160002060008201518160000160006101000a81548173ffffffffffffffffffffffffffffffffffffffff021916908373ffffffffffffffffffffffffffffffffffffffff160217905550602082015181600101556040820151816002015560608201518160030160006101000a81548160ff02191690831515021790555090505060023390806001815401808255809150509060018203906000526020600020016000909192909190916101000a81548173ffffffffffffffffffffffffffffffffffffffff021916908373ffffffffffffffffffffffffffffffffffffffff160217905550505050565b60006020528060005260406000206000915090508060000160009054906101000a900473ffffffffffffffffffffffffffffffffffffffff16908060010154908060020154908060030160009054906101000a900460ff16905084565b60006106b7610b70565b6106bf610bb1565b60008060008773ffffffffffffffffffffffffffffffffffffffff1673ffffffffffffffffffffffffffffffffffffffff16815260200190815260200160002060030160009054906101000a900460ff161515610784576040517f08c379a00000000000000000000000000000000000000000000000000000000081526004018080602001828103825260108152602001807f576f726b6572206e6f7420666f756e640000000000000000000000000000000081525060200191505060405180910390fd5b60018581548110151561079357fe5b906000526020600020906003020160020160009054906101000a900460ff161515610826576040517f08c379a00000000000000000000000000000000000000000000000000000000081526004018080602001828103825260118152602001807f4a6f62206973206e6f742061637469766500000000000000000000000000000081525060200191505060405180910390fd5b6000808773ffffffffffffffffffffffffffffffffffffffff1673ffffffffffffffffffffffffffffffffffffffff168152602001908152602001600020608060405190810160405290816000820160009054906101000a900473ffffffffffffffffffffffffffffffffffffffff1673ffffffffffffffffffffffffffffffffffffffff1673ffffffffffffffffffffffffffffffffffffffff16815260200160018201548152602001600282015481526020016003820160009054906101000a900460ff161515151581525050925060018581548110151561090657fe5b90600052602060002090600302016060604051908101604052908160008201548152602001600182015481526020016002820160009054906101000a900460ff16151515158152505091508260400151600554028360200151600454026003540101905080935050505092915050565b60008060008060008060018781548110151561098e57fe5b906000526020600020906003020160020160009054906101000a900460ff161515610a21576040517f08c379a00000000000000000000000000000000000000000000000000000000081526004018080602001828103825260118152602001807f4a6f62206973206e6f742061637469766500000000000000000000000000000081525060200191505060405180910390fd5b7ffffffffffffffffffffffffffffffffffffffffffffffffffffffffffffe7960945060009350600092505b600280549050831015610abe57600283815481101515610a6957fe5b9060005260206000200160009054906101000a900473ffffffffffffffffffffffffffffffffffffffff169150610aa082886106ad565b905084811315610ab1578094508193505b8280600101935050610a4d565b600073ffffffffffffffffffffffffffffffffffffffff168473ffffffffffffffffffffffffffffffffffffffff1614151515610b63576040517f08c379a00000000000000000000000000000000000000000000000000000000081526004018080602001828103825260188152602001807f4e6f207375697461626c6520776f726b657220666f756e64000000000000000081525060200191505060405180910390fd5b8395505050505050919050565b608060405190810160405280600073ffffffffffffffffffffffffffffffffffffffff16815260200160008152602001600081526020016000151581525090565b606060405190810160405280600081526020016000815260200160001515815250905600a165627a7a7230582068c83e2f341e564908515a0b4c1edee8d8db78c2cd490399950284b189e893fd0029",
  "linkReferences": {},
  "deployedLinkReferences": {}
}