{
  "_format": "hh-sol-artifact-1",
  "contractName": "AICanister",
  "sourceName": "contracts/canister.sol",
  "abi": [
    {
      "constant": true,
      "inputs": [],
      "name": "workerInfo",
      "outputs": [
        {
          "name": "",
          "type": "address"
        }
      ],
      "payable": false,
      "stateMutability": "view",
      "type": "function"
    },
    {
      "constant": true,
      "inputs": [
        {
          "name": "",
          "type": "uint256"
        }
      ],
      "name": "workerAddresses",
      "outputs": [
        {
          "name": "",
          "type": "address"
        }
      ],
      "payable": false,
      "stateMutability": "view",
      "type": "function"
    },
    {
      "constant": true,
      "inputs": [
        {
          "name": "",
          "type": "uint256"
        }
      ],
      "name": "jobs",
      "outputs": [
        {
          "name": "requiredExperience",
          "type": "uint256"
        },
        {
          "name": "requiredSkillLevel",
          "type": "uint256"
        },
        {
          "name": "isActive",
          "type": "bool"
        }
      ],
      "payable": false,
      "stateMutability": "view",
      "type": "function"
    },
    {
      "constant": false,
      "inputs": [
        {
          "name": "requiredExperience",
          "type": "uint256"
        },
        {
          "name": "requiredSkillLevel",
          "type": "uint256"
        }
      ],
      "name": "createJob",
      "outputs": [],
      "payable": false,
      "stateMutability": "nonpayable",
      "type": "function"
    },
    {
      "constant": false,
      "inputs": [
        {
          "name": "experience",
          "type": "uint256"
        },
        {
          "name": "skillLevel",
          "type": "uint256"
        }
      ],
      "name": "registerWorker",
      "outputs": [],
      "payable": false,
      "stateMutability": "nonpayable",
      "type": "function"
    },
    {
      "constant": true,
      "inputs": [
        {
          "name": "",
          "type": "address"
        }
      ],
      "name": "workers",
      "outputs": [
        {
          "name": "workerAddress",
          "type": "address"
        },
        {
          "name": "experience",
          "type": "uint256"
        },
        {
          "name": "skillLevel",
          "type": "uint256"
        },
        {
          "name": "exists",
          "type": "bool"
        }
      ],
      "payable": false,
      "stateMutability": "view",
      "type": "function"
    },
    {
      "constant": true,
      "inputs": [
        {
          "name": "workerAddress",
          "type": "address"
        },
        {
          "name": "jobId",
          "type": "uint256"
        }
      ],
      "name": "predictWorkerScore",
      "outputs": [
        {
          "name": "",
          "type": "int256"
        }
      ],
      "payable": false,
      "stateMutability": "view",
      "type": "function"
    },
    {
      "constant": true,
      "inputs": [
        {
          "name": "jobId",
          "type": "uint256"
        }
      ],
      "name": "getJobDetails",
      "outputs": [
        {
          "name": "title",
          "type": "string"
        },
        {
          "name": "description",
          "type": "string"
        },
        {
          "name": "milestones",
          "type": "string"
        },
        {
          "name": "payment",
          "type": "uint256"
        }
      ],
      "payable": false,
      "stateMutability": "view",
      "type": "function"
    },
    {
      "constant": true,
      "inputs": [],
      "name": "factory",
      "outputs": [
        {
          "name": "",
          "type": "address"
        }
      ],
      "payable": false,
      "stateMutability": "view",
      "type": "function"
    },
    {
      "constant": true,
      "inputs": [
        {
          "name": "workerAddress",
          "type": "address"
        }
      ],
      "name": "getWorkerInfo",
      "outputs": [
        {
          "name": "",
          "type": "address"
        },
        {
          "name": "",
          "type": "string"
        },
        {
          "name": "",
          "type": "bool"
        }
      ],
      "payable": false,
      "stateMutability": "view",
      "type": "function"
    },
    {
      "constant": true,
      "inputs": [
        {
          "name": "jobId",
          "type": "uint256"
        }
      ],
      "name": "findBestMatch",
      "outputs": [
        {
          "name": "",
          "type": "address"
        }
      ],
      "payable": false,
      "stateMutability": "view",
      "type": "function"
    },
    {
      "inputs": [
        {
          "name": "_workerInfoAddress",
          "type": "address"
        },
        {
          "name": "_factoryAddress",
          "type": "address"
        }
      ],
      "payable": false,
      "stateMutability": "nonpayable",
      "type": "constructor"
    }
  ],
  "bytecode": "0x608060405260016003556002600455600360055534801561001f57600080fd5b506040516040806113f7833981018060405281019080805190602001909291908051906020019092919050505081600660006101000a81548173ffffffffffffffffffffffffffffffffffffffff021916908373ffffffffffffffffffffffffffffffffffffffff16021790555080600760006101000a81548173ffffffffffffffffffffffffffffffffffffffff021916908373ffffffffffffffffffffffffffffffffffffffff1602179055505050611318806100df6000396000f3006080604052600436106100af576000357c0100000000000000000000000000000000000000000000000000000000900463ffffffff1680630800dee7146100b45780630a318da01461010b578063180aedf314610178578063220578e3146101cb5780632d8971e2146102025780634048a257146102395780634a2e5567146102d55780634cac35c614610336578063c45a0155146104bb578063ce8ef7a614610512578063ebfea8cb1461060c575b600080fd5b3480156100c057600080fd5b506100c9610679565b604051808273ffffffffffffffffffffffffffffffffffffffff1673ffffffffffffffffffffffffffffffffffffffff16815260200191505060405180910390f35b34801561011757600080fd5b506101366004803603810190808035906020019092919050505061069f565b604051808273ffffffffffffffffffffffffffffffffffffffff1673ffffffffffffffffffffffffffffffffffffffff16815260200191505060405180910390f35b34801561018457600080fd5b506101a3600480360381019080803590602001909291905050506106dd565b6040518084815260200183815260200182151515158152602001935050505060405180910390f35b3480156101d757600080fd5b506102006004803603810190808035906020019092919080359060200190929190505050610723565b005b34801561020e57600080fd5b5061023760048036038101908080359060200190929190803590602001909291905050506107aa565b005b34801561024557600080fd5b5061027a600480360381019080803573ffffffffffffffffffffffffffffffffffffffff1690602001909291905050506109cf565b604051808573ffffffffffffffffffffffffffffffffffffffff1673ffffffffffffffffffffffffffffffffffffffff1681526020018481526020018381526020018215151515815260200194505050505060405180910390f35b3480156102e157600080fd5b50610320600480360381019080803573ffffffffffffffffffffffffffffffffffffffff16906020019092919080359060200190929190505050610a2c565b6040518082815260200191505060405180910390f35b34801561034257600080fd5b5061036160048036038101908080359060200190929190505050610cf5565b60405180806020018060200180602001858152602001848103845288818151815260200191508051906020019080838360005b838110156103af578082015181840152602081019050610394565b50505050905090810190601f1680156103dc5780820380516001836020036101000a031916815260200191505b50848103835287818151815260200191508051906020019080838360005b838110156104155780820151818401526020810190506103fa565b50505050905090810190601f1680156104425780820380516001836020036101000a031916815260200191505b50848103825286818151815260200191508051906020019080838360005b8381101561047b578082015181840152602081019050610460565b50505050905090810190601f1680156104a85780820380516001836020036101000a031916815260200191505b5097505050505050505060405180910390f35b3480156104c757600080fd5b506104d0610eef565b604051808273ffffffffffffffffffffffffffffffffffffffff1673ffffffffffffffffffffffffffffffffffffffff16815260200191505060405180910390f35b34801561051e57600080fd5b50610553600480360381019080803573ffffffffffffffffffffffffffffffffffffffff169060200190929190505050610f15565b604051808473ffffffffffffffffffffffffffffffffffffffff1673ffffffffffffffffffffffffffffffffffffffff1681526020018060200183151515158152602001828103825284818151815260200191508051906020019080838360005b838110156105cf5780820151818401526020810190506105b4565b50505050905090810190601f1680156105fc5780820380516001836020036101000a031916815260200191505b5094505050505060405180910390f35b34801561061857600080fd5b506106376004803603810190808035906020019092919050505061108d565b604051808273ffffffffffffffffffffffffffffffffffffffff1673ffffffffffffffffffffffffffffffffffffffff16815260200191505060405180910390f35b600660009054906101000a900473ffffffffffffffffffffffffffffffffffffffff1681565b6002818154811015156106ae57fe5b906000526020600020016000915054906101000a900473ffffffffffffffffffffffffffffffffffffffff1681565b6001818154811015156106ec57fe5b90600052602060002090600302016000915090508060000154908060010154908060020160009054906101000a900460ff16905083565b60016060604051908101604052808481526020018381526020016001151581525090806001815401808255809150509060018203906000526020600020906003020160009091929091909150600082015181600001556020820151816001015560408201518160020160006101000a81548160ff0219169083151502179055505050505050565b6000803373ffffffffffffffffffffffffffffffffffffffff1673ffffffffffffffffffffffffffffffffffffffff16815260200190815260200160002060030160009054906101000a900460ff1615151561086e576040517f08c379a00000000000000000000000000000000000000000000000000000000081526004018080602001828103825260158152602001807f576f726b657220616c726561647920657869737473000000000000000000000081525060200191505060405180910390fd5b6080604051908101604052803373ffffffffffffffffffffffffffffffffffffffff168152602001838152602001828152602001600115158152506000803373ffffffffffffffffffffffffffffffffffffffff1673ffffffffffffffffffffffffffffffffffffffff16815260200190815260200160002060008201518160000160006101000a81548173ffffffffffffffffffffffffffffffffffffffff021916908373ffffffffffffffffffffffffffffffffffffffff160217905550602082015181600101556040820151816002015560608201518160030160006101000a81548160ff02191690831515021790555090505060023390806001815401808255809150509060018203906000526020600020016000909192909190916101000a81548173ffffffffffffffffffffffffffffffffffffffff021916908373ffffffffffffffffffffffffffffffffffffffff160217905550505050565b60006020528060005260406000206000915090508060000160009054906101000a900473ffffffffffffffffffffffffffffffffffffffff16908060010154908060020154908060030160009054906101000a900460ff16905084565b6000610a36611287565b610a3e6112c8565b60008060008773ffffffffffffffffffffffffffffffffffffffff1673ffffffffffffffffffffffffffffffffffffffff16815260200190815260200160002060030160009054906101000a900460ff161515610b03576040517f08c379a00000000000000000000000000000000000000000000000000000000081526004018080602001828103825260108152602001807f576f726b6572206e6f7420666f756e640000000000000000000000000000000081525060200191505060405180910390fd5b600185815481101515610b1257fe5b906000526020600020906003020160020160009054906101000a900460ff161515610ba5576040517f08c379a00000000000000000000000000000000000000000000000000000000081526004018080602001828103825260118152602001807f4a6f62206973206e6f742061637469766500000000000000000000000000000081525060200191505060405180910390fd5b6000808773ffffffffffffffffffffffffffffffffffffffff1673ffffffffffffffffffffffffffffffffffffffff168152602001908152602001600020608060405190810160405290816000820160009054906101000a900473ffffffffffffffffffffffffffffffffffffffff1673ffffffffffffffffffffffffffffffffffffffff1673ffffffffffffffffffffffffffffffffffffffff16815260200160018201548152602001600282015481526020016003820160009054906101000a900460ff1615151515815250509250600185815481101515610c8557fe5b90600052602060002090600302016060604051908101604052908160008201548152602001600182015481526020016002820160009054906101000a900460ff16151515158152505091508260400151600554028360200151600454026003540101905080935050505092915050565b6060806060600060608060606000600760009054906101000a900473ffffffffffffffffffffffffffffffffffffffff1673ffffffffffffffffffffffffffffffffffffffff1663bf22c4578a6040518263ffffffff167c010000000000000000000000000000000000000000000000000000000002815260040180828152602001915050600060405180830381600087803b158015610d9457600080fd5b505af1158015610da8573d6000803e3d6000fd5b505050506040513d6000823e3d601f19601f820116820180604052506080811015610dd257600080fd5b810190808051640100000000811115610dea57600080fd5b82810190506020810184811115610e0057600080fd5b8151856001820283011164010000000082111715610e1d57600080fd5b50509291906020018051640100000000811115610e3957600080fd5b82810190506020810184811115610e4f57600080fd5b8151856001820283011164010000000082111715610e6c57600080fd5b50509291906020018051640100000000811115610e8857600080fd5b82810190506020810184811115610e9e57600080fd5b8151856001820283011164010000000082111715610ebb57600080fd5b5050929190602001805190602001909291905050509350935093509350838383839750975097509750505050509193509193565b600760009054906101000a900473ffffffffffffffffffffffffffffffffffffffff1681565b600060606000600660009054906101000a900473ffffffffffffffffffffffffffffffffffffffff1673ffffffffffffffffffffffffffffffffffffffff1663c011b1c3856040518263ffffffff167c0100000000000000000000000000000000000000000000000000000000028152600401808273ffffffffffffffffffffffffffffffffffffffff1673ffffffffffffffffffffffffffffffffffffffff168152602001915050600060405180830381600087803b158015610fd857600080fd5b505af1158015610fec573d6000803e3d6000fd5b505050506040513d6000823e3d601f19601f82011682018060405250606081101561101657600080fd5b8101908080519060200190929190805164010000000081111561103857600080fd5b8281019050602081018481111561104e57600080fd5b815185600182028301116401000000008211171561106b57600080fd5b5050929190602001805190602001909291905050509250925092509193909250565b6000806000806000806001878154811015156110a557fe5b906000526020600020906003020160020160009054906101000a900460ff161515611138576040517f08c379a00000000000000000000000000000000000000000000000000000000081526004018080602001828103825260118152602001807f4a6f62206973206e6f742061637469766500000000000000000000000000000081525060200191505060405180910390fd5b7ffffffffffffffffffffffffffffffffffffffffffffffffffffffffffffe7960945060009350600092505b6002805490508310156111d55760028381548110151561118057fe5b9060005260206000200160009054906101000a900473ffffffffffffffffffffffffffffffffffffffff1691506111b78288610a2c565b9050848113156111c8578094508193505b8280600101935050611164565b600073ffffffffffffffffffffffffffffffffffffffff168473ffffffffffffffffffffffffffffffffffffffff161415151561127a576040517f08c379a00000000000000000000000000000000000000000000000000000000081526004018080602001828103825260188152602001807f4e6f207375697461626c6520776f726b657220666f756e64000000000000000081525060200191505060405180910390fd5b8395505050505050919050565b608060405190810160405280600073ffffffffffffffffffffffffffffffffffffffff16815260200160008152602001600081526020016000151581525090565b606060405190810160405280600081526020016000815260200160001515815250905600a165627a7a72305820c852c61382f38ea9338a7b06f07cd55bd711ee38c1d59677191cc372c09d230d0029",
  "linkReferences": {},
  "deployedLinkReferences": {}
}